{
  "_format": "hh-sol-artifact-1",
  "contractName": "ArthurFactory",
  "sourceName": "contracts/ArthurFactory.sol",
  "abi": [
    {
      "inputs": [
        {
          "internalType": "address",
          "name": "feeTo_",
          "type": "address"
        }
      ],
      "payable": false,
      "stateMutability": "nonpayable",
      "type": "constructor"
    },
    {
      "anonymous": false,
      "inputs": [
        {
          "indexed": true,
          "internalType": "address",
          "name": "prevOwner",
          "type": "address"
        },
        {
          "indexed": true,
          "internalType": "address",
          "name": "newOwner",
          "type": "address"
        }
      ],
      "name": "FeePercentOwnershipTransferred",
      "type": "event"
    },
    {
      "anonymous": false,
      "inputs": [
        {
          "indexed": true,
          "internalType": "address",
          "name": "prevFeeTo",
          "type": "address"
        },
        {
          "indexed": true,
          "internalType": "address",
          "name": "newFeeTo",
          "type": "address"
        }
      ],
      "name": "FeeToTransferred",
      "type": "event"
    },
    {
      "anonymous": false,
      "inputs": [
        {
          "indexed": false,
          "internalType": "uint256",
          "name": "prevOwnerFeeShare",
          "type": "uint256"
        },
        {
          "indexed": false,
          "internalType": "uint256",
          "name": "ownerFeeShare",
          "type": "uint256"
        }
      ],
      "name": "OwnerFeeShareUpdated",
      "type": "event"
    },
    {
      "anonymous": false,
      "inputs": [
        {
          "indexed": true,
          "internalType": "address",
          "name": "prevOwner",
          "type": "address"
        },
        {
          "indexed": true,
          "internalType": "address",
          "name": "newOwner",
          "type": "address"
        }
      ],
      "name": "OwnershipTransferred",
      "type": "event"
    },
    {
      "anonymous": false,
      "inputs": [
        {
          "indexed": true,
          "internalType": "address",
          "name": "token0",
          "type": "address"
        },
        {
          "indexed": true,
          "internalType": "address",
          "name": "token1",
          "type": "address"
        },
        {
          "indexed": false,
          "internalType": "address",
          "name": "pair",
          "type": "address"
        },
        {
          "indexed": false,
          "internalType": "uint256",
          "name": "length",
          "type": "uint256"
        }
      ],
      "name": "PairCreated",
      "type": "event"
    },
    {
      "anonymous": false,
      "inputs": [
        {
          "indexed": false,
          "internalType": "address",
          "name": "referrer",
          "type": "address"
        },
        {
          "indexed": false,
          "internalType": "uint256",
          "name": "prevReferrerFeeShare",
          "type": "uint256"
        },
        {
          "indexed": false,
          "internalType": "uint256",
          "name": "referrerFeeShare",
          "type": "uint256"
        }
      ],
      "name": "ReferrerFeeShareUpdated",
      "type": "event"
    },
    {
      "anonymous": false,
      "inputs": [
        {
          "indexed": true,
          "internalType": "address",
          "name": "prevOwner",
          "type": "address"
        },
        {
          "indexed": true,
          "internalType": "address",
          "name": "newOwner",
          "type": "address"
        }
      ],
      "name": "SetStableOwnershipTransferred",
      "type": "event"
    },
    {
      "constant": true,
      "inputs": [],
      "name": "OWNER_FEE_SHARE_MAX",
      "outputs": [
        {
          "internalType": "uint256",
          "name": "",
          "type": "uint256"
        }
      ],
      "payable": false,
      "stateMutability": "view",
      "type": "function"
    },
    {
      "constant": true,
      "inputs": [],
      "name": "REFERER_FEE_SHARE_MAX",
      "outputs": [
        {
          "internalType": "uint256",
          "name": "",
          "type": "uint256"
        }
      ],
      "payable": false,
      "stateMutability": "view",
      "type": "function"
    },
    {
      "constant": true,
      "inputs": [
        {
          "internalType": "uint256",
          "name": "",
          "type": "uint256"
        }
      ],
      "name": "allPairs",
      "outputs": [
        {
          "internalType": "address",
          "name": "",
          "type": "address"
        }
      ],
      "payable": false,
      "stateMutability": "view",
      "type": "function"
    },
    {
      "constant": true,
      "inputs": [],
      "name": "allPairsLength",
      "outputs": [
        {
          "internalType": "uint256",
          "name": "",
          "type": "uint256"
        }
      ],
      "payable": false,
      "stateMutability": "view",
      "type": "function"
    },
    {
      "constant": false,
      "inputs": [
        {
          "internalType": "address",
          "name": "tokenA",
          "type": "address"
        },
        {
          "internalType": "address",
          "name": "tokenB",
          "type": "address"
        },
        {
          "internalType": "uint256",
          "name": "timeLock",
          "type": "uint256"
        },
        {
          "internalType": "uint256",
          "name": "startTime",
          "type": "uint256"
        }
      ],
      "name": "createPair",
      "outputs": [
        {
          "internalType": "address",
          "name": "pair",
          "type": "address"
        }
      ],
      "payable": false,
      "stateMutability": "nonpayable",
      "type": "function"
    },
    {
      "constant": true,
      "inputs": [],
      "name": "feeInfo",
      "outputs": [
        {
          "internalType": "uint256",
          "name": "_ownerFeeShare",
          "type": "uint256"
        },
        {
          "internalType": "address",
          "name": "_feeTo",
          "type": "address"
        }
      ],
      "payable": false,
      "stateMutability": "view",
      "type": "function"
    },
    {
      "constant": true,
      "inputs": [],
      "name": "feePercentOwner",
      "outputs": [
        {
          "internalType": "address",
          "name": "",
          "type": "address"
        }
      ],
      "payable": false,
      "stateMutability": "view",
      "type": "function"
    },
    {
      "constant": true,
      "inputs": [],
      "name": "feeTo",
      "outputs": [
        {
          "internalType": "address",
          "name": "",
          "type": "address"
        }
      ],
      "payable": false,
      "stateMutability": "view",
      "type": "function"
    },
    {
      "constant": true,
      "inputs": [
        {
          "internalType": "address",
          "name": "",
          "type": "address"
        },
        {
          "internalType": "address",
          "name": "",
          "type": "address"
        }
      ],
      "name": "getPair",
      "outputs": [
        {
          "internalType": "address",
          "name": "",
          "type": "address"
        }
      ],
      "payable": false,
      "stateMutability": "view",
      "type": "function"
    },
    {
      "constant": true,
      "inputs": [],
      "name": "owner",
      "outputs": [
        {
          "internalType": "address",
          "name": "",
          "type": "address"
        }
      ],
      "payable": false,
      "stateMutability": "view",
      "type": "function"
    },
    {
      "constant": true,
      "inputs": [],
      "name": "ownerFeeShare",
      "outputs": [
        {
          "internalType": "uint256",
          "name": "",
          "type": "uint256"
        }
      ],
      "payable": false,
      "stateMutability": "view",
      "type": "function"
    },
    {
      "constant": true,
      "inputs": [
        {
          "internalType": "address",
          "name": "",
          "type": "address"
        }
      ],
      "name": "referrersFeeShare",
      "outputs": [
        {
          "internalType": "uint256",
          "name": "",
          "type": "uint256"
        }
      ],
      "payable": false,
      "stateMutability": "view",
      "type": "function"
    },
    {
      "constant": false,
      "inputs": [
        {
          "internalType": "address",
          "name": "_feePercentOwner",
          "type": "address"
        }
      ],
      "name": "setFeePercentOwner",
      "outputs": [],
      "payable": false,
      "stateMutability": "nonpayable",
      "type": "function"
    },
    {
      "constant": false,
      "inputs": [
        {
          "internalType": "address",
          "name": "_feeTo",
          "type": "address"
        }
      ],
      "name": "setFeeTo",
      "outputs": [],
      "payable": false,
      "stateMutability": "nonpayable",
      "type": "function"
    },
    {
      "constant": false,
      "inputs": [
        {
          "internalType": "address",
          "name": "_owner",
          "type": "address"
        }
      ],
      "name": "setOwner",
      "outputs": [],
      "payable": false,
      "stateMutability": "nonpayable",
      "type": "function"
    },
    {
      "constant": false,
      "inputs": [
        {
          "internalType": "uint256",
          "name": "newOwnerFeeShare",
          "type": "uint256"
        }
      ],
      "name": "setOwnerFeeShare",
      "outputs": [],
      "payable": false,
      "stateMutability": "nonpayable",
      "type": "function"
    },
    {
      "constant": false,
      "inputs": [
        {
          "internalType": "address",
          "name": "referrer",
          "type": "address"
        },
        {
          "internalType": "uint256",
          "name": "referrerFeeShare",
          "type": "uint256"
        }
      ],
      "name": "setReferrerFeeShare",
      "outputs": [],
      "payable": false,
      "stateMutability": "nonpayable",
      "type": "function"
    },
    {
      "constant": false,
      "inputs": [
        {
          "internalType": "address",
          "name": "_setStableOwner",
          "type": "address"
        }
      ],
      "name": "setSetStableOwner",
      "outputs": [],
      "payable": false,
      "stateMutability": "nonpayable",
      "type": "function"
    },
    {
      "constant": true,
      "inputs": [],
      "name": "setStableOwner",
      "outputs": [
        {
          "internalType": "address",
          "name": "",
          "type": "address"
        }
      ],
      "payable": false,
      "stateMutability": "view",
      "type": "function"
    }
  ],
  "bytecode": "0x608060405261c35060045534801561001657600080fd5b506040516150ef3803806150ef8339818101604052602081101561003957600080fd5b505160008054336001600160a01b0319918216811783556001805483168217905560028054831682179055600380549092166001600160a01b038516179091556040519091907f8be0079c531659141344cd1fd0a4f28419497f9722a3daafe3b4186f6b6457e0908290a360405133906000907ff14fcb76f5835c1d416cc224ffc209c65749cede0d23fd6e6035d4dd1c2e0f8c908290a360405133906000907fabdd76bd5d5532d19d3e93704ac3544f45f03dc956b39995d3436d2d166855e5908290a36040516001600160a01b038216906000907f941bed5eb8a4f7abb41f1a8547c6b5fded98a6fbe47dbd60aee080690de5f0d5908290a350614fab806101446000396000f3fe608060405234801561001057600080fd5b50600436106101215760003560e01c80638692fa7d116100ad578063c1cf3c7f11610071578063c1cf3c7f1461029f578063e6a43905146102cb578063e93f6585146102f9578063f46901ed1461031f578063fc39026a1461034557610121565b80638692fa7d146102235780638da5cb5b1461024957806390fd06871461025157806391b8317814610259578063995b5aae1461027657610121565b80631e3dd18b116100f45780631e3dd18b146101c85780634c217715146101e5578063574f2ba3146101ed57806369c8b572146101f55780637183d47c146101fd57610121565b8063017e7e5814610126578063035f962d1461014a57806313af4035146101865780631850bd76146101ae575b600080fd5b61012e61034d565b604080516001600160a01b039092168252519081900360200190f35b61012e6004803603608081101561016057600080fd5b506001600160a01b0381358116916020810135909116906040810135906060013561035c565b6101ac6004803603602081101561019c57600080fd5b50356001600160a01b03166106e0565b005b6101b66107cd565b60408051918252519081900360200190f35b61012e600480360360208110156101de57600080fd5b50356107d3565b61012e6107fa565b6101b6610809565b6101b661080f565b6101b66004803603602081101561021357600080fd5b50356001600160a01b0316610815565b6101ac6004803603602081101561023957600080fd5b50356001600160a01b0316610827565b61012e610915565b6101b6610924565b6101ac6004803603602081101561026f57600080fd5b503561092b565b61027e610a37565b604080519283526001600160a01b0390911660208301528051918290030190f35b6101ac600480360360408110156102b557600080fd5b506001600160a01b038135169060200135610a4d565b61012e600480360360408110156102e157600080fd5b506001600160a01b0381358116916020013516610b93565b6101ac6004803603602081101561030f57600080fd5b50356001600160a01b0316610bb9565b6101ac6004803603602081101561033557600080fd5b50356001600160a01b0316610ca7565b61012e610d4c565b6003546001600160a01b031681565b6000836001600160a01b0316856001600160a01b031614156103af5760405162461bcd60e51b8152600401808060200182810382526022815260200180614eae6022913960400191505060405180910390fd5b600080856001600160a01b0316876001600160a01b0316106103d25785876103d5565b86865b90925090506001600160a01b038216610435576040805162461bcd60e51b815260206004820152601b60248201527f417274687572466163746f72793a205a45524f5f414444524553530000000000604482015290519081900360640190fd5b6001600160a01b038281166000908152600660209081526040808320858516845290915290205416156104af576040805162461bcd60e51b815260206004820152601a60248201527f417274687572466163746f72793a20504149525f455849535453000000000000604482015290519081900360640190fd5b6060604051806020016104c190610d5b565b6020820181038252601f19601f8201166040525090506000838360405160200180836001600160a01b03166001600160a01b031660601b8152601401826001600160a01b03166001600160a01b031660601b815260140192505050604051602081830303815290604052805190602001209050808251602084016000f594506001600160a01b038516610593576040805162461bcd60e51b8152602060048201526015602482015274105c9d1a1d5c919858dd1bdc9e4e88119052531151605a1b604482015290519081900360640190fd5b6040805163eb990c5960e01b81526001600160a01b0386811660048301528581166024830152604482018a90526064820189905291519187169163eb990c599160848082019260009290919082900301818387803b1580156105f457600080fd5b505af1158015610608573d6000803e3d6000fd5b505050506001600160a01b0384811660008181526006602081815260408084208987168086529083528185208054978d166001600160a01b031998891681179091559383528185208686528352818520805488168517905560078054600181018255958190527fa66cc928b5edb82af9bd49922954155ab7b0942694bea4ce44661d9a8736c68890950180549097168417909655925483519283529082015281517f0d3648bd0f6ba80134a33ba9275ac585d9d315f0ad8355cddefde31afa28d0e9929181900390910190a350505050949350505050565b6000546001600160a01b031633146107295760405162461bcd60e51b8152600401808060200182810382526026815260200180614e886026913960400191505060405180910390fd5b6001600160a01b038116610772576040805162461bcd60e51b815260206004820152601b6024820152600080516020614ed0833981519152604482015290519081900360640190fd5b600080546040516001600160a01b03808516939216917f8be0079c531659141344cd1fd0a4f28419497f9722a3daafe3b4186f6b6457e091a3600080546001600160a01b0319166001600160a01b0392909216919091179055565b614e2081565b600781815481106107e057fe5b6000918252602090912001546001600160a01b0316905081565b6001546001600160a01b031681565b60075490565b60045481565b60056020526000908152604090205481565b6002546001600160a01b031633146108705760405162461bcd60e51b8152600401808060200182810382526021815260200180614f566021913960400191505060405180910390fd5b6001600160a01b0381166108b9576040805162461bcd60e51b815260206004820152601b6024820152600080516020614ed0833981519152604482015290519081900360640190fd5b6002546040516001600160a01b038084169216907fabdd76bd5d5532d19d3e93704ac3544f45f03dc956b39995d3436d2d166855e590600090a3600280546001600160a01b0319166001600160a01b0392909216919091179055565b6000546001600160a01b031681565b620186a081565b6000546001600160a01b031633146109745760405162461bcd60e51b8152600401808060200182810382526026815260200180614e886026913960400191505060405180910390fd5b600081116109b35760405162461bcd60e51b8152600401808060200182810382526033815260200180614f236033913960400191505060405180910390fd5b620186a08111156109f55760405162461bcd60e51b8152600401808060200182810382526033815260200180614ef06033913960400191505060405180910390fd5b600454604080519182526020820183905280517fd739f5afb7778b0c4f4e62b13ac0a94ccc1556dbcb8dc2d0b907daed378e1e239281900390910190a1600455565b60045460035490916001600160a01b0390911690565b6000546001600160a01b03163314610a965760405162461bcd60e51b8152600401808060200182810382526026815260200180614e886026913960400191505060405180910390fd5b6001600160a01b038216610adf576040805162461bcd60e51b815260206004820152601b6024820152600080516020614ed0833981519152604482015290519081900360640190fd5b614e20811115610b205760405162461bcd60e51b8152600401808060200182810382526036815260200180614e526036913960400191505060405180910390fd5b6001600160a01b03821660008181526005602090815260409182902054825193845290830152818101839052517f4deb2bb31aaa8475916c8556f3e3287795da71076b7419d627eeef223b7dcc589181900360600190a16001600160a01b03909116600090815260056020526040902055565b60066020908152600092835260408084209091529082529020546001600160a01b031681565b6000546001600160a01b03163314610c025760405162461bcd60e51b8152600401808060200182810382526026815260200180614e886026913960400191505060405180910390fd5b6001600160a01b038116610c4b576040805162461bcd60e51b815260206004820152601b6024820152600080516020614ed0833981519152604482015290519081900360640190fd5b6001546040516001600160a01b038084169216907ff14fcb76f5835c1d416cc224ffc209c65749cede0d23fd6e6035d4dd1c2e0f8c90600090a3600180546001600160a01b0319166001600160a01b0392909216919091179055565b6000546001600160a01b03163314610cf05760405162461bcd60e51b8152600401808060200182810382526026815260200180614e886026913960400191505060405180910390fd5b6003546040516001600160a01b038084169216907f941bed5eb8a4f7abb41f1a8547c6b5fded98a6fbe47dbd60aee080690de5f0d590600090a3600380546001600160a01b0319166001600160a01b0392909216919091179055565b6002546001600160a01b031681565b6140e980610d698339019056fe60806040526008805461ffff60e01b1916604b60e21b176001600160f01b0316604b60f21b1790556001600f5534801561003857600080fd5b506040514690806052614097823960408051918290036052018220828201825260098352680417274687572204c560bc1b6020938401528151808301835260018152603160f81b908401528151808401919091527f0e27287c8a23f01bdaa9d0ef4f1300b5eb160684bbf13ded77a23fa3b18457d2818301527fc89efdaa54c0f20c7adf612882df0950f5a951637e0307cdcb4c672f298b8bc6606082015260808101949094523060a0808601919091528151808603909101815260c09094019052825192019190912060035550600580546001600160a01b03191633179055613f70806101276000396000f3fe608060405234801561001057600080fd5b50600436106102745760003560e01c806370a0823111610151578063c45a0155116100c3578063dd62ed3e11610087578063dd62ed3e146107a8578063eb990c59146107d6578063ed8d6a2314610812578063f140a35a1461082f578063f39ac11f1461085b578063fff6cae91461088957610274565b8063c45a015514610737578063d085835a1461073f578063d21220a714610747578063d505accf1461074f578063d73792a9146107a057610274565b806395d89b411161011557806395d89b41146106c55780639e548b7f146106cd578063a9059cbb146106d5578063b6200b0714610701578063ba9a7a5614610709578063bc25cf771461071157610274565b806370a082311461062a5780637464fc3d1461065057806378e97925146106585780637ecebe001461066057806389afcb441461068657610274565b806330adf81f116101ea57806348e5d260116101ae57806348e5d26014610519578063518ef5dd1461054257806362ecec031461055f57806367d81740146105675780636a6278421461056f5780636e1fdd7f1461059557610274565b806330adf81f146104db578063313ce567146104e35780633644e515146105015780633b9f1dc0146105095780633ba170771461051157610274565b8063158ef93e1161023c578063158ef93e1461042657806318160ddd1461042e57806323b872dd14610448578063288e5d021461047e5780632fcd1692146104865780633029e5d4146104a557610274565b8063022c0d9f1461027957806306fdde03146103075780630902f1ac14610384578063095ea7b3146103c25780630dfe168114610402575b600080fd5b6103056004803603608081101561028f57600080fd5b8135916020810135916001600160a01b0360408301351691908101906080810160608201356401000000008111156102c657600080fd5b8201836020820111156102d857600080fd5b803590602001918460018302840111640100000000831117156102fa57600080fd5b509092509050610891565b005b61030f610932565b6040805160208082528351818301528351919283929083019185019080838360005b83811015610349578181015183820152602001610331565b50505050905090810190601f1680156103765780820380516001836020036101000a031916815260200191505b509250505060405180910390f35b61038c610957565b604080516001600160701b03958616815293909416602084015261ffff9182168385015216606082015290519081900360800190f35b6103ee600480360360408110156103d857600080fd5b506001600160a01b03813516906020013561098a565b604080519115158252519081900360200190f35b61040a6109a1565b604080516001600160a01b039092168252519081900360200190f35b6103ee6109b0565b6104366109c0565b60408051918252519081900360200190f35b6103ee6004803603606081101561045e57600080fd5b506001600160a01b038135811691602081013590911690604001356109c6565b610436610a9d565b61048e610aa3565b6040805161ffff9092168252519081900360200190f35b610305600480360360608110156104bb57600080fd5b5080351515906001600160701b0360208201358116916040013516610ab4565b610436610d95565b6104eb610db9565b6040805160ff9092168252519081900360200190f35b610436610dbe565b610436610dc4565b610305610dca565b6103056004803603604081101561052f57600080fd5b5061ffff81358116916020013516610f6b565b6103056004803603602081101561055857600080fd5b5035611190565b61048e611336565b610436611347565b6104366004803603602081101561058557600080fd5b50356001600160a01b031661134d565b610305600480360360a08110156105ab57600080fd5b8135916020810135916001600160a01b0360408301351691908101906080810160608201356401000000008111156105e257600080fd5b8201836020820111156105f457600080fd5b8035906020019184600183028401116401000000008311171561061657600080fd5b9193509150356001600160a01b031661164c565b6104366004803603602081101561064057600080fd5b50356001600160a01b03166116f0565b610436611702565b610436611708565b6104366004803603602081101561067657600080fd5b50356001600160a01b031661170e565b6106ac6004803603602081101561069c57600080fd5b50356001600160a01b0316611720565b6040805192835260208301919091528051918290030190f35b61030f611b10565b6103ee611b31565b6103ee600480360360408110156106eb57600080fd5b506001600160a01b038135169060200135611b3a565b6103ee611b47565b610436611b55565b6103056004803603602081101561072757600080fd5b50356001600160a01b0316611b5b565b61040a611ce9565b610436611cf8565b61040a611cfe565b610305600480360360e081101561076557600080fd5b506001600160a01b03813581169160208101359091169060408101359060608101359060ff6080820135169060a08101359060c00135611d0d565b610436611f0f565b610436600480360360408110156107be57600080fd5b506001600160a01b0381358116916020013516611f16565b610305600480360360808110156107ec57600080fd5b506001600160a01b03813581169160208101359091169060408101359060600135611f33565b6103056004803603602081101561082857600080fd5b50356120cf565b6104366004803603604081101561084557600080fd5b50803590602001356001600160a01b0316612275565b6103056004803603604081101561087157600080fd5b506001600160a01b03813581169160200135166122e5565b61030561253d565b610899613d06565b5060408051610100810182526006546001600160a01b039081168252600754166020808301919091528183018890526060820187905260006080830181905260a0830181905260c0830181905260e08301528251601f8501829004820281018201909352838352909161092a91839187918790879081908401838280828437600092018290525092506126db915050565b505050505050565b604051806040016040528060098152602001680417274687572204c560bc1b81525081565b6008546001600160701b0380821692600160701b83049091169161ffff600160e01b8204811692600160f01b9092041690565b60006109973384846130e4565b5060015b92915050565b6006546001600160a01b031681565b600754600160a01b900460ff1681565b60005481565b6001600160a01b038316600090815260026020908152604080832033845290915281205460001914610a87576001600160a01b0384166000908152600260209081526040808320338452909152812054610a26908463ffffffff61314616565b6001600160a01b038616600081815260026020908152604080832033808552908352928190208590558051858152905194955091937f8c5be1e5ebec7d5bd14f71427d1e84f3dd0314c0f7b2291e5b200ac8c7c3b9259281900390910190a3505b610a92848484613196565b5060015b9392505050565b600a5481565b600854600160f01b900461ffff1681565b600f54600114610af9576040805162461bcd60e51b81526020600482015260126024820152600080516020613e9f833981519152604482015290519081900360640190fd5b6000600f5560055460408051637e1c813560e11b815290516001600160a01b039092169163fc39026a91600480820192602092909190829003018186803b158015610b4357600080fd5b505afa158015610b57573d6000803e3d6000fd5b505050506040513d6020811015610b6d57600080fd5b50516001600160a01b03163314610bb55760405162461bcd60e51b8152600401808060200182810382526029815260200180613f136029913960400191505060405180910390fd5b600c54610100900460ff1615610c0a576040805162461bcd60e51b8152602060048201526015602482015274417274687572506169723a20696d6d757461626c6560581b604482015290519081900360640190fd5b600c5460ff1615158315151415610c60576040805162461bcd60e51b8152602060048201526015602482015274417274687572506169723a206e6f2075706461746560581b604482015290519081900360640190fd5b6008546001600160701b038381169116148015610c9157506008546001600160701b03828116600160701b90920416145b610cd7576040805162461bcd60e51b8152602060048201526012602482015271105c9d1a1d5c94185a5c8e8819985a5b195960721b604482015290519081900360640190fd5b600854600090610cfa906001600160701b0380821691600160701b900416613250565b600c546040805160ff90921615158252861515602083015280519293507fb6a86710bde53aa7fb1b3856279e2af5b476d53e2dd0902cf17a0911b5a43a8b92918290030190a1600c805460ff191685158015919091179091558490610d5c5750805b610d67576000610d87565b600854610d87906001600160701b0380821691600160701b900416613409565b600b5550506001600f555050565b7f6e71edae12b1b97f4d1f60370fef10105fa2faae0126114a169c64845d6126c981565b601281565b60035481565b60095481565b600f54600114610e0f576040805162461bcd60e51b81526020600482015260126024820152600080516020613e9f833981519152604482015290519081900360640190fd5b6000600f5560055460408051638da5cb5b60e01b815290516001600160a01b0390921691638da5cb5b91600480820192602092909190829003018186803b158015610e5957600080fd5b505afa158015610e6d573d6000803e3d6000fd5b505050506040513d6020811015610e8357600080fd5b50516001600160a01b03163314610ecf576040805162461bcd60e51b81526020600482018190526024820152600080516020613e4e833981519152604482015290519081900360640190fd5b600c54610100900460ff1615610f2c576040805162461bcd60e51b815260206004820152601d60248201527f417274687572506169723a20616c726561647920696d6d757461626c65000000604482015290519081900360640190fd5b600c805461ff0019166101001790556040517f09122c41ae733a4d7740324d50e35fbd6ee85be3c1312a45596d8045150ab2f290600090a16001600f55565b600f54600114610fb0576040805162461bcd60e51b81526020600482015260126024820152600080516020613e9f833981519152604482015290519081900360640190fd5b6000600f5560055460408051634c21771560e01b815290516001600160a01b0390921691634c21771591600480820192602092909190829003018186803b158015610ffa57600080fd5b505afa15801561100e573d6000803e3d6000fd5b505050506040513d602081101561102457600080fd5b50516001600160a01b0316331461106c5760405162461bcd60e51b8152600401808060200182810382526029815260200180613d5e6029913960400191505060405180910390fd5b6107d08261ffff161115801561108857506107d08161ffff1611155b6110c35760405162461bcd60e51b8152600401808060200182810382526031815260200180613e6e6031913960400191505060405180910390fd5b60008261ffff161180156110db575060008161ffff16115b6111165760405162461bcd60e51b8152600401808060200182810382526031815260200180613dd66031913960400191505060405180910390fd5b6008805461ffff60e01b1916600160e01b61ffff858116918202929092176001600160f01b0316600160f01b9285169283021790925560408051928352602083019190915280517fa4877b8ecb5a00ba277e4bceeeb187a669e7113649774dfbea05c259ce27f17b9281900390910190a150506001600f55565b600f546001146111d5576040805162461bcd60e51b81526020600482015260126024820152600080516020613e9f833981519152604482015290519081900360640190fd5b6000600f5560055460408051638da5cb5b60e01b815290516001600160a01b0390921691638da5cb5b91600480820192602092909190829003018186803b15801561121f57600080fd5b505afa158015611233573d6000803e3d6000fd5b505050506040513d602081101561124957600080fd5b50516001600160a01b03163314611295576040805162461bcd60e51b81526020600482018190526024820152600080516020613e4e833981519152604482015290519081900360640190fd5b600c54610100900460ff16156112ea576040805162461bcd60e51b8152602060048201526015602482015274417274687572506169723a20696d6d757461626c6560581b604482015290519081900360640190fd5b600e805490829055604080518281526020810184905281517f048038d798d2069bace1aaf7edd663cc5c4bef083ad9eee949e1dd24087219bd929181900390910190a150506001600f55565b600854600160e01b900461ffff1681565b6107d081565b6000600f54600114611394576040805162461bcd60e51b81526020600482015260126024820152600080516020613e9f833981519152604482015290519081900360640190fd5b6000600f819055806113a4610957565b5050600654604080516370a0823160e01b815230600482015290519395509193506000926001600160a01b03909116916370a08231916024808301926020929190829003018186803b1580156113f957600080fd5b505afa15801561140d573d6000803e3d6000fd5b505050506040513d602081101561142357600080fd5b5051600754604080516370a0823160e01b815230600482015290519293506000926001600160a01b03909216916370a0823191602480820192602092909190829003018186803b15801561147657600080fd5b505afa15801561148a573d6000803e3d6000fd5b505050506040513d60208110156114a057600080fd5b5051905060006114bf836001600160701b03871663ffffffff61314616565b905060006114dc836001600160701b03871663ffffffff61314616565b905060006114ea8787613250565b600054909150806115335761151f6103e861151361150e878763ffffffff61351f16565b613582565b9063ffffffff61314616565b985061152e60006103e86135d4565b611582565b61157f6001600160701b038916611550868463ffffffff61351f16565b8161155757fe5b046001600160701b038916611572868563ffffffff61351f16565b8161157957fe5b0461366a565b98505b600089116115c15760405162461bcd60e51b8152600401808060200182810382526029815260200180613eea6029913960400191505060405180910390fd5b6115cb8a8a6135d4565b6115d58686613680565b81156115ff576008546115fb906001600160701b0380821691600160701b900416613409565b600b555b6040805185815260208101859052815133927f4c209b5fc8ad50758f13e2e1088ba56a560dff690a1c6fef26394f4c03821c4f928290030190a250506001600f5550949695505050505050565b611654613d06565b5060408051610100810182526006546001600160a01b039081168252600754166020808301919091528183018990526060820188905260006080830181905260a0830181905260c0830181905260e08301528251601f860182900482028101820190935284835290916116e7918391889188908890819084018382808284376000920191909152508892506126db915050565b50505050505050565b60016020526000908152604090205481565b600b5481565b600e5481565b60046020526000908152604090205481565b600080600f54600114611768576040805162461bcd60e51b81526020600482015260126024820152600080516020613e9f833981519152604482015290519081900360640190fd5b6000600f55600d544210156117c4576040805162461bcd60e51b815260206004820152601d60248201527f417274687572506169723a20494e56414c49445f54494d455f4c4f434b000000604482015290519081900360640190fd5b6000806117cf610957565b5050600654600754604080516370a0823160e01b815230600482015290519496509294506001600160a01b039182169391169160009184916370a08231916024808301926020929190829003018186803b15801561182c57600080fd5b505afa158015611840573d6000803e3d6000fd5b505050506040513d602081101561185657600080fd5b5051604080516370a0823160e01b815230600482015290519192506000916001600160a01b038516916370a08231916024808301926020929190829003018186803b1580156118a457600080fd5b505afa1580156118b8573d6000803e3d6000fd5b505050506040513d60208110156118ce57600080fd5b5051306000908152600160205260408120549192506118ed8888613250565b60005490915080611904848763ffffffff61351f16565b8161190b57fe5b049a508061191f848663ffffffff61351f16565b8161192657fe5b04995060008b118015611939575060008a115b6119745760405162461bcd60e51b8152600401808060200182810382526029815260200180613dad6029913960400191505060405180910390fd5b61197e308461376c565b611989878d8d61380a565b611994868d8c61380a565b604080516370a0823160e01b815230600482015290516001600160a01b038916916370a08231916024808301926020929190829003018186803b1580156119da57600080fd5b505afa1580156119ee573d6000803e3d6000fd5b505050506040513d6020811015611a0457600080fd5b5051604080516370a0823160e01b815230600482015290519196506001600160a01b038816916370a0823191602480820192602092909190829003018186803b158015611a5057600080fd5b505afa158015611a64573d6000803e3d6000fd5b505050506040513d6020811015611a7a57600080fd5b50519350611a888585613680565b8115611ab257600854611aae906001600160701b0380821691600160701b900416613409565b600b555b604080518c8152602081018c905281516001600160a01b038f169233927fdccd412f0b1252819cb1fd330b93224ca42612892bb3f4f789976e6d81936496929081900390910190a35050505050505050506001600f81905550915091565b60405180604001604052806005815260200164041542d4c560dc1b81525081565b600c5460ff1681565b6000610997338484613196565b600c54610100900460ff1681565b6103e881565b600f54600114611ba0576040805162461bcd60e51b81526020600482015260126024820152600080516020613e9f833981519152604482015290519081900360640190fd5b6000600f55600654600754600854604080516370a0823160e01b815230600482015290516001600160a01b039485169490931692611c4f9285928792611c4a926001600160701b03169185916370a0823191602480820192602092909190829003018186803b158015611c1257600080fd5b505afa158015611c26573d6000803e3d6000fd5b505050506040513d6020811015611c3c57600080fd5b50519063ffffffff61314616565b61380a565b600854604080516370a0823160e01b81523060048201529051611cb69284928792611c4a92600160701b90046001600160701b0316916001600160a01b038616916370a0823191602480820192602092909190829003018186803b158015611c1257600080fd5b6040517f21ad22495c9c75cd1c94756f91824e779c0c8a8e168b267c790df464fe056b7990600090a150506001600f5550565b6005546001600160a01b031681565b600d5481565b6007546001600160a01b031681565b42841015611d57576040805162461bcd60e51b8152602060048201526012602482015271155b9a5cddd85c158c8e881156141254915160721b604482015290519081900360640190fd5b6003546001600160a01b0380891660008181526004602090815260408083208054600180820190925582517f6e71edae12b1b97f4d1f60370fef10105fa2faae0126114a169c64845d6126c98186015280840196909652958d166060860152608085018c905260a085019590955260c08085018b90528151808603909101815260e08501825280519083012061190160f01b6101008601526101028501969096526101228085019690965280518085039096018652610142840180825286519683019690962095839052610162840180825286905260ff89166101828501526101a284018890526101c28401879052519193926101e280820193601f1981019281900390910190855afa158015611e72573d6000803e3d6000fd5b5050604051601f1901519150506001600160a01b03811615801590611ea85750886001600160a01b0316816001600160a01b0316145b611ef9576040805162461bcd60e51b815260206004820152601c60248201527f556e697377617056323a20494e56414c49445f5349474e415455524500000000604482015290519081900360640190fd5b611f048989896130e4565b505050505050505050565b620186a081565b600260209081526000928352604080842090915290825290205481565b6005546001600160a01b031633148015611f575750600754600160a01b900460ff16155b611fa0576040805162461bcd60e51b815260206004820152601560248201527420b93a343ab92830b4b91d102327a92124a22222a760591b604482015290519081900360640190fd5b600680546001600160a01b038087166001600160a01b0319928316811790935560078054918716919092161790556040805163313ce56760e01b8152905163313ce56791600480820192602092909190829003018186803b15801561200457600080fd5b505afa158015612018573d6000803e3d6000fd5b505050506040513d602081101561202e57600080fd5b505160ff16600a0a6009556040805163313ce56760e01b815290516001600160a01b0385169163313ce567916004808301926020929190829003018186803b15801561207957600080fd5b505afa15801561208d573d6000803e3d6000fd5b505050506040513d60208110156120a357600080fd5b505160ff16600a90810a9055600d91909155600e5550506007805460ff60a01b1916600160a01b179055565b600f54600114612114576040805162461bcd60e51b81526020600482015260126024820152600080516020613e9f833981519152604482015290519081900360640190fd5b6000600f5560055460408051638da5cb5b60e01b815290516001600160a01b0390921691638da5cb5b91600480820192602092909190829003018186803b15801561215e57600080fd5b505afa158015612172573d6000803e3d6000fd5b505050506040513d602081101561218857600080fd5b50516001600160a01b031633146121d4576040805162461bcd60e51b81526020600482018190526024820152600080516020613e4e833981519152604482015290519081900360640190fd5b600c54610100900460ff1615612229576040805162461bcd60e51b8152602060048201526015602482015274417274687572506169723a20696d6d757461626c6560581b604482015290519081900360640190fd5b600d805490829055604080518281526020810184905281517fd3336cbaf0944215d95d87c5f296a4330d98fd999d83796dd20079f6ce76266f929181900390910190a150506001600f55565b60065460009081906001600160a01b038481169116146122a257600854600160f01b900461ffff166122b1565b600854600160e01b900461ffff165b6008549091506122dd90859085906001600160701b0380821691600160701b90041661ffff86166139a4565b949350505050565b600f5460011461232a576040805162461bcd60e51b81526020600482015260126024820152600080516020613e9f833981519152604482015290519081900360640190fd5b6000600f5560055460408051638da5cb5b60e01b815290516001600160a01b0390921691638da5cb5b91600480820192602092909190829003018186803b15801561237457600080fd5b505afa158015612388573d6000803e3d6000fd5b505050506040513d602081101561239e57600080fd5b50516001600160a01b031633146123ea576040805162461bcd60e51b81526020600482018190526024820152600080516020613e4e833981519152604482015290519081900360640190fd5b6006546001600160a01b0383811691161480159061241657506007546001600160a01b03838116911614155b612467576040805162461bcd60e51b815260206004820152601960248201527f417274687572506169723a20696e76616c696420746f6b656e00000000000000604482015290519081900360640190fd5b6124f38282846001600160a01b03166370a08231306040518263ffffffff1660e01b815260040180826001600160a01b03166001600160a01b0316815260200191505060206040518083038186803b1580156124c257600080fd5b505afa1580156124d6573d6000803e3d6000fd5b505050506040513d60208110156124ec57600080fd5b505161380a565b604080516001600160a01b0383811682529151918416917f368a9dc863ecb94b5ba32a682e26295b10d9c2666fad7d785ebdf262c3c524139181900360200190a250506001600f55565b600f54600114612582576040805162461bcd60e51b81526020600482015260126024820152600080516020613e9f833981519152604482015290519081900360640190fd5b6000600f819055600654604080516370a0823160e01b815230600482015290516001600160a01b03909216916370a0823191602480820192602092909190829003018186803b1580156125d457600080fd5b505afa1580156125e8573d6000803e3d6000fd5b505050506040513d60208110156125fe57600080fd5b5051600754604080516370a0823160e01b815230600482015290519293506000926001600160a01b03909216916370a0823191602480820192602092909190829003018186803b15801561265157600080fd5b505afa158015612665573d6000803e3d6000fd5b505050506040513d602081101561267b57600080fd5b50519050811580159061268d57508015155b6126c85760405162461bcd60e51b815260040180806020018281038252602b815260200180613ebf602b913960400191505060405180910390fd5b6126d28282613680565b50506001600f55565b600f54600114612720576040805162461bcd60e51b81526020600482015260126024820152600080516020613e9f833981519152604482015290519081900360640190fd5b6000600f55600e5442101561277c576040805162461bcd60e51b815260206004820152601860248201527f417274687572506169723a20494e56414c49445f54494d450000000000000000604482015290519081900360640190fd5b600084604001511180612793575060008460600151115b6127ce5760405162461bcd60e51b8152600401808060200182810382526026815260200180613d876026913960400191505060405180910390fd5b6000806000806127dc610957565b9350935093509350836001600160701b0316886040015110801561280c5750826001600160701b03168860600151105b6128475760405162461bcd60e51b8152600401808060200182810382526022815260200180613e076022913960400191505060405180910390fd5b87516001600160a01b0388811691161480159061287a575087602001516001600160a01b0316876001600160a01b031614155b6128c4576040805162461bcd60e51b8152602060048201526016602482015275417274687572506169723a20494e56414c49445f544f60501b604482015290519081900360640190fd5b6040880151156128e1576128e18860000151888a6040015161380a565b6060880151156128fe576128fe8860200151888a6060015161380a565b8551156129f857866001600160a01b03166310d1e85c338a604001518b606001518a6040518563ffffffff1660e01b815260040180856001600160a01b03166001600160a01b0316815260200184815260200183815260200180602001828103825283818151815260200191508051906020019080838360005b83811015612990578181015183820152602001612978565b50505050905090810190601f1680156129bd5780820380516001836020036101000a031916815260200191505b5095505050505050600060405180830381600087803b1580156129df57600080fd5b505af11580156129f3573d6000803e3d6000fd5b505050505b8751604080516370a0823160e01b815230600482015290516001600160a01b03909216916370a0823191602480820192602092909190829003018186803b158015612a4257600080fd5b505afa158015612a56573d6000803e3d6000fd5b505050506040513d6020811015612a6c57600080fd5b50516080890152602088810151604080516370a0823160e01b815230600482015290516001600160a01b03909216926370a0823192602480840193829003018186803b158015612abb57600080fd5b505afa158015612acf573d6000803e3d6000fd5b505050506040513d6020811015612ae557600080fd5b505160a0890152604088015160808901516000916001600160701b0387160310612b10576000612b27565b8860400151856001600160701b0316038960800151035b905060008960600151856001600160701b0316038a60a0015111612b4c576000612b63565b8960600151856001600160701b0316038a60a00151035b90506000821180612b745750600081115b612baf5760405162461bcd60e51b8152600401808060200182810382526025815260200180613e296025913960400191505060405180910390fd5b620186a0612bc78361ffff871663ffffffff61351f16565b81612bce57fe5b0460c08b0152620186a0612bec8261ffff861663ffffffff61351f16565b81612bf357fe5b0460e08b01526000806001600160a01b038916612c11576000612c8b565b60055460408051631c60f51f60e21b81526001600160a01b038c8116600483015291519190921691637183d47c916024808301926020929190829003018186803b158015612c5e57600080fd5b505afa158015612c72573d6000803e3d6000fd5b505050506040513d6020811015612c8857600080fd5b50515b90508015612d50578315612cf6576402540be400612cc361ffff8816612cb7878563ffffffff61351f16565b9063ffffffff61351f16565b81612cca57fe5b049150612ce4828d60c0015161314690919063ffffffff16565b60c08d01528b51612cf6908a8461380a565b8215612d50576402540be400612d1a61ffff8716612cb7868563ffffffff61351f16565b81612d2157fe5b049150612d3b828d60e0015161314690919063ffffffff16565b60e08d015260208c0151612d50908a8461380a565b600c5460ff1615612eb85760055460408051634cadad5760e11b8152815160009384936001600160a01b039091169263995b5aae9260048083019392829003018186803b158015612da057600080fd5b505afa158015612db4573d6000803e3d6000fd5b505050506040513d6040811015612dca57600080fd5b50805160209091015190925090506001600160a01b03811615612eb557612dfe82612cb7620186a08663ffffffff61314616565b91508515612e595766038d7ea4c68000612e2661ffff8a16612cb7898663ffffffff61351f16565b81612e2d57fe5b049350612e47848f60c0015161314690919063ffffffff16565b60c08f01528d51612e5990828661380a565b8415612eb55766038d7ea4c68000612e7f61ffff8916612cb7888663ffffffff61351f16565b81612e8657fe5b049350612ea0848f60e0015161314690919063ffffffff16565b60e08f015260208e0151612eb590828661380a565b50505b8315612f3a578b51604080516370a0823160e01b815230600482015290516001600160a01b03909216916370a0823191602480820192602092909190829003018186803b158015612f0857600080fd5b505afa158015612f1c573d6000803e3d6000fd5b505050506040513d6020811015612f3257600080fd5b505160808d01525b8215612fba576020808d0151604080516370a0823160e01b815230600482015290516001600160a01b03909216926370a0823192602480840193829003018186803b158015612f8857600080fd5b505afa158015612f9c573d6000803e3d6000fd5b505050506040513d6020811015612fb257600080fd5b505160a08d01525b50506000612fd98b60c001518c6080015161314690919063ffffffff16565b90506000612ff88c60e001518d60a0015161314690919063ffffffff16565b9050613016886001600160701b0316886001600160701b0316613409565b6130208383613409565b1015613063576040805162461bcd60e51b815260206004820152600d60248201526c417274687572506169723a204b60981b604482015290519081900360640190fd5b50506130778a608001518b60a00151613680565b6040808b01516060808d0151835186815260208101869052808501939093529082015290516001600160a01b038b169133917fd78ad95fa46c994b6551d0da85fc275fe613ce37657fb8d5e3d130840159d8229181900360800190a350506001600f555050505050505050565b6001600160a01b03808416600081815260026020908152604080832094871680845294825291829020859055815185815291517f8c5be1e5ebec7d5bd14f71427d1e84f3dd0314c0f7b2291e5b200ac8c7c3b9259281900390910190a3505050565b8082038281111561099b576040805162461bcd60e51b815260206004820152601560248201527464732d6d6174682d7375622d756e646572666c6f7760581b604482015290519081900360640190fd5b6001600160a01b0383166000908152600160205260409020546131bf908263ffffffff61314616565b6001600160a01b0380851660009081526001602052604080822093909355908416815220546131f4908263ffffffff613b7216565b6001600160a01b0380841660008181526001602090815260409182902094909455805185815290519193928716927fddf252ad1be2c89b69c2b068fc378daa952ba7f163c4a11628f55a4df523b3ef92918290030190a3505050565b600c5460009060ff16156132665750600061099b565b60055460408051634cadad5760e11b8152815160009384936001600160a01b039091169263995b5aae9260048083019392829003018186803b1580156132ab57600080fd5b505afa1580156132bf573d6000803e3d6000fd5b505050506040513d60408110156132d557600080fd5b508051602090910151600b546001600160a01b0382161580159650929450909250906133f45780156133ef57600061332261150e886001600160701b0316886001600160701b0316613409565b9050600061332f83613582565b9050808211156133ec576000613368606487613354620186a08363ffffffff61351f16565b8161335b57fe5b049063ffffffff61314616565b905060006133936064612cb7613384878763ffffffff61314616565b6000549063ffffffff61351f16565b905060006133c76133ab85606463ffffffff61351f16565b6133bb878663ffffffff61351f16565b9063ffffffff613b7216565b905060008183816133d457fe5b04905080156133e7576133e788826135d4565b505050505b50505b613400565b8015613400576000600b555b50505092915050565b600c5460009060ff161561350f5760095460009061343585670de0b6b3a764000063ffffffff61351f16565b8161343c57fe5b0490506000600a5461345f670de0b6b3a76400008661351f90919063ffffffff16565b8161346657fe5b0490506000670de0b6b3a7640000613484848463ffffffff61351f16565b8161348b57fe5b04905060006134e1670de0b6b3a76400006134ac858063ffffffff61351f16565b816134b357fe5b04670de0b6b3a76400006134cd878063ffffffff61351f16565b816134d457fe5b049063ffffffff613b7216565b9050670de0b6b3a76400006134fc838363ffffffff61351f16565b8161350357fe5b0494505050505061099b565b610a96838363ffffffff61351f16565b600081158061353a5750508082028282828161353757fe5b04145b61099b576040805162461bcd60e51b815260206004820152601460248201527364732d6d6174682d6d756c2d6f766572666c6f7760601b604482015290519081900360640190fd5b600060038211156135c5575080600160028204015b818110156135bf578091506002818285816135ae57fe5b0401816135b757fe5b049050613597565b506135cf565b81156135cf575060015b919050565b6000546135e7908263ffffffff613b7216565b60009081556001600160a01b038316815260016020526040902054613612908263ffffffff613b7216565b6001600160a01b03831660008181526001602090815260408083209490945583518581529351929391927fddf252ad1be2c89b69c2b068fc378daa952ba7f163c4a11628f55a4df523b3ef9281900390910190a35050565b60008183106136795781610a96565b5090919050565b6001600160701b03821180159061369e57506001600160701b038111155b6136e6576040805162461bcd60e51b8152602060048201526014602482015273417274687572506169723a204f564552464c4f5760601b604482015290519081900360640190fd5b600880546dffffffffffffffffffffffffffff19166001600160701b038481169182176dffffffffffffffffffffffffffff60701b1916600160701b9185169182021790925560408051918252602082019290925281517f1c411e9a96e071241c2f21f7726b17ae89e3cab4c78be50e062b03a9fffbbad1929181900390910190a15050565b6001600160a01b038216600090815260016020526040902054613795908263ffffffff61314616565b6001600160a01b038316600090815260016020526040812091909155546137c2908263ffffffff61314616565b60009081556040805183815290516001600160a01b038516917fddf252ad1be2c89b69c2b068fc378daa952ba7f163c4a11628f55a4df523b3ef919081900360200190a35050565b604080518082018252601981527f7472616e7366657228616464726573732c75696e74323536290000000000000060209182015281516001600160a01b0385811660248301526044808301869052845180840390910181526064909201845291810180516001600160e01b031663a9059cbb60e01b1781529251815160009460609489169392918291908083835b602083106138b75780518252601f199092019160209182019101613898565b6001836020036101000a0380198251168184511680821785525050505050509050019150506000604051808303816000865af19150503d8060008114613919576040519150601f19603f3d011682016040523d82523d6000602084013e61391e565b606091505b509150915081801561394c57508051158061394c575080806020019051602081101561394957600080fd5b50515b61399d576040805162461bcd60e51b815260206004820152601b60248201527f417274687572506169723a205452414e534645525f4641494c45440000000000604482015290519081900360640190fd5b5050505050565b600c5460009060ff1615613ae7576139df620186a06139c9888563ffffffff61351f16565b816139d057fe5b8891900463ffffffff61314616565b955060006139ed8585613409565b905060095485670de0b6b3a76400000281613a0457fe5b049450600a5484670de0b6b3a76400000281613a1c57fe5b600654919004945060009081906001600160a01b03898116911614613a42578587613a45565b86865b60065491935091506001600160a01b03898116911614613a7a57600a5489670de0b6b3a76400000281613a7457fe5b04613a91565b60095489670de0b6b3a76400000281613a8f57fe5b045b98506000613aa2838b018584613bc1565b6006549083039150670de0b6b3a7640000906001600160a01b038b8116911614613ace57600954613ad2565b600a545b820281613adb57fe5b04945050505050613b69565b60065460009081906001600160a01b03888116911614613b08578486613b0b565b85855b9092509050613b33613b26620186a08663ffffffff61314616565b899063ffffffff61351f16565b9750613b4c886133bb84620186a063ffffffff61351f16565b613b5c898363ffffffff61351f16565b81613b6357fe5b04925050505b95945050505050565b8082018281101561099b576040805162461bcd60e51b815260206004820152601460248201527364732d6d6174682d6164642d6f766572666c6f7760601b604482015290519081900360640190fd5b6000805b60ff811015613c7957826000613bdb8783613c82565b905085811015613c11576000613bf18887613cd2565b828803670de0b6b3a76400000281613c0557fe5b04959095019450613c38565b6000613c1d8887613cd2565b878303670de0b6b3a76400000281613c3157fe5b0490950394505b81851115613c5a57600182860311613c5557849350505050610a96565b613c6f565b600185830311613c6f57849350505050610a96565b5050600101613bc5565b50909392505050565b6000670de0b6b3a764000082818581818002040281613c9d57fe5b040281613ca657fe5b04670de0b6b3a7640000808481818002040281613cbf57fe5b04850281613cc957fe5b04019392505050565b6000670de0b6b3a76400008381818002040281613ceb57fe5b04670de0b6b3a76400008084800204856003020281613cc957fe5b60405180610100016040528060006001600160a01b0316815260200160006001600160a01b03168152602001600081526020016000815260200160008152602001600081526020016000815260200160008152509056fe417274687572506169723a206f6e6c7920666163746f7279277320666565416d6f756e744f776e6572417274687572506169723a20494e53554646494349454e545f4f55545055545f414d4f554e54417274687572506169723a20494e53554646494349454e545f4c49515549444954595f4255524e4544417274687572506169723a2066656550657263656e74206d7573746e27742065786365656420746865206d696e696d756d417274687572506169723a20494e53554646494349454e545f4c4951554944495459417274687572506169723a20494e53554646494349454e545f494e5055545f414d4f554e54417274687572506169723a206f6e6c7920666163746f72792773206f776e6572417274687572506169723a2066656550657263656e74206d7573746e27742065786365656420746865206d6178696d756d417274687572506169723a204c4f434b45440000000000000000000000000000417274687572506169723a206c697175696469747920726174696f206e6f7420696e697469616c697a6564417274687572506169723a20494e53554646494349454e545f4c49515549444954595f4d494e544544417274687572506169723a206f6e6c7920666163746f7279277320736574537461626c654f776e6572a265627a7a7231582093fb5f8fb32c40022194fe7d10a48ff811b3bf9269e21c481dfb1919a8d4abf064736f6c63430005100032454950373132446f6d61696e28737472696e67206e616d652c737472696e672076657273696f6e2c75696e7432353620636861696e49642c6164647265737320766572696679696e67436f6e747261637429417274687572466163746f72793a2072656665727265724665655368617265206d7573746e277420657863656564206d6178696d756d417274687572466163746f72793a2063616c6c6572206973206e6f7420746865206f776e6572417274687572466163746f72793a204944454e544943414c5f414444524553534553417274687572466163746f72793a207a65726f20616464726573730000000000417274687572466163746f72793a206f776e65724665655368617265206d7573746e277420657863656564206d6178696d756d417274687572466163746f72793a206f776e65724665655368617265206d7573746e277420657863656564206d696e696d756d417274687572466163746f72793a206e6f7420736574537461626c654f776e6572a265627a7a7231582027c142aece07be5941ed5e7a013753dfa5fcc3ab1f7f7cdb741326ee74c1496a64736f6c63430005100032",
  "linkReferences": {},
  "deployedLinkReferences": {}
}