{
  "_format": "hh-sol-artifact-1",
  "contractName": "ArthurRouter",
  "sourceName": "contracts/ArthurRouter.sol",
  "abi": [
    {
      "inputs": [
        {
          "internalType": "address",
          "name": "_factory",
          "type": "address"
        },
        {
          "internalType": "address",
          "name": "_WETH",
          "type": "address"
        }
      ],
      "stateMutability": "nonpayable",
      "type": "constructor"
    },
    {
      "inputs": [],
      "name": "WETH",
      "outputs": [
        {
          "internalType": "address",
          "name": "",
          "type": "address"
        }
      ],
      "stateMutability": "view",
      "type": "function"
    },
    {
      "inputs": [
        {
          "internalType": "address",
          "name": "tokenA",
          "type": "address"
        },
        {
          "internalType": "address",
          "name": "tokenB",
          "type": "address"
        },
        {
          "internalType": "uint256",
          "name": "amountADesired",
          "type": "uint256"
        },
        {
          "internalType": "uint256",
          "name": "amountBDesired",
          "type": "uint256"
        },
        {
          "internalType": "uint256",
          "name": "amountAMin",
          "type": "uint256"
        },
        {
          "internalType": "uint256",
          "name": "amountBMin",
          "type": "uint256"
        },
        {
          "internalType": "address",
          "name": "to",
          "type": "address"
        },
        {
          "internalType": "uint256",
          "name": "deadline",
          "type": "uint256"
        },
        {
          "internalType": "uint256",
          "name": "timeLock",
          "type": "uint256"
        },
        {
          "internalType": "uint256",
          "name": "startTime",
          "type": "uint256"
        }
      ],
      "name": "addLiquidity",
      "outputs": [
        {
          "internalType": "uint256",
          "name": "amountA",
          "type": "uint256"
        },
        {
          "internalType": "uint256",
          "name": "amountB",
          "type": "uint256"
        },
        {
          "internalType": "uint256",
          "name": "liquidity",
          "type": "uint256"
        }
      ],
      "stateMutability": "nonpayable",
      "type": "function"
    },
    {
      "inputs": [
        {
          "internalType": "address",
          "name": "token",
          "type": "address"
        },
        {
          "internalType": "uint256",
          "name": "amountTokenDesired",
          "type": "uint256"
        },
        {
          "internalType": "uint256",
          "name": "amountTokenMin",
          "type": "uint256"
        },
        {
          "internalType": "uint256",
          "name": "amountETHMin",
          "type": "uint256"
        },
        {
          "internalType": "address",
          "name": "to",
          "type": "address"
        },
        {
          "internalType": "uint256",
          "name": "deadline",
          "type": "uint256"
        },
        {
          "internalType": "uint256",
          "name": "timeLock",
          "type": "uint256"
        },
        {
          "internalType": "uint256",
          "name": "startTime",
          "type": "uint256"
        }
      ],
      "name": "addLiquidityETH",
      "outputs": [
        {
          "internalType": "uint256",
          "name": "amountToken",
          "type": "uint256"
        },
        {
          "internalType": "uint256",
          "name": "amountETH",
          "type": "uint256"
        },
        {
          "internalType": "uint256",
          "name": "liquidity",
          "type": "uint256"
        }
      ],
      "stateMutability": "payable",
      "type": "function"
    },
    {
      "inputs": [],
      "name": "factory",
      "outputs": [
        {
          "internalType": "address",
          "name": "",
          "type": "address"
        }
      ],
      "stateMutability": "view",
      "type": "function"
    },
    {
      "inputs": [
        {
          "internalType": "uint256",
          "name": "amountIn",
          "type": "uint256"
        },
        {
          "internalType": "address[]",
          "name": "path",
          "type": "address[]"
        }
      ],
      "name": "getAmountsOut",
      "outputs": [
        {
          "internalType": "uint256[]",
          "name": "amounts",
          "type": "uint256[]"
        }
      ],
      "stateMutability": "view",
      "type": "function"
    },
    {
      "inputs": [
        {
          "internalType": "address",
          "name": "token1",
          "type": "address"
        },
        {
          "internalType": "address",
          "name": "token2",
          "type": "address"
        }
      ],
      "name": "getPair",
      "outputs": [
        {
          "internalType": "address",
          "name": "",
          "type": "address"
        }
      ],
      "stateMutability": "view",
      "type": "function"
    },
    {
      "inputs": [
        {
          "internalType": "uint256",
          "name": "amountA",
          "type": "uint256"
        },
        {
          "internalType": "uint256",
          "name": "reserveA",
          "type": "uint256"
        },
        {
          "internalType": "uint256",
          "name": "reserveB",
          "type": "uint256"
        }
      ],
      "name": "quote",
      "outputs": [
        {
          "internalType": "uint256",
          "name": "amountB",
          "type": "uint256"
        }
      ],
      "stateMutability": "pure",
      "type": "function"
    },
    {
      "inputs": [
        {
          "internalType": "address",
          "name": "tokenA",
          "type": "address"
        },
        {
          "internalType": "address",
          "name": "tokenB",
          "type": "address"
        },
        {
          "internalType": "uint256",
          "name": "liquidity",
          "type": "uint256"
        },
        {
          "internalType": "uint256",
          "name": "amountAMin",
          "type": "uint256"
        },
        {
          "internalType": "uint256",
          "name": "amountBMin",
          "type": "uint256"
        },
        {
          "internalType": "address",
          "name": "to",
          "type": "address"
        },
        {
          "internalType": "uint256",
          "name": "deadline",
          "type": "uint256"
        }
      ],
      "name": "removeLiquidity",
      "outputs": [
        {
          "internalType": "uint256",
          "name": "amountA",
          "type": "uint256"
        },
        {
          "internalType": "uint256",
          "name": "amountB",
          "type": "uint256"
        }
      ],
      "stateMutability": "nonpayable",
      "type": "function"
    },
    {
      "inputs": [
        {
          "internalType": "address",
          "name": "token",
          "type": "address"
        },
        {
          "internalType": "uint256",
          "name": "liquidity",
          "type": "uint256"
        },
        {
          "internalType": "uint256",
          "name": "amountTokenMin",
          "type": "uint256"
        },
        {
          "internalType": "uint256",
          "name": "amountETHMin",
          "type": "uint256"
        },
        {
          "internalType": "address",
          "name": "to",
          "type": "address"
        },
        {
          "internalType": "uint256",
          "name": "deadline",
          "type": "uint256"
        }
      ],
      "name": "removeLiquidityETH",
      "outputs": [
        {
          "internalType": "uint256",
          "name": "amountToken",
          "type": "uint256"
        },
        {
          "internalType": "uint256",
          "name": "amountETH",
          "type": "uint256"
        }
      ],
      "stateMutability": "nonpayable",
      "type": "function"
    },
    {
      "inputs": [
        {
          "internalType": "address",
          "name": "token",
          "type": "address"
        },
        {
          "internalType": "uint256",
          "name": "liquidity",
          "type": "uint256"
        },
        {
          "internalType": "uint256",
          "name": "amountTokenMin",
          "type": "uint256"
        },
        {
          "internalType": "uint256",
          "name": "amountETHMin",
          "type": "uint256"
        },
        {
          "internalType": "address",
          "name": "to",
          "type": "address"
        },
        {
          "internalType": "uint256",
          "name": "deadline",
          "type": "uint256"
        }
      ],
      "name": "removeLiquidityETHSupportingFeeOnTransferTokens",
      "outputs": [
        {
          "internalType": "uint256",
          "name": "amountETH",
          "type": "uint256"
        }
      ],
      "stateMutability": "nonpayable",
      "type": "function"
    },
    {
      "inputs": [
        {
          "internalType": "address",
          "name": "token",
          "type": "address"
        },
        {
          "internalType": "uint256",
          "name": "liquidity",
          "type": "uint256"
        },
        {
          "internalType": "uint256",
          "name": "amountTokenMin",
          "type": "uint256"
        },
        {
          "internalType": "uint256",
          "name": "amountETHMin",
          "type": "uint256"
        },
        {
          "internalType": "address",
          "name": "to",
          "type": "address"
        },
        {
          "internalType": "uint256",
          "name": "deadline",
          "type": "uint256"
        },
        {
          "internalType": "bool",
          "name": "approveMax",
          "type": "bool"
        },
        {
          "internalType": "uint8",
          "name": "v",
          "type": "uint8"
        },
        {
          "internalType": "bytes32",
          "name": "r",
          "type": "bytes32"
        },
        {
          "internalType": "bytes32",
          "name": "s",
          "type": "bytes32"
        }
      ],
      "name": "removeLiquidityETHWithPermit",
      "outputs": [
        {
          "internalType": "uint256",
          "name": "amountToken",
          "type": "uint256"
        },
        {
          "internalType": "uint256",
          "name": "amountETH",
          "type": "uint256"
        }
      ],
      "stateMutability": "nonpayable",
      "type": "function"
    },
    {
      "inputs": [
        {
          "internalType": "address",
          "name": "token",
          "type": "address"
        },
        {
          "internalType": "uint256",
          "name": "liquidity",
          "type": "uint256"
        },
        {
          "internalType": "uint256",
          "name": "amountTokenMin",
          "type": "uint256"
        },
        {
          "internalType": "uint256",
          "name": "amountETHMin",
          "type": "uint256"
        },
        {
          "internalType": "address",
          "name": "to",
          "type": "address"
        },
        {
          "internalType": "uint256",
          "name": "deadline",
          "type": "uint256"
        },
        {
          "internalType": "bool",
          "name": "approveMax",
          "type": "bool"
        },
        {
          "internalType": "uint8",
          "name": "v",
          "type": "uint8"
        },
        {
          "internalType": "bytes32",
          "name": "r",
          "type": "bytes32"
        },
        {
          "internalType": "bytes32",
          "name": "s",
          "type": "bytes32"
        }
      ],
      "name": "removeLiquidityETHWithPermitSupportingFeeOnTransferTokens",
      "outputs": [
        {
          "internalType": "uint256",
          "name": "amountETH",
          "type": "uint256"
        }
      ],
      "stateMutability": "nonpayable",
      "type": "function"
    },
    {
      "inputs": [
        {
          "internalType": "address",
          "name": "tokenA",
          "type": "address"
        },
        {
          "internalType": "address",
          "name": "tokenB",
          "type": "address"
        },
        {
          "internalType": "uint256",
          "name": "liquidity",
          "type": "uint256"
        },
        {
          "internalType": "uint256",
          "name": "amountAMin",
          "type": "uint256"
        },
        {
          "internalType": "uint256",
          "name": "amountBMin",
          "type": "uint256"
        },
        {
          "internalType": "address",
          "name": "to",
          "type": "address"
        },
        {
          "internalType": "uint256",
          "name": "deadline",
          "type": "uint256"
        },
        {
          "internalType": "bool",
          "name": "approveMax",
          "type": "bool"
        },
        {
          "internalType": "uint8",
          "name": "v",
          "type": "uint8"
        },
        {
          "internalType": "bytes32",
          "name": "r",
          "type": "bytes32"
        },
        {
          "internalType": "bytes32",
          "name": "s",
          "type": "bytes32"
        }
      ],
      "name": "removeLiquidityWithPermit",
      "outputs": [
        {
          "internalType": "uint256",
          "name": "amountA",
          "type": "uint256"
        },
        {
          "internalType": "uint256",
          "name": "amountB",
          "type": "uint256"
        }
      ],
      "stateMutability": "nonpayable",
      "type": "function"
    },
    {
      "inputs": [
        {
          "internalType": "uint256",
          "name": "amountOutMin",
          "type": "uint256"
        },
        {
          "internalType": "address[]",
          "name": "path",
          "type": "address[]"
        },
        {
          "internalType": "address",
          "name": "to",
          "type": "address"
        },
        {
          "internalType": "address",
          "name": "referrer",
          "type": "address"
        },
        {
          "internalType": "uint256",
          "name": "deadline",
          "type": "uint256"
        }
      ],
      "name": "swapExactETHForTokensSupportingFeeOnTransferTokens",
      "outputs": [],
      "stateMutability": "payable",
      "type": "function"
    },
    {
      "inputs": [
        {
          "internalType": "uint256",
          "name": "amountIn",
          "type": "uint256"
        },
        {
          "internalType": "uint256",
          "name": "amountOutMin",
          "type": "uint256"
        },
        {
          "internalType": "address[]",
          "name": "path",
          "type": "address[]"
        },
        {
          "internalType": "address",
          "name": "to",
          "type": "address"
        },
        {
          "internalType": "address",
          "name": "referrer",
          "type": "address"
        },
        {
          "internalType": "uint256",
          "name": "deadline",
          "type": "uint256"
        }
      ],
      "name": "swapExactTokensForETHSupportingFeeOnTransferTokens",
      "outputs": [],
      "stateMutability": "nonpayable",
      "type": "function"
    },
    {
      "inputs": [
        {
          "internalType": "uint256",
          "name": "amountIn",
          "type": "uint256"
        },
        {
          "internalType": "uint256",
          "name": "amountOutMin",
          "type": "uint256"
        },
        {
          "internalType": "address[]",
          "name": "path",
          "type": "address[]"
        },
        {
          "internalType": "address",
          "name": "to",
          "type": "address"
        },
        {
          "internalType": "address",
          "name": "referrer",
          "type": "address"
        },
        {
          "internalType": "uint256",
          "name": "deadline",
          "type": "uint256"
        }
      ],
      "name": "swapExactTokensForTokensSupportingFeeOnTransferTokens",
      "outputs": [],
      "stateMutability": "nonpayable",
      "type": "function"
    },
    {
      "stateMutability": "payable",
      "type": "receive"
    }
  ],
  "bytecode": "0x60c0346200010e57601f62002fb438819003918201601f19168301916001600160401b03831184841017620001135780849260409485528339810103126200010e576200005a6020620000528362000129565b920162000129565b9060805260a052604051612e7590816200013f823960805181818161019d0152818161028d015281816102e901528181610687015281816108d601528181610948015281816110eb015281816113f7015281816115e80152818161184401528181611ea6015281816123110152612741015260a05181818160280152818161030b01528181610bb401528181610ebe015281816110c9015281816111e6015281816113ae0152818161181801526122e50152f35b600080fd5b634e487b7160e01b600052604160045260246000fd5b51906001600160a01b03821682036200010e5756fe60806040815260a0604052600480361015610058575b5050361561002257600080fd5b610056337f00000000000000000000000000000000000000000000000000000000000000006001600160a01b031614611bcd565b005b600091823560e01c806302751cec146117ee5780632195995c14611595578063443146721461136d57806352aa4c22146111a05780635b0d5984146110a6578063ac3893ba14610eed578063ad5c464814610ea8578063ad615dec14610e80578063af2979eb14610e56578063b4822be314610b36578063baa2abde14610905578063c45a0155146108c0578063d06ca61f1461064b578063ded9382a146102c7578063e6a43905146102615763f3b790cd146101155750610015565b3461025d5761014036600319011261025d5761012f611a56565b92610138611a6c565b6001600160a01b039390929060c43585811690819003610244576024602092856101d39861016a4260e4351015611bea565b61018c61012435610104358d60a435908d608435916064359160443591611e9c565b8c8b6101cc839f859f959e6101c1917f0000000000000000000000000000000000000000000000000000000000000000612bde565b9d8e80943390611cd2565b3390611cd2565b86515198899586946335313c2160e11b8652850152165af19182156102515791610217575b51519283526020830193909352506040810191909152606090f35b0390f35b90506020823d8211610249575b8161023160209383611c58565b81010312610244576102139151906101f8565b600080fd5b3d9150610224565b905151903d90823e3d90fd5b8280fd5b8382346102c35780513660031901126102c3576020906102b1610282611a56565b61028a611a6c565b907f0000000000000000000000000000000000000000000000000000000000000000612bde565b9051516001600160a01b039091168152f35b5080fd5b508290346102c357816102d936611b67565b90889d979a9699949291989395987f0000000000000000000000000000000000000000000000000000000000000000947f000000000000000000000000000000000000000000000000000000000000000097610336898989612bde565b9950156106455750600019905b6001600160a01b0398891692833b1561064157918f8f61038182969489968f935151998a988997889663d505accf60e01b8852309033908901612294565b03925af1801561063657918c85928794610616575b5050926103b16103b6944211156103ac81611bea565b611bea565b612bde565b885151633331daeb60e01b8152602097918581169189818981865afa90811561060b578d916105de575b5042106105ac578a51516323b872dd60e01b8152338882019081526001600160a01b039092166020830152604082019d909d529a9b999a9899979896978c978a908290819060600103818b865af180156105a157610574575b508a6024815151809e819363226bf2d160e21b8352308b84015251945af19a8b15610569578690879c61052c575b508261049d9c9289928761047e886104aa98612b17565b50168884161460001461051d57906104a5919e8f959d5b861015611dec565b8c1015611e44565b6121b1565b1690813b1561025d578560248492838a51519586948593632e1a7d4d60e01b85528401525af1801561051257908592916104f7575b50506104ea91612116565b8251519384528301525190f35b81925061050390611c2e565b61050f578084916104df565b80fd5b8651513d84823e3d90fd5b93906104a5919e8f959d610495565b9b505089513d8111610562575b610543818d611c58565b8b8b51918101031261055e578a519a8801519a6104aa610467565b8580fd5b503d610539565b8a51513d88823e3d90fd5b610593908a3d8c1161059a575b61058b8183611c58565b810190611cba565b508c610439565b503d610581565b8c51513d8a823e3d90fd5b8a515162461bcd60e51b81528088018a9052601f6024820152600080516020612e208339815191526044820152606490fd5b90508981813d8311610604575b6105f58183611c58565b8101031261024457518e6103e0565b503d6105eb565b8c51513d8f823e3d90fd5b909250610624919350611c2e565b610632578284918c8f610396565b8a80fd5b8b51513d8e823e3d90fd5b8f80fd5b90610343565b503461025d57805136600319011261025d57602491823567ffffffffffffffff81116108bc57936106836106ae949536908401611ad8565b94907f0000000000000000000000000000000000000000000000000000000000000000953691612603565b906002825110610879578151926106dd6106c7856125eb565b946106d58751519687611c58565b8086526125eb565b9560209384860197601f19013689378551156108655782358852835b8151600019810190811161085357811015610812576001600160a01b038061072183856126cd565b51169060018301918284116108005781806107508b93869561074761079899988b6126cd565b5116908a612bde565b1661075b858d6126cd565b519161076786896126cd565b518e51516378a051ad60e11b81528b810194855291166001600160a01b031660208401529586928391829160400190565b03915afa9283156107f55787936107c4575b50916107b96107bf938a6126cd565b526126be565b6106f9565b92508783813d83116107ee575b6107db8183611c58565b81010312610244579151916107b96107aa565b503d6107d1565b8a51513d89823e3d90fd5b634e487b7160e01b8852601187528c88fd5b875151868152875181880181905289518291908201908c908a8a5b82811061083c57505050500390f35b83518552869550938101939281019260010161082d565b634e487b7160e01b8652601185528a86fd5b88603284634e487b7160e01b600052526000fd5b83515162461bcd60e51b8152602081850152601e818801527f556e697377617056324c6962726172793a20494e56414c49445f5041544800006044820152606490fd5b8480fd5b8382346102c357816003193601126102c35751517f00000000000000000000000000000000000000000000000000000000000000006001600160a01b03168152602090f35b50823461050f5760e036600319011261050f57610920611a56565b92610929611a6c565b93610932611a82565b916109414260c4351015611bea565b61096c86837f0000000000000000000000000000000000000000000000000000000000000000612bde565b855151633331daeb60e01b81526020956001600160a01b039390928481169288818481875afa908115610b2b578591610afe575b504210610acc578851516323b872dd60e01b8152338382019081526001600160a01b039092166020830152604435604083015290889082908190606001038187875af18015610ac157610aa4575b50838851519663226bf2d160e21b8852169086015284602481848a51945af1968715610a975781948298610a5d575b5090610a2a839285612b17565b50905016911614600014610a575792905b610a49606435851015611dec565b6104ea608435831015611e44565b90610a3b565b9450965085513d8111610a90575b610a758186611c58565b848751918101031261050f5783519385015196610a2a610a1d565b503d610a6b565b50855151903d90823e3d90fd5b610aba90883d8a1161059a5761058b8183611c58565b50896109ee565b8951513d86823e3d90fd5b88515162461bcd60e51b8152808301899052601f6024820152600080516020612e208339815191526044820152606490fd5b90508881813d8311610b24575b610b158183611c58565b8101031261024457518b6109a0565b503d610b0b565b8a51513d87823e3d90fd5b50919060a03660031901126102c357602492833567ffffffffffffffff8111610e5257610b669036908401611ad8565b6001600160a01b039360443592909185841691908285036102445760643591878316830361024457610b9c426084351015611bea565b8115610e40579081610bde610bb28a95946125d7565b7f000000000000000000000000000000000000000000000000000000000000000086169a168a14612a79565b883b15610e3157875151630d0e30db60e41b81528a818881348e5af18015610e3557908b91610e1d575b5050610c13816125d7565b988a8360011015610e0b579987610c6e928b610c3b9b9c9d60209c8d9561028a878a016125d7565b91515163a9059cbb60e01b81526001600160a01b0390921693820193845234602085015290948593849291839160400190565b03925af1908115610e005790610c8b918c91610de3575b50611bcd565b600019820192828411610dd1579282828897958e8b8f9c9b99968f90610cbc610cb789869c8c946125b1565b6125d7565b16905151928380928c6370a0823160e01b9e8f84528301525afa9b8c15610dc5579b610d86575b5091610d0d9391610d08610cb7948c9d9e610d039d9b9c9d368686612603565b61273f565b6125b1565b169388515194859384928352878301525afa928315610d7b578693610d49575b5050610d4592610d3e913592612ac5565b1015612661565b5151f35b9080929350813d8311610d74575b610d618183611c58565b8101031261024457519082610d3e610d2d565b503d610d57565b8551513d88823e3d90fd5b9391979899809b5084819492943d8311610dbe575b610da58183611c58565b8101031261024457925199989796909291610d0d610ce3565b503d610d9b565b8e5151903d90823e3d90fd5b634e487b7160e01b8b52601187528b8bfd5b610dfa9150893d8b1161059a5761058b8183611c58565b38610c85565b8a51513d8d823e3d90fd5b634e487b7160e01b8152603288528c90fd5b610e2690611c2e565b610e31578938610c08565b8980fd5b8951513d8d823e3d90fd5b634e487b7160e01b8952603285528989fd5b8380fd5b8382346102c357602090610e78610e6c36611a98565b949390939291926122d0565b905151908152f35b50823461050f57606036600319011261050f5750610e78602092604435906024359035612cc3565b8382346102c357816003193601126102c35751517f00000000000000000000000000000000000000000000000000000000000000006001600160a01b03168152602090f35b508290346102c357610f10610f0136611b09565b96909392919496421115611bea565b801561109357610f1f826125d7565b94610f29836125d7565b9582600110156110805790610f5191610f4960209861028a8a88016125d7565b903390611cd2565b60001981019181831161106d57889695948a94859491936001600160a01b0393909184610f82610cb78686866125b1565b16958c51518a816024816370a0823160e01b9b8c82528b87169e8f908301525afa9c8d15610dc5579c61102d575b509360249593610fd093610d08610cb7948d9b9a98610d03368686612603565b16895151958694859384528301525afa918215610d7b578692610ffd575b5050610d4592610d3e91612ac5565b90809250813d8311611026575b6110148183611c58565b81010312610244575182610d3e610fee565b503d61100a565b929593979694909b508983813d8311611066575b61104b8183611c58565b810103126102445791519a9596939592949193926024610fb0565b503d611041565b634e487b7160e01b895260118a52602489fd5b634e487b7160e01b8a5260328b5260248afd5b634e487b7160e01b885260328952602488fd5b50903461025d576110b636611b67565b61110f9c959a919392949c9996999897987f0000000000000000000000000000000000000000000000000000000000000000887f0000000000000000000000000000000000000000000000000000000000000000612bde565b921561119957600019925b6001600160a01b031693843b15611195578694926111568f95938f9388945151998a988997889663d505accf60e01b8852309033908901612294565b03925af1801561118a57611176575b602088610e788b8a8a8a8a8a6122d0565b6111808291611c2e565b61050f5780611165565b8851513d84823e3d90fd5b8680fd5b879261111a565b50903461025d576111c26111b336611b09565b97949690939197421115611bea565b600019820182811161135a57610cb76111dc9184846125b1565b6001600160a01b037f00000000000000000000000000000000000000000000000000000000000000008116969161121591168714612a79565b821561134757611224826125d7565b61122d836125d7565b846001101561133457926112576112609593610d0393610f498f9b9a999761028a602087016125d7565b30923691612603565b8551516370a0823160e01b8152308282015293602085602481865afa9485156113295784956112f0575b5061129790851015612661565b813b1561025d578360248492838951519586948593632e1a7d4d60e01b85528401525af180156112e5576112d1575b5050610d4591612116565b6112da90611c2e565b610e525783386112c6565b8551513d84823e3d90fd5b935093506020833d8211611321575b8161130c60209383611c58565b8101031261024457611297879351949061128a565b3d91506112ff565b8751513d86823e3d90fd5b634e487b7160e01b8c526032875260248cfd5b634e487b7160e01b8a526032855260248afd5b634e487b7160e01b8a526011855260248afd5b509161010036600319011261050f57611384611a56565b6001600160a01b039390919060843585811690819003610244576113ac4260a4351015611bea565b7f000000000000000000000000000000000000000000000000000000000000000094866113e960e43560c435606435604435346024358d8d611e9c565b9890976114248961141b838b7f0000000000000000000000000000000000000000000000000000000000000000612bde565b809a3390611cd2565b16803b1561055e57845151630d0e30db60e41b8152868185818d865af1801561156b578a95949392918891611576575b505085515163a9059cbb60e01b81526001600160a01b0389168482019081526020818101979097529091869183919082908b90829060400103925af190811561156b576024926114af879695938a9384916115545750611bcd565b875151998a9586946335313c2160e11b8652850152165af19283156115485792611516575b5061021392508434116114fe575b5151938493846040919493926060820195825260208201520152565b61151161150b86346120f3565b33612116565b6114e2565b90915082813d8311611541575b61152d8183611c58565b8101031261024457610213915190386114d4565b503d611523565b825151903d90823e3d90fd5b610dfa9150883d8a1161059a5761058b8183611c58565b8651513d89823e3d90fd5b61158591929394959650611c2e565b61055e5790889392918638611454565b50903461025d5761016036600319011261025d576115b1611a56565b926115ba611a6c565b936044356115c6611a82565b9260c4359060e4359283151584036102c3576101043560ff8116810361025d577f0000000000000000000000000000000000000000000000000000000000000000906116138b8884612bde565b95156117e757600019905b6001600160a01b0396871690813b1561055e5785918b9183898f6116649051519788968795869463d505accf60e01b865261014435936101243593309033908901612294565b03925af180156117dc579187918c936117c3575b506103b161168a949596421115611bea565b958387169188515197633331daeb60e01b895260209889818581885afa9081156117b857869161178b575b504210611759578951516323b872dd60e01b8152338482019081526001600160a01b0390921660208301526040820192909252889082908190606001038187875af18015610ac15761173c5750838851519663226bf2d160e21b8852169086015284602481848a51945af1968715610a975781948298610a5d575090610a2a839285612b17565b61175290883d8a1161059a5761058b8183611c58565b50386109ee565b89515162461bcd60e51b81528084018a9052601f6024820152600080516020612e208339815191526044820152606490fd5b90508981813d83116117b1575b6117a28183611c58565b810103126102445751386116b5565b503d611798565b8b51513d88823e3d90fd5b61168a94956117d46103b192611c2e565b959450611678565b8a51513d86823e3d90fd5b829061161e565b50903461025d576117fe36611a98565b95929594909391944211159061181382611bea565b61183d7f000000000000000000000000000000000000000000000000000000000000000092611bea565b61186882827f0000000000000000000000000000000000000000000000000000000000000000612bde565b885151633331daeb60e01b81526020976001600160a01b03959092868116928d908b818b81885afa918215610dc55791611a25575b5042106119f3578b51516323b872dd60e01b8152338982019081526001600160a01b03909216602083015260408201929092528c969594939291908a908290819060600103818a865af180156119e8576119cb575b508a6024815151809e819363226bf2d160e21b8352308c84015251945af19a8b15610b2b578590869c611992575b508261049d9c9289928761047e8861193798612b17565b1691823b156102c3578560248392838a51519687948593632e1a7d4d60e01b85528401525af190811561198657509184916104ea93611977575b50612116565b61198090611c2e565b38611971565b865151903d90823e3d90fd5b9b505089513d81116119c4575b6119a9818d611c58565b8b8b5191810103126108bc578a519a8801519a611937611920565b503d61199f565b6119e1908a3d8c1161059a5761058b8183611c58565b50386118f2565b8c51513d89823e3d90fd5b8b515162461bcd60e51b81528089018b9052601f6024820152600080516020612e208339815191526044820152606490fd5b90508a81813d8311611a4f575b611a3c8183611c58565b81010312611a4b57513861189d565b8d80fd5b503d611a32565b600435906001600160a01b038216820361024457565b602435906001600160a01b038216820361024457565b60a435906001600160a01b038216820361024457565b60c0906003190112610244576001600160a01b03600435818116810361024457916024359160443591606435916084359081168103610244579060a43590565b9181601f840112156102445782359167ffffffffffffffff8311610244576020808501948460051b01011161024457565b60c06003198201126102445760043591602435916044359067ffffffffffffffff821161024457611b3c91600401611ad8565b90916001600160a01b0390606435828116810361024457916084359081168103610244579060a43590565b610140906003190112610244576001600160a01b03600435818116810361024457916024359160443591606435916084359081168103610244579060a4359060c4358015158103610244579060e43560ff81168103610244579061010435906101243590565b15611bd457565b634e487b7160e01b600052600160045260246000fd5b15611bf157565b60405162461bcd60e51b8152602060048201526015602482015274105c9d1a1d5c949bdd5d195c8e8811561412549151605a1b6044820152606490fd5b67ffffffffffffffff8111611c4257604052565b634e487b7160e01b600052604160045260246000fd5b90601f8019910116810190811067ffffffffffffffff821117611c4257604052565b3d15611cb5573d9067ffffffffffffffff8211611c425760405191611ca9601f8201601f191660200184611c58565b82523d6000602084013e565b606090565b90816020910312610244575180151581036102445790565b6040516323b872dd60e01b602082019081526001600160a01b0393841660248301529390921660448301526064820193909352600092839290918390611d2581608481015b03601f198101835282611c58565b51925af1611d31611c7a565b81611d9e575b5015611d3f57565b60405162461bcd60e51b815260206004820152603160248201527f5472616e7366657248656c7065723a3a7472616e7366657246726f6d3a207472604482015270185b9cd9995c919c9bdb4819985a5b1959607a1b6064820152608490fd5b8051801592508215611db3575b505038611d37565b611dc69250602080918301019101611cba565b3880611dab565b9081602091031261024457516001600160a01b03811681036102445790565b15611df357565b60405162461bcd60e51b815260206004820152602360248201527f417274687572526f757465723a20494e53554646494349454e545f415f414d4f60448201526215539560ea1b6064820152608490fd5b15611e4b57565b60405162461bcd60e51b815260206004820152602360248201527f417274687572526f757465723a20494e53554646494349454e545f425f414d4f60448201526215539560ea1b6064820152608490fd5b96909493929591967f00000000000000000000000000000000000000000000000000000000000000009560018060a01b03918288169360409586519163e6a4390560e01b835285841696876004850152868616918260248601526020948581604481865afa9081156120e8579189809897969594928c946000916120cb575b501615612037575b50505050505090611f448383611f3d600496608096612b17565b509b612bde565b16855192838092630240bc6b60e21b82525afa93841561202d57506000908194611ff8575b506001600160701b038091169316951614600014611ff2575b801580611fea575b15611f9757505050509091565b611fa684828897959697612cc3565b94838611611fc25750505050611fbe90821015611e44565b9091565b839550611fbe945090611fd991611fe29394612cc3565b94851115611bcd565b831015611dec565b508315611f8a565b92611f82565b905061201c91935060803d8111612026575b6120148183611c58565b810190612704565b5050929038611f69565b503d61200a565b513d6000823e3d90fd5b85969750608492916000918d97969751978896879563035f962d60e01b875260048701526024860152604485015260648401525af180156120c057936080938693611f4493600497612092575b8397839697508a9250611f23565b816120b192903d106120b9575b6120a98183611c58565b810190611dcd565b503880612084565b503d61209f565b87513d6000823e3d90fd5b6120e29150883d8a116120b9576120a98183611c58565b38611f1b565b8b513d6000823e3d90fd5b9190820391821161210057565b634e487b7160e01b600052601160045260246000fd5b6040516020810181811067ffffffffffffffff821117611c4257600093849384809484604052525af1612147611c7a565b501561214f57565b60405162461bcd60e51b815260206004820152603460248201527f5472616e7366657248656c7065723a3a736166655472616e736665724554483a60448201527308115512081d1c985b9cd9995c8819985a5b195960621b6064820152608490fd5b60405163a9059cbb60e01b602082019081526001600160a01b039093166024820152604481019390935260009283929083906121f08160648101611d17565b51925af16121fc611c7a565b81612265575b501561220a57565b60405162461bcd60e51b815260206004820152602d60248201527f5472616e7366657248656c7065723a3a736166655472616e736665723a20747260448201526c185b9cd9995c8819985a5b1959609a1b6064820152608490fd5b805180159250821561227a575b505038612202565b61228d9250602080918301019101611cba565b3880612272565b9360ff929897969360c0969260e087019a60018060a01b0380921688521660208701526040860152606085015216608083015260a08201520152565b909291944211156122e081611bea565b61230a7f000000000000000000000000000000000000000000000000000000000000000091611bea565b61233581837f0000000000000000000000000000000000000000000000000000000000000000612bde565b60408051633331daeb60e01b815260049691956001600160a01b039593602093919287821692919085818c81875afa9081156125a657600091612579575b5042106125485788516323b872dd60e01b815233818c019081526001600160a01b039092166020830152604082019290925284908290819060600103816000865af1801561253d5791889160009493612520575b50815163226bf2d160e21b8152308b82015293849160249183915af1998a156120c057600092839b6124ea575b506123ff8686612b17565b508588169390881684036124d757849261049d60249593612422935b1015611dec565b87516370a0823160e01b8152308a82015292839182905afa9182156124cc57908891600093612499575b5050612457926121b1565b1691823b15610244578460246000928385519687948593632e1a7d4d60e01b85528401525af190811561202d5750918391612496936119775750612116565b90565b9080939250813d83116124c5575b6124b18183611c58565b8101031261050f575051866124573861244c565b503d6124a7565b86513d6000823e3d90fd5b9a849261049d602495936124229361241b565b92909a508783813d8311612519575b6125038183611c58565b8101031261050f575082825192015199386123f4565b503d6124f9565b61253690863d881161059a5761058b8183611c58565b50386123c7565b88513d6000823e3d90fd5b885162461bcd60e51b8152808b01869052601f6024820152600080516020612e208339815191526044820152606490fd5b908682813d831161259f575b61258f8183611c58565b8101031261050f57505138612373565b503d612585565b8a513d6000823e3d90fd5b91908110156125c15760051b0190565b634e487b7160e01b600052603260045260246000fd5b356001600160a01b03811681036102445790565b67ffffffffffffffff8111611c425760051b60200190565b929161260e826125eb565b9161261c6040519384611c58565b829481845260208094019160051b810192831161024457905b8282106126425750505050565b81356001600160a01b0381168103610244578152908301908301612635565b1561266857565b60405162461bcd60e51b815260206004820152602860248201527f417274687572526f757465723a20494e53554646494349454e545f4f555450556044820152671517d05353d5539560c21b6064820152608490fd5b60001981146121005760010190565b80518210156125c15760209160051b010190565b51906001600160701b038216820361024457565b519061ffff8216820361024457565b919082608091031261024457612719826126e1565b91612726602082016126e1565b916124966060612738604085016126f5565b93016126f5565b7f0000000000000000000000000000000000000000000000000000000000000000939290919060005b8351600019810190811161210057811015612a71576001600160a01b038061279083876126cd565b51169060018301808411612100576127a98291886126cd565b5116916127b68382612b17565b5091806127c485848d612bde565b1691604093845191630240bc6b60e21b835260809660049780858a818a5afa94851561253d576000918296612a4b575b5050856001600160701b0380921694168314948515612a41575b50508651936370a0823160e01b8552868986015260209360249585818881885afa9081156125a65790869291600091612a0f575b509061284d91612ac5565b89516378a051ad60e11b8152808c019182526001600160a01b0390951660208201528490819060400103818a5afa92831561253d576000936129e0575b50156129d857600091905b8c5160011981019081116129bc578a10156129d05760028a01808b116129bc578f9091878f6128cf946128c7916126cd565b511691612bde565b905b87519484860186811067ffffffffffffffff8211176129a857895260008652873b1561024457908694939996929189989698519a8b98636e1fdd7f60e01b8a5289015287015216604485015260a060648501528451908160a48601526000955b82871061298f57505060009450839182869260c492848483850101528c166084830152601f801991011681010301925af190811561202d57509061297b9291612980575b506126be565b612768565b61298990611c2e565b38612975565b86810182015189880160c4015295810195889550612931565b50634e487b7160e01b600090815260418b52fd5b8560118b634e487b7160e01b600052526000fd5b508a906128d1565b600090612895565b90928482813d8311612a08575b6129f78183611c58565b8101031261050f575051913861288a565b503d6129ed565b919282813d8311612a3a575b612a258183611c58565b8101031261050f57505185919061284d612842565b503d612a1b565b169250388061280e565b612a6693965080919250903d10612026576120148183611c58565b5050939038806127f4565b505050509050565b15612a8057565b60405162461bcd60e51b815260206004820152601a60248201527f417274687572526f757465723a20494e56414c49445f504154480000000000006044820152606490fd5b9190612ad190836120f3565b918211612ada57565b60405162461bcd60e51b815260206004820152601560248201527464732d6d6174682d7375622d756e646572666c6f7760581b6044820152606490fd5b90916001600160a01b0391828416838216808214612b8b571015612b8657925b91831615612b4157565b60405162461bcd60e51b815260206004820152601e60248201527f556e697377617056324c6962726172793a205a45524f5f4144445245535300006044820152606490fd5b612b37565b60405162461bcd60e51b815260206004820152602560248201527f556e697377617056324c6962726172793a204944454e544943414c5f41444452604482015264455353455360d81b6064820152608490fd5b91612be891612b17565b6040929192519260208401906bffffffffffffffffffffffff199283809260601b16835260601b16603485015260288452606084019367ffffffffffffffff9281861084871117611c425760e092866040528251902090608083019560ff60f81b875260601b16608183015260958201527f81385858af2776e6fd64d931a89d0b6b1f526cfcfa0444f6374095d8c7106e3260b582015260558552019083821090821117611c4257604052905190206001600160a01b031690565b8115612cad570490565b634e487b7160e01b600052601260045260246000fd5b8015612dcc5781151580612dc3575b15612d6d576000928015918215612d30575b505015612cf45761249691612ca3565b60405162461bcd60e51b815260206004820152601460248201527364732d6d6174682d6d756c2d6f766572666c6f7760601b6044820152606490fd5b809250600094919419048411600116612d595750612d518382029384612ca3565b143880612ce4565b634e487b7160e01b81526011600452602490fd5b60405162461bcd60e51b815260206004820152602860248201527f556e697377617056324c6962726172793a20494e53554646494349454e545f4c604482015267495155494449545960c01b6064820152608490fd5b50821515612cd2565b60405162461bcd60e51b815260206004820152602560248201527f556e697377617056324c6962726172793a20494e53554646494349454e545f416044820152641353d5539560da1b6064820152608490fdfe417274687572526f757465723a20494e56414c49445f54494d455f4c4f434b00a26469706673582212200d8478ee460ec7303e6d5cb04dda27791a607c37ef21b1af474ffcced2c5f37564736f6c63430008100033",
  "linkReferences": {},
  "deployedLinkReferences": {}
}