{
  "_format": "hh-sol-artifact-1",
  "contractName": "ArthurFactory",
  "sourceName": "contracts/ArthurFactory.sol",
  "abi": [
    {
      "inputs": [
        {
          "internalType": "address",
          "name": "feeTo_",
          "type": "address"
        }
      ],
      "payable": false,
      "stateMutability": "nonpayable",
      "type": "constructor"
    },
    {
      "anonymous": false,
      "inputs": [
        {
          "indexed": true,
          "internalType": "address",
          "name": "prevOwner",
          "type": "address"
        },
        {
          "indexed": true,
          "internalType": "address",
          "name": "newOwner",
          "type": "address"
        }
      ],
      "name": "FeePercentOwnershipTransferred",
      "type": "event"
    },
    {
      "anonymous": false,
      "inputs": [
        {
          "indexed": true,
          "internalType": "address",
          "name": "prevFeeTo",
          "type": "address"
        },
        {
          "indexed": true,
          "internalType": "address",
          "name": "newFeeTo",
          "type": "address"
        }
      ],
      "name": "FeeToTransferred",
      "type": "event"
    },
    {
      "anonymous": false,
      "inputs": [
        {
          "indexed": false,
          "internalType": "uint256",
          "name": "prevOwnerFeeShare",
          "type": "uint256"
        },
        {
          "indexed": false,
          "internalType": "uint256",
          "name": "ownerFeeShare",
          "type": "uint256"
        }
      ],
      "name": "OwnerFeeShareUpdated",
      "type": "event"
    },
    {
      "anonymous": false,
      "inputs": [
        {
          "indexed": true,
          "internalType": "address",
          "name": "prevOwner",
          "type": "address"
        },
        {
          "indexed": true,
          "internalType": "address",
          "name": "newOwner",
          "type": "address"
        }
      ],
      "name": "OwnershipTransferred",
      "type": "event"
    },
    {
      "anonymous": false,
      "inputs": [
        {
          "indexed": true,
          "internalType": "address",
          "name": "token0",
          "type": "address"
        },
        {
          "indexed": true,
          "internalType": "address",
          "name": "token1",
          "type": "address"
        },
        {
          "indexed": false,
          "internalType": "address",
          "name": "pair",
          "type": "address"
        },
        {
          "indexed": false,
          "internalType": "uint256",
          "name": "length",
          "type": "uint256"
        }
      ],
      "name": "PairCreated",
      "type": "event"
    },
    {
      "anonymous": false,
      "inputs": [
        {
          "indexed": false,
          "internalType": "address",
          "name": "referrer",
          "type": "address"
        },
        {
          "indexed": false,
          "internalType": "uint256",
          "name": "prevReferrerFeeShare",
          "type": "uint256"
        },
        {
          "indexed": false,
          "internalType": "uint256",
          "name": "referrerFeeShare",
          "type": "uint256"
        }
      ],
      "name": "ReferrerFeeShareUpdated",
      "type": "event"
    },
    {
      "anonymous": false,
      "inputs": [
        {
          "indexed": true,
          "internalType": "address",
          "name": "prevOwner",
          "type": "address"
        },
        {
          "indexed": true,
          "internalType": "address",
          "name": "newOwner",
          "type": "address"
        }
      ],
      "name": "SetStableOwnershipTransferred",
      "type": "event"
    },
    {
      "constant": true,
      "inputs": [],
      "name": "OWNER_FEE_SHARE_MAX",
      "outputs": [
        {
          "internalType": "uint256",
          "name": "",
          "type": "uint256"
        }
      ],
      "payable": false,
      "stateMutability": "view",
      "type": "function"
    },
    {
      "constant": true,
      "inputs": [],
      "name": "REFERER_FEE_SHARE_MAX",
      "outputs": [
        {
          "internalType": "uint256",
          "name": "",
          "type": "uint256"
        }
      ],
      "payable": false,
      "stateMutability": "view",
      "type": "function"
    },
    {
      "constant": true,
      "inputs": [
        {
          "internalType": "uint256",
          "name": "",
          "type": "uint256"
        }
      ],
      "name": "allPairs",
      "outputs": [
        {
          "internalType": "address",
          "name": "",
          "type": "address"
        }
      ],
      "payable": false,
      "stateMutability": "view",
      "type": "function"
    },
    {
      "constant": true,
      "inputs": [],
      "name": "allPairsLength",
      "outputs": [
        {
          "internalType": "uint256",
          "name": "",
          "type": "uint256"
        }
      ],
      "payable": false,
      "stateMutability": "view",
      "type": "function"
    },
    {
      "constant": false,
      "inputs": [
        {
          "internalType": "address",
          "name": "tokenA",
          "type": "address"
        },
        {
          "internalType": "address",
          "name": "tokenB",
          "type": "address"
        },
        {
          "internalType": "uint256",
          "name": "timeLock",
          "type": "uint256"
        },
        {
          "internalType": "uint256",
          "name": "startTime",
          "type": "uint256"
        }
      ],
      "name": "createPair",
      "outputs": [
        {
          "internalType": "address",
          "name": "pair",
          "type": "address"
        }
      ],
      "payable": false,
      "stateMutability": "nonpayable",
      "type": "function"
    },
    {
      "constant": true,
      "inputs": [],
      "name": "feeInfo",
      "outputs": [
        {
          "internalType": "uint256",
          "name": "_ownerFeeShare",
          "type": "uint256"
        },
        {
          "internalType": "address",
          "name": "_feeTo",
          "type": "address"
        }
      ],
      "payable": false,
      "stateMutability": "view",
      "type": "function"
    },
    {
      "constant": true,
      "inputs": [],
      "name": "feePercentOwner",
      "outputs": [
        {
          "internalType": "address",
          "name": "",
          "type": "address"
        }
      ],
      "payable": false,
      "stateMutability": "view",
      "type": "function"
    },
    {
      "constant": true,
      "inputs": [],
      "name": "feeTo",
      "outputs": [
        {
          "internalType": "address",
          "name": "",
          "type": "address"
        }
      ],
      "payable": false,
      "stateMutability": "view",
      "type": "function"
    },
    {
      "constant": true,
      "inputs": [
        {
          "internalType": "address",
          "name": "",
          "type": "address"
        },
        {
          "internalType": "address",
          "name": "",
          "type": "address"
        }
      ],
      "name": "getPair",
      "outputs": [
        {
          "internalType": "address",
          "name": "",
          "type": "address"
        }
      ],
      "payable": false,
      "stateMutability": "view",
      "type": "function"
    },
    {
      "constant": true,
      "inputs": [],
      "name": "owner",
      "outputs": [
        {
          "internalType": "address",
          "name": "",
          "type": "address"
        }
      ],
      "payable": false,
      "stateMutability": "view",
      "type": "function"
    },
    {
      "constant": true,
      "inputs": [],
      "name": "ownerFeeShare",
      "outputs": [
        {
          "internalType": "uint256",
          "name": "",
          "type": "uint256"
        }
      ],
      "payable": false,
      "stateMutability": "view",
      "type": "function"
    },
    {
      "constant": true,
      "inputs": [
        {
          "internalType": "address",
          "name": "",
          "type": "address"
        }
      ],
      "name": "referrersFeeShare",
      "outputs": [
        {
          "internalType": "uint256",
          "name": "",
          "type": "uint256"
        }
      ],
      "payable": false,
      "stateMutability": "view",
      "type": "function"
    },
    {
      "constant": false,
      "inputs": [
        {
          "internalType": "address",
          "name": "_feePercentOwner",
          "type": "address"
        }
      ],
      "name": "setFeePercentOwner",
      "outputs": [],
      "payable": false,
      "stateMutability": "nonpayable",
      "type": "function"
    },
    {
      "constant": false,
      "inputs": [
        {
          "internalType": "address",
          "name": "_feeTo",
          "type": "address"
        }
      ],
      "name": "setFeeTo",
      "outputs": [],
      "payable": false,
      "stateMutability": "nonpayable",
      "type": "function"
    },
    {
      "constant": false,
      "inputs": [
        {
          "internalType": "address",
          "name": "_owner",
          "type": "address"
        }
      ],
      "name": "setOwner",
      "outputs": [],
      "payable": false,
      "stateMutability": "nonpayable",
      "type": "function"
    },
    {
      "constant": false,
      "inputs": [
        {
          "internalType": "uint256",
          "name": "newOwnerFeeShare",
          "type": "uint256"
        }
      ],
      "name": "setOwnerFeeShare",
      "outputs": [],
      "payable": false,
      "stateMutability": "nonpayable",
      "type": "function"
    },
    {
      "constant": false,
      "inputs": [
        {
          "internalType": "address",
          "name": "referrer",
          "type": "address"
        },
        {
          "internalType": "uint256",
          "name": "referrerFeeShare",
          "type": "uint256"
        }
      ],
      "name": "setReferrerFeeShare",
      "outputs": [],
      "payable": false,
      "stateMutability": "nonpayable",
      "type": "function"
    },
    {
      "constant": false,
      "inputs": [
        {
          "internalType": "address",
          "name": "_setStableOwner",
          "type": "address"
        }
      ],
      "name": "setSetStableOwner",
      "outputs": [],
      "payable": false,
      "stateMutability": "nonpayable",
      "type": "function"
    },
    {
      "constant": true,
      "inputs": [],
      "name": "setStableOwner",
      "outputs": [
        {
          "internalType": "address",
          "name": "",
          "type": "address"
        }
      ],
      "payable": false,
      "stateMutability": "view",
      "type": "function"
    }
  ],
  "bytecode": "0x608060405261c35060045534801561001657600080fd5b506040516151ff3803806151ff8339818101604052602081101561003957600080fd5b505160008054336001600160a01b0319918216811783556001805483168217905560028054831682179055600380549092166001600160a01b038516179091556040519091907f8be0079c531659141344cd1fd0a4f28419497f9722a3daafe3b4186f6b6457e0908290a360405133906000907ff14fcb76f5835c1d416cc224ffc209c65749cede0d23fd6e6035d4dd1c2e0f8c908290a360405133906000907fabdd76bd5d5532d19d3e93704ac3544f45f03dc956b39995d3436d2d166855e5908290a36040516001600160a01b038216906000907f941bed5eb8a4f7abb41f1a8547c6b5fded98a6fbe47dbd60aee080690de5f0d5908290a3506150bb806101446000396000f3fe608060405234801561001057600080fd5b50600436106101215760003560e01c80638692fa7d116100ad578063c1cf3c7f11610071578063c1cf3c7f1461029f578063e6a43905146102cb578063e93f6585146102f9578063f46901ed1461031f578063fc39026a1461034557610121565b80638692fa7d146102235780638da5cb5b1461024957806390fd06871461025157806391b8317814610259578063995b5aae1461027657610121565b80631e3dd18b116100f45780631e3dd18b146101c85780634c217715146101e5578063574f2ba3146101ed57806369c8b572146101f55780637183d47c146101fd57610121565b8063017e7e5814610126578063035f962d1461014a57806313af4035146101865780631850bd76146101ae575b600080fd5b61012e61034d565b604080516001600160a01b039092168252519081900360200190f35b61012e6004803603608081101561016057600080fd5b506001600160a01b0381358116916020810135909116906040810135906060013561035c565b6101ac6004803603602081101561019c57600080fd5b50356001600160a01b03166106e0565b005b6101b66107cd565b60408051918252519081900360200190f35b61012e600480360360208110156101de57600080fd5b50356107d3565b61012e6107fa565b6101b6610809565b6101b661080f565b6101b66004803603602081101561021357600080fd5b50356001600160a01b0316610815565b6101ac6004803603602081101561023957600080fd5b50356001600160a01b0316610827565b61012e610915565b6101b6610924565b6101ac6004803603602081101561026f57600080fd5b503561092b565b61027e610a37565b604080519283526001600160a01b0390911660208301528051918290030190f35b6101ac600480360360408110156102b557600080fd5b506001600160a01b038135169060200135610a4d565b61012e600480360360408110156102e157600080fd5b506001600160a01b0381358116916020013516610b93565b6101ac6004803603602081101561030f57600080fd5b50356001600160a01b0316610bb9565b6101ac6004803603602081101561033557600080fd5b50356001600160a01b0316610ca7565b61012e610d4c565b6003546001600160a01b031681565b6000836001600160a01b0316856001600160a01b031614156103af5760405162461bcd60e51b8152600401808060200182810382526022815260200180614fbe6022913960400191505060405180910390fd5b600080856001600160a01b0316876001600160a01b0316106103d25785876103d5565b86865b90925090506001600160a01b038216610435576040805162461bcd60e51b815260206004820152601b60248201527f417274687572466163746f72793a205a45524f5f414444524553530000000000604482015290519081900360640190fd5b6001600160a01b038281166000908152600660209081526040808320858516845290915290205416156104af576040805162461bcd60e51b815260206004820152601a60248201527f417274687572466163746f72793a20504149525f455849535453000000000000604482015290519081900360640190fd5b6060604051806020016104c190610d5b565b6020820181038252601f19601f8201166040525090506000838360405160200180836001600160a01b03166001600160a01b031660601b8152601401826001600160a01b03166001600160a01b031660601b815260140192505050604051602081830303815290604052805190602001209050808251602084016000f594506001600160a01b038516610593576040805162461bcd60e51b8152602060048201526015602482015274105c9d1a1d5c919858dd1bdc9e4e88119052531151605a1b604482015290519081900360640190fd5b6040805163eb990c5960e01b81526001600160a01b0386811660048301528581166024830152604482018a90526064820189905291519187169163eb990c599160848082019260009290919082900301818387803b1580156105f457600080fd5b505af1158015610608573d6000803e3d6000fd5b505050506001600160a01b0384811660008181526006602081815260408084208987168086529083528185208054978d166001600160a01b031998891681179091559383528185208686528352818520805488168517905560078054600181018255958190527fa66cc928b5edb82af9bd49922954155ab7b0942694bea4ce44661d9a8736c68890950180549097168417909655925483519283529082015281517f0d3648bd0f6ba80134a33ba9275ac585d9d315f0ad8355cddefde31afa28d0e9929181900390910190a350505050949350505050565b6000546001600160a01b031633146107295760405162461bcd60e51b8152600401808060200182810382526026815260200180614f986026913960400191505060405180910390fd5b6001600160a01b038116610772576040805162461bcd60e51b815260206004820152601b6024820152600080516020614fe0833981519152604482015290519081900360640190fd5b600080546040516001600160a01b03808516939216917f8be0079c531659141344cd1fd0a4f28419497f9722a3daafe3b4186f6b6457e091a3600080546001600160a01b0319166001600160a01b0392909216919091179055565b614e2081565b600781815481106107e057fe5b6000918252602090912001546001600160a01b0316905081565b6001546001600160a01b031681565b60075490565b60045481565b60056020526000908152604090205481565b6002546001600160a01b031633146108705760405162461bcd60e51b81526004018080602001828103825260218152602001806150666021913960400191505060405180910390fd5b6001600160a01b0381166108b9576040805162461bcd60e51b815260206004820152601b6024820152600080516020614fe0833981519152604482015290519081900360640190fd5b6002546040516001600160a01b038084169216907fabdd76bd5d5532d19d3e93704ac3544f45f03dc956b39995d3436d2d166855e590600090a3600280546001600160a01b0319166001600160a01b0392909216919091179055565b6000546001600160a01b031681565b620186a081565b6000546001600160a01b031633146109745760405162461bcd60e51b8152600401808060200182810382526026815260200180614f986026913960400191505060405180910390fd5b600081116109b35760405162461bcd60e51b81526004018080602001828103825260338152602001806150336033913960400191505060405180910390fd5b620186a08111156109f55760405162461bcd60e51b81526004018080602001828103825260338152602001806150006033913960400191505060405180910390fd5b600454604080519182526020820183905280517fd739f5afb7778b0c4f4e62b13ac0a94ccc1556dbcb8dc2d0b907daed378e1e239281900390910190a1600455565b60045460035490916001600160a01b0390911690565b6000546001600160a01b03163314610a965760405162461bcd60e51b8152600401808060200182810382526026815260200180614f986026913960400191505060405180910390fd5b6001600160a01b038216610adf576040805162461bcd60e51b815260206004820152601b6024820152600080516020614fe0833981519152604482015290519081900360640190fd5b614e20811115610b205760405162461bcd60e51b8152600401808060200182810382526036815260200180614f626036913960400191505060405180910390fd5b6001600160a01b03821660008181526005602090815260409182902054825193845290830152818101839052517f4deb2bb31aaa8475916c8556f3e3287795da71076b7419d627eeef223b7dcc589181900360600190a16001600160a01b03909116600090815260056020526040902055565b60066020908152600092835260408084209091529082529020546001600160a01b031681565b6000546001600160a01b03163314610c025760405162461bcd60e51b8152600401808060200182810382526026815260200180614f986026913960400191505060405180910390fd5b6001600160a01b038116610c4b576040805162461bcd60e51b815260206004820152601b6024820152600080516020614fe0833981519152604482015290519081900360640190fd5b6001546040516001600160a01b038084169216907ff14fcb76f5835c1d416cc224ffc209c65749cede0d23fd6e6035d4dd1c2e0f8c90600090a3600180546001600160a01b0319166001600160a01b0392909216919091179055565b6000546001600160a01b03163314610cf05760405162461bcd60e51b8152600401808060200182810382526026815260200180614f986026913960400191505060405180910390fd5b6003546040516001600160a01b038084169216907f941bed5eb8a4f7abb41f1a8547c6b5fded98a6fbe47dbd60aee080690de5f0d590600090a3600380546001600160a01b0319166001600160a01b0392909216919091179055565b6002546001600160a01b031681565b6141f980610d698339019056fe60806040526008805461ffff60e01b1916604b60e21b176001600160f01b0316604b60f21b179055600160105534801561003857600080fd5b5060405146908060526141a7823960408051918290036052018220828201825260098352680417274687572204c560bc1b6020938401528151808301835260018152603160f81b908401528151808401919091527f0e27287c8a23f01bdaa9d0ef4f1300b5eb160684bbf13ded77a23fa3b18457d2818301527fc89efdaa54c0f20c7adf612882df0950f5a951637e0307cdcb4c672f298b8bc6606082015260808101949094523060a0808601919091528151808603909101815260c09094019052825192019190912060035550600580546001600160a01b03191633179055614080806101276000396000f3fe608060405234801561001057600080fd5b50600436106102955760003560e01c80636a62784211610167578063bc25cf77116100ce578063dd62ed3e11610087578063dd62ed3e146107e1578063eb990c591461080f578063ed8d6a231461084b578063f140a35a14610868578063f39ac11f14610894578063fff6cae9146108c257610295565b8063bc25cf771461074a578063c45a015514610770578063d085835a14610778578063d21220a714610780578063d505accf14610788578063d73792a9146107d957610295565b806389afcb441161012057806389afcb44146106bf57806395d89b41146106fe5780639e548b7f14610706578063a9059cbb1461070e578063b6200b071461073a578063ba9a7a561461074257610295565b80636a627842146105a85780636e1fdd7f146105ce57806370a08231146106635780637464fc3d1461068957806378e97925146106915780637ecebe001461069957610295565b80633029e5d41161020b5780633ba17077116101c45780633ba170771461054257806348e5d2601461054a578063518ef5dd14610573578063560b86591461059057806362ecec031461059857806367d81740146105a057610295565b80633029e5d4146104ce57806330adf81f14610504578063313ce5671461050c5780633331daeb1461052a5780633644e515146105325780633b9f1dc01461053a57610295565b80630dfe16811161025d5780630dfe16811461043d578063158ef93e1461046157806318160ddd1461046957806323b872dd14610471578063288e5d02146104a75780632fcd1692146104af57610295565b8063022c0d9f1461029a578063041151871461032857806306fdde03146103425780630902f1ac146103bf578063095ea7b3146103fd575b600080fd5b610326600480360360808110156102b057600080fd5b8135916020810135916001600160a01b0360408301351691908101906080810160608201356401000000008111156102e757600080fd5b8201836020820111156102f957600080fd5b8035906020019184600183028401116401000000008311171561031b57600080fd5b5090925090506108ca565b005b61033061096b565b60408051918252519081900360200190f35b61034a610971565b6040805160208082528351818301528351919283929083019185019080838360005b8381101561038457818101518382015260200161036c565b50505050905090810190601f1680156103b15780820380516001836020036101000a031916815260200191505b509250505060405180910390f35b6103c7610996565b604080516001600160701b03958616815293909416602084015261ffff9182168385015216606082015290519081900360800190f35b6104296004803603604081101561041357600080fd5b506001600160a01b0381351690602001356109c9565b604080519115158252519081900360200190f35b6104456109e0565b604080516001600160a01b039092168252519081900360200190f35b6104296109ef565b6103306109ff565b6104296004803603606081101561048757600080fd5b506001600160a01b03813581169160208101359091169060400135610a05565b610330610adc565b6104b7610ae2565b6040805161ffff9092168252519081900360200190f35b610326600480360360608110156104e457600080fd5b5080351515906001600160701b0360208201358116916040013516610af3565b610330610dd4565b610514610df8565b6040805160ff9092168252519081900360200190f35b610330610dfd565b610330610e07565b610330610e0d565b610326610e13565b6103266004803603604081101561056057600080fd5b5061ffff81358116916020013516610fb4565b6103266004803603602081101561058957600080fd5b50356111d9565b61033061137f565b6104b7611386565b610330611397565b610330600480360360208110156105be57600080fd5b50356001600160a01b031661139d565b610326600480360360a08110156105e457600080fd5b8135916020810135916001600160a01b03604083013516919081019060808101606082013564010000000081111561061b57600080fd5b82018360208201111561062d57600080fd5b8035906020019184600183028401116401000000008311171561064f57600080fd5b9193509150356001600160a01b031661169c565b6103306004803603602081101561067957600080fd5b50356001600160a01b0316611740565b610330611752565b610330611758565b610330600480360360208110156106af57600080fd5b50356001600160a01b031661175e565b6106e5600480360360208110156106d557600080fd5b50356001600160a01b0316611770565b6040805192835260208301919091528051918290030190f35b61034a611b65565b610429611b86565b6104296004803603604081101561072457600080fd5b506001600160a01b038135169060200135611b8f565b610429611b9c565b610330611baa565b6103266004803603602081101561076057600080fd5b50356001600160a01b0316611bb0565b610445611d3e565b610330611d4d565b610445611d53565b610326600480360360e081101561079e57600080fd5b506001600160a01b03813581169160208101359091169060408101359060608101359060ff6080820135169060a08101359060c00135611d62565b610330611f64565b610330600480360360408110156107f757600080fd5b506001600160a01b0381358116916020013516611f6b565b6103266004803603608081101561082557600080fd5b506001600160a01b03813581169160208101359091169060408101359060600135611f88565b6103266004803603602081101561086157600080fd5b503561216c565b6103306004803603604081101561087e57600080fd5b50803590602001356001600160a01b0316612356565b610326600480360360408110156108aa57600080fd5b506001600160a01b03813581169160200135166123c6565b61032661261e565b6108d2613de7565b5060408051610100810182526006546001600160a01b039081168252600754166020808301919091528183018890526060820187905260006080830181905260a0830181905260c0830181905260e08301528251601f8501829004820281018201909352838352909161096391839187918790879081908401838280828437600092018290525092506127bc915050565b505050505050565b600e5481565b604051806040016040528060098152602001680417274687572204c560bc1b81525081565b6008546001600160701b0380821692600160701b83049091169161ffff600160e01b8204811692600160f01b9092041690565b60006109d63384846131c5565b5060015b92915050565b6006546001600160a01b031681565b600754600160a01b900460ff1681565b60005481565b6001600160a01b038316600090815260026020908152604080832033845290915281205460001914610ac6576001600160a01b0384166000908152600260209081526040808320338452909152812054610a65908463ffffffff61322716565b6001600160a01b038616600081815260026020908152604080832033808552908352928190208590558051858152905194955091937f8c5be1e5ebec7d5bd14f71427d1e84f3dd0314c0f7b2291e5b200ac8c7c3b9259281900390910190a3505b610ad1848484613277565b5060015b9392505050565b600a5481565b600854600160f01b900461ffff1681565b601054600114610b38576040805162461bcd60e51b81526020600482015260126024820152600080516020613f80833981519152604482015290519081900360640190fd5b600060105560055460408051637e1c813560e11b815290516001600160a01b039092169163fc39026a91600480820192602092909190829003018186803b158015610b8257600080fd5b505afa158015610b96573d6000803e3d6000fd5b505050506040513d6020811015610bac57600080fd5b50516001600160a01b03163314610bf45760405162461bcd60e51b81526004018080602001828103825260298152602001806140236029913960400191505060405180910390fd5b600c54610100900460ff1615610c49576040805162461bcd60e51b8152602060048201526015602482015274417274687572506169723a20696d6d757461626c6560581b604482015290519081900360640190fd5b600c5460ff1615158315151415610c9f576040805162461bcd60e51b8152602060048201526015602482015274417274687572506169723a206e6f2075706461746560581b604482015290519081900360640190fd5b6008546001600160701b038381169116148015610cd057506008546001600160701b03828116600160701b90920416145b610d16576040805162461bcd60e51b8152602060048201526012602482015271105c9d1a1d5c94185a5c8e8819985a5b195960721b604482015290519081900360640190fd5b600854600090610d39906001600160701b0380821691600160701b900416613331565b600c546040805160ff90921615158252861515602083015280519293507fb6a86710bde53aa7fb1b3856279e2af5b476d53e2dd0902cf17a0911b5a43a8b92918290030190a1600c805460ff191685158015919091179091558490610d9b5750805b610da6576000610dc6565b600854610dc6906001600160701b0380821691600160701b9004166134ea565b600b55505060016010555050565b7f6e71edae12b1b97f4d1f60370fef10105fa2faae0126114a169c64845d6126c981565b601281565b600d54600e540190565b60035481565b60095481565b601054600114610e58576040805162461bcd60e51b81526020600482015260126024820152600080516020613f80833981519152604482015290519081900360640190fd5b600060105560055460408051638da5cb5b60e01b815290516001600160a01b0390921691638da5cb5b91600480820192602092909190829003018186803b158015610ea257600080fd5b505afa158015610eb6573d6000803e3d6000fd5b505050506040513d6020811015610ecc57600080fd5b50516001600160a01b03163314610f18576040805162461bcd60e51b81526020600482018190526024820152600080516020613f2f833981519152604482015290519081900360640190fd5b600c54610100900460ff1615610f75576040805162461bcd60e51b815260206004820152601d60248201527f417274687572506169723a20616c726561647920696d6d757461626c65000000604482015290519081900360640190fd5b600c805461ff0019166101001790556040517f09122c41ae733a4d7740324d50e35fbd6ee85be3c1312a45596d8045150ab2f290600090a16001601055565b601054600114610ff9576040805162461bcd60e51b81526020600482015260126024820152600080516020613f80833981519152604482015290519081900360640190fd5b600060105560055460408051634c21771560e01b815290516001600160a01b0390921691634c21771591600480820192602092909190829003018186803b15801561104357600080fd5b505afa158015611057573d6000803e3d6000fd5b505050506040513d602081101561106d57600080fd5b50516001600160a01b031633146110b55760405162461bcd60e51b8152600401808060200182810382526029815260200180613e3f6029913960400191505060405180910390fd5b6107d08261ffff16111580156110d157506107d08161ffff1611155b61110c5760405162461bcd60e51b8152600401808060200182810382526031815260200180613f4f6031913960400191505060405180910390fd5b60008261ffff16118015611124575060008161ffff16115b61115f5760405162461bcd60e51b8152600401808060200182810382526031815260200180613eb76031913960400191505060405180910390fd5b6008805461ffff60e01b1916600160e01b61ffff858116918202929092176001600160f01b0316600160f01b9285169283021790925560408051928352602083019190915280517fa4877b8ecb5a00ba277e4bceeeb187a669e7113649774dfbea05c259ce27f17b9281900390910190a150506001601055565b60105460011461121e576040805162461bcd60e51b81526020600482015260126024820152600080516020613f80833981519152604482015290519081900360640190fd5b600060105560055460408051638da5cb5b60e01b815290516001600160a01b0390921691638da5cb5b91600480820192602092909190829003018186803b15801561126857600080fd5b505afa15801561127c573d6000803e3d6000fd5b505050506040513d602081101561129257600080fd5b50516001600160a01b031633146112de576040805162461bcd60e51b81526020600482018190526024820152600080516020613f2f833981519152604482015290519081900360640190fd5b600c54610100900460ff1615611333576040805162461bcd60e51b8152602060048201526015602482015274417274687572506169723a20696d6d757461626c6560581b604482015290519081900360640190fd5b600f805490829055604080518281526020810184905281517f048038d798d2069bace1aaf7edd663cc5c4bef083ad9eee949e1dd24087219bd929181900390910190a150506001601055565b6276a70081565b600854600160e01b900461ffff1681565b6107d081565b60006010546001146113e4576040805162461bcd60e51b81526020600482015260126024820152600080516020613f80833981519152604482015290519081900360640190fd5b60006010819055806113f4610996565b5050600654604080516370a0823160e01b815230600482015290519395509193506000926001600160a01b03909116916370a08231916024808301926020929190829003018186803b15801561144957600080fd5b505afa15801561145d573d6000803e3d6000fd5b505050506040513d602081101561147357600080fd5b5051600754604080516370a0823160e01b815230600482015290519293506000926001600160a01b03909216916370a0823191602480820192602092909190829003018186803b1580156114c657600080fd5b505afa1580156114da573d6000803e3d6000fd5b505050506040513d60208110156114f057600080fd5b50519050600061150f836001600160701b03871663ffffffff61322716565b9050600061152c836001600160701b03871663ffffffff61322716565b9050600061153a8787613331565b600054909150806115835761156f6103e861156361155e878763ffffffff61360016565b613663565b9063ffffffff61322716565b985061157e60006103e86136b5565b6115d2565b6115cf6001600160701b0389166115a0868463ffffffff61360016565b816115a757fe5b046001600160701b0389166115c2868563ffffffff61360016565b816115c957fe5b0461374b565b98505b600089116116115760405162461bcd60e51b8152600401808060200182810382526029815260200180613ffa6029913960400191505060405180910390fd5b61161b8a8a6136b5565b6116258686613761565b811561164f5760085461164b906001600160701b0380821691600160701b9004166134ea565b600b555b6040805185815260208101859052815133927f4c209b5fc8ad50758f13e2e1088ba56a560dff690a1c6fef26394f4c03821c4f928290030190a25050600160105550949695505050505050565b6116a4613de7565b5060408051610100810182526006546001600160a01b039081168252600754166020808301919091528183018990526060820188905260006080830181905260a0830181905260c0830181905260e08301528251601f86018290048202810182019093528483529091611737918391889188908890819084018382808284376000920191909152508892506127bc915050565b50505050505050565b60016020526000908152604090205481565b600b5481565b600f5481565b60046020526000908152604090205481565b6000806010546001146117b8576040805162461bcd60e51b81526020600482015260126024820152600080516020613f80833981519152604482015290519081900360640190fd5b60006010556117c5610dfd565b421015611819576040805162461bcd60e51b815260206004820152601d60248201527f417274687572506169723a20494e56414c49445f54494d455f4c4f434b000000604482015290519081900360640190fd5b600080611824610996565b5050600654600754604080516370a0823160e01b815230600482015290519496509294506001600160a01b039182169391169160009184916370a08231916024808301926020929190829003018186803b15801561188157600080fd5b505afa158015611895573d6000803e3d6000fd5b505050506040513d60208110156118ab57600080fd5b5051604080516370a0823160e01b815230600482015290519192506000916001600160a01b038516916370a08231916024808301926020929190829003018186803b1580156118f957600080fd5b505afa15801561190d573d6000803e3d6000fd5b505050506040513d602081101561192357600080fd5b5051306000908152600160205260408120549192506119428888613331565b60005490915080611959848763ffffffff61360016565b8161196057fe5b049a5080611974848663ffffffff61360016565b8161197b57fe5b04995060008b11801561198e575060008a115b6119c95760405162461bcd60e51b8152600401808060200182810382526029815260200180613e8e6029913960400191505060405180910390fd5b6119d3308461384d565b6119de878d8d6138eb565b6119e9868d8c6138eb565b604080516370a0823160e01b815230600482015290516001600160a01b038916916370a08231916024808301926020929190829003018186803b158015611a2f57600080fd5b505afa158015611a43573d6000803e3d6000fd5b505050506040513d6020811015611a5957600080fd5b5051604080516370a0823160e01b815230600482015290519196506001600160a01b038816916370a0823191602480820192602092909190829003018186803b158015611aa557600080fd5b505afa158015611ab9573d6000803e3d6000fd5b505050506040513d6020811015611acf57600080fd5b50519350611add8585613761565b8115611b0757600854611b03906001600160701b0380821691600160701b9004166134ea565b600b555b604080518c8152602081018c905281516001600160a01b038f169233927fdccd412f0b1252819cb1fd330b93224ca42612892bb3f4f789976e6d81936496929081900390910190a35050505050505050506001601081905550915091565b60405180604001604052806005815260200164041542d4c560dc1b81525081565b600c5460ff1681565b60006109d6338484613277565b600c54610100900460ff1681565b6103e881565b601054600114611bf5576040805162461bcd60e51b81526020600482015260126024820152600080516020613f80833981519152604482015290519081900360640190fd5b6000601055600654600754600854604080516370a0823160e01b815230600482015290516001600160a01b039485169490931692611ca49285928792611c9f926001600160701b03169185916370a0823191602480820192602092909190829003018186803b158015611c6757600080fd5b505afa158015611c7b573d6000803e3d6000fd5b505050506040513d6020811015611c9157600080fd5b50519063ffffffff61322716565b6138eb565b600854604080516370a0823160e01b81523060048201529051611d0b9284928792611c9f92600160701b90046001600160701b0316916001600160a01b038616916370a0823191602480820192602092909190829003018186803b158015611c6757600080fd5b6040517f21ad22495c9c75cd1c94756f91824e779c0c8a8e168b267c790df464fe056b7990600090a15050600160105550565b6005546001600160a01b031681565b600d5481565b6007546001600160a01b031681565b42841015611dac576040805162461bcd60e51b8152602060048201526012602482015271155b9a5cddd85c158c8e881156141254915160721b604482015290519081900360640190fd5b6003546001600160a01b0380891660008181526004602090815260408083208054600180820190925582517f6e71edae12b1b97f4d1f60370fef10105fa2faae0126114a169c64845d6126c98186015280840196909652958d166060860152608085018c905260a085019590955260c08085018b90528151808603909101815260e08501825280519083012061190160f01b6101008601526101028501969096526101228085019690965280518085039096018652610142840180825286519683019690962095839052610162840180825286905260ff89166101828501526101a284018890526101c28401879052519193926101e280820193601f1981019281900390910190855afa158015611ec7573d6000803e3d6000fd5b5050604051601f1901519150506001600160a01b03811615801590611efd5750886001600160a01b0316816001600160a01b0316145b611f4e576040805162461bcd60e51b815260206004820152601c60248201527f556e697377617056323a20494e56414c49445f5349474e415455524500000000604482015290519081900360640190fd5b611f598989896131c5565b505050505050505050565b620186a081565b600260209081526000928352604080842090915290825290205481565b6005546001600160a01b031633148015611fac5750600754600160a01b900460ff16155b611ff5576040805162461bcd60e51b815260206004820152601560248201527420b93a343ab92830b4b91d102327a92124a22222a760591b604482015290519081900360640190fd5b6276a700600d5411156120395760405162461bcd60e51b815260040180806020018281038252602f815260200180613fa0602f913960400191505060405180910390fd5b600680546001600160a01b038087166001600160a01b0319928316811790935560078054918716919092161790556040805163313ce56760e01b8152905163313ce56791600480820192602092909190829003018186803b15801561209d57600080fd5b505afa1580156120b1573d6000803e3d6000fd5b505050506040513d60208110156120c757600080fd5b505160ff16600a0a6009556040805163313ce56760e01b815290516001600160a01b0385169163313ce567916004808301926020929190829003018186803b15801561211257600080fd5b505afa158015612126573d6000803e3d6000fd5b505050506040513d602081101561213c57600080fd5b505160ff16600a90810a905542600e55600d91909155600f5550506007805460ff60a01b1916600160a01b179055565b6010546001146121b1576040805162461bcd60e51b81526020600482015260126024820152600080516020613f80833981519152604482015290519081900360640190fd5b600060105560055460408051638da5cb5b60e01b815290516001600160a01b0390921691638da5cb5b91600480820192602092909190829003018186803b1580156121fb57600080fd5b505afa15801561220f573d6000803e3d6000fd5b505050506040513d602081101561222557600080fd5b50516001600160a01b03163314612271576040805162461bcd60e51b81526020600482018190526024820152600080516020613f2f833981519152604482015290519081900360640190fd5b600c54610100900460ff16156122c6576040805162461bcd60e51b8152602060048201526015602482015274417274687572506169723a20696d6d757461626c6560581b604482015290519081900360640190fd5b6276a700600d54111561230a5760405162461bcd60e51b815260040180806020018281038252602f815260200180613fa0602f913960400191505060405180910390fd5b600d805490829055604080518281526020810184905281517fd3336cbaf0944215d95d87c5f296a4330d98fd999d83796dd20079f6ce76266f929181900390910190a150506001601055565b60065460009081906001600160a01b0384811691161461238357600854600160f01b900461ffff16612392565b600854600160e01b900461ffff165b6008549091506123be90859085906001600160701b0380821691600160701b90041661ffff8616613a85565b949350505050565b60105460011461240b576040805162461bcd60e51b81526020600482015260126024820152600080516020613f80833981519152604482015290519081900360640190fd5b600060105560055460408051638da5cb5b60e01b815290516001600160a01b0390921691638da5cb5b91600480820192602092909190829003018186803b15801561245557600080fd5b505afa158015612469573d6000803e3d6000fd5b505050506040513d602081101561247f57600080fd5b50516001600160a01b031633146124cb576040805162461bcd60e51b81526020600482018190526024820152600080516020613f2f833981519152604482015290519081900360640190fd5b6006546001600160a01b038381169116148015906124f757506007546001600160a01b03838116911614155b612548576040805162461bcd60e51b815260206004820152601960248201527f417274687572506169723a20696e76616c696420746f6b656e00000000000000604482015290519081900360640190fd5b6125d48282846001600160a01b03166370a08231306040518263ffffffff1660e01b815260040180826001600160a01b03166001600160a01b0316815260200191505060206040518083038186803b1580156125a357600080fd5b505afa1580156125b7573d6000803e3d6000fd5b505050506040513d60208110156125cd57600080fd5b50516138eb565b604080516001600160a01b0383811682529151918416917f368a9dc863ecb94b5ba32a682e26295b10d9c2666fad7d785ebdf262c3c524139181900360200190a250506001601055565b601054600114612663576040805162461bcd60e51b81526020600482015260126024820152600080516020613f80833981519152604482015290519081900360640190fd5b60006010819055600654604080516370a0823160e01b815230600482015290516001600160a01b03909216916370a0823191602480820192602092909190829003018186803b1580156126b557600080fd5b505afa1580156126c9573d6000803e3d6000fd5b505050506040513d60208110156126df57600080fd5b5051600754604080516370a0823160e01b815230600482015290519293506000926001600160a01b03909216916370a0823191602480820192602092909190829003018186803b15801561273257600080fd5b505afa158015612746573d6000803e3d6000fd5b505050506040513d602081101561275c57600080fd5b50519050811580159061276e57508015155b6127a95760405162461bcd60e51b815260040180806020018281038252602b815260200180613fcf602b913960400191505060405180910390fd5b6127b38282613761565b50506001601055565b601054600114612801576040805162461bcd60e51b81526020600482015260126024820152600080516020613f80833981519152604482015290519081900360640190fd5b6000601055600f5442101561285d576040805162461bcd60e51b815260206004820152601860248201527f417274687572506169723a20494e56414c49445f54494d450000000000000000604482015290519081900360640190fd5b600084604001511180612874575060008460600151115b6128af5760405162461bcd60e51b8152600401808060200182810382526026815260200180613e686026913960400191505060405180910390fd5b6000806000806128bd610996565b9350935093509350836001600160701b031688604001511080156128ed5750826001600160701b03168860600151105b6129285760405162461bcd60e51b8152600401808060200182810382526022815260200180613ee86022913960400191505060405180910390fd5b87516001600160a01b0388811691161480159061295b575087602001516001600160a01b0316876001600160a01b031614155b6129a5576040805162461bcd60e51b8152602060048201526016602482015275417274687572506169723a20494e56414c49445f544f60501b604482015290519081900360640190fd5b6040880151156129c2576129c28860000151888a604001516138eb565b6060880151156129df576129df8860200151888a606001516138eb565b855115612ad957866001600160a01b03166310d1e85c338a604001518b606001518a6040518563ffffffff1660e01b815260040180856001600160a01b03166001600160a01b0316815260200184815260200183815260200180602001828103825283818151815260200191508051906020019080838360005b83811015612a71578181015183820152602001612a59565b50505050905090810190601f168015612a9e5780820380516001836020036101000a031916815260200191505b5095505050505050600060405180830381600087803b158015612ac057600080fd5b505af1158015612ad4573d6000803e3d6000fd5b505050505b8751604080516370a0823160e01b815230600482015290516001600160a01b03909216916370a0823191602480820192602092909190829003018186803b158015612b2357600080fd5b505afa158015612b37573d6000803e3d6000fd5b505050506040513d6020811015612b4d57600080fd5b50516080890152602088810151604080516370a0823160e01b815230600482015290516001600160a01b03909216926370a0823192602480840193829003018186803b158015612b9c57600080fd5b505afa158015612bb0573d6000803e3d6000fd5b505050506040513d6020811015612bc657600080fd5b505160a0890152604088015160808901516000916001600160701b0387160310612bf1576000612c08565b8860400151856001600160701b0316038960800151035b905060008960600151856001600160701b0316038a60a0015111612c2d576000612c44565b8960600151856001600160701b0316038a60a00151035b90506000821180612c555750600081115b612c905760405162461bcd60e51b8152600401808060200182810382526025815260200180613f0a6025913960400191505060405180910390fd5b620186a0612ca88361ffff871663ffffffff61360016565b81612caf57fe5b0460c08b0152620186a0612ccd8261ffff861663ffffffff61360016565b81612cd457fe5b0460e08b01526000806001600160a01b038916612cf2576000612d6c565b60055460408051631c60f51f60e21b81526001600160a01b038c8116600483015291519190921691637183d47c916024808301926020929190829003018186803b158015612d3f57600080fd5b505afa158015612d53573d6000803e3d6000fd5b505050506040513d6020811015612d6957600080fd5b50515b90508015612e31578315612dd7576402540be400612da461ffff8816612d98878563ffffffff61360016565b9063ffffffff61360016565b81612dab57fe5b049150612dc5828d60c0015161322790919063ffffffff16565b60c08d01528b51612dd7908a846138eb565b8215612e31576402540be400612dfb61ffff8716612d98868563ffffffff61360016565b81612e0257fe5b049150612e1c828d60e0015161322790919063ffffffff16565b60e08d015260208c0151612e31908a846138eb565b600c5460ff1615612f995760055460408051634cadad5760e11b8152815160009384936001600160a01b039091169263995b5aae9260048083019392829003018186803b158015612e8157600080fd5b505afa158015612e95573d6000803e3d6000fd5b505050506040513d6040811015612eab57600080fd5b50805160209091015190925090506001600160a01b03811615612f9657612edf82612d98620186a08663ffffffff61322716565b91508515612f3a5766038d7ea4c68000612f0761ffff8a16612d98898663ffffffff61360016565b81612f0e57fe5b049350612f28848f60c0015161322790919063ffffffff16565b60c08f01528d51612f3a9082866138eb565b8415612f965766038d7ea4c68000612f6061ffff8916612d98888663ffffffff61360016565b81612f6757fe5b049350612f81848f60e0015161322790919063ffffffff16565b60e08f015260208e0151612f969082866138eb565b50505b831561301b578b51604080516370a0823160e01b815230600482015290516001600160a01b03909216916370a0823191602480820192602092909190829003018186803b158015612fe957600080fd5b505afa158015612ffd573d6000803e3d6000fd5b505050506040513d602081101561301357600080fd5b505160808d01525b821561309b576020808d0151604080516370a0823160e01b815230600482015290516001600160a01b03909216926370a0823192602480840193829003018186803b15801561306957600080fd5b505afa15801561307d573d6000803e3d6000fd5b505050506040513d602081101561309357600080fd5b505160a08d01525b505060006130ba8b60c001518c6080015161322790919063ffffffff16565b905060006130d98c60e001518d60a0015161322790919063ffffffff16565b90506130f7886001600160701b0316886001600160701b03166134ea565b61310183836134ea565b1015613144576040805162461bcd60e51b815260206004820152600d60248201526c417274687572506169723a204b60981b604482015290519081900360640190fd5b50506131588a608001518b60a00151613761565b6040808b01516060808d0151835186815260208101869052808501939093529082015290516001600160a01b038b169133917fd78ad95fa46c994b6551d0da85fc275fe613ce37657fb8d5e3d130840159d8229181900360800190a3505060016010555050505050505050565b6001600160a01b03808416600081815260026020908152604080832094871680845294825291829020859055815185815291517f8c5be1e5ebec7d5bd14f71427d1e84f3dd0314c0f7b2291e5b200ac8c7c3b9259281900390910190a3505050565b808203828111156109da576040805162461bcd60e51b815260206004820152601560248201527464732d6d6174682d7375622d756e646572666c6f7760581b604482015290519081900360640190fd5b6001600160a01b0383166000908152600160205260409020546132a0908263ffffffff61322716565b6001600160a01b0380851660009081526001602052604080822093909355908416815220546132d5908263ffffffff613c5316565b6001600160a01b0380841660008181526001602090815260409182902094909455805185815290519193928716927fddf252ad1be2c89b69c2b068fc378daa952ba7f163c4a11628f55a4df523b3ef92918290030190a3505050565b600c5460009060ff1615613347575060006109da565b60055460408051634cadad5760e11b8152815160009384936001600160a01b039091169263995b5aae9260048083019392829003018186803b15801561338c57600080fd5b505afa1580156133a0573d6000803e3d6000fd5b505050506040513d60408110156133b657600080fd5b508051602090910151600b546001600160a01b0382161580159650929450909250906134d55780156134d057600061340361155e886001600160701b0316886001600160701b03166134ea565b9050600061341083613663565b9050808211156134cd576000613449606487613435620186a08363ffffffff61360016565b8161343c57fe5b049063ffffffff61322716565b905060006134746064612d98613465878763ffffffff61322716565b6000549063ffffffff61360016565b905060006134a861348c85606463ffffffff61360016565b61349c878663ffffffff61360016565b9063ffffffff613c5316565b905060008183816134b557fe5b04905080156134c8576134c888826136b5565b505050505b50505b6134e1565b80156134e1576000600b555b50505092915050565b600c5460009060ff16156135f05760095460009061351685670de0b6b3a764000063ffffffff61360016565b8161351d57fe5b0490506000600a54613540670de0b6b3a76400008661360090919063ffffffff16565b8161354757fe5b0490506000670de0b6b3a7640000613565848463ffffffff61360016565b8161356c57fe5b04905060006135c2670de0b6b3a764000061358d858063ffffffff61360016565b8161359457fe5b04670de0b6b3a76400006135ae878063ffffffff61360016565b816135b557fe5b049063ffffffff613c5316565b9050670de0b6b3a76400006135dd838363ffffffff61360016565b816135e457fe5b049450505050506109da565b610ad5838363ffffffff61360016565b600081158061361b5750508082028282828161361857fe5b04145b6109da576040805162461bcd60e51b815260206004820152601460248201527364732d6d6174682d6d756c2d6f766572666c6f7760601b604482015290519081900360640190fd5b600060038211156136a6575080600160028204015b818110156136a05780915060028182858161368f57fe5b04018161369857fe5b049050613678565b506136b0565b81156136b0575060015b919050565b6000546136c8908263ffffffff613c5316565b60009081556001600160a01b0383168152600160205260409020546136f3908263ffffffff613c5316565b6001600160a01b03831660008181526001602090815260408083209490945583518581529351929391927fddf252ad1be2c89b69c2b068fc378daa952ba7f163c4a11628f55a4df523b3ef9281900390910190a35050565b600081831061375a5781610ad5565b5090919050565b6001600160701b03821180159061377f57506001600160701b038111155b6137c7576040805162461bcd60e51b8152602060048201526014602482015273417274687572506169723a204f564552464c4f5760601b604482015290519081900360640190fd5b600880546dffffffffffffffffffffffffffff19166001600160701b038481169182176dffffffffffffffffffffffffffff60701b1916600160701b9185169182021790925560408051918252602082019290925281517f1c411e9a96e071241c2f21f7726b17ae89e3cab4c78be50e062b03a9fffbbad1929181900390910190a15050565b6001600160a01b038216600090815260016020526040902054613876908263ffffffff61322716565b6001600160a01b038316600090815260016020526040812091909155546138a3908263ffffffff61322716565b60009081556040805183815290516001600160a01b038516917fddf252ad1be2c89b69c2b068fc378daa952ba7f163c4a11628f55a4df523b3ef919081900360200190a35050565b604080518082018252601981527f7472616e7366657228616464726573732c75696e74323536290000000000000060209182015281516001600160a01b0385811660248301526044808301869052845180840390910181526064909201845291810180516001600160e01b031663a9059cbb60e01b1781529251815160009460609489169392918291908083835b602083106139985780518252601f199092019160209182019101613979565b6001836020036101000a0380198251168184511680821785525050505050509050019150506000604051808303816000865af19150503d80600081146139fa576040519150601f19603f3d011682016040523d82523d6000602084013e6139ff565b606091505b5091509150818015613a2d575080511580613a2d5750808060200190516020811015613a2a57600080fd5b50515b613a7e576040805162461bcd60e51b815260206004820152601b60248201527f417274687572506169723a205452414e534645525f4641494c45440000000000604482015290519081900360640190fd5b5050505050565b600c5460009060ff1615613bc857613ac0620186a0613aaa888563ffffffff61360016565b81613ab157fe5b8891900463ffffffff61322716565b95506000613ace85856134ea565b905060095485670de0b6b3a76400000281613ae557fe5b049450600a5484670de0b6b3a76400000281613afd57fe5b600654919004945060009081906001600160a01b03898116911614613b23578587613b26565b86865b60065491935091506001600160a01b03898116911614613b5b57600a5489670de0b6b3a76400000281613b5557fe5b04613b72565b60095489670de0b6b3a76400000281613b7057fe5b045b98506000613b83838b018584613ca2565b6006549083039150670de0b6b3a7640000906001600160a01b038b8116911614613baf57600954613bb3565b600a545b820281613bbc57fe5b04945050505050613c4a565b60065460009081906001600160a01b03888116911614613be9578486613bec565b85855b9092509050613c14613c07620186a08663ffffffff61322716565b899063ffffffff61360016565b9750613c2d8861349c84620186a063ffffffff61360016565b613c3d898363ffffffff61360016565b81613c4457fe5b04925050505b95945050505050565b808201828110156109da576040805162461bcd60e51b815260206004820152601460248201527364732d6d6174682d6164642d6f766572666c6f7760601b604482015290519081900360640190fd5b6000805b60ff811015613d5a57826000613cbc8783613d63565b905085811015613cf2576000613cd28887613db3565b828803670de0b6b3a76400000281613ce657fe5b04959095019450613d19565b6000613cfe8887613db3565b878303670de0b6b3a76400000281613d1257fe5b0490950394505b81851115613d3b57600182860311613d3657849350505050610ad5565b613d50565b600185830311613d5057849350505050610ad5565b5050600101613ca6565b50909392505050565b6000670de0b6b3a764000082818581818002040281613d7e57fe5b040281613d8757fe5b04670de0b6b3a7640000808481818002040281613da057fe5b04850281613daa57fe5b04019392505050565b6000670de0b6b3a76400008381818002040281613dcc57fe5b04670de0b6b3a76400008084800204856003020281613daa57fe5b60405180610100016040528060006001600160a01b0316815260200160006001600160a01b03168152602001600081526020016000815260200160008152602001600081526020016000815260200160008152509056fe417274687572506169723a206f6e6c7920666163746f7279277320666565416d6f756e744f776e6572417274687572506169723a20494e53554646494349454e545f4f55545055545f414d4f554e54417274687572506169723a20494e53554646494349454e545f4c49515549444954595f4255524e4544417274687572506169723a2066656550657263656e74206d7573746e27742065786365656420746865206d696e696d756d417274687572506169723a20494e53554646494349454e545f4c4951554944495459417274687572506169723a20494e53554646494349454e545f494e5055545f414d4f554e54417274687572506169723a206f6e6c7920666163746f72792773206f776e6572417274687572506169723a2066656550657263656e74206d7573746e27742065786365656420746865206d6178696d756d417274687572506169723a204c4f434b45440000000000000000000000000000417274687572506169723a2074696d654c6f636b206d7573746e27742065786365656420746865206d6178696d756d417274687572506169723a206c697175696469747920726174696f206e6f7420696e697469616c697a6564417274687572506169723a20494e53554646494349454e545f4c49515549444954595f4d494e544544417274687572506169723a206f6e6c7920666163746f7279277320736574537461626c654f776e6572a265627a7a72315820bca282bf5d58418e43f2eefee40c951fb37ddf822aecc69f7ed376e515244ad364736f6c63430005100032454950373132446f6d61696e28737472696e67206e616d652c737472696e672076657273696f6e2c75696e7432353620636861696e49642c6164647265737320766572696679696e67436f6e747261637429417274687572466163746f72793a2072656665727265724665655368617265206d7573746e277420657863656564206d6178696d756d417274687572466163746f72793a2063616c6c6572206973206e6f7420746865206f776e6572417274687572466163746f72793a204944454e544943414c5f414444524553534553417274687572466163746f72793a207a65726f20616464726573730000000000417274687572466163746f72793a206f776e65724665655368617265206d7573746e277420657863656564206d6178696d756d417274687572466163746f72793a206f776e65724665655368617265206d7573746e277420657863656564206d696e696d756d417274687572466163746f72793a206e6f7420736574537461626c654f776e6572a265627a7a72315820f34168843e683a1df2c002ab8632ac0653c3464faa42070cdb4af84561702d5464736f6c63430005100032",
  "linkReferences": {},
  "deployedLinkReferences": {}
}