{
  "_format": "hh-sol-artifact-1",
  "contractName": "ArthurRouter",
  "sourceName": "contracts/ArthurRouter.sol",
  "abi": [
    {
      "inputs": [
        {
          "internalType": "address",
          "name": "_factory",
          "type": "address"
        },
        {
          "internalType": "address",
          "name": "_WETH",
          "type": "address"
        }
      ],
      "stateMutability": "nonpayable",
      "type": "constructor"
    },
    {
      "inputs": [],
      "name": "WETH",
      "outputs": [
        {
          "internalType": "address",
          "name": "",
          "type": "address"
        }
      ],
      "stateMutability": "view",
      "type": "function"
    },
    {
      "inputs": [
        {
          "internalType": "address",
          "name": "tokenA",
          "type": "address"
        },
        {
          "internalType": "address",
          "name": "tokenB",
          "type": "address"
        },
        {
          "internalType": "uint256",
          "name": "amountADesired",
          "type": "uint256"
        },
        {
          "internalType": "uint256",
          "name": "amountBDesired",
          "type": "uint256"
        },
        {
          "internalType": "uint256",
          "name": "amountAMin",
          "type": "uint256"
        },
        {
          "internalType": "uint256",
          "name": "amountBMin",
          "type": "uint256"
        },
        {
          "internalType": "address",
          "name": "to",
          "type": "address"
        },
        {
          "internalType": "uint256",
          "name": "deadline",
          "type": "uint256"
        },
        {
          "internalType": "uint256",
          "name": "timeLock",
          "type": "uint256"
        }
      ],
      "name": "addLiquidity",
      "outputs": [
        {
          "internalType": "uint256",
          "name": "amountA",
          "type": "uint256"
        },
        {
          "internalType": "uint256",
          "name": "amountB",
          "type": "uint256"
        },
        {
          "internalType": "uint256",
          "name": "liquidity",
          "type": "uint256"
        }
      ],
      "stateMutability": "nonpayable",
      "type": "function"
    },
    {
      "inputs": [
        {
          "internalType": "address",
          "name": "token",
          "type": "address"
        },
        {
          "internalType": "uint256",
          "name": "amountTokenDesired",
          "type": "uint256"
        },
        {
          "internalType": "uint256",
          "name": "amountTokenMin",
          "type": "uint256"
        },
        {
          "internalType": "uint256",
          "name": "amountETHMin",
          "type": "uint256"
        },
        {
          "internalType": "address",
          "name": "to",
          "type": "address"
        },
        {
          "internalType": "uint256",
          "name": "deadline",
          "type": "uint256"
        },
        {
          "internalType": "uint256",
          "name": "timeLock",
          "type": "uint256"
        }
      ],
      "name": "addLiquidityETH",
      "outputs": [
        {
          "internalType": "uint256",
          "name": "amountToken",
          "type": "uint256"
        },
        {
          "internalType": "uint256",
          "name": "amountETH",
          "type": "uint256"
        },
        {
          "internalType": "uint256",
          "name": "liquidity",
          "type": "uint256"
        }
      ],
      "stateMutability": "payable",
      "type": "function"
    },
    {
      "inputs": [],
      "name": "factory",
      "outputs": [
        {
          "internalType": "address",
          "name": "",
          "type": "address"
        }
      ],
      "stateMutability": "view",
      "type": "function"
    },
    {
      "inputs": [
        {
          "internalType": "uint256",
          "name": "amountIn",
          "type": "uint256"
        },
        {
          "internalType": "address[]",
          "name": "path",
          "type": "address[]"
        }
      ],
      "name": "getAmountsOut",
      "outputs": [
        {
          "internalType": "uint256[]",
          "name": "amounts",
          "type": "uint256[]"
        }
      ],
      "stateMutability": "view",
      "type": "function"
    },
    {
      "inputs": [
        {
          "internalType": "address",
          "name": "token1",
          "type": "address"
        },
        {
          "internalType": "address",
          "name": "token2",
          "type": "address"
        }
      ],
      "name": "getPair",
      "outputs": [
        {
          "internalType": "address",
          "name": "",
          "type": "address"
        }
      ],
      "stateMutability": "view",
      "type": "function"
    },
    {
      "inputs": [
        {
          "internalType": "uint256",
          "name": "amountA",
          "type": "uint256"
        },
        {
          "internalType": "uint256",
          "name": "reserveA",
          "type": "uint256"
        },
        {
          "internalType": "uint256",
          "name": "reserveB",
          "type": "uint256"
        }
      ],
      "name": "quote",
      "outputs": [
        {
          "internalType": "uint256",
          "name": "amountB",
          "type": "uint256"
        }
      ],
      "stateMutability": "pure",
      "type": "function"
    },
    {
      "inputs": [
        {
          "internalType": "address",
          "name": "tokenA",
          "type": "address"
        },
        {
          "internalType": "address",
          "name": "tokenB",
          "type": "address"
        },
        {
          "internalType": "uint256",
          "name": "liquidity",
          "type": "uint256"
        },
        {
          "internalType": "uint256",
          "name": "amountAMin",
          "type": "uint256"
        },
        {
          "internalType": "uint256",
          "name": "amountBMin",
          "type": "uint256"
        },
        {
          "internalType": "address",
          "name": "to",
          "type": "address"
        },
        {
          "internalType": "uint256",
          "name": "deadline",
          "type": "uint256"
        }
      ],
      "name": "removeLiquidity",
      "outputs": [
        {
          "internalType": "uint256",
          "name": "amountA",
          "type": "uint256"
        },
        {
          "internalType": "uint256",
          "name": "amountB",
          "type": "uint256"
        }
      ],
      "stateMutability": "nonpayable",
      "type": "function"
    },
    {
      "inputs": [
        {
          "internalType": "address",
          "name": "token",
          "type": "address"
        },
        {
          "internalType": "uint256",
          "name": "liquidity",
          "type": "uint256"
        },
        {
          "internalType": "uint256",
          "name": "amountTokenMin",
          "type": "uint256"
        },
        {
          "internalType": "uint256",
          "name": "amountETHMin",
          "type": "uint256"
        },
        {
          "internalType": "address",
          "name": "to",
          "type": "address"
        },
        {
          "internalType": "uint256",
          "name": "deadline",
          "type": "uint256"
        }
      ],
      "name": "removeLiquidityETH",
      "outputs": [
        {
          "internalType": "uint256",
          "name": "amountToken",
          "type": "uint256"
        },
        {
          "internalType": "uint256",
          "name": "amountETH",
          "type": "uint256"
        }
      ],
      "stateMutability": "nonpayable",
      "type": "function"
    },
    {
      "inputs": [
        {
          "internalType": "address",
          "name": "token",
          "type": "address"
        },
        {
          "internalType": "uint256",
          "name": "liquidity",
          "type": "uint256"
        },
        {
          "internalType": "uint256",
          "name": "amountTokenMin",
          "type": "uint256"
        },
        {
          "internalType": "uint256",
          "name": "amountETHMin",
          "type": "uint256"
        },
        {
          "internalType": "address",
          "name": "to",
          "type": "address"
        },
        {
          "internalType": "uint256",
          "name": "deadline",
          "type": "uint256"
        }
      ],
      "name": "removeLiquidityETHSupportingFeeOnTransferTokens",
      "outputs": [
        {
          "internalType": "uint256",
          "name": "amountETH",
          "type": "uint256"
        }
      ],
      "stateMutability": "nonpayable",
      "type": "function"
    },
    {
      "inputs": [
        {
          "internalType": "address",
          "name": "token",
          "type": "address"
        },
        {
          "internalType": "uint256",
          "name": "liquidity",
          "type": "uint256"
        },
        {
          "internalType": "uint256",
          "name": "amountTokenMin",
          "type": "uint256"
        },
        {
          "internalType": "uint256",
          "name": "amountETHMin",
          "type": "uint256"
        },
        {
          "internalType": "address",
          "name": "to",
          "type": "address"
        },
        {
          "internalType": "uint256",
          "name": "deadline",
          "type": "uint256"
        },
        {
          "internalType": "bool",
          "name": "approveMax",
          "type": "bool"
        },
        {
          "internalType": "uint8",
          "name": "v",
          "type": "uint8"
        },
        {
          "internalType": "bytes32",
          "name": "r",
          "type": "bytes32"
        },
        {
          "internalType": "bytes32",
          "name": "s",
          "type": "bytes32"
        }
      ],
      "name": "removeLiquidityETHWithPermit",
      "outputs": [
        {
          "internalType": "uint256",
          "name": "amountToken",
          "type": "uint256"
        },
        {
          "internalType": "uint256",
          "name": "amountETH",
          "type": "uint256"
        }
      ],
      "stateMutability": "nonpayable",
      "type": "function"
    },
    {
      "inputs": [
        {
          "internalType": "address",
          "name": "token",
          "type": "address"
        },
        {
          "internalType": "uint256",
          "name": "liquidity",
          "type": "uint256"
        },
        {
          "internalType": "uint256",
          "name": "amountTokenMin",
          "type": "uint256"
        },
        {
          "internalType": "uint256",
          "name": "amountETHMin",
          "type": "uint256"
        },
        {
          "internalType": "address",
          "name": "to",
          "type": "address"
        },
        {
          "internalType": "uint256",
          "name": "deadline",
          "type": "uint256"
        },
        {
          "internalType": "bool",
          "name": "approveMax",
          "type": "bool"
        },
        {
          "internalType": "uint8",
          "name": "v",
          "type": "uint8"
        },
        {
          "internalType": "bytes32",
          "name": "r",
          "type": "bytes32"
        },
        {
          "internalType": "bytes32",
          "name": "s",
          "type": "bytes32"
        }
      ],
      "name": "removeLiquidityETHWithPermitSupportingFeeOnTransferTokens",
      "outputs": [
        {
          "internalType": "uint256",
          "name": "amountETH",
          "type": "uint256"
        }
      ],
      "stateMutability": "nonpayable",
      "type": "function"
    },
    {
      "inputs": [
        {
          "internalType": "address",
          "name": "tokenA",
          "type": "address"
        },
        {
          "internalType": "address",
          "name": "tokenB",
          "type": "address"
        },
        {
          "internalType": "uint256",
          "name": "liquidity",
          "type": "uint256"
        },
        {
          "internalType": "uint256",
          "name": "amountAMin",
          "type": "uint256"
        },
        {
          "internalType": "uint256",
          "name": "amountBMin",
          "type": "uint256"
        },
        {
          "internalType": "address",
          "name": "to",
          "type": "address"
        },
        {
          "internalType": "uint256",
          "name": "deadline",
          "type": "uint256"
        },
        {
          "internalType": "bool",
          "name": "approveMax",
          "type": "bool"
        },
        {
          "internalType": "uint8",
          "name": "v",
          "type": "uint8"
        },
        {
          "internalType": "bytes32",
          "name": "r",
          "type": "bytes32"
        },
        {
          "internalType": "bytes32",
          "name": "s",
          "type": "bytes32"
        }
      ],
      "name": "removeLiquidityWithPermit",
      "outputs": [
        {
          "internalType": "uint256",
          "name": "amountA",
          "type": "uint256"
        },
        {
          "internalType": "uint256",
          "name": "amountB",
          "type": "uint256"
        }
      ],
      "stateMutability": "nonpayable",
      "type": "function"
    },
    {
      "inputs": [
        {
          "internalType": "uint256",
          "name": "amountOutMin",
          "type": "uint256"
        },
        {
          "internalType": "address[]",
          "name": "path",
          "type": "address[]"
        },
        {
          "internalType": "address",
          "name": "to",
          "type": "address"
        },
        {
          "internalType": "address",
          "name": "referrer",
          "type": "address"
        },
        {
          "internalType": "uint256",
          "name": "deadline",
          "type": "uint256"
        }
      ],
      "name": "swapExactETHForTokensSupportingFeeOnTransferTokens",
      "outputs": [],
      "stateMutability": "payable",
      "type": "function"
    },
    {
      "inputs": [
        {
          "internalType": "uint256",
          "name": "amountIn",
          "type": "uint256"
        },
        {
          "internalType": "uint256",
          "name": "amountOutMin",
          "type": "uint256"
        },
        {
          "internalType": "address[]",
          "name": "path",
          "type": "address[]"
        },
        {
          "internalType": "address",
          "name": "to",
          "type": "address"
        },
        {
          "internalType": "address",
          "name": "referrer",
          "type": "address"
        },
        {
          "internalType": "uint256",
          "name": "deadline",
          "type": "uint256"
        }
      ],
      "name": "swapExactTokensForETHSupportingFeeOnTransferTokens",
      "outputs": [],
      "stateMutability": "nonpayable",
      "type": "function"
    },
    {
      "inputs": [
        {
          "internalType": "uint256",
          "name": "amountIn",
          "type": "uint256"
        },
        {
          "internalType": "uint256",
          "name": "amountOutMin",
          "type": "uint256"
        },
        {
          "internalType": "address[]",
          "name": "path",
          "type": "address[]"
        },
        {
          "internalType": "address",
          "name": "to",
          "type": "address"
        },
        {
          "internalType": "address",
          "name": "referrer",
          "type": "address"
        },
        {
          "internalType": "uint256",
          "name": "deadline",
          "type": "uint256"
        }
      ],
      "name": "swapExactTokensForTokensSupportingFeeOnTransferTokens",
      "outputs": [],
      "stateMutability": "nonpayable",
      "type": "function"
    },
    {
      "stateMutability": "payable",
      "type": "receive"
    }
  ],
  "bytecode": "0x60c060405234801561001057600080fd5b506040516130073803806130078339818101604052604081101561003357600080fd5b5080516020909101516001600160601b0319606092831b8116608052911b1660a05260805160601c60a05160601c612ee961011e60003980610107528061083e52806108795280610a535280610bdb5280610c915280610e8a5280610fbd5280611014528061104852806110bc528061143f52806114c25280611571528061164852806116ef52806117635280611c965250806109155280610b145280610d865280610e685280610ff2528061179552806119f05280611be85280611c115280611c745280611d855280612274528061245f528061260352806126b852806127385250612ee96000f3fe6080604052600436106100f75760003560e01c8063ad615dec1161008a578063c45a015511610059578063c45a01551461065c578063d06ca61f14610671578063ded9382a14610743578063e6a43905146107b657610130565b8063ad615dec146104e8578063af2979eb1461051e578063b4822be314610571578063baa2abde146105ff57610130565b80635b0d5984116100c65780635b0d5984146103465780636bb6a6f6146103cb578063ac3893ba14610417578063ad5c4648146104b757610130565b806302751cec146101355780632195995c146101a157806352aa4c221461021f57806357528cca146102bf57610130565b3661013057336001600160a01b037f0000000000000000000000000000000000000000000000000000000000000000161461012e57fe5b005b600080fd5b34801561014157600080fd5b50610188600480360360c081101561015857600080fd5b506001600160a01b0381358116916020810135916040820135916060810135916080820135169060a001356107f1565b6040805192835260208301919091528051918290030190f35b3480156101ad57600080fd5b5061018860048036036101608110156101c557600080fd5b506001600160a01b038135811691602081013582169160408201359160608101359160808201359160a08101359091169060c08101359060e081013515159060ff610100820135169061012081013590610140013561090b565b34801561022b57600080fd5b5061012e600480360360c081101561024257600080fd5b813591602081013591810190606081016040820135600160201b81111561026857600080fd5b82018360208201111561027a57600080fd5b803590602001918460208302840111600160201b8311171561029b57600080fd5b91935091506001600160a01b03813581169160208101359091169060400135610a05565b3480156102cb57600080fd5b5061032860048036036101208110156102e357600080fd5b506001600160a01b038135811691602081013582169160408201359160608101359160808201359160a08101359160c0820135169060e0810135906101000135610d22565b60408051938452602084019290925282820152519081900360600190f35b34801561035257600080fd5b506103b9600480360361014081101561036a57600080fd5b506001600160a01b0381358116916020810135916040820135916060810135916080820135169060a08101359060c081013515159060ff60e08201351690610100810135906101200135610e60565b60408051918252519081900360200190f35b610328600480360360e08110156103e157600080fd5b506001600160a01b0381358116916020810135916040820135916060810135916080820135169060a08101359060c00135610f6e565b34801561042357600080fd5b5061012e600480360360c081101561043a57600080fd5b813591602081013591810190606081016040820135600160201b81111561046057600080fd5b82018360208201111561047257600080fd5b803590602001918460208302840111600160201b8311171561049357600080fd5b91935091506001600160a01b03813581169160208101359091169060400135611215565b3480156104c357600080fd5b506104cc61143d565b604080516001600160a01b039092168252519081900360200190f35b3480156104f457600080fd5b506103b96004803603606081101561050b57600080fd5b5080359060208101359060400135611461565b34801561052a57600080fd5b506103b9600480360360c081101561054157600080fd5b506001600160a01b0381358116916020810135916040820135916060810135916080820135169060a00135611476565b61012e600480360360a081101561058757600080fd5b81359190810190604081016020820135600160201b8111156105a857600080fd5b8201836020820111156105ba57600080fd5b803590602001918460208302840111600160201b831117156105db57600080fd5b91935091506001600160a01b03813581169160208101359091169060400135611602565b34801561060b57600080fd5b50610188600480360360e081101561062257600080fd5b506001600160a01b038135811691602081013582169160408201359160608101359160808201359160a08101359091169060c001356119a2565b34801561066857600080fd5b506104cc611be6565b34801561067d57600080fd5b506106f36004803603604081101561069457600080fd5b81359190810190604081016020820135600160201b8111156106b557600080fd5b8201836020820111156106c757600080fd5b803590602001918460208302840111600160201b831117156106e857600080fd5b509092509050611c0a565b60408051602080825283518183015283519192839290830191858101910280838360005b8381101561072f578181015183820152602001610717565b505050509050019250505060405180910390f35b34801561074f57600080fd5b50610188600480360361014081101561076757600080fd5b506001600160a01b0381358116916020810135916040820135916060810135916080820135169060a08101359060c081013515159060ff60e08201351690610100810135906101200135611c6a565b3480156107c257600080fd5b506104cc600480360360408110156107d957600080fd5b506001600160a01b0381358116916020013516611d7e565b6000808242811015610838576040805162461bcd60e51b81526020600482015260156024820152600080516020612d22833981519152604482015290519081900360640190fd5b610867897f00000000000000000000000000000000000000000000000000000000000000008a8a8a308a6119a2565b9093509150610877898685611db4565b7f00000000000000000000000000000000000000000000000000000000000000006001600160a01b0316632e1a7d4d836040518263ffffffff1660e01b815260040180828152602001915050600060405180830381600087803b1580156108dd57600080fd5b505af11580156108f1573d6000803e3d6000fd5b505050506108ff8583611f08565b50965096945050505050565b600080600061093b7f00000000000000000000000000000000000000000000000000000000000000008f8f612000565b905060008761094a578c61094e565b6000195b6040805163d505accf60e01b815233600482015230602482015260448101839052606481018c905260ff8a16608482015260a4810189905260c4810188905290519192506001600160a01b0384169163d505accf9160e48082019260009290919082900301818387803b1580156109c457600080fd5b505af11580156109d8573d6000803e3d6000fd5b505050506109eb8f8f8f8f8f8f8f6119a2565b809450819550505050509b509b9950505050505050505050565b8042811015610a49576040805162461bcd60e51b81526020600482015260156024820152600080516020612d22833981519152604482015290519081900360640190fd5b6001600160a01b037f00000000000000000000000000000000000000000000000000000000000000001686866000198101818110610a8357fe5b905060200201356001600160a01b03166001600160a01b031614610aee576040805162461bcd60e51b815260206004820152601a60248201527f417274687572526f757465723a20494e56414c49445f50415448000000000000604482015290519081900360640190fd5b610b7886866000818110610afe57fe5b905060200201356001600160a01b031633610b727f00000000000000000000000000000000000000000000000000000000000000008a8a6000818110610b4057fe5b905060200201356001600160a01b03168b8b6001818110610b5d57fe5b905060200201356001600160a01b0316612000565b8b6120c0565b610bb886868080602002602001604051908101604052809392919081815260200183836020028082843760009201919091525030925087915061221d9050565b604080516370a0823160e01b815230600482015290516000916001600160a01b037f000000000000000000000000000000000000000000000000000000000000000016916370a0823191602480820192602092909190829003018186803b158015610c2257600080fd5b505afa158015610c36573d6000803e3d6000fd5b505050506040513d6020811015610c4c57600080fd5b5051905087811015610c8f5760405162461bcd60e51b8152600401808060200182810382526028815260200180612e3c6028913960400191505060405180910390fd5b7f00000000000000000000000000000000000000000000000000000000000000006001600160a01b0316632e1a7d4d826040518263ffffffff1660e01b815260040180828152602001915050600060405180830381600087803b158015610cf557600080fd5b505af1158015610d09573d6000803e3d6000fd5b50505050610d178582611f08565b505050505050505050565b60008060008442811015610d6b576040805162461bcd60e51b81526020600482015260156024820152600080516020612d22833981519152604482015290519081900360640190fd5b610d7a8d8d8d8d8d8d8b6125d2565b90945092506000610dac7f00000000000000000000000000000000000000000000000000000000000000008f8f612000565b9050610dba8e3383886120c0565b610dc68d3383876120c0565b806001600160a01b0316636a627842896040518263ffffffff1660e01b815260040180826001600160a01b03166001600160a01b03168152602001915050602060405180830381600087803b158015610e1e57600080fd5b505af1158015610e32573d6000803e3d6000fd5b505050506040513d6020811015610e4857600080fd5b5051949e939d50939b50919950505050505050505050565b600080610eae7f00000000000000000000000000000000000000000000000000000000000000008d7f0000000000000000000000000000000000000000000000000000000000000000612000565b9050600086610ebd578b610ec1565b6000195b6040805163d505accf60e01b815233600482015230602482015260448101839052606481018b905260ff8916608482015260a4810188905260c4810187905290519192506001600160a01b0384169163d505accf9160e48082019260009290919082900301818387803b158015610f3757600080fd5b505af1158015610f4b573d6000803e3d6000fd5b50505050610f5d8d8d8d8d8d8d611476565b9d9c50505050505050505050505050565b60008060008442811015610fb7576040805162461bcd60e51b81526020600482015260156024820152600080516020612d22833981519152604482015290519081900360640190fd5b610fe68b7f00000000000000000000000000000000000000000000000000000000000000008c348d8d8b6125d2565b909450925060006110387f00000000000000000000000000000000000000000000000000000000000000008d7f0000000000000000000000000000000000000000000000000000000000000000612000565b90506110468c3383886120c0565b7f00000000000000000000000000000000000000000000000000000000000000006001600160a01b031663d0e30db0856040518263ffffffff1660e01b81526004016000604051808303818588803b1580156110a157600080fd5b505af11580156110b5573d6000803e3d6000fd5b50505050507f00000000000000000000000000000000000000000000000000000000000000006001600160a01b031663a9059cbb82866040518363ffffffff1660e01b815260040180836001600160a01b03166001600160a01b0316815260200182815260200192505050602060405180830381600087803b15801561113a57600080fd5b505af115801561114e573d6000803e3d6000fd5b505050506040513d602081101561116457600080fd5b505161116c57fe5b806001600160a01b0316636a627842896040518263ffffffff1660e01b815260040180826001600160a01b03166001600160a01b03168152602001915050602060405180830381600087803b1580156111c457600080fd5b505af11580156111d8573d6000803e3d6000fd5b505050506040513d60208110156111ee57600080fd5b50519250348410156112065761120633853403611f08565b50509750975097945050505050565b8042811015611259576040805162461bcd60e51b81526020600482015260156024820152600080516020612d22833981519152604482015290519081900360640190fd5b61126986866000818110610afe57fe5b60008686600019810181811061127b57fe5b905060200201356001600160a01b03166001600160a01b03166370a08231866040518263ffffffff1660e01b815260040180826001600160a01b03166001600160a01b0316815260200191505060206040518083038186803b1580156112e057600080fd5b505afa1580156112f4573d6000803e3d6000fd5b505050506040513d602081101561130a57600080fd5b5051604080516020898102828101820190935289825292935061134e9290918a918a91829185019084908082843760009201919091525089925088915061221d9050565b87611400828989600019810181811061136357fe5b905060200201356001600160a01b03166001600160a01b03166370a08231896040518263ffffffff1660e01b815260040180826001600160a01b03166001600160a01b0316815260200191505060206040518083038186803b1580156113c857600080fd5b505afa1580156113dc573d6000803e3d6000fd5b505050506040513d60208110156113f257600080fd5b50519063ffffffff61284e16565b1015610d175760405162461bcd60e51b8152600401808060200182810382526028815260200180612e3c6028913960400191505060405180910390fd5b7f000000000000000000000000000000000000000000000000000000000000000081565b600061146e84848461289e565b949350505050565b600081428110156114bc576040805162461bcd60e51b81526020600482015260156024820152600080516020612d22833981519152604482015290519081900360640190fd5b6114eb887f000000000000000000000000000000000000000000000000000000000000000089898930896119a2565b604080516370a0823160e01b8152306004820152905191945061156f92508a9187916001600160a01b038416916370a0823191602480820192602092909190829003018186803b15801561153e57600080fd5b505afa158015611552573d6000803e3d6000fd5b505050506040513d602081101561156857600080fd5b5051611db4565b7f00000000000000000000000000000000000000000000000000000000000000006001600160a01b0316632e1a7d4d836040518263ffffffff1660e01b815260040180828152602001915050600060405180830381600087803b1580156115d557600080fd5b505af11580156115e9573d6000803e3d6000fd5b505050506115f78483611f08565b509695505050505050565b8042811015611646576040805162461bcd60e51b81526020600482015260156024820152600080516020612d22833981519152604482015290519081900360640190fd5b7f00000000000000000000000000000000000000000000000000000000000000006001600160a01b03168686600081811061167d57fe5b905060200201356001600160a01b03166001600160a01b0316146116e8576040805162461bcd60e51b815260206004820152601a60248201527f417274687572526f757465723a20494e56414c49445f50415448000000000000604482015290519081900360640190fd5b60003490507f00000000000000000000000000000000000000000000000000000000000000006001600160a01b031663d0e30db0826040518263ffffffff1660e01b81526004016000604051808303818588803b15801561174857600080fd5b505af115801561175c573d6000803e3d6000fd5b50505050507f00000000000000000000000000000000000000000000000000000000000000006001600160a01b031663a9059cbb6117c17f00000000000000000000000000000000000000000000000000000000000000008a8a6000818110610b4057fe5b836040518363ffffffff1660e01b815260040180836001600160a01b03166001600160a01b0316815260200182815260200192505050602060405180830381600087803b15801561181157600080fd5b505af1158015611825573d6000803e3d6000fd5b505050506040513d602081101561183b57600080fd5b505161184357fe5b60008787600019810181811061185557fe5b905060200201356001600160a01b03166001600160a01b03166370a08231876040518263ffffffff1660e01b815260040180826001600160a01b03166001600160a01b0316815260200191505060206040518083038186803b1580156118ba57600080fd5b505afa1580156118ce573d6000803e3d6000fd5b505050506040513d60208110156118e457600080fd5b50516040805160208a810282810182019093528a82529293506119289290918b918b9182918501908490808284376000920191909152508a925089915061221d9050565b88611400828a8a600019810181811061193d57fe5b905060200201356001600160a01b03166001600160a01b03166370a082318a6040518263ffffffff1660e01b815260040180826001600160a01b03166001600160a01b0316815260200191505060206040518083038186803b1580156113c857600080fd5b60008082428110156119e9576040805162461bcd60e51b81526020600482015260156024820152600080516020612d22833981519152604482015290519081900360640190fd5b6000611a167f00000000000000000000000000000000000000000000000000000000000000008c8c612000565b604080516323b872dd60e01b81523360048201526001600160a01b03831660248201819052604482018d9052915192935090916323b872dd916064808201926020929091908290030181600087803b158015611a7157600080fd5b505af1158015611a85573d6000803e3d6000fd5b505050506040513d6020811015611a9b57600080fd5b50506040805163226bf2d160e21b81526001600160a01b03888116600483015282516000938493928616926389afcb44926024808301939282900301818787803b158015611ae857600080fd5b505af1158015611afc573d6000803e3d6000fd5b505050506040513d6040811015611b1257600080fd5b50805160209091015190925090506000611b2c8e8e61294a565b509050806001600160a01b03168e6001600160a01b031614611b4f578183611b52565b82825b90975095508a871015611b965760405162461bcd60e51b8152600401808060200182810382526023815260200180612d426023913960400191505060405180910390fd5b89861015611bd55760405162461bcd60e51b8152600401808060200182810382526023815260200180612e646023913960400191505060405180910390fd5b505050505097509795505050505050565b7f000000000000000000000000000000000000000000000000000000000000000081565b606061146e7f000000000000000000000000000000000000000000000000000000000000000085858580806020026020016040519081016040528093929190818152602001838360200280828437600092019190915250612a2892505050565b6000806000611cba7f00000000000000000000000000000000000000000000000000000000000000008e7f0000000000000000000000000000000000000000000000000000000000000000612000565b9050600087611cc9578c611ccd565b6000195b6040805163d505accf60e01b815233600482015230602482015260448101839052606481018c905260ff8a16608482015260a4810189905260c4810188905290519192506001600160a01b0384169163d505accf9160e48082019260009290919082900301818387803b158015611d4357600080fd5b505af1158015611d57573d6000803e3d6000fd5b50505050611d698e8e8e8e8e8e6107f1565b909f909e509c50505050505050505050505050565b6000611dab7f00000000000000000000000000000000000000000000000000000000000000008484612000565b90505b92915050565b604080516001600160a01b038481166024830152604480830185905283518084039091018152606490920183526020820180516001600160e01b031663a9059cbb60e01b178152925182516000946060949389169392918291908083835b60208310611e315780518252601f199092019160209182019101611e12565b6001836020036101000a0380198251168184511680821785525050505050509050019150506000604051808303816000865af19150503d8060008114611e93576040519150601f19603f3d011682016040523d82523d6000602084013e611e98565b606091505b5091509150818015611ec6575080511580611ec65750808060200190516020811015611ec357600080fd5b50515b611f015760405162461bcd60e51b815260040180806020018281038252602d815260200180612e87602d913960400191505060405180910390fd5b5050505050565b604080516000808252602082019092526001600160a01b0384169083906040518082805190602001908083835b60208310611f545780518252601f199092019160209182019101611f35565b6001836020036101000a03801982511681845116808217855250505050505090500191505060006040518083038185875af1925050503d8060008114611fb6576040519150601f19603f3d011682016040523d82523d6000602084013e611fbb565b606091505b5050905080611ffb5760405162461bcd60e51b8152600401808060200182810382526034815260200180612d966034913960400191505060405180910390fd5b505050565b600080600061200f858561294a565b604080516bffffffffffffffffffffffff19606094851b811660208084019190915293851b81166034830152825160288184030181526048830184528051908501206001600160f81b031960688401529a90941b9093166069840152607d8301989098527fa856464ae65f7619087bc369daaf7e387dae1e5af69cfa7935850ebf754b04c1609d808401919091528851808403909101815260bd909201909752805196019590952095945050505050565b604080516001600160a01b0385811660248301528481166044830152606480830185905283518084039091018152608490920183526020820180516001600160e01b03166323b872dd60e01b17815292518251600094606094938a169392918291908083835b602083106121455780518252601f199092019160209182019101612126565b6001836020036101000a0380198251168184511680821785525050505050509050019150506000604051808303816000865af19150503d80600081146121a7576040519150601f19603f3d011682016040523d82523d6000602084013e6121ac565b606091505b50915091508180156121da5750805115806121da57508080602001905160208110156121d757600080fd5b50515b6122155760405162461bcd60e51b8152600401808060200182810382526031815260200180612d656031913960400191505060405180910390fd5b505050505050565b60005b60018451038110156125cc5760008085838151811061223b57fe5b602002602001015186846001018151811061225257fe5b602002602001015191509150600061226a838361294a565b509050600061229a7f00000000000000000000000000000000000000000000000000000000000000008585612000565b90506000806000836001600160a01b0316630902f1ac6040518163ffffffff1660e01b815260040160806040518083038186803b1580156122da57600080fd5b505afa1580156122ee573d6000803e3d6000fd5b505050506040513d608081101561230457600080fd5b5080516020909101516001600160701b0391821693501690506001600160a01b038781169086161461233257905b600061238e83896001600160a01b03166370a08231886040518263ffffffff1660e01b815260040180826001600160a01b03166001600160a01b0316815260200191505060206040518083038186803b1580156113c857600080fd5b9050846001600160a01b031663f140a35a828a6040518363ffffffff1660e01b815260040180838152602001826001600160a01b03166001600160a01b031681526020019250505060206040518083038186803b1580156123ee57600080fd5b505afa158015612402573d6000803e3d6000fd5b505050506040513d602081101561241857600080fd5b5051935060009250829150506001600160a01b038781169086161461243f57826000612443565b6000835b91509150600060028c5103891061245a578a61249b565b61249b7f0000000000000000000000000000000000000000000000000000000000000000888e8c6002018151811061248e57fe5b6020026020010151612000565b604080516000808252602082019092529192506001600160a01b03871691636e1fdd7f9186918691869190508f6040518663ffffffff1660e01b815260040180868152602001858152602001846001600160a01b03166001600160a01b0316815260200180602001836001600160a01b03166001600160a01b03168152602001828103825284818151815260200191508051906020019080838360005b83811015612550578181015183820152602001612538565b50505050905090810190601f16801561257d5780820380516001836020036101000a031916815260200191505b509650505050505050600060405180830381600087803b1580156125a057600080fd5b505af11580156125b4573d6000803e3d6000fd5b50506001909a01995061222098505050505050505050565b50505050565b6040805163e6a4390560e01b81526001600160a01b03898116600483015288811660248301529151600092839283927f00000000000000000000000000000000000000000000000000000000000000009092169163e6a4390591604480820192602092909190829003018186803b15801561264c57600080fd5b505afa158015612660573d6000803e3d6000fd5b505050506040513d602081101561267657600080fd5b50516001600160a01b031614156127305760408051631ad8034760e21b81526001600160a01b038b811660048301528a811660248301526044820186905291517f000000000000000000000000000000000000000000000000000000000000000090921691636b600d1c916064808201926020929091908290030181600087803b15801561270357600080fd5b505af1158015612717573d6000803e3d6000fd5b505050506040513d602081101561272d57600080fd5b50505b60008061275e7f00000000000000000000000000000000000000000000000000000000000000008c8c612bf7565b91509150816000148015612770575080155b1561278057889350879250612840565b600061278d8a848461289e565b90508881116127e057868110156127d55760405162461bcd60e51b8152600401808060200182810382526023815260200180612e646023913960400191505060405180910390fd5b89945092508261283e565b60006127ed8a848661289e565b90508a8111156127f957fe5b888110156128385760405162461bcd60e51b8152600401808060200182810382526023815260200180612d426023913960400191505060405180910390fd5b94508893505b505b505097509795505050505050565b80820382811115611dae576040805162461bcd60e51b815260206004820152601560248201527464732d6d6174682d7375622d756e646572666c6f7760581b604482015290519081900360640190fd5b60008084116128de5760405162461bcd60e51b8152600401808060200182810382526025815260200180612e176025913960400191505060405180910390fd5b6000831180156128ee5750600082115b6129295760405162461bcd60e51b8152600401808060200182810382526028815260200180612def6028913960400191505060405180910390fd5b8261293a858463ffffffff612cbe16565b8161294157fe5b04949350505050565b600080826001600160a01b0316846001600160a01b0316141561299e5760405162461bcd60e51b8152600401808060200182810382526025815260200180612dca6025913960400191505060405180910390fd5b826001600160a01b0316846001600160a01b0316106129be5782846129c1565b83835b90925090506001600160a01b038216612a21576040805162461bcd60e51b815260206004820152601e60248201527f556e697377617056324c6962726172793a205a45524f5f414444524553530000604482015290519081900360640190fd5b9250929050565b6060600282511015612a81576040805162461bcd60e51b815260206004820152601e60248201527f556e697377617056324c6962726172793a20494e56414c49445f504154480000604482015290519081900360640190fd5b815167ffffffffffffffff81118015612a9957600080fd5b50604051908082528060200260200182016040528015612ac3578160200160208202803683370190505b5090508281600081518110612ad457fe5b60200260200101818152505060005b6001835103811015612bef576000612b1886858481518110612b0157fe5b602002602001015186856001018151811061248e57fe5b9050806001600160a01b031663f140a35a848481518110612b3557fe5b6020026020010151868581518110612b4957fe5b60200260200101516040518363ffffffff1660e01b815260040180838152602001826001600160a01b03166001600160a01b031681526020019250505060206040518083038186803b158015612b9e57600080fd5b505afa158015612bb2573d6000803e3d6000fd5b505050506040513d6020811015612bc857600080fd5b50518351849060018501908110612bdb57fe5b602090810291909101015250600101612ae3565b509392505050565b6000806000612c06858561294a565b509050600080612c17888888612000565b6001600160a01b0316630902f1ac6040518163ffffffff1660e01b815260040160806040518083038186803b158015612c4f57600080fd5b505afa158015612c63573d6000803e3d6000fd5b505050506040513d6080811015612c7957600080fd5b5080516020909101516001600160701b0391821693501690506001600160a01b0387811690841614612cac578082612caf565b81815b90999098509650505050505050565b6000811580612cd957505080820282828281612cd657fe5b04145b611dae576040805162461bcd60e51b815260206004820152601460248201527364732d6d6174682d6d756c2d6f766572666c6f7760601b604482015290519081900360640190fdfe417274687572526f757465723a20455850495245440000000000000000000000417274687572526f757465723a20494e53554646494349454e545f415f414d4f554e545472616e7366657248656c7065723a3a7472616e7366657246726f6d3a207472616e7366657246726f6d206661696c65645472616e7366657248656c7065723a3a736166655472616e736665724554483a20455448207472616e73666572206661696c6564556e697377617056324c6962726172793a204944454e544943414c5f414444524553534553556e697377617056324c6962726172793a20494e53554646494349454e545f4c4951554944495459556e697377617056324c6962726172793a20494e53554646494349454e545f414d4f554e54417274687572526f757465723a20494e53554646494349454e545f4f55545055545f414d4f554e54417274687572526f757465723a20494e53554646494349454e545f425f414d4f554e545472616e7366657248656c7065723a3a736166655472616e736665723a207472616e73666572206661696c6564a264697066735822122019cf1b93459696c5b1b18f5ba60361d6af356056715d7e0098ac5ef690aa3e7764736f6c63430006060033",
  "linkReferences": {},
  "deployedLinkReferences": {}
}