{
  "_format": "hh-sol-artifact-1",
  "contractName": "ArthurMaster",
  "sourceName": "contracts/ArthurMaster.sol",
  "abi": [
    {
      "inputs": [
        {
          "internalType": "contract IArtTokenV2",
          "name": "artToken_",
          "type": "address"
        },
        {
          "internalType": "uint256",
          "name": "startTime_",
          "type": "uint256"
        }
      ],
      "stateMutability": "nonpayable",
      "type": "constructor"
    },
    {
      "anonymous": false,
      "inputs": [
        {
          "indexed": true,
          "internalType": "address",
          "name": "poolAddress",
          "type": "address"
        },
        {
          "indexed": false,
          "internalType": "uint256",
          "name": "amount",
          "type": "uint256"
        }
      ],
      "name": "ClaimRewards",
      "type": "event"
    },
    {
      "anonymous": false,
      "inputs": [
        {
          "indexed": true,
          "internalType": "address",
          "name": "previousOwner",
          "type": "address"
        },
        {
          "indexed": true,
          "internalType": "address",
          "name": "newOwner",
          "type": "address"
        }
      ],
      "name": "OwnershipTransferred",
      "type": "event"
    },
    {
      "anonymous": false,
      "inputs": [
        {
          "indexed": true,
          "internalType": "address",
          "name": "poolAddress",
          "type": "address"
        },
        {
          "indexed": false,
          "internalType": "uint256",
          "name": "allocPoint",
          "type": "uint256"
        }
      ],
      "name": "PoolAdded",
      "type": "event"
    },
    {
      "anonymous": false,
      "inputs": [
        {
          "indexed": true,
          "internalType": "address",
          "name": "poolAddress",
          "type": "address"
        },
        {
          "indexed": false,
          "internalType": "uint256",
          "name": "allocPoint",
          "type": "uint256"
        }
      ],
      "name": "PoolSet",
      "type": "event"
    },
    {
      "anonymous": false,
      "inputs": [
        {
          "indexed": true,
          "internalType": "address",
          "name": "poolAddress",
          "type": "address"
        },
        {
          "indexed": false,
          "internalType": "uint256",
          "name": "reserve",
          "type": "uint256"
        },
        {
          "indexed": false,
          "internalType": "uint256",
          "name": "lastRewardTime",
          "type": "uint256"
        }
      ],
      "name": "PoolUpdated",
      "type": "event"
    },
    {
      "anonymous": false,
      "inputs": [
        {
          "indexed": false,
          "internalType": "bool",
          "name": "emergencyUnlock",
          "type": "bool"
        }
      ],
      "name": "SetEmergencyUnlock",
      "type": "event"
    },
    {
      "anonymous": false,
      "inputs": [
        {
          "indexed": false,
          "internalType": "address",
          "name": "previousYieldBooster",
          "type": "address"
        },
        {
          "indexed": false,
          "internalType": "address",
          "name": "newYieldBooster",
          "type": "address"
        }
      ],
      "name": "SetYieldBooster",
      "type": "event"
    },
    {
      "inputs": [],
      "name": "activePoolsLength",
      "outputs": [
        {
          "internalType": "uint256",
          "name": "",
          "type": "uint256"
        }
      ],
      "stateMutability": "view",
      "type": "function"
    },
    {
      "inputs": [
        {
          "internalType": "contract INFTPool",
          "name": "nftPool",
          "type": "address"
        },
        {
          "internalType": "uint256",
          "name": "allocPoint",
          "type": "uint256"
        },
        {
          "internalType": "bool",
          "name": "withUpdate",
          "type": "bool"
        }
      ],
      "name": "add",
      "outputs": [],
      "stateMutability": "nonpayable",
      "type": "function"
    },
    {
      "inputs": [],
      "name": "artToken",
      "outputs": [
        {
          "internalType": "address",
          "name": "",
          "type": "address"
        }
      ],
      "stateMutability": "view",
      "type": "function"
    },
    {
      "inputs": [],
      "name": "claimRewards",
      "outputs": [
        {
          "internalType": "uint256",
          "name": "rewardsAmount",
          "type": "uint256"
        }
      ],
      "stateMutability": "nonpayable",
      "type": "function"
    },
    {
      "inputs": [],
      "name": "emergencyUnlock",
      "outputs": [
        {
          "internalType": "bool",
          "name": "",
          "type": "bool"
        }
      ],
      "stateMutability": "view",
      "type": "function"
    },
    {
      "inputs": [],
      "name": "emissionRate",
      "outputs": [
        {
          "internalType": "uint256",
          "name": "",
          "type": "uint256"
        }
      ],
      "stateMutability": "view",
      "type": "function"
    },
    {
      "inputs": [
        {
          "internalType": "uint256",
          "name": "index",
          "type": "uint256"
        }
      ],
      "name": "getActivePoolAddressByIndex",
      "outputs": [
        {
          "internalType": "address",
          "name": "",
          "type": "address"
        }
      ],
      "stateMutability": "view",
      "type": "function"
    },
    {
      "inputs": [
        {
          "internalType": "uint256",
          "name": "index",
          "type": "uint256"
        }
      ],
      "name": "getPoolAddressByIndex",
      "outputs": [
        {
          "internalType": "address",
          "name": "",
          "type": "address"
        }
      ],
      "stateMutability": "view",
      "type": "function"
    },
    {
      "inputs": [
        {
          "internalType": "address",
          "name": "poolAddress_",
          "type": "address"
        }
      ],
      "name": "getPoolInfo",
      "outputs": [
        {
          "internalType": "address",
          "name": "poolAddress",
          "type": "address"
        },
        {
          "internalType": "uint256",
          "name": "allocPoint",
          "type": "uint256"
        },
        {
          "internalType": "uint256",
          "name": "lastRewardTime",
          "type": "uint256"
        },
        {
          "internalType": "uint256",
          "name": "reserve",
          "type": "uint256"
        },
        {
          "internalType": "uint256",
          "name": "poolEmissionRate",
          "type": "uint256"
        }
      ],
      "stateMutability": "view",
      "type": "function"
    },
    {
      "inputs": [],
      "name": "massUpdatePools",
      "outputs": [],
      "stateMutability": "nonpayable",
      "type": "function"
    },
    {
      "inputs": [],
      "name": "owner",
      "outputs": [
        {
          "internalType": "address",
          "name": "",
          "type": "address"
        }
      ],
      "stateMutability": "view",
      "type": "function"
    },
    {
      "inputs": [],
      "name": "poolsLength",
      "outputs": [
        {
          "internalType": "uint256",
          "name": "",
          "type": "uint256"
        }
      ],
      "stateMutability": "view",
      "type": "function"
    },
    {
      "inputs": [],
      "name": "renounceOwnership",
      "outputs": [],
      "stateMutability": "nonpayable",
      "type": "function"
    },
    {
      "inputs": [
        {
          "internalType": "address",
          "name": "poolAddress",
          "type": "address"
        },
        {
          "internalType": "uint256",
          "name": "allocPoint",
          "type": "uint256"
        },
        {
          "internalType": "bool",
          "name": "withUpdate",
          "type": "bool"
        }
      ],
      "name": "set",
      "outputs": [],
      "stateMutability": "nonpayable",
      "type": "function"
    },
    {
      "inputs": [
        {
          "internalType": "bool",
          "name": "emergencyUnlock_",
          "type": "bool"
        }
      ],
      "name": "setEmergencyUnlock",
      "outputs": [],
      "stateMutability": "nonpayable",
      "type": "function"
    },
    {
      "inputs": [
        {
          "internalType": "contract IYieldBooster",
          "name": "yieldBooster_",
          "type": "address"
        }
      ],
      "name": "setYieldBooster",
      "outputs": [],
      "stateMutability": "nonpayable",
      "type": "function"
    },
    {
      "inputs": [],
      "name": "startTime",
      "outputs": [
        {
          "internalType": "uint256",
          "name": "",
          "type": "uint256"
        }
      ],
      "stateMutability": "view",
      "type": "function"
    },
    {
      "inputs": [],
      "name": "totalAllocPoint",
      "outputs": [
        {
          "internalType": "uint256",
          "name": "",
          "type": "uint256"
        }
      ],
      "stateMutability": "view",
      "type": "function"
    },
    {
      "inputs": [
        {
          "internalType": "address",
          "name": "newOwner",
          "type": "address"
        }
      ],
      "name": "transferOwnership",
      "outputs": [],
      "stateMutability": "nonpayable",
      "type": "function"
    },
    {
      "inputs": [
        {
          "internalType": "address",
          "name": "nftPool",
          "type": "address"
        }
      ],
      "name": "updatePool",
      "outputs": [],
      "stateMutability": "nonpayable",
      "type": "function"
    },
    {
      "inputs": [],
      "name": "yieldBooster",
      "outputs": [
        {
          "internalType": "address",
          "name": "",
          "type": "address"
        }
      ],
      "stateMutability": "view",
      "type": "function"
    }
  ],
  "bytecode": "0x60c06040523480156200001157600080fd5b50604051620016eb380380620016eb8339810160408190526200003491620001ea565b6200003f336200019a565b6001600160a01b038216620000c15760405162461bcd60e51b815260206004820152603460248201527f4172746875724d61737465723a20617274546f6b656e2063616e6e6f7420626560448201527f2073657420746f207a65726f206164647265737300000000000000000000000060648201526084015b60405180910390fd5b8042108015620001355750816001600160a01b031663439af45e6040518163ffffffff1660e01b8152600401602060405180830381865afa1580156200010b573d6000803e3d6000fd5b505050506040513d601f19601f8201168201806040525081019062000131919062000226565b8110155b620001835760405162461bcd60e51b815260206004820152601f60248201527f4172746875724d61737465723a20696e76616c696420737461727454696d65006044820152606401620000b8565b6001600160a01b0390911660805260a05262000240565b600080546001600160a01b038381166001600160a01b0319831681178455604051919092169283917f8be0079c531659141344cd1fd0a4f28419497f9722a3daafe3b4186f6b6457e09190a35050565b60008060408385031215620001fe57600080fd5b82516001600160a01b03811681146200021657600080fd5b6020939093015192949293505050565b6000602082840312156200023957600080fd5b5051919050565b60805160a05161145b62000290600039600081816102410152818161052a01526105510152600081816102a40152818161079801528181610b4701528181610ca60152610d2c015261145b6000f3fe608060405234801561001057600080fd5b50600436106101375760003560e01c806368e5dab5116100b857806396afc4501161007c57806396afc45014610287578063a2a4284b1461028f578063bd4cc0f5146102a2578063f2c39992146102c8578063f2fde38b146102e5578063f501d10c146102f857600080fd5b806368e5dab514610223578063715018a61461023457806378e979251461023c5780637b46c54f146102635780638da5cb5b1461027657600080fd5b80632716ae66116100ff5780632716ae66146101f05780632f38e042146101f8578063372500ab1461020b5780634584736514610213578063630b5ba11461021b57600080fd5b806306bfa9381461013c5780630b139194146101865780630dec23121461019b57806317967183146101ae57806317caf6f1146101d9575b600080fd5b61014f61014a3660046111d6565b61030b565b604080516001600160a01b0390961686526020860194909452928401919091526060830152608082015260a0015b60405180910390f35b610199610194366004611201565b61038b565b005b6101996101a9366004611201565b6104a3565b6101c16101bc366004611243565b610612565b6040516001600160a01b03909116815260200161017d565b6101e260075481565b60405190815260200161017d565b6101e261063d565b61019961020636600461125c565b61064e565b6101e26106a3565b6101e2610737565b610199610743565b6001546001600160a01b03166101c1565b61019961074d565b6101e27f000000000000000000000000000000000000000000000000000000000000000081565b6101996102713660046111d6565b61075f565b6000546001600160a01b03166101c1565b6101e2610794565b61019961029d3660046111d6565b610818565b7f00000000000000000000000000000000000000000000000000000000000000006101c1565b6008546102d59060ff1681565b604051901515815260200161017d565b6101996102f33660046111d6565b6108f6565b6101c1610306366004611243565b61096f565b6001600160a01b03811660009081526002602081815260408084208151606081018352815480825260018301549482018590529190940154918401829052600754869591949082036103605760009150610381565b61037e60075461037887610372610794565b90610994565b906109a7565b91505b5091939590929450565b826103976003826109b3565b6103bc5760405162461bcd60e51b81526004016103b390611279565b60405180910390fd5b6103c46109d5565b6001600160a01b0384166000908152600260205260409020805483156103ec576103ec610a2f565b6103f586610a6b565b84825560075461041190869061040b9084610c2c565b90610c38565b600755801580156104225750600085115b1561043857610432600587610c44565b50610458565b600081118015610446575084155b1561045857610456600587610c59565b505b856001600160a01b03167f766454cf266311018043fed7121567eca6b8f60d59bc0262dc5f2224734128a18660405161049391815260200190565b60405180910390a2505050505050565b6104ab6109d5565b826104b76003826109b3565b156105045760405162461bcd60e51b815260206004820152601860248201527f6164643a20706f6f6c20616c726561647920657869737473000000000000000060448201526064016103b3565b42831561052657821561051957610519610a2f565b610524600583610c44565b505b60007f00000000000000000000000000000000000000000000000000000000000000008211610575577f0000000000000000000000000000000000000000000000000000000000000000610577565b815b6007549091506105879086610c38565b60075560408051606081018252868152602080820184815260008385018181526001600160a01b03891682526002938490529490209251835551600183015591519101556105d6600384610c44565b50826001600160a01b03167f0c98febfffcec480c66a977e13f14bafdb5199ea9603591a0715b0cabe0c3ae28660405161049391815260200190565b600061061e6003610c6e565b821061062c57506000919050565b610637600383610c78565b92915050565b60006106496003610c6e565b905090565b6106566109d5565b6008805460ff191682151590811790915560405160ff909116151581527f1545be19b3ba6f2e76454d1b8b59529cbbbdf7af9046fd49bd86c17314a5509d9060200160405180910390a150565b60006106b06003336109b3565b6106ba5750600090565b6106c333610a6b565b33600090815260026020819052604082209081015490918190036106ea5760009250505090565b6000600283015560405181815233907f1f89f96333d3133000ee447473151fa9606543368f02271c9d95ae14f13bcc679060200160405180910390a26107303382610c84565b9250505090565b60006106496005610c6e565b61074b610a2f565b565b6107556109d5565b61074b6000610d5b565b8061076b6003826109b3565b6107875760405162461bcd60e51b81526004016103b390611279565b61079082610a6b565b5050565b60007f00000000000000000000000000000000000000000000000000000000000000006001600160a01b03166339eb41896040518163ffffffff1660e01b8152600401602060405180830381865afa1580156107f4573d6000803e3d6000fd5b505050506040513d601f19601f8201168201806040525081019061064991906112ba565b6108206109d5565b6001600160a01b03811661088d5760405162461bcd60e51b815260206004820152602e60248201527f7365745969656c64426f6f737465723a2063616e6e6f7420626520736574207460448201526d6f207a65726f206164647265737360901b60648201526084016103b3565b600154604080516001600160a01b03928316815291831660208301527f7318a5c0c2124d6236f6ff6c5970bd58080848fefd17871fb15b8ea976c08a10910160405180910390a1600180546001600160a01b0319166001600160a01b0392909216919091179055565b6108fe6109d5565b6001600160a01b0381166109635760405162461bcd60e51b815260206004820152602660248201527f4f776e61626c653a206e6577206f776e657220697320746865207a65726f206160448201526564647265737360d01b60648201526084016103b3565b61096c81610d5b565b50565b600061097b6005610c6e565b821061098957506000919050565b610637600583610c78565b60006109a082846112e9565b9392505050565b60006109a08284611308565b6001600160a01b038116600090815260018301602052604081205415156109a0565b6000546001600160a01b0316331461074b5760405162461bcd60e51b815260206004820181905260248201527f4f776e61626c653a2063616c6c6572206973206e6f7420746865206f776e657260448201526064016103b3565b6000610a3b6005610c6e565b905060005b8181101561079057610a5b610a56600583610c78565b610a6b565b610a648161132a565b9050610a40565b6001600160a01b038116600090815260026020526040902060018101548154429190818311610a9b575050505050565b600081118015610b085750846001600160a01b031663e61f927d6040518163ffffffff1660e01b8152600401602060405180830381865afa158015610ae4573d6000803e3d6000fd5b505050506040513d601f19601f82011682018060405250810190610b089190611343565b15610bd5576000610b2e60075461037884610372610b24610794565b6103728a8a610c2c565b604051637813570560e01b8152600481018290529091507f00000000000000000000000000000000000000000000000000000000000000006001600160a01b0316906378135705906024016020604051808303816000875af1158015610b98573d6000803e3d6000fd5b505050506040513d601f19601f82011682018060405250810190610bbc91906112ba565b6002860154909150610bce9082610c38565b6002860155505b60018401839055600284015460408051918252602082018590526001600160a01b038716917ffe9371d05ef5f3f0e1c8bd622b21d0c06aa6b7b6a2ce7d07ad9f5e526979ffcc910160405180910390a25050505050565b60006109a08284611360565b60006109a08284611373565b60006109a0836001600160a01b038416610dab565b60006109a0836001600160a01b038416610dfa565b6000610637825490565b60006109a08383610eed565b6040516370a0823160e01b815230600482015260009081906001600160a01b037f000000000000000000000000000000000000000000000000000000000000000016906370a0823190602401602060405180830381865afa158015610ced573d6000803e3d6000fd5b505050506040513d601f19601f82011682018060405250810190610d1191906112ba565b905080831115610d1f578092505b610d536001600160a01b037f0000000000000000000000000000000000000000000000000000000000000000168585610f17565b509092915050565b600080546001600160a01b038381166001600160a01b0319831681178455604051919092169283917f8be0079c531659141344cd1fd0a4f28419497f9722a3daafe3b4186f6b6457e09190a35050565b6000818152600183016020526040812054610df257508154600181810184556000848152602080822090930184905584548482528286019093526040902091909155610637565b506000610637565b60008181526001830160205260408120548015610ee3576000610e1e600183611360565b8554909150600090610e3290600190611360565b9050818114610e97576000866000018281548110610e5257610e52611386565b9060005260206000200154905080876000018481548110610e7557610e75611386565b6000918252602080832090910192909255918252600188019052604090208390555b8554869080610ea857610ea861139c565b600190038181906000526020600020016000905590558560010160008681526020019081526020016000206000905560019350505050610637565b6000915050610637565b6000826000018281548110610f0457610f04611386565b9060005260206000200154905092915050565b604080516001600160a01b038416602482015260448082018490528251808303909101815260649091019091526020810180516001600160e01b031663a9059cbb60e01b179052610f69908490610f6e565b505050565b6000610fc3826040518060400160405280602081526020017f5361666545524332303a206c6f772d6c6576656c2063616c6c206661696c6564815250856001600160a01b03166110409092919063ffffffff16565b805190915015610f695780806020019051810190610fe19190611343565b610f695760405162461bcd60e51b815260206004820152602a60248201527f5361666545524332303a204552433230206f7065726174696f6e20646964206e6044820152691bdd081cdd58d8d9595960b21b60648201526084016103b3565b606061104f8484600085611057565b949350505050565b6060824710156110b85760405162461bcd60e51b815260206004820152602660248201527f416464726573733a20696e73756666696369656e742062616c616e636520666f6044820152651c8818d85b1b60d21b60648201526084016103b3565b6001600160a01b0385163b61110f5760405162461bcd60e51b815260206004820152601d60248201527f416464726573733a2063616c6c20746f206e6f6e2d636f6e747261637400000060448201526064016103b3565b600080866001600160a01b0316858760405161112b91906113d6565b60006040518083038185875af1925050503d8060008114611168576040519150601f19603f3d011682016040523d82523d6000602084013e61116d565b606091505b509150915061117d828286611188565b979650505050505050565b606083156111975750816109a0565b8251156111a75782518084602001fd5b8160405162461bcd60e51b81526004016103b391906113f2565b6001600160a01b038116811461096c57600080fd5b6000602082840312156111e857600080fd5b81356109a0816111c1565b801515811461096c57600080fd5b60008060006060848603121561121657600080fd5b8335611221816111c1565b9250602084013591506040840135611238816111f3565b809150509250925092565b60006020828403121561125557600080fd5b5035919050565b60006020828403121561126e57600080fd5b81356109a0816111f3565b60208082526021908201527f76616c6964617465506f6f6c3a20706f6f6c20646f6573206e6f7420657869736040820152601d60fa1b606082015260800190565b6000602082840312156112cc57600080fd5b5051919050565b634e487b7160e01b600052601160045260246000fd5b6000816000190483118215151615611303576113036112d3565b500290565b60008261132557634e487b7160e01b600052601260045260246000fd5b500490565b60006001820161133c5761133c6112d3565b5060010190565b60006020828403121561135557600080fd5b81516109a0816111f3565b81810381811115610637576106376112d3565b80820180821115610637576106376112d3565b634e487b7160e01b600052603260045260246000fd5b634e487b7160e01b600052603160045260246000fd5b60005b838110156113cd5781810151838201526020016113b5565b50506000910152565b600082516113e88184602087016113b2565b9190910192915050565b60208152600082518060208401526114118160408501602087016113b2565b601f01601f1916919091016040019291505056fea2646970667358221220adbc302e525c4b57128ff80a77bf9ae7f49a3bab5c7b23ff33223ad4f5ec924064736f6c63430008100033",
  "linkReferences": {},
  "deployedLinkReferences": {}
}