{
  "_format": "hh-sol-artifact-1",
  "contractName": "ArtTokenV2",
  "sourceName": "contracts/ArtTokenV2.sol",
  "abi": [
    {
      "inputs": [
        {
          "internalType": "uint256",
          "name": "maxSupply_",
          "type": "uint256"
        },
        {
          "internalType": "uint256",
          "name": "initialSupply",
          "type": "uint256"
        },
        {
          "internalType": "uint256",
          "name": "initialEmissionRate",
          "type": "uint256"
        },
        {
          "internalType": "address",
          "name": "treasuryAddress_",
          "type": "address"
        }
      ],
      "stateMutability": "nonpayable",
      "type": "constructor"
    },
    {
      "anonymous": false,
      "inputs": [
        {
          "indexed": false,
          "internalType": "uint256",
          "name": "masterShare",
          "type": "uint256"
        },
        {
          "indexed": false,
          "internalType": "uint256",
          "name": "treasuryShare",
          "type": "uint256"
        }
      ],
      "name": "AllocationsDistributed",
      "type": "event"
    },
    {
      "anonymous": false,
      "inputs": [
        {
          "indexed": true,
          "internalType": "address",
          "name": "owner",
          "type": "address"
        },
        {
          "indexed": true,
          "internalType": "address",
          "name": "spender",
          "type": "address"
        },
        {
          "indexed": false,
          "internalType": "uint256",
          "name": "value",
          "type": "uint256"
        }
      ],
      "name": "Approval",
      "type": "event"
    },
    {
      "anonymous": false,
      "inputs": [
        {
          "indexed": false,
          "internalType": "uint256",
          "name": "amount",
          "type": "uint256"
        }
      ],
      "name": "ClaimMasterRewards",
      "type": "event"
    },
    {
      "anonymous": false,
      "inputs": [
        {
          "indexed": false,
          "internalType": "uint256",
          "name": "startTime",
          "type": "uint256"
        }
      ],
      "name": "InitializeEmissionStart",
      "type": "event"
    },
    {
      "anonymous": false,
      "inputs": [
        {
          "indexed": false,
          "internalType": "address",
          "name": "masterAddress",
          "type": "address"
        }
      ],
      "name": "InitializeMasterAddress",
      "type": "event"
    },
    {
      "anonymous": false,
      "inputs": [
        {
          "indexed": true,
          "internalType": "address",
          "name": "previousOwner",
          "type": "address"
        },
        {
          "indexed": true,
          "internalType": "address",
          "name": "newOwner",
          "type": "address"
        }
      ],
      "name": "OwnershipTransferred",
      "type": "event"
    },
    {
      "anonymous": false,
      "inputs": [
        {
          "indexed": true,
          "internalType": "address",
          "name": "from",
          "type": "address"
        },
        {
          "indexed": true,
          "internalType": "address",
          "name": "to",
          "type": "address"
        },
        {
          "indexed": false,
          "internalType": "uint256",
          "name": "value",
          "type": "uint256"
        }
      ],
      "name": "Transfer",
      "type": "event"
    },
    {
      "anonymous": false,
      "inputs": [
        {
          "indexed": false,
          "internalType": "uint256",
          "name": "farmingAllocation",
          "type": "uint256"
        },
        {
          "indexed": false,
          "internalType": "uint256",
          "name": "legacyAllocation",
          "type": "uint256"
        },
        {
          "indexed": false,
          "internalType": "uint256",
          "name": "treasuryAllocation",
          "type": "uint256"
        }
      ],
      "name": "UpdateAllocations",
      "type": "event"
    },
    {
      "anonymous": false,
      "inputs": [
        {
          "indexed": false,
          "internalType": "uint256",
          "name": "previousEmissionRate",
          "type": "uint256"
        },
        {
          "indexed": false,
          "internalType": "uint256",
          "name": "newEmissionRate",
          "type": "uint256"
        }
      ],
      "name": "UpdateEmissionRate",
      "type": "event"
    },
    {
      "anonymous": false,
      "inputs": [
        {
          "indexed": false,
          "internalType": "uint256",
          "name": "previousMaxSupply",
          "type": "uint256"
        },
        {
          "indexed": false,
          "internalType": "uint256",
          "name": "newMaxSupply",
          "type": "uint256"
        }
      ],
      "name": "UpdateMaxSupply",
      "type": "event"
    },
    {
      "anonymous": false,
      "inputs": [
        {
          "indexed": false,
          "internalType": "address",
          "name": "previousTreasuryAddress",
          "type": "address"
        },
        {
          "indexed": false,
          "internalType": "address",
          "name": "newTreasuryAddress",
          "type": "address"
        }
      ],
      "name": "UpdateTreasuryAddress",
      "type": "event"
    },
    {
      "inputs": [],
      "name": "ALLOCATION_PRECISION",
      "outputs": [
        {
          "internalType": "uint256",
          "name": "",
          "type": "uint256"
        }
      ],
      "stateMutability": "view",
      "type": "function"
    },
    {
      "inputs": [],
      "name": "BURN_ADDRESS",
      "outputs": [
        {
          "internalType": "address",
          "name": "",
          "type": "address"
        }
      ],
      "stateMutability": "view",
      "type": "function"
    },
    {
      "inputs": [],
      "name": "MAX_EMISSION_RATE",
      "outputs": [
        {
          "internalType": "uint256",
          "name": "",
          "type": "uint256"
        }
      ],
      "stateMutability": "view",
      "type": "function"
    },
    {
      "inputs": [],
      "name": "MAX_SUPPLY_LIMIT",
      "outputs": [
        {
          "internalType": "uint256",
          "name": "",
          "type": "uint256"
        }
      ],
      "stateMutability": "view",
      "type": "function"
    },
    {
      "inputs": [
        {
          "internalType": "address",
          "name": "owner",
          "type": "address"
        },
        {
          "internalType": "address",
          "name": "spender",
          "type": "address"
        }
      ],
      "name": "allowance",
      "outputs": [
        {
          "internalType": "uint256",
          "name": "",
          "type": "uint256"
        }
      ],
      "stateMutability": "view",
      "type": "function"
    },
    {
      "inputs": [
        {
          "internalType": "address",
          "name": "spender",
          "type": "address"
        },
        {
          "internalType": "uint256",
          "name": "amount",
          "type": "uint256"
        }
      ],
      "name": "approve",
      "outputs": [
        {
          "internalType": "bool",
          "name": "",
          "type": "bool"
        }
      ],
      "stateMutability": "nonpayable",
      "type": "function"
    },
    {
      "inputs": [
        {
          "internalType": "address",
          "name": "account",
          "type": "address"
        }
      ],
      "name": "balanceOf",
      "outputs": [
        {
          "internalType": "uint256",
          "name": "",
          "type": "uint256"
        }
      ],
      "stateMutability": "view",
      "type": "function"
    },
    {
      "inputs": [
        {
          "internalType": "uint256",
          "name": "amount",
          "type": "uint256"
        }
      ],
      "name": "burn",
      "outputs": [],
      "stateMutability": "nonpayable",
      "type": "function"
    },
    {
      "inputs": [
        {
          "internalType": "uint256",
          "name": "amount",
          "type": "uint256"
        }
      ],
      "name": "claimMasterRewards",
      "outputs": [
        {
          "internalType": "uint256",
          "name": "effectiveAmount",
          "type": "uint256"
        }
      ],
      "stateMutability": "nonpayable",
      "type": "function"
    },
    {
      "inputs": [],
      "name": "decimals",
      "outputs": [
        {
          "internalType": "uint8",
          "name": "",
          "type": "uint8"
        }
      ],
      "stateMutability": "view",
      "type": "function"
    },
    {
      "inputs": [
        {
          "internalType": "address",
          "name": "spender",
          "type": "address"
        },
        {
          "internalType": "uint256",
          "name": "subtractedValue",
          "type": "uint256"
        }
      ],
      "name": "decreaseAllowance",
      "outputs": [
        {
          "internalType": "bool",
          "name": "",
          "type": "bool"
        }
      ],
      "stateMutability": "nonpayable",
      "type": "function"
    },
    {
      "inputs": [],
      "name": "elasticMaxSupply",
      "outputs": [
        {
          "internalType": "uint256",
          "name": "",
          "type": "uint256"
        }
      ],
      "stateMutability": "view",
      "type": "function"
    },
    {
      "inputs": [],
      "name": "emissionRate",
      "outputs": [
        {
          "internalType": "uint256",
          "name": "",
          "type": "uint256"
        }
      ],
      "stateMutability": "view",
      "type": "function"
    },
    {
      "inputs": [],
      "name": "emitAllocations",
      "outputs": [],
      "stateMutability": "nonpayable",
      "type": "function"
    },
    {
      "inputs": [],
      "name": "farmingAllocation",
      "outputs": [
        {
          "internalType": "uint256",
          "name": "",
          "type": "uint256"
        }
      ],
      "stateMutability": "view",
      "type": "function"
    },
    {
      "inputs": [
        {
          "internalType": "address",
          "name": "spender",
          "type": "address"
        },
        {
          "internalType": "uint256",
          "name": "addedValue",
          "type": "uint256"
        }
      ],
      "name": "increaseAllowance",
      "outputs": [
        {
          "internalType": "bool",
          "name": "",
          "type": "bool"
        }
      ],
      "stateMutability": "nonpayable",
      "type": "function"
    },
    {
      "inputs": [
        {
          "internalType": "uint256",
          "name": "startTime",
          "type": "uint256"
        }
      ],
      "name": "initializeEmissionStart",
      "outputs": [],
      "stateMutability": "nonpayable",
      "type": "function"
    },
    {
      "inputs": [
        {
          "internalType": "address",
          "name": "masterAddress_",
          "type": "address"
        }
      ],
      "name": "initializeMasterAddress",
      "outputs": [],
      "stateMutability": "nonpayable",
      "type": "function"
    },
    {
      "inputs": [],
      "name": "lastEmissionTime",
      "outputs": [
        {
          "internalType": "uint256",
          "name": "",
          "type": "uint256"
        }
      ],
      "stateMutability": "view",
      "type": "function"
    },
    {
      "inputs": [],
      "name": "legacyAllocation",
      "outputs": [
        {
          "internalType": "uint256",
          "name": "",
          "type": "uint256"
        }
      ],
      "stateMutability": "view",
      "type": "function"
    },
    {
      "inputs": [],
      "name": "masterAddress",
      "outputs": [
        {
          "internalType": "address",
          "name": "",
          "type": "address"
        }
      ],
      "stateMutability": "view",
      "type": "function"
    },
    {
      "inputs": [],
      "name": "masterAllocation",
      "outputs": [
        {
          "internalType": "uint256",
          "name": "",
          "type": "uint256"
        }
      ],
      "stateMutability": "view",
      "type": "function"
    },
    {
      "inputs": [],
      "name": "masterEmissionRate",
      "outputs": [
        {
          "internalType": "uint256",
          "name": "",
          "type": "uint256"
        }
      ],
      "stateMutability": "view",
      "type": "function"
    },
    {
      "inputs": [],
      "name": "masterReserve",
      "outputs": [
        {
          "internalType": "uint256",
          "name": "",
          "type": "uint256"
        }
      ],
      "stateMutability": "view",
      "type": "function"
    },
    {
      "inputs": [],
      "name": "name",
      "outputs": [
        {
          "internalType": "string",
          "name": "",
          "type": "string"
        }
      ],
      "stateMutability": "view",
      "type": "function"
    },
    {
      "inputs": [],
      "name": "owner",
      "outputs": [
        {
          "internalType": "address",
          "name": "",
          "type": "address"
        }
      ],
      "stateMutability": "view",
      "type": "function"
    },
    {
      "inputs": [],
      "name": "renounceOwnership",
      "outputs": [],
      "stateMutability": "nonpayable",
      "type": "function"
    },
    {
      "inputs": [],
      "name": "symbol",
      "outputs": [
        {
          "internalType": "string",
          "name": "",
          "type": "string"
        }
      ],
      "stateMutability": "view",
      "type": "function"
    },
    {
      "inputs": [],
      "name": "totalSupply",
      "outputs": [
        {
          "internalType": "uint256",
          "name": "",
          "type": "uint256"
        }
      ],
      "stateMutability": "view",
      "type": "function"
    },
    {
      "inputs": [
        {
          "internalType": "address",
          "name": "to",
          "type": "address"
        },
        {
          "internalType": "uint256",
          "name": "amount",
          "type": "uint256"
        }
      ],
      "name": "transfer",
      "outputs": [
        {
          "internalType": "bool",
          "name": "",
          "type": "bool"
        }
      ],
      "stateMutability": "nonpayable",
      "type": "function"
    },
    {
      "inputs": [
        {
          "internalType": "address",
          "name": "from",
          "type": "address"
        },
        {
          "internalType": "address",
          "name": "to",
          "type": "address"
        },
        {
          "internalType": "uint256",
          "name": "amount",
          "type": "uint256"
        }
      ],
      "name": "transferFrom",
      "outputs": [
        {
          "internalType": "bool",
          "name": "",
          "type": "bool"
        }
      ],
      "stateMutability": "nonpayable",
      "type": "function"
    },
    {
      "inputs": [
        {
          "internalType": "address",
          "name": "newOwner",
          "type": "address"
        }
      ],
      "name": "transferOwnership",
      "outputs": [],
      "stateMutability": "nonpayable",
      "type": "function"
    },
    {
      "inputs": [],
      "name": "treasuryAddress",
      "outputs": [
        {
          "internalType": "address",
          "name": "",
          "type": "address"
        }
      ],
      "stateMutability": "view",
      "type": "function"
    },
    {
      "inputs": [],
      "name": "treasuryAllocation",
      "outputs": [
        {
          "internalType": "uint256",
          "name": "",
          "type": "uint256"
        }
      ],
      "stateMutability": "view",
      "type": "function"
    },
    {
      "inputs": [
        {
          "internalType": "uint256",
          "name": "farmingAllocation_",
          "type": "uint256"
        },
        {
          "internalType": "uint256",
          "name": "legacyAllocation_",
          "type": "uint256"
        }
      ],
      "name": "updateAllocations",
      "outputs": [],
      "stateMutability": "nonpayable",
      "type": "function"
    },
    {
      "inputs": [
        {
          "internalType": "uint256",
          "name": "emissionRate_",
          "type": "uint256"
        }
      ],
      "name": "updateEmissionRate",
      "outputs": [],
      "stateMutability": "nonpayable",
      "type": "function"
    },
    {
      "inputs": [
        {
          "internalType": "uint256",
          "name": "maxSupply_",
          "type": "uint256"
        }
      ],
      "name": "updateMaxSupply",
      "outputs": [],
      "stateMutability": "nonpayable",
      "type": "function"
    },
    {
      "inputs": [
        {
          "internalType": "address",
          "name": "treasuryAddress_",
          "type": "address"
        }
      ],
      "name": "updateTreasuryAddress",
      "outputs": [],
      "stateMutability": "nonpayable",
      "type": "function"
    }
  ],
  "bytecode": "0x60806040526032600a553480156200001657600080fd5b5060405162001c6138038062001c61833981016040819052620000399162000390565b6040518060400160405280600c81526020016b20b93a343ab9103a37b5b2b760a11b8152506040518060400160405280600381526020016210549560ea1b815250620000946200008e6200025260201b60201c565b62000256565b6004620000a2838262000485565b506005620000b1828262000485565b505050662386f26fc10000821115620001115760405162461bcd60e51b815260206004820152601560248201527f696e76616c696420656d697373696f6e2072617465000000000000000000000060448201526064015b60405180910390fd5b6a084595161401484a0000008411156200016e5760405162461bcd60e51b815260206004820152601960248201527f696e76616c696420696e697469616c206d6178537570706c7900000000000000604482015260640162000108565b838310620001bf5760405162461bcd60e51b815260206004820152601660248201527f696e76616c696420696e697469616c20737570706c7900000000000000000000604482015260640162000108565b6001600160a01b038116620002175760405162461bcd60e51b815260206004820152601860248201527f696e76616c696420747265617375727920616464726573730000000000000000604482015260640162000108565b60068490556007829055600d80546001600160a01b0319166001600160a01b038316179055620002483384620002a6565b5050505062000579565b3390565b600080546001600160a01b038381166001600160a01b0319831681178455604051919092169283917f8be0079c531659141344cd1fd0a4f28419497f9722a3daafe3b4186f6b6457e09190a35050565b6001600160a01b038216620002fe5760405162461bcd60e51b815260206004820152601f60248201527f45524332303a206d696e7420746f20746865207a65726f206164647265737300604482015260640162000108565b806003600082825462000312919062000551565b90915550506001600160a01b038216600090815260016020526040812080548392906200034190849062000551565b90915550506040518181526001600160a01b038316906000907fddf252ad1be2c89b69c2b068fc378daa952ba7f163c4a11628f55a4df523b3ef9060200160405180910390a35050565b505050565b60008060008060808587031215620003a757600080fd5b845160208601516040870151606088015192965090945092506001600160a01b0381168114620003d657600080fd5b939692955090935050565b634e487b7160e01b600052604160045260246000fd5b600181811c908216806200040c57607f821691505b6020821081036200042d57634e487b7160e01b600052602260045260246000fd5b50919050565b601f8211156200038b57600081815260208120601f850160051c810160208610156200045c5750805b601f850160051c820191505b818110156200047d5782815560010162000468565b505050505050565b81516001600160401b03811115620004a157620004a1620003e1565b620004b981620004b28454620003f7565b8462000433565b602080601f831160018114620004f15760008415620004d85750858301515b600019600386901b1c1916600185901b1785556200047d565b600085815260208120601f198616915b82811015620005225788860151825594840194600190910190840162000501565b5085821015620005415787850151600019600388901b60f8161c191681555b5050505050600190811b01905550565b808201808211156200057357634e487b7160e01b600052601160045260246000fd5b92915050565b6116d880620005896000396000f3fe608060405234801561001057600080fd5b50600436106102315760003560e01c80637813570511610130578063c5f956af116100b8578063ed424fd01161007c578063ed424fd014610464578063f103b4331461046d578063f2fde38b14610480578063fc1852fb14610493578063fccc2813146104a657600080fd5b8063c5f956af1461041b578063c68bb4c51461042e578063d365a08e14610436578063dd62ed3e14610449578063e4ef9dce1461045c57600080fd5b806395d89b41116100ff57806395d89b41146103d157806396afc450146103d9578063a457c2d7146103e2578063a9059cbb146103f5578063b71144a41461040857600080fd5b8063781357051461037d578063841e4561146103905780638da5cb5b146103a35780638f88bba3146103c857600080fd5b806339509351116101be5780634f3147ba116101825780634f3147ba1461031f578063617d11261461032757806367c0f2781461033957806370a082311461034c578063715018a61461037557600080fd5b806339509351146102da57806339eb4189146102ed57806342966c68146102f5578063436cc3d614610308578063439af45e1461031657600080fd5b80630ba84cd2116102055780630ba84cd21461029257806318160ddd146102a757806323b872dd146102af57806327dede2d146102c2578063313ce567146102cb57600080fd5b80624fbf6b146102365780630495d11c1461025157806306fdde031461025a578063095ea7b31461026f575b600080fd5b61023e606481565b6040519081526020015b60405180910390f35b61023e600b5481565b6102626104af565b6040516102489190611497565b61028261027d3660046114fc565b610541565b6040519015158152602001610248565b6102a56102a0366004611526565b61055b565b005b60035461023e565b6102826102bd36600461153f565b610619565b61023e60095481565b60405160128152602001610248565b6102826102e83660046114fc565b61063d565b61023e61065f565b6102a5610303366004611526565b610694565b61023e662386f26fc1000081565b61023e60085481565b61023e6106a4565b61023e6a084595161401484a00000081565b6102a561034736600461157b565b6106b9565b61023e61035a36600461157b565b6001600160a01b031660009081526001602052604090205490565b6102a5610807565b61023e61038b366004611526565b61081b565b6102a561039e36600461157b565b610900565b6000546001600160a01b03165b6040516001600160a01b039091168152602001610248565b61023e600a5481565b6102626109d6565b61023e60075481565b6102826103f03660046114fc565b6109e5565b6102826104033660046114fc565b610a60565b6102a5610416366004611596565b610a6e565b600d546103b0906001600160a01b031681565b61023e610b4d565b600c546103b0906001600160a01b031681565b61023e6104573660046115b8565b610b66565b6102a5610b91565b61023e60065481565b6102a561047b366004611526565b610cb6565b6102a561048e36600461157b565b610ddd565b6102a56104a1366004611526565b610e53565b6103b061dead81565b6060600480546104be906115eb565b80601f01602080910402602001604051908101604052809291908181526020018280546104ea906115eb565b80156105375780601f1061050c57610100808354040283529160200191610537565b820191906000526020600020905b81548152906001019060200180831161051a57829003601f168201915b5050505050905090565b60003361054f818585610f55565b60019150505b92915050565b610563611079565b662386f26fc100008111156105d05760405162461bcd60e51b815260206004820152602860248201527f757064617465456d697373696f6e526174653a2063616e277420657863656564604482015267206d6178696d756d60c01b60648201526084015b60405180910390fd5b6105d8610b91565b60075460408051918252602082018390527f16b9091836a63537907593ebc3a80f3528891f3575b10f58ad7dd9c29fd0d44f910160405180910390a1600755565b6000336106278582856110d3565b61063285858561114d565b506001949350505050565b60003361054f8185856106508383610b66565b61065a919061163b565b610f55565b600061068f6064610689610680600b54600a5461131b90919063ffffffff16565b6007549061132e565b9061133a565b905090565b6106a13361dead8361114d565b50565b600061068f6106b1610b4d565b606490611346565b6106c1611079565b600c546001600160a01b0316156107365760405162461bcd60e51b815260206004820152603360248201527f696e697469616c697a654d6173746572416464726573733a206d617374657220604482015272185b1c9958591e481a5b9a5d1a585b1a5e9959606a1b60648201526084016105c7565b6001600160a01b0381166107b25760405162461bcd60e51b815260206004820152603b60248201527f696e697469616c697a654d6173746572416464726573733a206d61737465722060448201527f696e697469616c697a656420746f207a65726f2061646472657373000000000060648201526084016105c7565b600c80546001600160a01b0319166001600160a01b0383169081179091556040519081527fcba13eb1e65d2c1588ce6d10f862f4535cc67855c3f31e3d2732f8fb6b5317b2906020015b60405180910390a150565b61080f611079565b6108196000611352565b565b600c546000906001600160a01b031633146108835760405162461bcd60e51b815260206004820152602260248201527f417274546f6b656e3a2063616c6c6572206973206e6f7420746865206d61737460448201526132b960f11b60648201526084016105c7565b61088b610b91565b610897600954836113a2565b905080156108fb576009546108ac9082611346565b600955600c546108c79030906001600160a01b03168361114d565b6040518181527f45102e9ef2c4f14fd9f3e8510c4bb2ad67fe498584602f26647da23039f125319060200160405180910390a15b919050565b610908611079565b6001600160a01b03811661096d5760405162461bcd60e51b815260206004820152602660248201527f7570646174655472656173757279416464726573733a20696e76616c6964206160448201526564647265737360d01b60648201526084016105c7565b600d54604080516001600160a01b03928316815291831660208301527f5634a90413b79beba6c5f37aa8f19d1aee84a5320ff20ac7bd1ac63280867d5c910160405180910390a1600d80546001600160a01b0319166001600160a01b0392909216919091179055565b6060600580546104be906115eb565b600033816109f38286610b66565b905083811015610a535760405162461bcd60e51b815260206004820152602560248201527f45524332303a2064656372656173656420616c6c6f77616e63652062656c6f77604482015264207a65726f60d81b60648201526084016105c7565b6106328286868403610f55565b60003361054f81858561114d565b610a76611079565b610a7e610b91565b6000610a8a838361131b565b90506064811115610af55760405162461bcd60e51b815260206004820152602f60248201527f757064617465416c6c6f636174696f6e733a20746f74616c20616c6c6f63617460448201526e0d2dedc40d2e640e8dede40d0d2ced608b1b60648201526084016105c7565b600a839055600b8290557fa4a1bde80c0d4ba37d1bd0feec135fb515a9def4e8baee90221348069946b86c8383610b2a6106a4565b6040805193845260208401929092529082015260600160405180910390a1505050565b600061068f600b54600a5461131b90919063ffffffff16565b6001600160a01b03918216600090815260026020908152604080832093909416825291909152205490565b6000610b9c60035490565b60085460065491925042918183111580610bb4575081155b15610bbf5750505050565b8381111580610bce5750600754155b15610bdb57505060085550565b600754600090610bf590610bef8686611346565b9061132e565b9050610c01858261131b565b821015610c1557610c128286611346565b90505b6000610c2e6064610689610c27610b4d565b859061132e565b90506000610c3c8383611346565b6008879055600954909150610c51908361131b565b600955610c5e30836113b8565b600d54610c74906001600160a01b0316826113b8565b60408051838152602081018390527f26c155e7637ca49a34c19c7f8cb8533322897de0808134df1a98f71557111684910160405180910390a150505050505050565b610cbe611079565b600354811015610d365760405162461bcd60e51b815260206004820152603f60248201527f7570646174654d6178537570706c793a2063616e2774206265206c6f7765722060448201527f7468616e2063757272656e742063697263756c6174696e6720737570706c790060648201526084016105c7565b6a084595161401484a000000811115610d9c5760405162461bcd60e51b815260206004820152602260248201527f7570646174654d6178537570706c793a20696e76616c6964206d6178537570706044820152616c7960f01b60648201526084016105c7565b60065460408051918252602082018390527f6a84334bf6663b783f2bbfcaf459b2cbc73570cf346a46d9e6a0f290fcf3ebfc910160405180910390a1600655565b610de5611079565b6001600160a01b038116610e4a5760405162461bcd60e51b815260206004820152602660248201527f4f776e61626c653a206e6577206f776e657220697320746865207a65726f206160448201526564647265737360d01b60648201526084016105c7565b6106a181611352565b610e5b611079565b60085415610ed15760405162461bcd60e51b815260206004820152603b60248201527f696e697469616c697a65456d697373696f6e53746172743a20656d697373696f60448201527f6e20737461727420616c726561647920696e697469616c697a6564000000000060648201526084016105c7565b804210610f205760405162461bcd60e51b815260206004820181905260248201527f696e697469616c697a65456d697373696f6e53746172743a20696e76616c696460448201526064016105c7565b60088190556040518181527f10e116be9bb4f621259f592ccd7e00d783e796535f2a5f3bc91a79da0fc3456d906020016107fc565b6001600160a01b038316610fb75760405162461bcd60e51b8152602060048201526024808201527f45524332303a20617070726f76652066726f6d20746865207a65726f206164646044820152637265737360e01b60648201526084016105c7565b6001600160a01b0382166110185760405162461bcd60e51b815260206004820152602260248201527f45524332303a20617070726f766520746f20746865207a65726f206164647265604482015261737360f01b60648201526084016105c7565b6001600160a01b0383811660008181526002602090815260408083209487168084529482529182902085905590518481527f8c5be1e5ebec7d5bd14f71427d1e84f3dd0314c0f7b2291e5b200ac8c7c3b925910160405180910390a3505050565b6000546001600160a01b031633146108195760405162461bcd60e51b815260206004820181905260248201527f4f776e61626c653a2063616c6c6572206973206e6f7420746865206f776e657260448201526064016105c7565b60006110df8484610b66565b90506000198114611147578181101561113a5760405162461bcd60e51b815260206004820152601d60248201527f45524332303a20696e73756666696369656e7420616c6c6f77616e636500000060448201526064016105c7565b6111478484848403610f55565b50505050565b6001600160a01b0383166111b15760405162461bcd60e51b815260206004820152602560248201527f45524332303a207472616e736665722066726f6d20746865207a65726f206164604482015264647265737360d81b60648201526084016105c7565b6001600160a01b0382166112135760405162461bcd60e51b815260206004820152602360248201527f45524332303a207472616e7366657220746f20746865207a65726f206164647260448201526265737360e81b60648201526084016105c7565b6001600160a01b0383166000908152600160205260409020548181101561128b5760405162461bcd60e51b815260206004820152602660248201527f45524332303a207472616e7366657220616d6f756e7420657863656564732062604482015265616c616e636560d01b60648201526084016105c7565b6001600160a01b038085166000908152600160205260408082208585039055918516815290812080548492906112c290849061163b565b92505081905550826001600160a01b0316846001600160a01b03167fddf252ad1be2c89b69c2b068fc378daa952ba7f163c4a11628f55a4df523b3ef8460405161130e91815260200190565b60405180910390a3611147565b6000611327828461163b565b9392505050565b6000611327828461164e565b6000611327828461166d565b6000611327828461168f565b600080546001600160a01b038381166001600160a01b0319831681178455604051919092169283917f8be0079c531659141344cd1fd0a4f28419497f9722a3daafe3b4186f6b6457e09190a35050565b60008183106113b15781611327565b5090919050565b6001600160a01b03821661140e5760405162461bcd60e51b815260206004820152601f60248201527f45524332303a206d696e7420746f20746865207a65726f20616464726573730060448201526064016105c7565b8060036000828254611420919061163b565b90915550506001600160a01b0382166000908152600160205260408120805483929061144d90849061163b565b90915550506040518181526001600160a01b038316906000907fddf252ad1be2c89b69c2b068fc378daa952ba7f163c4a11628f55a4df523b3ef9060200160405180910390a35050565b600060208083528351808285015260005b818110156114c4578581018301518582016040015282016114a8565b506000604082860101526040601f19601f8301168501019250505092915050565b80356001600160a01b03811681146108fb57600080fd5b6000806040838503121561150f57600080fd5b611518836114e5565b946020939093013593505050565b60006020828403121561153857600080fd5b5035919050565b60008060006060848603121561155457600080fd5b61155d846114e5565b925061156b602085016114e5565b9150604084013590509250925092565b60006020828403121561158d57600080fd5b611327826114e5565b600080604083850312156115a957600080fd5b50508035926020909101359150565b600080604083850312156115cb57600080fd5b6115d4836114e5565b91506115e2602084016114e5565b90509250929050565b600181811c908216806115ff57607f821691505b60208210810361161f57634e487b7160e01b600052602260045260246000fd5b50919050565b634e487b7160e01b600052601160045260246000fd5b8082018082111561055557610555611625565b600081600019048311821515161561166857611668611625565b500290565b60008261168a57634e487b7160e01b600052601260045260246000fd5b500490565b818103818111156105555761055561162556fea2646970667358221220a3e60105488b9083320aa8fafd7afaec9b49179ea4af67aa4d221162497cc3ed64736f6c63430008100033",
  "linkReferences": {},
  "deployedLinkReferences": {}
}