{
  "_format": "hh-sol-artifact-1",
  "contractName": "ArtTokenV2",
  "sourceName": "contracts/ArtTokenV2.sol",
  "abi": [
    {
      "inputs": [
        {
          "internalType": "uint256",
          "name": "maxSupply_",
          "type": "uint256"
        },
        {
          "internalType": "uint256",
          "name": "initialSupply",
          "type": "uint256"
        },
        {
          "internalType": "uint256",
          "name": "initialEmissionRate",
          "type": "uint256"
        },
        {
          "internalType": "address",
          "name": "treasuryAddress_",
          "type": "address"
        }
      ],
      "stateMutability": "nonpayable",
      "type": "constructor"
    },
    {
      "anonymous": false,
      "inputs": [
        {
          "indexed": false,
          "internalType": "uint256",
          "name": "masterShare",
          "type": "uint256"
        },
        {
          "indexed": false,
          "internalType": "uint256",
          "name": "treasuryShare",
          "type": "uint256"
        }
      ],
      "name": "AllocationsDistributed",
      "type": "event"
    },
    {
      "anonymous": false,
      "inputs": [
        {
          "indexed": true,
          "internalType": "address",
          "name": "owner",
          "type": "address"
        },
        {
          "indexed": true,
          "internalType": "address",
          "name": "spender",
          "type": "address"
        },
        {
          "indexed": false,
          "internalType": "uint256",
          "name": "value",
          "type": "uint256"
        }
      ],
      "name": "Approval",
      "type": "event"
    },
    {
      "anonymous": false,
      "inputs": [
        {
          "indexed": false,
          "internalType": "uint256",
          "name": "amount",
          "type": "uint256"
        }
      ],
      "name": "ClaimMasterRewards",
      "type": "event"
    },
    {
      "anonymous": false,
      "inputs": [
        {
          "indexed": false,
          "internalType": "uint256",
          "name": "startTime",
          "type": "uint256"
        }
      ],
      "name": "InitializeEmissionStart",
      "type": "event"
    },
    {
      "anonymous": false,
      "inputs": [
        {
          "indexed": false,
          "internalType": "address",
          "name": "masterAddress",
          "type": "address"
        }
      ],
      "name": "InitializeMasterAddress",
      "type": "event"
    },
    {
      "anonymous": false,
      "inputs": [
        {
          "indexed": true,
          "internalType": "address",
          "name": "previousOwner",
          "type": "address"
        },
        {
          "indexed": true,
          "internalType": "address",
          "name": "newOwner",
          "type": "address"
        }
      ],
      "name": "OwnershipTransferred",
      "type": "event"
    },
    {
      "anonymous": false,
      "inputs": [
        {
          "indexed": true,
          "internalType": "address",
          "name": "from",
          "type": "address"
        },
        {
          "indexed": true,
          "internalType": "address",
          "name": "to",
          "type": "address"
        },
        {
          "indexed": false,
          "internalType": "uint256",
          "name": "value",
          "type": "uint256"
        }
      ],
      "name": "Transfer",
      "type": "event"
    },
    {
      "anonymous": false,
      "inputs": [
        {
          "indexed": false,
          "internalType": "uint256",
          "name": "farmingAllocation",
          "type": "uint256"
        },
        {
          "indexed": false,
          "internalType": "uint256",
          "name": "legacyAllocation",
          "type": "uint256"
        },
        {
          "indexed": false,
          "internalType": "uint256",
          "name": "treasuryAllocation",
          "type": "uint256"
        }
      ],
      "name": "UpdateAllocations",
      "type": "event"
    },
    {
      "anonymous": false,
      "inputs": [
        {
          "indexed": false,
          "internalType": "uint256",
          "name": "previousEmissionRate",
          "type": "uint256"
        },
        {
          "indexed": false,
          "internalType": "uint256",
          "name": "newEmissionRate",
          "type": "uint256"
        }
      ],
      "name": "UpdateEmissionRate",
      "type": "event"
    },
    {
      "anonymous": false,
      "inputs": [
        {
          "indexed": false,
          "internalType": "uint256",
          "name": "previousMaxSupply",
          "type": "uint256"
        },
        {
          "indexed": false,
          "internalType": "uint256",
          "name": "newMaxSupply",
          "type": "uint256"
        }
      ],
      "name": "UpdateMaxSupply",
      "type": "event"
    },
    {
      "anonymous": false,
      "inputs": [
        {
          "indexed": false,
          "internalType": "address",
          "name": "previousTreasuryAddress",
          "type": "address"
        },
        {
          "indexed": false,
          "internalType": "address",
          "name": "newTreasuryAddress",
          "type": "address"
        }
      ],
      "name": "UpdateTreasuryAddress",
      "type": "event"
    },
    {
      "inputs": [],
      "name": "ALLOCATION_PRECISION",
      "outputs": [
        {
          "internalType": "uint256",
          "name": "",
          "type": "uint256"
        }
      ],
      "stateMutability": "view",
      "type": "function"
    },
    {
      "inputs": [],
      "name": "BURN_ADDRESS",
      "outputs": [
        {
          "internalType": "address",
          "name": "",
          "type": "address"
        }
      ],
      "stateMutability": "view",
      "type": "function"
    },
    {
      "inputs": [],
      "name": "MAX_EMISSION_RATE",
      "outputs": [
        {
          "internalType": "uint256",
          "name": "",
          "type": "uint256"
        }
      ],
      "stateMutability": "view",
      "type": "function"
    },
    {
      "inputs": [],
      "name": "MAX_SUPPLY_LIMIT",
      "outputs": [
        {
          "internalType": "uint256",
          "name": "",
          "type": "uint256"
        }
      ],
      "stateMutability": "view",
      "type": "function"
    },
    {
      "inputs": [
        {
          "internalType": "address",
          "name": "owner",
          "type": "address"
        },
        {
          "internalType": "address",
          "name": "spender",
          "type": "address"
        }
      ],
      "name": "allowance",
      "outputs": [
        {
          "internalType": "uint256",
          "name": "",
          "type": "uint256"
        }
      ],
      "stateMutability": "view",
      "type": "function"
    },
    {
      "inputs": [
        {
          "internalType": "address",
          "name": "spender",
          "type": "address"
        },
        {
          "internalType": "uint256",
          "name": "amount",
          "type": "uint256"
        }
      ],
      "name": "approve",
      "outputs": [
        {
          "internalType": "bool",
          "name": "",
          "type": "bool"
        }
      ],
      "stateMutability": "nonpayable",
      "type": "function"
    },
    {
      "inputs": [
        {
          "internalType": "address",
          "name": "account",
          "type": "address"
        }
      ],
      "name": "balanceOf",
      "outputs": [
        {
          "internalType": "uint256",
          "name": "",
          "type": "uint256"
        }
      ],
      "stateMutability": "view",
      "type": "function"
    },
    {
      "inputs": [
        {
          "internalType": "uint256",
          "name": "amount",
          "type": "uint256"
        }
      ],
      "name": "burn",
      "outputs": [],
      "stateMutability": "nonpayable",
      "type": "function"
    },
    {
      "inputs": [
        {
          "internalType": "uint256",
          "name": "amount",
          "type": "uint256"
        }
      ],
      "name": "claimMasterRewards",
      "outputs": [
        {
          "internalType": "uint256",
          "name": "effectiveAmount",
          "type": "uint256"
        }
      ],
      "stateMutability": "nonpayable",
      "type": "function"
    },
    {
      "inputs": [],
      "name": "decimals",
      "outputs": [
        {
          "internalType": "uint8",
          "name": "",
          "type": "uint8"
        }
      ],
      "stateMutability": "view",
      "type": "function"
    },
    {
      "inputs": [
        {
          "internalType": "address",
          "name": "spender",
          "type": "address"
        },
        {
          "internalType": "uint256",
          "name": "subtractedValue",
          "type": "uint256"
        }
      ],
      "name": "decreaseAllowance",
      "outputs": [
        {
          "internalType": "bool",
          "name": "",
          "type": "bool"
        }
      ],
      "stateMutability": "nonpayable",
      "type": "function"
    },
    {
      "inputs": [],
      "name": "elasticMaxSupply",
      "outputs": [
        {
          "internalType": "uint256",
          "name": "",
          "type": "uint256"
        }
      ],
      "stateMutability": "view",
      "type": "function"
    },
    {
      "inputs": [],
      "name": "emissionRate",
      "outputs": [
        {
          "internalType": "uint256",
          "name": "",
          "type": "uint256"
        }
      ],
      "stateMutability": "view",
      "type": "function"
    },
    {
      "inputs": [],
      "name": "emitAllocations",
      "outputs": [],
      "stateMutability": "nonpayable",
      "type": "function"
    },
    {
      "inputs": [],
      "name": "farmingAllocation",
      "outputs": [
        {
          "internalType": "uint256",
          "name": "",
          "type": "uint256"
        }
      ],
      "stateMutability": "view",
      "type": "function"
    },
    {
      "inputs": [
        {
          "internalType": "address",
          "name": "spender",
          "type": "address"
        },
        {
          "internalType": "uint256",
          "name": "addedValue",
          "type": "uint256"
        }
      ],
      "name": "increaseAllowance",
      "outputs": [
        {
          "internalType": "bool",
          "name": "",
          "type": "bool"
        }
      ],
      "stateMutability": "nonpayable",
      "type": "function"
    },
    {
      "inputs": [
        {
          "internalType": "uint256",
          "name": "startTime",
          "type": "uint256"
        }
      ],
      "name": "initializeEmissionStart",
      "outputs": [],
      "stateMutability": "nonpayable",
      "type": "function"
    },
    {
      "inputs": [
        {
          "internalType": "address",
          "name": "masterAddress_",
          "type": "address"
        }
      ],
      "name": "initializeMasterAddress",
      "outputs": [],
      "stateMutability": "nonpayable",
      "type": "function"
    },
    {
      "inputs": [],
      "name": "lastEmissionTime",
      "outputs": [
        {
          "internalType": "uint256",
          "name": "",
          "type": "uint256"
        }
      ],
      "stateMutability": "view",
      "type": "function"
    },
    {
      "inputs": [],
      "name": "legacyAllocation",
      "outputs": [
        {
          "internalType": "uint256",
          "name": "",
          "type": "uint256"
        }
      ],
      "stateMutability": "view",
      "type": "function"
    },
    {
      "inputs": [],
      "name": "masterAddress",
      "outputs": [
        {
          "internalType": "address",
          "name": "",
          "type": "address"
        }
      ],
      "stateMutability": "view",
      "type": "function"
    },
    {
      "inputs": [],
      "name": "masterAllocation",
      "outputs": [
        {
          "internalType": "uint256",
          "name": "",
          "type": "uint256"
        }
      ],
      "stateMutability": "view",
      "type": "function"
    },
    {
      "inputs": [],
      "name": "masterEmissionRate",
      "outputs": [
        {
          "internalType": "uint256",
          "name": "",
          "type": "uint256"
        }
      ],
      "stateMutability": "view",
      "type": "function"
    },
    {
      "inputs": [],
      "name": "masterReserve",
      "outputs": [
        {
          "internalType": "uint256",
          "name": "",
          "type": "uint256"
        }
      ],
      "stateMutability": "view",
      "type": "function"
    },
    {
      "inputs": [],
      "name": "name",
      "outputs": [
        {
          "internalType": "string",
          "name": "",
          "type": "string"
        }
      ],
      "stateMutability": "view",
      "type": "function"
    },
    {
      "inputs": [],
      "name": "owner",
      "outputs": [
        {
          "internalType": "address",
          "name": "",
          "type": "address"
        }
      ],
      "stateMutability": "view",
      "type": "function"
    },
    {
      "inputs": [],
      "name": "renounceOwnership",
      "outputs": [],
      "stateMutability": "nonpayable",
      "type": "function"
    },
    {
      "inputs": [],
      "name": "symbol",
      "outputs": [
        {
          "internalType": "string",
          "name": "",
          "type": "string"
        }
      ],
      "stateMutability": "view",
      "type": "function"
    },
    {
      "inputs": [],
      "name": "totalSupply",
      "outputs": [
        {
          "internalType": "uint256",
          "name": "",
          "type": "uint256"
        }
      ],
      "stateMutability": "view",
      "type": "function"
    },
    {
      "inputs": [
        {
          "internalType": "address",
          "name": "to",
          "type": "address"
        },
        {
          "internalType": "uint256",
          "name": "amount",
          "type": "uint256"
        }
      ],
      "name": "transfer",
      "outputs": [
        {
          "internalType": "bool",
          "name": "",
          "type": "bool"
        }
      ],
      "stateMutability": "nonpayable",
      "type": "function"
    },
    {
      "inputs": [
        {
          "internalType": "address",
          "name": "from",
          "type": "address"
        },
        {
          "internalType": "address",
          "name": "to",
          "type": "address"
        },
        {
          "internalType": "uint256",
          "name": "amount",
          "type": "uint256"
        }
      ],
      "name": "transferFrom",
      "outputs": [
        {
          "internalType": "bool",
          "name": "",
          "type": "bool"
        }
      ],
      "stateMutability": "nonpayable",
      "type": "function"
    },
    {
      "inputs": [
        {
          "internalType": "address",
          "name": "newOwner",
          "type": "address"
        }
      ],
      "name": "transferOwnership",
      "outputs": [],
      "stateMutability": "nonpayable",
      "type": "function"
    },
    {
      "inputs": [],
      "name": "treasuryAddress",
      "outputs": [
        {
          "internalType": "address",
          "name": "",
          "type": "address"
        }
      ],
      "stateMutability": "view",
      "type": "function"
    },
    {
      "inputs": [],
      "name": "treasuryAllocation",
      "outputs": [
        {
          "internalType": "uint256",
          "name": "",
          "type": "uint256"
        }
      ],
      "stateMutability": "view",
      "type": "function"
    },
    {
      "inputs": [
        {
          "internalType": "uint256",
          "name": "farmingAllocation_",
          "type": "uint256"
        },
        {
          "internalType": "uint256",
          "name": "legacyAllocation_",
          "type": "uint256"
        }
      ],
      "name": "updateAllocations",
      "outputs": [],
      "stateMutability": "nonpayable",
      "type": "function"
    },
    {
      "inputs": [
        {
          "internalType": "uint256",
          "name": "emissionRate_",
          "type": "uint256"
        }
      ],
      "name": "updateEmissionRate",
      "outputs": [],
      "stateMutability": "nonpayable",
      "type": "function"
    },
    {
      "inputs": [
        {
          "internalType": "uint256",
          "name": "maxSupply_",
          "type": "uint256"
        }
      ],
      "name": "updateMaxSupply",
      "outputs": [],
      "stateMutability": "nonpayable",
      "type": "function"
    },
    {
      "inputs": [
        {
          "internalType": "address",
          "name": "treasuryAddress_",
          "type": "address"
        }
      ],
      "name": "updateTreasuryAddress",
      "outputs": [],
      "stateMutability": "nonpayable",
      "type": "function"
    }
  ],
  "bytecode": "0x6080346200060d57601f62001e2738819003918201601f191683019291906001600160401b03841183851017620004df5781608092849260409687528339810103126200060d57805160208201518383015160609093015190926001600160a01b039283831683036200060d576200007662000612565b600c81526b20b93a343ab9103a37b5b2b760a11b60208201526200009962000612565b90600382526210549560ea1b60208301526000543360018060a01b0319821617600055863391167f8be0079c531659141344cd1fd0a4f28419497f9722a3daafe3b4186f6b6457e060008b51a38051906001600160401b038211620004df5760045490600182811c9216801562000602575b6020831014620004be5781601f84931162000590575b50602090601f83116001146200050157600092620004f5575b50508160011b916000199060031b1c1916176004555b8051906001600160401b038211620004df5760055490600182811c92168015620004d4575b6020831014620004be5781601f84931162000465575b50602090601f8311600114620003da57600092620003ce575b50508160011b916000199060031b1c1916176005555b6032600a5567016345785d8a000082116200038a576a084595161401484a0000008111620003465780851015620003025783831615620002be576006556007551660018060a01b0319600d541617600d5533156200027a57620002208160035462000632565b600355336000526001602052816000206200023d82825462000632565b9055815190815260007fddf252ad1be2c89b69c2b068fc378daa952ba7f163c4a11628f55a4df523b3ef60203393a3516117d09081620006578239f35b815162461bcd60e51b815260206004820152601f60248201527f45524332303a206d696e7420746f20746865207a65726f2061646472657373006044820152606490fd5b855162461bcd60e51b815260206004820152601860248201527f696e76616c6964207472656173757279206164647265737300000000000000006044820152606490fd5b855162461bcd60e51b815260206004820152601660248201527f696e76616c696420696e697469616c20737570706c79000000000000000000006044820152606490fd5b855162461bcd60e51b815260206004820152601960248201527f696e76616c696420696e697469616c206d6178537570706c79000000000000006044820152606490fd5b855162461bcd60e51b815260206004820152601560248201527f696e76616c696420656d697373696f6e207261746500000000000000000000006044820152606490fd5b015190503880620001a4565b600560009081527f036b6384b5eca791c62761152d0c79bb0604c104a5fb6f4eb0703f3154bb3db09350601f198516905b8181106200044c575090846001959493921062000432575b505050811b01600555620001ba565b015160001960f88460031b161c1916905538808062000423565b929360206001819287860151815501950193016200040b565b90915060056000526020600020601f840160051c81019160208510620004b3575b90601f859493920160051c01905b818110620004a357506200018b565b6000815584935060010162000494565b909150819062000486565b634e487b7160e01b600052602260045260246000fd5b91607f169162000175565b634e487b7160e01b600052604160045260246000fd5b0151905038806200013a565b6004600090815293507f8a35acfbc15ff81a39ae7d344fd709f28e8600b4aa8c65c6b64bfe7fe36bd19b91905b601f198416851062000574576001945083601f198116106200055a575b505050811b0160045562000150565b015160001960f88460031b161c191690553880806200054b565b818101518355602094850194600190930192909101906200052e565b60046000529091507f8a35acfbc15ff81a39ae7d344fd709f28e8600b4aa8c65c6b64bfe7fe36bd19b601f840160051c810160208510620005fa575b90849392915b601f830160051c82018110620005ea57505062000121565b60008155859450600101620005d2565b5080620005cc565b91607f16916200010b565b600080fd5b60408051919082016001600160401b03811183821017620004df57604052565b919082018092116200064057565b634e487b7160e01b600052601160045260246000fdfe608060408181526004918236101561001657600080fd5b600092833560e01c9182624fbf6b146111b9575081630495d11c1461119a57816306fdde03146110c2578163095ea7b3146110985781630ba84cd214610fd757816318160ddd14610fb857816323b872dd14610eec57816327dede2d14610ecd578163313ce56714610eb15781633950935114610e6157816339eb418914610e0a57816342966c6814610ce0578163436cc3d614610cbd578163439af45e14610c9e5781634f3147ba14610c77578163617d112614610c5157816367c0f27814610b0c57816370a0823114610ad4578163715018a614610a7757816378135705146109f6578163841e4561146109295781638da5cb5b146109015781638f88bba3146108e257816395d89b41146107c157816396afc450146107a2578163a457c2d7146106fa578163a9059cbb146106c9578163b71144a4146105e1578163c5f956af146105b8578163c68bb4c51461058d578163d365a08e14610564578163dd62ed3e1461051b578163e4ef9dce146104fe578163ed424fd0146104df578163f103b433146103b7578163f2fde38b146102f4578163fc1852fb146101e5575063fccc2813146101c657600080fd5b346101e157816003193601126101e1576020905161dead8152f35b5080fd5b9050346102f05760203660031901126102f05780359061020361124e565b600854610287578142101561024457506020817f10e116be9bb4f621259f592ccd7e00d783e796535f2a5f3bc91a79da0fc3456d926008558351908152a151f35b606490602084519162461bcd60e51b8352820152602060248201527f696e697469616c697a65456d697373696f6e53746172743a20696e76616c69646044820152fd5b608490602084519162461bcd60e51b8352820152603b60248201527f696e697469616c697a65456d697373696f6e53746172743a20656d697373696f60448201527f6e20737461727420616c726561647920696e697469616c697a656400000000006064820152fd5b8280fd5b9050346102f05760203660031901126102f05761030f61121d565b61031761124e565b6001600160a01b03908116918215610365575083546001600160a01b0319811683178555925192167f8be0079c531659141344cd1fd0a4f28419497f9722a3daafe3b4186f6b6457e08484a3f35b608490602085519162461bcd60e51b8352820152602660248201527f4f776e61626c653a206e6577206f776e657220697320746865207a65726f206160448201526564647265737360d01b6064820152fd5b9050346102f05760203660031901126102f0578035906103d561124e565b6003548210610476576a084595161401484a000000821161042857507f6a84334bf6663b783f2bbfcaf459b2cbc73570cf346a46d9e6a0f290fcf3ebfc826006548151908152836020820152a160065551f35b608490602084519162461bcd60e51b8352820152602260248201527f7570646174654d6178537570706c793a20696e76616c6964206d6178537570706044820152616c7960f01b6064820152fd5b608490602084519162461bcd60e51b8352820152603f60248201527f7570646174654d6178537570706c793a2063616e2774206265206c6f7765722060448201527f7468616e2063757272656e742063697263756c6174696e6720737570706c79006064820152fd5b5050346101e157816003193601126101e1576020906006549051908152f35b5050346101e157816003193601126101e15761051861155d565b51f35b5050346101e157806003193601126101e1578060209261053961121d565b610541611238565b6001600160a01b0391821683526002865283832091168252845220549051908152f35b5050346101e157816003193601126101e157600c5490516001600160a01b039091168152602090f35b5050346101e157816003193601126101e1576020906105b1600a54600b54906112a6565b9051908152f35b5050346101e157816003193601126101e157600d5490516001600160a01b039091168152602090f35b9050346102f057816003193601126102f0578035906024359061060261124e565b61060a61155d565b606461061683856112a6565b1161066e5750816060917fa4a1bde80c0d4ba37d1bd0feec135fb515a9def4e8baee90221348069946b86c93600a5580600b5561065b61065682846112a6565b611542565b908551928352602083015284820152a151f35b608490602085519162461bcd60e51b8352820152602f60248201527f757064617465416c6c6f636174696f6e733a20746f74616c20616c6c6f63617460448201526e0d2dedc40d2e640e8dede40d0d2ced608b1b6064820152fd5b5050346101e157806003193601126101e1576020906106f36106e961121d565b60243590336112c9565b5160018152f35b9050823461079f578260031936011261079f5761071561121d565b918360243592338152600260205281812060018060a01b038616825260205220549082821061074e576020856106f38585038733611440565b608490602086519162461bcd60e51b8352820152602560248201527f45524332303a2064656372656173656420616c6c6f77616e63652062656c6f77604482015264207a65726f60d81b6064820152fd5b80fd5b5050346101e157816003193601126101e1576020906007549051908152f35b8383346101e157816003193601126101e15780519082600554600181811c908083169283156108d8575b60209384841081146108c5578388529081156108a95750600114610853575b505050829003601f01601f191682019267ffffffffffffffff841183851017610840575082918261083c9252826111d4565b0390f35b634e487b7160e01b815260418552602490fd5b600587529192508591837f036b6384b5eca791c62761152d0c79bb0604c104a5fb6f4eb0703f3154bb3db05b838510610895575050505083010185808061080a565b80548886018301529301928490820161087f565b60ff1916878501525050151560051b840101905085808061080a565b634e487b7160e01b895260228a52602489fd5b91607f16916107eb565b5050346101e157816003193601126101e157602090600a549051908152f35b5050346101e157816003193601126101e157905490516001600160a01b039091168152602090f35b9050346102f05760203660031901126102f05761094461121d565b61094c61124e565b6001600160a01b039081169182156109a457507f5634a90413b79beba6c5f37aa8f19d1aee84a5320ff20ac7bd1ac63280867d5c83600d549281519084168152846020820152a16001600160a01b03191617600d5551f35b608490602085519162461bcd60e51b8352820152602660248201527f7570646174655472656173757279416464726573733a20696e76616c6964206160448201526564647265737360d01b6064820152fd5b9050823461079f57602036600319011261079f5750600c546001600160a01b03163303610a2a57906105b16020923561171e565b6020608492519162461bcd60e51b8352820152602260248201527f417274546f6b656e3a2063616c6c6572206973206e6f7420746865206d61737460448201526132b960f11b6064820152fd5b5050346101e157816003193601126101e157610a9161124e565b81546001600160a01b03198116835590519082906001600160a01b03167f8be0079c531659141344cd1fd0a4f28419497f9722a3daafe3b4186f6b6457e08284a3f35b5050346101e15760203660031901126101e15760209181906001600160a01b03610afc61121d565b1681526001845220549051908152f35b9050346102f05760203660031901126102f057610b2761121d565b610b2f61124e565b600c54906001600160a01b0390818316610bf25716918215610b8957506001600160a01b0319168117600c5581519081527fcba13eb1e65d2c1588ce6d10f862f4535cc67855c3f31e3d2732f8fb6b5317b290602090a151f35b608490602085519162461bcd60e51b8352820152603b60248201527f696e697469616c697a654d6173746572416464726573733a206d61737465722060448201527f696e697469616c697a656420746f207a65726f206164647265737300000000006064820152fd5b845162461bcd60e51b8152602081860152603360248201527f696e697469616c697a654d6173746572416464726573733a206d617374657220604482015272185b1c9958591e481a5b9a5d1a585b1a5e9959606a1b6064820152608490fd5b5050346101e157816003193601126101e157602090516a084595161401484a0000008152f35b5050346101e157816003193601126101e1576020906105b1610656600a54600b54906112a6565b5050346101e157816003193601126101e1576020906008549051908152f35b5050346101e157816003193601126101e1576020905167016345785d8a00008152f35b9050346102f05760209081600319360112610e06578035903315610db557338552600183528385205490828210610d63575081903386526001845203838520557fddf252ad1be2c89b69c2b068fc378daa952ba7f163c4a11628f55a4df523b3ef61dead92838652848620610d568482546112a6565b905584519283523392a351f35b845162461bcd60e51b8152908101849052602660248201527f45524332303a207472616e7366657220616d6f756e7420657863656564732062604482015265616c616e636560d01b6064820152608490fd5b835162461bcd60e51b8152908101839052602560248201527f45524332303a207472616e736665722066726f6d20746865207a65726f206164604482015264647265737360d81b6064820152608490fd5b8380fd5b82843461079f578060031936011261079f5760075491610e2f600a54600b54906112a6565b918360001904831184151516610e4e5760208460648585519202048152f35b634e487b7160e01b815260118552602490fd5b5050346101e157806003193601126101e1576106f3602092610eaa610e8461121d565b338352600286528483206001600160a01b038216845286529184902054602435906112a6565b9033611440565b5050346101e157816003193601126101e1576020905160128152f35b5050346101e157816003193601126101e1576020906009549051908152f35b839150346101e15760603660031901126101e157610f0861121d565b610f10611238565b6001600160a01b03821684526002602090815285852033865290529284902054604435939260018201610f4c575b6020866106f38787876112c9565b848210610f755750918391610f6a602096956106f395033383611440565b919394819350610f3e565b606490602087519162461bcd60e51b8352820152601d60248201527f45524332303a20696e73756666696369656e7420616c6c6f77616e63650000006044820152fd5b5050346101e157816003193601126101e1576020906003549051908152f35b9050346102f05760203660031901126102f057803590610ff561124e565b67016345785d8a00008211611044575061100d61155d565b7f16b9091836a63537907593ebc3a80f3528891f3575b10f58ad7dd9c29fd0d44f826007548151908152836020820152a160075551f35b608490602084519162461bcd60e51b8352820152602860248201527f757064617465456d697373696f6e526174653a2063616e277420657863656564604482015267206d6178696d756d60c01b6064820152fd5b5050346101e157806003193601126101e1576020906106f36110b861121d565b6024359033611440565b8383346101e157816003193601126101e157805190828454600181811c90808316928315611190575b60209384841081146108c5578388529081156108a9575060011461113b57505050829003601f01601f191682019267ffffffffffffffff841183851017610840575082918261083c9252826111d4565b8787529192508591837f8a35acfbc15ff81a39ae7d344fd709f28e8600b4aa8c65c6b64bfe7fe36bd19b5b83851061117c575050505083010185808061080a565b805488860183015293019284908201611166565b91607f16916110eb565b5050346101e157816003193601126101e157602090600b549051908152f35b8490346101e157816003193601126101e15780606460209252f35b6020808252825181830181905290939260005b82811061120957505060409293506000838284010152601f8019910116010190565b8181018601518482016040015285016111e7565b600435906001600160a01b038216820361123357565b600080fd5b602435906001600160a01b038216820361123357565b6000546001600160a01b0316330361126257565b606460405162461bcd60e51b815260206004820152602060248201527f4f776e61626c653a2063616c6c6572206973206e6f7420746865206f776e65726044820152fd5b919082018092116112b357565b634e487b7160e01b600052601160045260246000fd5b6001600160a01b039081169182156113ed571691821561139c576000828152600160205260408120549180831061134857604082827fddf252ad1be2c89b69c2b068fc378daa952ba7f163c4a11628f55a4df523b3ef9587602096526001865203828220558681522061133d8282546112a6565b9055604051908152a3565b60405162461bcd60e51b815260206004820152602660248201527f45524332303a207472616e7366657220616d6f756e7420657863656564732062604482015265616c616e636560d01b6064820152608490fd5b60405162461bcd60e51b815260206004820152602360248201527f45524332303a207472616e7366657220746f20746865207a65726f206164647260448201526265737360e81b6064820152608490fd5b60405162461bcd60e51b815260206004820152602560248201527f45524332303a207472616e736665722066726f6d20746865207a65726f206164604482015264647265737360d81b6064820152608490fd5b6001600160a01b039081169182156114f157169182156114a15760207f8c5be1e5ebec7d5bd14f71427d1e84f3dd0314c0f7b2291e5b200ac8c7c3b925918360005260028252604060002085600052825280604060002055604051908152a3565b60405162461bcd60e51b815260206004820152602260248201527f45524332303a20617070726f766520746f20746865207a65726f206164647265604482015261737360f01b6064820152608490fd5b60405162461bcd60e51b8152602060048201526024808201527f45524332303a20617070726f76652066726f6d20746865207a65726f206164646044820152637265737360e01b6064820152608490fd5b60640390606482116112b357565b919082039182116112b357565b6003546008549060065491804211801590611676575b61167157818311801590611667575b61165e576115909042611550565b60075460001992918015158185048311166112b35702926115b184836112a6565b811061164b575b5050816115ca600a54600b54906112a6565b91048111821515166112b3578161160a60646040937f26c155e7637ca49a34c19c7f8cb8533322897de0808134df1a98f715571116849502048092611550565b4260085561161a826009546112a6565b600955611627823061167e565b600d5461163e9082906001600160a01b031661167e565b82519182526020820152a1565b611656929350611550565b9038806115b8565b50505042600855565b5060075415611582565b505050565b508015611573565b6001600160a01b03169081156116d9577fddf252ad1be2c89b69c2b068fc378daa952ba7f163c4a11628f55a4df523b3ef6020826116c06000946003546112a6565b600355848452600182526040842061133d8282546112a6565b60405162461bcd60e51b815260206004820152601f60248201527f45524332303a206d696e7420746f20746865207a65726f2061646472657373006044820152606490fd5b9061172761155d565b60095491808310156117945750815b82801561178f57508261174891611550565b600955600c546117639083906001600160a01b0316306112c9565b7f45102e9ef2c4f14fd9f3e8510c4bb2ad67fe498584602f26647da23039f125316020604051848152a1565b925050565b9161173656fea26469706673582212208b5aeda93120c52db49ce962afd9f6d84ac2fd338bf9589b43269946efc1bf5264736f6c63430008100033",
  "linkReferences": {},
  "deployedLinkReferences": {}
}