{
  "_format": "hh-sol-artifact-1",
  "contractName": "DividendsV2",
  "sourceName": "contracts/DividendsV2.sol",
  "abi": [
    {
      "inputs": [
        {
          "internalType": "address",
          "name": "xArtToken_",
          "type": "address"
        },
        {
          "internalType": "uint256",
          "name": "startTime_",
          "type": "uint256"
        }
      ],
      "stateMutability": "nonpayable",
      "type": "constructor"
    },
    {
      "anonymous": false,
      "inputs": [
        {
          "indexed": true,
          "internalType": "address",
          "name": "token",
          "type": "address"
        },
        {
          "indexed": false,
          "internalType": "uint256",
          "name": "previousValue",
          "type": "uint256"
        },
        {
          "indexed": false,
          "internalType": "uint256",
          "name": "newValue",
          "type": "uint256"
        }
      ],
      "name": "CycleDividendsPercentUpdated",
      "type": "event"
    },
    {
      "anonymous": false,
      "inputs": [
        {
          "indexed": true,
          "internalType": "address",
          "name": "token",
          "type": "address"
        }
      ],
      "name": "DistributedTokenDisabled",
      "type": "event"
    },
    {
      "anonymous": false,
      "inputs": [
        {
          "indexed": true,
          "internalType": "address",
          "name": "token",
          "type": "address"
        }
      ],
      "name": "DistributedTokenEnabled",
      "type": "event"
    },
    {
      "anonymous": false,
      "inputs": [
        {
          "indexed": true,
          "internalType": "address",
          "name": "token",
          "type": "address"
        }
      ],
      "name": "DistributedTokenRemoved",
      "type": "event"
    },
    {
      "anonymous": false,
      "inputs": [
        {
          "indexed": true,
          "internalType": "address",
          "name": "token",
          "type": "address"
        },
        {
          "indexed": false,
          "internalType": "uint256",
          "name": "amount",
          "type": "uint256"
        }
      ],
      "name": "DividendsAddedToPending",
      "type": "event"
    },
    {
      "anonymous": false,
      "inputs": [
        {
          "indexed": true,
          "internalType": "address",
          "name": "user",
          "type": "address"
        },
        {
          "indexed": true,
          "internalType": "address",
          "name": "token",
          "type": "address"
        },
        {
          "indexed": false,
          "internalType": "uint256",
          "name": "amount",
          "type": "uint256"
        }
      ],
      "name": "DividendsCollected",
      "type": "event"
    },
    {
      "anonymous": false,
      "inputs": [
        {
          "indexed": true,
          "internalType": "address",
          "name": "previousOwner",
          "type": "address"
        },
        {
          "indexed": true,
          "internalType": "address",
          "name": "newOwner",
          "type": "address"
        }
      ],
      "name": "OwnershipTransferred",
      "type": "event"
    },
    {
      "anonymous": false,
      "inputs": [
        {
          "indexed": true,
          "internalType": "address",
          "name": "user",
          "type": "address"
        },
        {
          "indexed": false,
          "internalType": "uint256",
          "name": "previousBalance",
          "type": "uint256"
        },
        {
          "indexed": false,
          "internalType": "uint256",
          "name": "newBalance",
          "type": "uint256"
        }
      ],
      "name": "UserUpdated",
      "type": "event"
    },
    {
      "inputs": [],
      "name": "DEFAULT_CYCLE_DIVIDENDS_PERCENT",
      "outputs": [
        {
          "internalType": "uint256",
          "name": "",
          "type": "uint256"
        }
      ],
      "stateMutability": "view",
      "type": "function"
    },
    {
      "inputs": [],
      "name": "MAX_CYCLE_DIVIDENDS_PERCENT",
      "outputs": [
        {
          "internalType": "uint256",
          "name": "",
          "type": "uint256"
        }
      ],
      "stateMutability": "view",
      "type": "function"
    },
    {
      "inputs": [],
      "name": "MAX_DISTRIBUTED_TOKENS",
      "outputs": [
        {
          "internalType": "uint256",
          "name": "",
          "type": "uint256"
        }
      ],
      "stateMutability": "view",
      "type": "function"
    },
    {
      "inputs": [],
      "name": "MIN_CYCLE_DIVIDENDS_PERCENT",
      "outputs": [
        {
          "internalType": "uint256",
          "name": "",
          "type": "uint256"
        }
      ],
      "stateMutability": "view",
      "type": "function"
    },
    {
      "inputs": [
        {
          "internalType": "address",
          "name": "token",
          "type": "address"
        },
        {
          "internalType": "uint256",
          "name": "amount",
          "type": "uint256"
        }
      ],
      "name": "addDividendsToPending",
      "outputs": [],
      "stateMutability": "nonpayable",
      "type": "function"
    },
    {
      "inputs": [
        {
          "internalType": "address",
          "name": "userAddress",
          "type": "address"
        },
        {
          "internalType": "uint256",
          "name": "amount",
          "type": "uint256"
        },
        {
          "internalType": "bytes",
          "name": "",
          "type": "bytes"
        }
      ],
      "name": "allocate",
      "outputs": [],
      "stateMutability": "nonpayable",
      "type": "function"
    },
    {
      "inputs": [],
      "name": "currentCycleStartTime",
      "outputs": [
        {
          "internalType": "uint256",
          "name": "",
          "type": "uint256"
        }
      ],
      "stateMutability": "view",
      "type": "function"
    },
    {
      "inputs": [],
      "name": "cycleDurationSeconds",
      "outputs": [
        {
          "internalType": "uint256",
          "name": "",
          "type": "uint256"
        }
      ],
      "stateMutability": "view",
      "type": "function"
    },
    {
      "inputs": [
        {
          "internalType": "address",
          "name": "userAddress",
          "type": "address"
        },
        {
          "internalType": "uint256",
          "name": "amount",
          "type": "uint256"
        },
        {
          "internalType": "bytes",
          "name": "",
          "type": "bytes"
        }
      ],
      "name": "deallocate",
      "outputs": [],
      "stateMutability": "nonpayable",
      "type": "function"
    },
    {
      "inputs": [
        {
          "internalType": "address",
          "name": "token",
          "type": "address"
        }
      ],
      "name": "disableDistributedToken",
      "outputs": [],
      "stateMutability": "nonpayable",
      "type": "function"
    },
    {
      "inputs": [
        {
          "internalType": "uint256",
          "name": "index",
          "type": "uint256"
        }
      ],
      "name": "distributedToken",
      "outputs": [
        {
          "internalType": "address",
          "name": "",
          "type": "address"
        }
      ],
      "stateMutability": "view",
      "type": "function"
    },
    {
      "inputs": [],
      "name": "distributedTokensLength",
      "outputs": [
        {
          "internalType": "uint256",
          "name": "",
          "type": "uint256"
        }
      ],
      "stateMutability": "view",
      "type": "function"
    },
    {
      "inputs": [
        {
          "internalType": "address",
          "name": "",
          "type": "address"
        }
      ],
      "name": "dividendsInfo",
      "outputs": [
        {
          "internalType": "uint256",
          "name": "currentDistributionAmount",
          "type": "uint256"
        },
        {
          "internalType": "uint256",
          "name": "currentCycleDistributedAmount",
          "type": "uint256"
        },
        {
          "internalType": "uint256",
          "name": "pendingAmount",
          "type": "uint256"
        },
        {
          "internalType": "uint256",
          "name": "distributedAmount",
          "type": "uint256"
        },
        {
          "internalType": "uint256",
          "name": "accDividendsPerShare",
          "type": "uint256"
        },
        {
          "internalType": "uint256",
          "name": "lastUpdateTime",
          "type": "uint256"
        },
        {
          "internalType": "uint256",
          "name": "cycleDividendsPercent",
          "type": "uint256"
        },
        {
          "internalType": "bool",
          "name": "distributionDisabled",
          "type": "bool"
        }
      ],
      "stateMutability": "view",
      "type": "function"
    },
    {
      "inputs": [
        {
          "internalType": "contract IERC20",
          "name": "token",
          "type": "address"
        }
      ],
      "name": "emergencyWithdraw",
      "outputs": [],
      "stateMutability": "nonpayable",
      "type": "function"
    },
    {
      "inputs": [],
      "name": "emergencyWithdrawAll",
      "outputs": [],
      "stateMutability": "nonpayable",
      "type": "function"
    },
    {
      "inputs": [
        {
          "internalType": "address",
          "name": "token",
          "type": "address"
        }
      ],
      "name": "enableDistributedToken",
      "outputs": [],
      "stateMutability": "nonpayable",
      "type": "function"
    },
    {
      "inputs": [],
      "name": "harvestAllDividends",
      "outputs": [],
      "stateMutability": "nonpayable",
      "type": "function"
    },
    {
      "inputs": [
        {
          "internalType": "address",
          "name": "token",
          "type": "address"
        }
      ],
      "name": "harvestDividends",
      "outputs": [],
      "stateMutability": "nonpayable",
      "type": "function"
    },
    {
      "inputs": [
        {
          "internalType": "address",
          "name": "token",
          "type": "address"
        }
      ],
      "name": "isDistributedToken",
      "outputs": [
        {
          "internalType": "bool",
          "name": "",
          "type": "bool"
        }
      ],
      "stateMutability": "view",
      "type": "function"
    },
    {
      "inputs": [],
      "name": "massUpdateDividendsInfo",
      "outputs": [],
      "stateMutability": "nonpayable",
      "type": "function"
    },
    {
      "inputs": [],
      "name": "nextCycleStartTime",
      "outputs": [
        {
          "internalType": "uint256",
          "name": "",
          "type": "uint256"
        }
      ],
      "stateMutability": "view",
      "type": "function"
    },
    {
      "inputs": [],
      "name": "owner",
      "outputs": [
        {
          "internalType": "address",
          "name": "",
          "type": "address"
        }
      ],
      "stateMutability": "view",
      "type": "function"
    },
    {
      "inputs": [
        {
          "internalType": "address",
          "name": "token",
          "type": "address"
        },
        {
          "internalType": "address",
          "name": "userAddress",
          "type": "address"
        }
      ],
      "name": "pendingDividendsAmount",
      "outputs": [
        {
          "internalType": "uint256",
          "name": "",
          "type": "uint256"
        }
      ],
      "stateMutability": "view",
      "type": "function"
    },
    {
      "inputs": [
        {
          "internalType": "address",
          "name": "tokenToRemove",
          "type": "address"
        }
      ],
      "name": "removeTokenFromDistributedTokens",
      "outputs": [],
      "stateMutability": "nonpayable",
      "type": "function"
    },
    {
      "inputs": [],
      "name": "renounceOwnership",
      "outputs": [],
      "stateMutability": "nonpayable",
      "type": "function"
    },
    {
      "inputs": [],
      "name": "totalAllocation",
      "outputs": [
        {
          "internalType": "uint256",
          "name": "",
          "type": "uint256"
        }
      ],
      "stateMutability": "view",
      "type": "function"
    },
    {
      "inputs": [
        {
          "internalType": "address",
          "name": "newOwner",
          "type": "address"
        }
      ],
      "name": "transferOwnership",
      "outputs": [],
      "stateMutability": "nonpayable",
      "type": "function"
    },
    {
      "inputs": [],
      "name": "updateCurrentCycleStartTime",
      "outputs": [],
      "stateMutability": "nonpayable",
      "type": "function"
    },
    {
      "inputs": [
        {
          "internalType": "address",
          "name": "token",
          "type": "address"
        },
        {
          "internalType": "uint256",
          "name": "percent",
          "type": "uint256"
        }
      ],
      "name": "updateCycleDividendsPercent",
      "outputs": [],
      "stateMutability": "nonpayable",
      "type": "function"
    },
    {
      "inputs": [
        {
          "internalType": "address",
          "name": "token",
          "type": "address"
        }
      ],
      "name": "updateDividendsInfo",
      "outputs": [],
      "stateMutability": "nonpayable",
      "type": "function"
    },
    {
      "inputs": [
        {
          "internalType": "address",
          "name": "",
          "type": "address"
        },
        {
          "internalType": "address",
          "name": "",
          "type": "address"
        }
      ],
      "name": "users",
      "outputs": [
        {
          "internalType": "uint256",
          "name": "pendingDividends",
          "type": "uint256"
        },
        {
          "internalType": "uint256",
          "name": "rewardDebt",
          "type": "uint256"
        }
      ],
      "stateMutability": "view",
      "type": "function"
    },
    {
      "inputs": [
        {
          "internalType": "address",
          "name": "",
          "type": "address"
        }
      ],
      "name": "usersAllocation",
      "outputs": [
        {
          "internalType": "uint256",
          "name": "",
          "type": "uint256"
        }
      ],
      "stateMutability": "view",
      "type": "function"
    },
    {
      "inputs": [],
      "name": "xArtToken",
      "outputs": [
        {
          "internalType": "address",
          "name": "",
          "type": "address"
        }
      ],
      "stateMutability": "view",
      "type": "function"
    }
  ],
  "bytecode": "0x60a03461010357601f611ff238819003918201601f19168301916001600160401b038311848410176101085780849260409485528339810103126101035780516001600160a01b03808216928383036101035760200151926000543360018060a01b0319821617600055604051923391167f8be0079c531659141344cd1fd0a4f28419497f9722a3daafe3b4186f6b6457e0600085a36001805562093a80600855156100d25750608052600955604051611ed3908161011f82396080518181816101a301528181610e4501526111f50152f35b62461bcd60e51b815260206004820152600c60248201526b7a65726f206164647265737360a01b6044820152606490fd5b600080fd5b634e487b7160e01b600052604160045260246000fdfe608060408181526004918236101561001657600080fd5b600092833560e01c918263034d7fcb1461123e575081631c75e369146111be5781632d9c97a41461119057816335d2506d146110f25781633999a4e514610f4f57816339f7df5f14610ee857816347b32f2814610e94578163549230c914610e0e5781635726d26e14610df15781635b2acf1714610d695781635d9b436a14610cc95781635e80536a14610c755781636e34b81814610c585781636ff1c9bc14610b3d578163715018a614610ae057816379203dc414610ac1578163799fb96514610aa25781638da5cb5b14610a7a578163911c935c14610a5e57816393c563af146108c9578163b989185a1461081b578163bd394a8d146107fc578163c4d3e083146107c4578163d2af0b94146107a8578163d637ff831461077d578163dd19171914610616578163ddd48f47146105f7578163de9d477e1461050c578163e895cca31461040f578163eb141dcf146103f3578163f2fde38b14610330578163f494ec5a146101d6575063fa07269a1461019057600080fd5b346101d257816003193601126101d257517f00000000000000000000000000000000000000000000000000000000000000006001600160a01b03168152602090f35b5080fd5b90503461032c578160031936011261032c576101f0611274565b602435906101fc611307565b61271082116102c3576001821061025a577f82ebda75a31dc518c1b711aab73005a4dddecaf297cee2cf545e72b6a799eb5191849160018060a01b03169384875260205260068287200190808254925582519182526020820152a251f35b835162461bcd60e51b8152602081850152603b60248201527f7570646174654379636c654469766964656e647350657263656e743a2070657260448201527f63656e74206d7573746e277420657863656564206d696e696d756d00000000006064820152608490fd5b835162461bcd60e51b8152602081850152603b60248201527f7570646174654379636c654469766964656e647350657263656e743a2070657260448201527f63656e74206d7573746e277420657863656564206d6178696d756d00000000006064820152608490fd5b8280fd5b90503461032c57602036600319011261032c5761034b611274565b610353611307565b6001600160a01b039081169182156103a1575083546001600160a01b0319811683178555925192167f8be0079c531659141344cd1fd0a4f28419497f9722a3daafe3b4186f6b6457e08484a3f35b608490602085519162461bcd60e51b8352820152602660248201527f4f776e61626c653a206e6577206f776e657220697320746865207a65726f206160448201526564647265737360d01b6064820152fd5b5050346101d257816003193601126101d2576020905160018152f35b9190503461032c57602036600319011261032c5761042b611274565b610433611307565b6001600160a01b031680845260208390528184206005810154919390911515806104fd575b156104945750600701805460ff1916600117905551907f961f10509197d967c55f8720c2b6a80d48433ef36db1b12cf3bf6bcf66da43468383a2f35b608490602084519162461bcd60e51b8352820152603960248201527f64697361626c654469737472696275746564546f6b656e3a20416c726561647960448201527f2064697361626c6564206469766964656e647320746f6b656e000000000000006064820152fd5b5060ff60078301541615610458565b9190503461032c57602036600319011261032c57610528611274565b610530611307565b6001600160a01b03168084526020839052818420600781015491939160ff1690816105ed575b501561058f575061056682611938565b5051907f17cd3cc84c669de8c5c4218fd1d9814e647b547d1e7f59287ea6989aa4e032c28383a2f35b6020608492519162461bcd60e51b8352820152603360248201527f72656d6f7665546f6b656e46726f6d4469737472696275746564546f6b656e736044820152720e8818d85b9b9bdd081899481c995b5bdd9959606a1b6064820152fd5b9050541538610556565b5050346101d257816003193601126101d2576020906008549051908152f35b90503461032c578260031936011261032c579190600292600193849161063f82845414156115c1565b81835561064a611307565b84955b610659575b5050805551f35b81548610156107785761066b8661135f565b60018060a01b0391549060031b1c1661068783855414156115c1565b828455610692611307565b84516370a0823160e01b81523083820152906024602080848381865afa93841561076e57899461073b575b5083156106e9575050966106d96106e192869798993390611dad565b8480556115b2565b95949361064d565b602860849286928a519362461bcd60e51b85528401528201527f656d657267656e637957697468647261773a20746f6b656e2062616c616e6365604482015267081a5cc81b9d5b1b60c21b6064820152fd5b9080945081813d8311610767575b610753818361160d565b81010312610763575192386106bd565b8880fd5b503d610749565b88513d8b823e3d90fd5b610652565b5050346101d257816003193601126101d2576020906107a1600954600854906113ac565b9051908152f35b5050346101d257816003193601126101d25760209051600a8152f35b5050346101d25760203660031901126101d25760209181906001600160a01b036107ec611274565b1681526006845220549051908152f35b5050346101d257816003193601126101d2576020906002549051908152f35b90503461032c57602036600319011261032c57610836611274565b90610846600260015414156115c1565b60026001556001600160a01b038216845260036020528284205415610877575b5061087090611cf1565b6001805551f35b806020526003838520015461086657606490602084519162461bcd60e51b8352820152601f60248201527f686172766573744469766964656e64733a20696e76616c696420746f6b656e006044820152fd5b9190503461032c57602036600319011261032c576108e5611274565b6108ed611307565b60018060a01b0316918284528060205281842090600582019081541590818015610a50575b156109e757600a600254101561098957509060079291610980575b5060068101805415610976575b5001805460ff1916905561094d826118b4565b5051907fefa645a0ab6703d2f2e7f177f50d16c90ce1c71e317bb91cbbdab430e0a396828383a2f35b606490553861093a565b4290553861092d565b608490602086519162461bcd60e51b8352820152603260248201527f656e61626c654469737472696275746564546f6b656e3a20746f6f206d616e79604482015271206469737472696275746564546f6b656e7360701b6064820152fd5b608490602086519162461bcd60e51b8352820152603760248201527f656e61626c654469737472696275746564546f6b656e3a20416c72656164792060448201527f656e61626c6564206469766964656e647320746f6b656e0000000000000000006064820152fd5b5060ff600785015416610912565b5050346101d257816003193601126101d2576020905160648152f35b5050346101d257816003193601126101d257905490516001600160a01b039091168152602090f35b5050346101d257816003193601126101d2576020906009549051908152f35b5050346101d257816003193601126101d2576020906007549051908152f35b5050346101d257816003193601126101d257610afa611307565b81546001600160a01b03198116835590519082906001600160a01b03167f8be0079c531659141344cd1fd0a4f28419497f9722a3daafe3b4186f6b6457e08284a3f35b90503461032c5760209081600319360112610c545780356001600160a01b03811692909190838303610c3f5780602494610b7c600260015414156115c1565b6002600155610b89611307565b86516370a0823160e01b8152308582015295869182905afa938415610c4a578694610c17575b508315610bc457505090610870913390611dad565b845162461bcd60e51b815291820152602860248201527f656d657267656e637957697468647261773a20746f6b656e2062616c616e6365604482015267081a5cc81b9d5b1b60c21b606482015260849150fd5b9080945081813d8311610c43575b610c2f818361160d565b81010312610c3f57519238610baf565b8580fd5b503d610c25565b85513d88823e3d90fd5b8380fd5b5050346101d257816003193601126101d257602090516127108152f35b5050346101d257806003193601126101d2578091610c91611274565b610c9961128f565b9060018060a01b038091168352600560205283832091168252602052206001815491015482519182526020820152f35b90508234610d66576020366003190112610d665750803590600254821015610d0d57602083610cf78461135f565b905491519160018060a01b039160031b1c168152f35b608490602084519162461bcd60e51b8352820152602d60248201527f76616c69646174654469737472696275746564546f6b656e73496e6465783a2060448201526c696e646578206578697374733f60981b6064820152fd5b80fd5b90503461032c57602036600319011261032c576101009282906001600160a01b03610d92611274565b16815282602052208054926001820154926002830154906003840154908401549160058501549360ff600760068801549701541696815198895260208901528701526060860152608085015260a084015260c0830152151560e0820152f35b5050346101d257816003193601126101d257610e0b611593565b51f35b5050346101d257610870610e21366112a5565b5050610e32600260015414156115c1565b60026001556001600160a01b03610e6c337f0000000000000000000000000000000000000000000000000000000000000000831614611856565b821685526006602052610e8e610e858286882054611521565b91600754611521565b91611bfa565b5050346101d257816003193601126101d257600254825b818110610eb757505051f35b80610ede610ec7610ee39361135f565b905460039190911b1c6001600160a01b0316611a63565b6115b2565b610eab565b5050346101d257816003193601126101d257610f09600260015414156115c1565b6002600155600254825b818110610f235750506001805551f35b80610ede610f33610f4a9361135f565b905460039190911b1c6001600160a01b0316611cf1565b610f13565b90503461032c578160031936011261032c57610f69611274565b610f78600260015414156115c1565b600260015582516370a0823160e01b80825230828501526001600160a01b0392909216926020918281602481885afa9081156110a85787916110c5575b508487528183528587209186516323b872dd60e01b8582015233602482015230604482015260243560648201526064815260a0810181811067ffffffffffffffff8211176110b25788526110099087611645565b865194855230908501528284602481885afa9384156110a8578794611073575b506110576002917f28fd761b1b374f526d6eba05c1081e7547a7a6b978161fac6bded2f1dc7a995295611521565b91016110648282546113ac565b90558451908152a26001805551f35b93508284813d83116110a1575b61108a818361160d565b8101031261109d57925192611057611029565b8680fd5b503d611080565b86513d89823e3d90fd5b634e487b7160e01b8a526041835260248afd5b90508281813d83116110eb575b6110dc818361160d565b8101031261109d575138610fb5565b503d6110d2565b90503461032c57602036600319011261032c5761110d611274565b6001600160a01b0381168452600360205282842054909190156111345750610e0b90611a63565b608490602084519162461bcd60e51b8352820152603060248201527f76616c69646174654469737472696275746564546f6b656e733a20746f6b656e60448201526f20646f6573206e6f742065786973747360801b6064820152fd5b5050346101d257806003193601126101d2576020906107a16111b0611274565b6111b861128f565b906113cf565b5050346101d2576108706111d1366112a5565b50506111e2600260015414156115c1565b60026001556001600160a01b0361121c337f0000000000000000000000000000000000000000000000000000000000000000831614611856565b821685526006602052610e8e61123582868820546113ac565b916007546113ac565b8490843461032c57602036600319011261032c576020926001600160a01b03611265611274565b16815260038452205415158152f35b600435906001600160a01b038216820361128a57565b600080fd5b602435906001600160a01b038216820361128a57565b90606060031983011261128a576004356001600160a01b038116810361128a57916024359160443567ffffffffffffffff9283821161128a578060238301121561128a57816004013593841161128a576024848301011161128a576024019190565b6000546001600160a01b0316330361131b57565b606460405162461bcd60e51b815260206004820152602060248201527f4f776e61626c653a2063616c6c6572206973206e6f7420746865206f776e65726044820152fd5b6002548110156113965760026000527f405787fa12a823e0f2b7631cc41b3ba8828b3321ca811111fa75cd3aa3bb5ace0190600090565b634e487b7160e01b600052603260045260246000fd5b919082018092116113b957565b634e487b7160e01b600052601160045260246000fd5b6007548015611519576114ae9260018060a01b039081841693611498670de0b6b3a764000061147b600095888752611468602095600487526040998a8a2090600482015491611422600582015494611a22565b906009549060085461143481846113ac565b42116114b1575b50505061145861145d91611453611462959642611521565b611560565b61152e565b611573565b906113ac565b9516948587526006855287872054611560565b048685526005835285852084865283526001868620015490611521565b94835260058152838320918352522054906113ac565b90565b61150e8160646115086114f7836114f16114629c6114628b9f61145d8f9161145d9f6114589f611458926114539f6114ec90611453936113ac565b611521565b9c6113ac565b956006600282015491015490611560565b04611573565b93508196955061143b565b505050600090565b919082039182116113b957565b662386f26fc100009080600019048211811515166113b9570290565b8060001904606411811515166113b95760640290565b80600019048211811515166113b9570290565b811561157d570490565b634e487b7160e01b600052601260045260246000fd5b6115a2600954600854906113ac565b804210156115ad5750565b600955565b60001981146113b95760010190565b156115c857565b60405162461bcd60e51b815260206004820152601f60248201527f5265656e7472616e637947756172643a207265656e7472616e742063616c6c006044820152606490fd5b90601f8019910116810190811067ffffffffffffffff82111761162f57604052565b634e487b7160e01b600052604160045260246000fd5b604080516001600160a01b039290921692909167ffffffffffffffff8184018181118382101761162f5784526020948583527f5361666545524332303a206c6f772d6c6576656c2063616c6c206661696c656486840152803b156117975760008481959282898195519301915af13d15611789573d91821161177557906116ea92918551916116dd88601f19601f840116018461160d565b82523d858884013e6117db565b8051806116f9575b5050505050565b818591810103126101d25783015190811591821503610d66575061171f578080806116f2565b60849250519062461bcd60e51b82526004820152602a60248201527f5361666545524332303a204552433230206f7065726174696f6e20646964206e6044820152691bdd081cdd58d8d9595960b21b6064820152fd5b634e487b7160e01b84526041600452602484fd5b6116ea9291506060906117db565b845162461bcd60e51b815260048101879052601d60248201527f416464726573733a2063616c6c20746f206e6f6e2d636f6e74726163740000006044820152606490fd5b909190156117e7575090565b8151156117f75750805190602001fd5b6040519062461bcd60e51b82528160208060048301528251908160248401526000935b82851061183d575050604492506000838284010152601f80199101168101030190fd5b848101820151868601604401529381019385935061181a565b1561185d57565b60405162461bcd60e51b815260206004820152602960248201527f78417274546f6b656e4f6e6c793a2063616c6c65722073686f756c64206265206044820152682c20b93a2a37b5b2b760b91b6064820152608490fd5b600081815260036020526040812054611933576002546801000000000000000081101561191f57908261190b6118f28460016040960160025561135f565b819391549060031b600019811b9283911b169119161790565b905560025492815260036020522055600190565b634e487b7160e01b82526041600452602482fd5b905090565b6000818152600360205260408120549091908015611a1d5760001990808201818111611a0957600254908382019182116119f5578082036119c1575b50505060025480156119ad5781019061198c8261135f565b909182549160031b1b19169055600255815260036020526040812055600190565b634e487b7160e01b84526031600452602484fd5b6119df6119d06118f29361135f565b90549060031b1c92839261135f565b9055845260036020526040842055388080611974565b634e487b7160e01b86526011600452602486fd5b634e487b7160e01b85526011600452602485fd5b505090565b6001600160a01b031660009081526003602052604090205415611a5e5760046020526114ae611a5560406000205461154a565b60085490611573565b600090565b6001600160a01b038116600090815260046020526040902090611a84611593565b60058201918254600482019283549180421115611bf257600754158015611be7575b611bdd5783611b1f94549260018201928354926009548210611b40575b5091611aea611b169492611ae4611ade611462989642611521565b91611a22565b90611560565b92611af584836113ac565b611afe8261154a565b10611b26575b5082611b0f916113ac565b905561152e565b60075490611573565b9055429055565b81611b0f9294506114ec611b399261154a565b9290611b04565b92611b16949291508596611462611b16611458611b63946114ec6114629b61154a565b9560ff60078501541615600014611bc257611b83600385019182546113ac565b905560028301611bab815494612710611ba0600683015488611560565b049586809255611521565b90555b600954929450909250600091611aea611ac3565b611bd1600385019182546113ac565b90556000809355611bae565b5050505050429055565b506009544210611aa6565b505050505050565b90929160018060a01b0380921691600094838652602060068152604093848820549360025490895b828110611c6957505050828589887f97ce9d7086176d6da45e4e7999788176e2629a7591ffe505b0c1b13fe8052cc6999a9b526006855220556007558351928352820152a2565b8082611c77611cec9361135f565b90549060031b1c16611c8881611a63565b808d5260058752898d208b8e528752898d20908d5260048088528a8e200154670de0b6b3a764000090611ce49082611cc0828e611560565b0493611cdc611cd56001830196875490611521565b82546113ac565b90558a611560565b0490556115b2565b611c22565b611cfa81611a63565b60018060a01b03166000818152600560205260408120338252602052604081209082815260046020526004604082200154903381526006602052611d71604082205492845493670de0b6b3a764000093611d6a85611d588585611560565b049661146260018a0198895490611521565b9655611560565b049055611d7f813384611dad565b6040519081527f45a4759e6c135135eaba72e35bf196d59fd6fe17e1772d731f05dc25ec5a96a260203392a3565b919081611db957505050565b6040516370a0823160e01b8152306004820152916020836024816001600160a01b0388165afa928315611e4157600093611e0e575b5082811115611e035750611e0192611e4d565b565b9150611e0192611e4d565b90926020823d8211611e39575b81611e286020938361160d565b81010312610d665750519138611dee565b3d9150611e1b565b6040513d6000823e3d90fd5b60405163a9059cbb60e01b60208201526001600160a01b039092166024830152604480830193909352918152608081019167ffffffffffffffff83118284101761162f57611e019260405261164556fea264697066735822122044e0e4ae9c4d87950066d9a09cd11ac8b377c732dc13000b19098fa31608842864736f6c63430008100033",
  "linkReferences": {},
  "deployedLinkReferences": {}
}