{
  "_format": "hh-sol-artifact-1",
  "contractName": "DividendsV2",
  "sourceName": "contracts/DividendsV2.sol",
  "abi": [
    {
      "inputs": [
        {
          "internalType": "address",
          "name": "xFlashToken_",
          "type": "address"
        },
        {
          "internalType": "uint256",
          "name": "startTime_",
          "type": "uint256"
        }
      ],
      "stateMutability": "nonpayable",
      "type": "constructor"
    },
    {
      "anonymous": false,
      "inputs": [
        {
          "indexed": true,
          "internalType": "address",
          "name": "token",
          "type": "address"
        },
        {
          "indexed": false,
          "internalType": "uint256",
          "name": "previousValue",
          "type": "uint256"
        },
        {
          "indexed": false,
          "internalType": "uint256",
          "name": "newValue",
          "type": "uint256"
        }
      ],
      "name": "CycleDividendsPercentUpdated",
      "type": "event"
    },
    {
      "anonymous": false,
      "inputs": [
        {
          "indexed": true,
          "internalType": "address",
          "name": "token",
          "type": "address"
        }
      ],
      "name": "DistributedTokenDisabled",
      "type": "event"
    },
    {
      "anonymous": false,
      "inputs": [
        {
          "indexed": true,
          "internalType": "address",
          "name": "token",
          "type": "address"
        }
      ],
      "name": "DistributedTokenEnabled",
      "type": "event"
    },
    {
      "anonymous": false,
      "inputs": [
        {
          "indexed": true,
          "internalType": "address",
          "name": "token",
          "type": "address"
        }
      ],
      "name": "DistributedTokenRemoved",
      "type": "event"
    },
    {
      "anonymous": false,
      "inputs": [
        {
          "indexed": true,
          "internalType": "address",
          "name": "token",
          "type": "address"
        },
        {
          "indexed": false,
          "internalType": "uint256",
          "name": "amount",
          "type": "uint256"
        }
      ],
      "name": "DividendsAddedToPending",
      "type": "event"
    },
    {
      "anonymous": false,
      "inputs": [
        {
          "indexed": true,
          "internalType": "address",
          "name": "user",
          "type": "address"
        },
        {
          "indexed": true,
          "internalType": "address",
          "name": "token",
          "type": "address"
        },
        {
          "indexed": false,
          "internalType": "uint256",
          "name": "amount",
          "type": "uint256"
        }
      ],
      "name": "DividendsCollected",
      "type": "event"
    },
    {
      "anonymous": false,
      "inputs": [
        {
          "indexed": true,
          "internalType": "address",
          "name": "previousOwner",
          "type": "address"
        },
        {
          "indexed": true,
          "internalType": "address",
          "name": "newOwner",
          "type": "address"
        }
      ],
      "name": "OwnershipTransferred",
      "type": "event"
    },
    {
      "anonymous": false,
      "inputs": [
        {
          "indexed": true,
          "internalType": "address",
          "name": "user",
          "type": "address"
        },
        {
          "indexed": false,
          "internalType": "uint256",
          "name": "previousBalance",
          "type": "uint256"
        },
        {
          "indexed": false,
          "internalType": "uint256",
          "name": "newBalance",
          "type": "uint256"
        }
      ],
      "name": "UserUpdated",
      "type": "event"
    },
    {
      "inputs": [],
      "name": "DEFAULT_CYCLE_DIVIDENDS_PERCENT",
      "outputs": [
        {
          "internalType": "uint256",
          "name": "",
          "type": "uint256"
        }
      ],
      "stateMutability": "view",
      "type": "function"
    },
    {
      "inputs": [],
      "name": "MAX_CYCLE_DIVIDENDS_PERCENT",
      "outputs": [
        {
          "internalType": "uint256",
          "name": "",
          "type": "uint256"
        }
      ],
      "stateMutability": "view",
      "type": "function"
    },
    {
      "inputs": [],
      "name": "MAX_DISTRIBUTED_TOKENS",
      "outputs": [
        {
          "internalType": "uint256",
          "name": "",
          "type": "uint256"
        }
      ],
      "stateMutability": "view",
      "type": "function"
    },
    {
      "inputs": [],
      "name": "MIN_CYCLE_DIVIDENDS_PERCENT",
      "outputs": [
        {
          "internalType": "uint256",
          "name": "",
          "type": "uint256"
        }
      ],
      "stateMutability": "view",
      "type": "function"
    },
    {
      "inputs": [
        {
          "internalType": "address",
          "name": "token",
          "type": "address"
        },
        {
          "internalType": "uint256",
          "name": "amount",
          "type": "uint256"
        }
      ],
      "name": "addDividendsToPending",
      "outputs": [],
      "stateMutability": "nonpayable",
      "type": "function"
    },
    {
      "inputs": [
        {
          "internalType": "address",
          "name": "userAddress",
          "type": "address"
        },
        {
          "internalType": "uint256",
          "name": "amount",
          "type": "uint256"
        },
        {
          "internalType": "bytes",
          "name": "",
          "type": "bytes"
        }
      ],
      "name": "allocate",
      "outputs": [],
      "stateMutability": "nonpayable",
      "type": "function"
    },
    {
      "inputs": [],
      "name": "currentCycleStartTime",
      "outputs": [
        {
          "internalType": "uint256",
          "name": "",
          "type": "uint256"
        }
      ],
      "stateMutability": "view",
      "type": "function"
    },
    {
      "inputs": [],
      "name": "cycleDurationSeconds",
      "outputs": [
        {
          "internalType": "uint256",
          "name": "",
          "type": "uint256"
        }
      ],
      "stateMutability": "view",
      "type": "function"
    },
    {
      "inputs": [
        {
          "internalType": "address",
          "name": "userAddress",
          "type": "address"
        },
        {
          "internalType": "uint256",
          "name": "amount",
          "type": "uint256"
        },
        {
          "internalType": "bytes",
          "name": "",
          "type": "bytes"
        }
      ],
      "name": "deallocate",
      "outputs": [],
      "stateMutability": "nonpayable",
      "type": "function"
    },
    {
      "inputs": [
        {
          "internalType": "address",
          "name": "token",
          "type": "address"
        }
      ],
      "name": "disableDistributedToken",
      "outputs": [],
      "stateMutability": "nonpayable",
      "type": "function"
    },
    {
      "inputs": [
        {
          "internalType": "uint256",
          "name": "index",
          "type": "uint256"
        }
      ],
      "name": "distributedToken",
      "outputs": [
        {
          "internalType": "address",
          "name": "",
          "type": "address"
        }
      ],
      "stateMutability": "view",
      "type": "function"
    },
    {
      "inputs": [],
      "name": "distributedTokensLength",
      "outputs": [
        {
          "internalType": "uint256",
          "name": "",
          "type": "uint256"
        }
      ],
      "stateMutability": "view",
      "type": "function"
    },
    {
      "inputs": [
        {
          "internalType": "address",
          "name": "",
          "type": "address"
        }
      ],
      "name": "dividendsInfo",
      "outputs": [
        {
          "internalType": "uint256",
          "name": "currentDistributionAmount",
          "type": "uint256"
        },
        {
          "internalType": "uint256",
          "name": "currentCycleDistributedAmount",
          "type": "uint256"
        },
        {
          "internalType": "uint256",
          "name": "pendingAmount",
          "type": "uint256"
        },
        {
          "internalType": "uint256",
          "name": "distributedAmount",
          "type": "uint256"
        },
        {
          "internalType": "uint256",
          "name": "accDividendsPerShare",
          "type": "uint256"
        },
        {
          "internalType": "uint256",
          "name": "lastUpdateTime",
          "type": "uint256"
        },
        {
          "internalType": "uint256",
          "name": "cycleDividendsPercent",
          "type": "uint256"
        },
        {
          "internalType": "bool",
          "name": "distributionDisabled",
          "type": "bool"
        }
      ],
      "stateMutability": "view",
      "type": "function"
    },
    {
      "inputs": [
        {
          "internalType": "contract IERC20",
          "name": "token",
          "type": "address"
        }
      ],
      "name": "emergencyWithdraw",
      "outputs": [],
      "stateMutability": "nonpayable",
      "type": "function"
    },
    {
      "inputs": [],
      "name": "emergencyWithdrawAll",
      "outputs": [],
      "stateMutability": "nonpayable",
      "type": "function"
    },
    {
      "inputs": [
        {
          "internalType": "address",
          "name": "token",
          "type": "address"
        }
      ],
      "name": "enableDistributedToken",
      "outputs": [],
      "stateMutability": "nonpayable",
      "type": "function"
    },
    {
      "inputs": [],
      "name": "harvestAllDividends",
      "outputs": [],
      "stateMutability": "nonpayable",
      "type": "function"
    },
    {
      "inputs": [
        {
          "internalType": "address",
          "name": "token",
          "type": "address"
        }
      ],
      "name": "harvestDividends",
      "outputs": [],
      "stateMutability": "nonpayable",
      "type": "function"
    },
    {
      "inputs": [
        {
          "internalType": "address",
          "name": "token",
          "type": "address"
        }
      ],
      "name": "isDistributedToken",
      "outputs": [
        {
          "internalType": "bool",
          "name": "",
          "type": "bool"
        }
      ],
      "stateMutability": "view",
      "type": "function"
    },
    {
      "inputs": [],
      "name": "massUpdateDividendsInfo",
      "outputs": [],
      "stateMutability": "nonpayable",
      "type": "function"
    },
    {
      "inputs": [],
      "name": "nextCycleStartTime",
      "outputs": [
        {
          "internalType": "uint256",
          "name": "",
          "type": "uint256"
        }
      ],
      "stateMutability": "view",
      "type": "function"
    },
    {
      "inputs": [],
      "name": "owner",
      "outputs": [
        {
          "internalType": "address",
          "name": "",
          "type": "address"
        }
      ],
      "stateMutability": "view",
      "type": "function"
    },
    {
      "inputs": [
        {
          "internalType": "address",
          "name": "token",
          "type": "address"
        },
        {
          "internalType": "address",
          "name": "userAddress",
          "type": "address"
        }
      ],
      "name": "pendingDividendsAmount",
      "outputs": [
        {
          "internalType": "uint256",
          "name": "",
          "type": "uint256"
        }
      ],
      "stateMutability": "view",
      "type": "function"
    },
    {
      "inputs": [
        {
          "internalType": "address",
          "name": "tokenToRemove",
          "type": "address"
        }
      ],
      "name": "removeTokenFromDistributedTokens",
      "outputs": [],
      "stateMutability": "nonpayable",
      "type": "function"
    },
    {
      "inputs": [],
      "name": "renounceOwnership",
      "outputs": [],
      "stateMutability": "nonpayable",
      "type": "function"
    },
    {
      "inputs": [],
      "name": "totalAllocation",
      "outputs": [
        {
          "internalType": "uint256",
          "name": "",
          "type": "uint256"
        }
      ],
      "stateMutability": "view",
      "type": "function"
    },
    {
      "inputs": [
        {
          "internalType": "address",
          "name": "newOwner",
          "type": "address"
        }
      ],
      "name": "transferOwnership",
      "outputs": [],
      "stateMutability": "nonpayable",
      "type": "function"
    },
    {
      "inputs": [],
      "name": "updateCurrentCycleStartTime",
      "outputs": [],
      "stateMutability": "nonpayable",
      "type": "function"
    },
    {
      "inputs": [
        {
          "internalType": "address",
          "name": "token",
          "type": "address"
        },
        {
          "internalType": "uint256",
          "name": "percent",
          "type": "uint256"
        }
      ],
      "name": "updateCycleDividendsPercent",
      "outputs": [],
      "stateMutability": "nonpayable",
      "type": "function"
    },
    {
      "inputs": [
        {
          "internalType": "address",
          "name": "token",
          "type": "address"
        }
      ],
      "name": "updateDividendsInfo",
      "outputs": [],
      "stateMutability": "nonpayable",
      "type": "function"
    },
    {
      "inputs": [
        {
          "internalType": "address",
          "name": "",
          "type": "address"
        },
        {
          "internalType": "address",
          "name": "",
          "type": "address"
        }
      ],
      "name": "users",
      "outputs": [
        {
          "internalType": "uint256",
          "name": "pendingDividends",
          "type": "uint256"
        },
        {
          "internalType": "uint256",
          "name": "rewardDebt",
          "type": "uint256"
        }
      ],
      "stateMutability": "view",
      "type": "function"
    },
    {
      "inputs": [
        {
          "internalType": "address",
          "name": "",
          "type": "address"
        }
      ],
      "name": "usersAllocation",
      "outputs": [
        {
          "internalType": "uint256",
          "name": "",
          "type": "uint256"
        }
      ],
      "stateMutability": "view",
      "type": "function"
    },
    {
      "inputs": [],
      "name": "xFlashToken",
      "outputs": [
        {
          "internalType": "address",
          "name": "",
          "type": "address"
        }
      ],
      "stateMutability": "view",
      "type": "function"
    }
  ],
  "bytecode": "0x60a03461010357601f611fe938819003918201601f19168301916001600160401b038311848410176101085780849260409485528339810103126101035780516001600160a01b03808216928383036101035760200151926000543360018060a01b0319821617600055604051923391167f8be0079c531659141344cd1fd0a4f28419497f9722a3daafe3b4186f6b6457e0600085a36001805562093a80600855156100d25750608052600955604051611eca908161011f8239608051818181610df60152818161118201526111e80152f35b62461bcd60e51b815260206004820152600c60248201526b7a65726f206164647265737360a01b6044820152606490fd5b600080fd5b634e487b7160e01b600052604160045260246000fdfe6080604081815260048036101561001557600080fd5b600092833560e01c908163034d7fcb14611231575080631c75e369146111b157806328cfcaf91461116d5780632d9c97a41461113f57806335d2506d146110a25780633999a4e514610f0057806339f7df5f14610e9957806347b32f2814610e45578063549230c914610dbf5780635726d26e14610da25780635b2acf1714610d1b5780635d9b436a14610c7c5780635e80536a14610c285780636e34b81814610c0b5780636ff1c9bc14610af1578063715018a614610a9457806379203dc414610a75578063799fb96514610a565780638da5cb5b14610a2e578063911c935c14610a1257806393c563af1461087e578063b989185a146107d1578063bd394a8d146107b2578063c4d3e0831461077a578063d2af0b941461075e578063d637ff8314610733578063dd191719146105cd578063ddd48f47146105ae578063de9d477e146104c4578063e895cca3146103c8578063eb141dcf146103a8578063f2fde38b146102e65763f494ec5a1461018e57600080fd5b346102e257816003193601126102e2576101a6611267565b602435906101b26112fa565b61271082116102795760018210610210577f82ebda75a31dc518c1b711aab73005a4dddecaf297cee2cf545e72b6a799eb5191849160018060a01b03169384875260205260068287200190808254925582519182526020820152a251f35b835162461bcd60e51b8152602081850152603b60248201527f7570646174654379636c654469766964656e647350657263656e743a2070657260448201527f63656e74206d7573746e277420657863656564206d696e696d756d00000000006064820152608490fd5b835162461bcd60e51b8152602081850152603b60248201527f7570646174654379636c654469766964656e647350657263656e743a2070657260448201527f63656e74206d7573746e277420657863656564206d6178696d756d00000000006064820152608490fd5b8280fd5b50346102e25760203660031901126102e257610300611267565b6103086112fa565b6001600160a01b03908116918215610356575083546001600160a01b0319811683178555925192167f8be0079c531659141344cd1fd0a4f28419497f9722a3daafe3b4186f6b6457e08484a3f35b608490602085519162461bcd60e51b8352820152602660248201527f4f776e61626c653a206e6577206f776e657220697320746865207a65726f206160448201526564647265737360d01b6064820152fd5b5050346103c457816003193601126103c4576020905160018152f35b5080fd5b5090346102e25760203660031901126102e2576103e3611267565b6103eb6112fa565b6001600160a01b031680845260208390528184206005810154919390911515806104b5575b1561044c5750600701805460ff1916600117905551907f961f10509197d967c55f8720c2b6a80d48433ef36db1b12cf3bf6bcf66da43468383a2f35b608490602084519162461bcd60e51b8352820152603960248201527f64697361626c654469737472696275746564546f6b656e3a20416c726561647960448201527f2064697361626c6564206469766964656e647320746f6b656e000000000000006064820152fd5b5060ff60078301541615610410565b5090346102e25760203660031901126102e2576104df611267565b6104e76112fa565b6001600160a01b03168084526020839052818420600781015491939160ff1690816105a4575b5015610546575061051d8261192f565b5051907f17cd3cc84c669de8c5c4218fd1d9814e647b547d1e7f59287ea6989aa4e032c28383a2f35b6020608492519162461bcd60e51b8352820152603360248201527f72656d6f7665546f6b656e46726f6d4469737472696275746564546f6b656e736044820152720e8818d85b9b9bdd081899481c995b5bdd9959606a1b6064820152fd5b905054153861050d565b5050346103c457816003193601126103c4576020906008549051908152f35b50346102e257826003193601126102e257919060029260019384916105f582845414156115b4565b8183556106006112fa565b84955b61060f575b5050805551f35b815486101561072e5761062186611352565b60018060a01b0391549060031b1c1661063d83855414156115b4565b8284556106486112fa565b84516370a0823160e01b81523083820152906024602080848381865afa9384156107245789946106f1575b50831561069f5750509661068f61069792869798993390611da4565b8480556115a5565b959493610603565b602860849286928a519362461bcd60e51b85528401528201527f656d657267656e637957697468647261773a20746f6b656e2062616c616e6365604482015267081a5cc81b9d5b1b60c21b6064820152fd5b9080945081813d831161071d575b6107098183611600565b8101031261071957519238610673565b8880fd5b503d6106ff565b88513d8b823e3d90fd5b610608565b5050346103c457816003193601126103c4576020906107576009546008549061139f565b9051908152f35b5050346103c457816003193601126103c45760209051600a8152f35b5050346103c45760203660031901126103c45760209181906001600160a01b036107a2611267565b1681526006845220549051908152f35b5050346103c457816003193601126103c4576020906002549051908152f35b50346102e25760203660031901126102e2576107eb611267565b906107fb600260015414156115b4565b60026001556001600160a01b03821684526003602052828420541561082c575b5061082590611ce8565b6001805551f35b806020526003838520015461081b57606490602084519162461bcd60e51b8352820152601f60248201527f686172766573744469766964656e64733a20696e76616c696420746f6b656e006044820152fd5b5090346102e25760203660031901126102e257610899611267565b6108a16112fa565b60018060a01b0316918284528060205281842090600582019081541590818015610a04575b1561099b57600a600254101561093d57509060079291610934575b506006810180541561092a575b5001805460ff19169055610901826118ab565b5051907fefa645a0ab6703d2f2e7f177f50d16c90ce1c71e317bb91cbbdab430e0a396828383a2f35b60649055386108ee565b429055386108e1565b608490602086519162461bcd60e51b8352820152603260248201527f656e61626c654469737472696275746564546f6b656e3a20746f6f206d616e79604482015271206469737472696275746564546f6b656e7360701b6064820152fd5b608490602086519162461bcd60e51b8352820152603760248201527f656e61626c654469737472696275746564546f6b656e3a20416c72656164792060448201527f656e61626c6564206469766964656e647320746f6b656e0000000000000000006064820152fd5b5060ff6007850154166108c6565b5050346103c457816003193601126103c4576020905160648152f35b5050346103c457816003193601126103c457905490516001600160a01b039091168152602090f35b5050346103c457816003193601126103c4576020906009549051908152f35b5050346103c457816003193601126103c4576020906007549051908152f35b5050346103c457816003193601126103c457610aae6112fa565b81546001600160a01b03198116835590519082906001600160a01b03167f8be0079c531659141344cd1fd0a4f28419497f9722a3daafe3b4186f6b6457e08284a3f35b50346102e25760209081600319360112610c075780356001600160a01b03811692909190838303610bf25780602494610b2f600260015414156115b4565b6002600155610b3c6112fa565b86516370a0823160e01b8152308582015295869182905afa938415610bfd578694610bca575b508315610b7757505090610825913390611da4565b845162461bcd60e51b815291820152602860248201527f656d657267656e637957697468647261773a20746f6b656e2062616c616e6365604482015267081a5cc81b9d5b1b60c21b606482015260849150fd5b9080945081813d8311610bf6575b610be28183611600565b81010312610bf257519238610b62565b8580fd5b503d610bd8565b85513d88823e3d90fd5b8380fd5b5050346103c457816003193601126103c457602090516127108152f35b5050346103c457806003193601126103c4578091610c44611267565b610c4c611282565b9060018060a01b038091168352600560205283832091168252602052206001815491015482519182526020820152f35b508234610d18576020366003190112610d185750803590600254821015610cbf57602083610ca984611352565b905491519160018060a01b039160031b1c168152f35b608490602084519162461bcd60e51b8352820152602d60248201527f76616c69646174654469737472696275746564546f6b656e73496e6465783a2060448201526c696e646578206578697374733f60981b6064820152fd5b80fd5b50346102e25760203660031901126102e2576101009282906001600160a01b03610d43611267565b16815282602052208054926001820154926002830154906003840154908401549160058501549360ff600760068801549701541696815198895260208901528701526060860152608085015260a084015260c0830152151560e0820152f35b5050346103c457816003193601126103c457610dbc611586565b51f35b5050346103c457610825610dd236611298565b5050610de3600260015414156115b4565b60026001556001600160a01b03610e1d337f0000000000000000000000000000000000000000000000000000000000000000831614611849565b821685526006602052610e3f610e368286882054611514565b91600754611514565b91611bf1565b5050346103c457816003193601126103c457600254825b818110610e6857505051f35b80610e8f610e78610e9493611352565b905460039190911b1c6001600160a01b0316611a5a565b6115a5565b610e5c565b5050346103c457816003193601126103c457610eba600260015414156115b4565b6002600155600254825b818110610ed45750506001805551f35b80610e8f610ee4610efb93611352565b905460039190911b1c6001600160a01b0316611ce8565b610ec4565b50346102e257816003193601126102e257610f19611267565b610f28600260015414156115b4565b600260015582516370a0823160e01b80825230828501526001600160a01b0392909216926020918281602481885afa908115611058578791611075575b508487528183528587209186516323b872dd60e01b8582015233602482015230604482015260243560648201526064815260a0810181811067ffffffffffffffff821117611062578852610fb99087611638565b865194855230908501528284602481885afa938415611058578794611023575b506110076002917f28fd761b1b374f526d6eba05c1081e7547a7a6b978161fac6bded2f1dc7a995295611514565b910161101482825461139f565b90558451908152a26001805551f35b93508284813d8311611051575b61103a8183611600565b8101031261104d57925192611007610fd9565b8680fd5b503d611030565b86513d89823e3d90fd5b634e487b7160e01b8a526041835260248afd5b90508281813d831161109b575b61108c8183611600565b8101031261104d575138610f65565b503d611082565b50346102e25760203660031901126102e2576110bc611267565b6001600160a01b0381168452600360205282842054909190156110e35750610dbc90611a5a565b608490602084519162461bcd60e51b8352820152603060248201527f76616c69646174654469737472696275746564546f6b656e733a20746f6b656e60448201526f20646f6573206e6f742065786973747360801b6064820152fd5b5050346103c457806003193601126103c45760209061075761115f611267565b611167611282565b906113c2565b5050346103c457816003193601126103c457517f00000000000000000000000000000000000000000000000000000000000000006001600160a01b03168152602090f35b5050346103c4576108256111c436611298565b50506111d5600260015414156115b4565b60026001556001600160a01b0361120f337f0000000000000000000000000000000000000000000000000000000000000000831614611849565b821685526006602052610e3f611228828688205461139f565b9160075461139f565b849084346102e25760203660031901126102e2576020926001600160a01b03611258611267565b16815260038452205415158152f35b600435906001600160a01b038216820361127d57565b600080fd5b602435906001600160a01b038216820361127d57565b90606060031983011261127d576004356001600160a01b038116810361127d57916024359160443567ffffffffffffffff9283821161127d578060238301121561127d57816004013593841161127d576024848301011161127d576024019190565b6000546001600160a01b0316330361130e57565b606460405162461bcd60e51b815260206004820152602060248201527f4f776e61626c653a2063616c6c6572206973206e6f7420746865206f776e65726044820152fd5b6002548110156113895760026000527f405787fa12a823e0f2b7631cc41b3ba8828b3321ca811111fa75cd3aa3bb5ace0190600090565b634e487b7160e01b600052603260045260246000fd5b919082018092116113ac57565b634e487b7160e01b600052601160045260246000fd5b600754801561150c576114a19260018060a01b03908184169361148b670de0b6b3a764000061146e60009588875261145b602095600487526040998a8a2090600482015491611415600582015494611a19565b9060095490600854611427818461139f565b42116114a4575b50505061144b61145091611446611455959642611514565b611553565b611521565b611566565b9061139f565b9516948587526006855287872054611553565b048685526005835285852084865283526001868620015490611514565b948352600581528383209183525220549061139f565b90565b6115018160646114fb6114ea836114e46114559c6114558b9f6114508f916114509f61144b9f61144b926114469f6114df906114469361139f565b611514565b9c61139f565b956006600282015491015490611553565b04611566565b93508196955061142e565b505050600090565b919082039182116113ac57565b662386f26fc100009080600019048211811515166113ac570290565b8060001904606411811515166113ac5760640290565b80600019048211811515166113ac570290565b8115611570570490565b634e487b7160e01b600052601260045260246000fd5b6115956009546008549061139f565b804210156115a05750565b600955565b60001981146113ac5760010190565b156115bb57565b60405162461bcd60e51b815260206004820152601f60248201527f5265656e7472616e637947756172643a207265656e7472616e742063616c6c006044820152606490fd5b90601f8019910116810190811067ffffffffffffffff82111761162257604052565b634e487b7160e01b600052604160045260246000fd5b604080516001600160a01b039290921692909167ffffffffffffffff818401818111838210176116225784526020948583527f5361666545524332303a206c6f772d6c6576656c2063616c6c206661696c656486840152803b1561178a5760008481959282898195519301915af13d1561177c573d91821161176857906116dd92918551916116d088601f19601f8401160184611600565b82523d858884013e6117ce565b8051806116ec575b5050505050565b818591810103126103c45783015190811591821503610d185750611712578080806116e5565b60849250519062461bcd60e51b82526004820152602a60248201527f5361666545524332303a204552433230206f7065726174696f6e20646964206e6044820152691bdd081cdd58d8d9595960b21b6064820152fd5b634e487b7160e01b84526041600452602484fd5b6116dd9291506060906117ce565b845162461bcd60e51b815260048101879052601d60248201527f416464726573733a2063616c6c20746f206e6f6e2d636f6e74726163740000006044820152606490fd5b909190156117da575090565b8151156117ea5750805190602001fd5b6040519062461bcd60e51b82528160208060048301528251908160248401526000935b828510611830575050604492506000838284010152601f80199101168101030190fd5b848101820151868601604401529381019385935061180d565b1561185057565b60405162461bcd60e51b815260206004820152602d60248201527f78466c617368546f6b656e4f6e6c793a2063616c6c65722073686f756c64206260448201526c32902c233630b9b42a37b5b2b760991b6064820152608490fd5b60008181526003602052604081205461192a57600254680100000000000000008110156119165790826119026118e984600160409601600255611352565b819391549060031b600019811b9283911b169119161790565b905560025492815260036020522055600190565b634e487b7160e01b82526041600452602482fd5b905090565b6000818152600360205260408120549091908015611a145760001990808201818111611a0057600254908382019182116119ec578082036119b8575b50505060025480156119a45781019061198382611352565b909182549160031b1b19169055600255815260036020526040812055600190565b634e487b7160e01b84526031600452602484fd5b6119d66119c76118e993611352565b90549060031b1c928392611352565b905584526003602052604084205538808061196b565b634e487b7160e01b86526011600452602486fd5b634e487b7160e01b85526011600452602485fd5b505090565b6001600160a01b031660009081526003602052604090205415611a555760046020526114a1611a4c60406000205461153d565b60085490611566565b600090565b6001600160a01b038116600090815260046020526040902090611a7b611586565b60058201918254600482019283549180421115611be957600754158015611bde575b611bd45783611b1694549260018201928354926009548210611b37575b5091611ae1611b0d9492611adb611ad5611455989642611514565b91611a19565b90611553565b92611aec848361139f565b611af58261153d565b10611b1d575b5082611b069161139f565b9055611521565b60075490611566565b9055429055565b81611b069294506114df611b309261153d565b9290611afb565b92611b0d949291508596611455611b0d61144b611b5a946114df6114559b61153d565b9560ff60078501541615600014611bb957611b7a6003850191825461139f565b905560028301611ba2815494612710611b97600683015488611553565b049586809255611514565b90555b600954929450909250600091611ae1611aba565b611bc86003850191825461139f565b90556000809355611ba5565b5050505050429055565b506009544210611a9d565b505050505050565b90929160018060a01b0380921691600094838652602060068152604093848820549360025490895b828110611c6057505050828589887f97ce9d7086176d6da45e4e7999788176e2629a7591ffe505b0c1b13fe8052cc6999a9b526006855220556007558351928352820152a2565b8082611c6e611ce393611352565b90549060031b1c16611c7f81611a5a565b808d5260058752898d208b8e528752898d20908d5260048088528a8e200154670de0b6b3a764000090611cdb9082611cb7828e611553565b0493611cd3611ccc6001830196875490611514565b825461139f565b90558a611553565b0490556115a5565b611c19565b611cf181611a5a565b60018060a01b03166000818152600560205260408120338252602052604081209082815260046020526004604082200154903381526006602052611d68604082205492845493670de0b6b3a764000093611d6185611d4f8585611553565b049661145560018a0198895490611514565b9655611553565b049055611d76813384611da4565b6040519081527f45a4759e6c135135eaba72e35bf196d59fd6fe17e1772d731f05dc25ec5a96a260203392a3565b919081611db057505050565b6040516370a0823160e01b8152306004820152916020836024816001600160a01b0388165afa928315611e3857600093611e05575b5082811115611dfa5750611df892611e44565b565b9150611df892611e44565b90926020823d8211611e30575b81611e1f60209383611600565b81010312610d185750519138611de5565b3d9150611e12565b6040513d6000823e3d90fd5b60405163a9059cbb60e01b60208201526001600160a01b039092166024830152604480830193909352918152608081019167ffffffffffffffff83118284101761162257611df89260405261163856fea2646970667358221220553384f72ca2dc10de81d330326141cd1902ecc473aaaf1ac17b7c69ef73062064736f6c63430008100033",
  "linkReferences": {},
  "deployedLinkReferences": {}
}