{
  "_format": "hh-sol-artifact-1",
  "contractName": "FlashpadRouter",
  "sourceName": "contracts/FlashpadRouter.sol",
  "abi": [
    {
      "inputs": [
        {
          "internalType": "address",
          "name": "_factory",
          "type": "address"
        },
        {
          "internalType": "address",
          "name": "_WETH",
          "type": "address"
        }
      ],
      "stateMutability": "nonpayable",
      "type": "constructor"
    },
    {
      "inputs": [],
      "name": "WETH",
      "outputs": [
        {
          "internalType": "address",
          "name": "",
          "type": "address"
        }
      ],
      "stateMutability": "view",
      "type": "function"
    },
    {
      "inputs": [
        {
          "internalType": "address",
          "name": "tokenA",
          "type": "address"
        },
        {
          "internalType": "address",
          "name": "tokenB",
          "type": "address"
        },
        {
          "internalType": "uint256",
          "name": "amountADesired",
          "type": "uint256"
        },
        {
          "internalType": "uint256",
          "name": "amountBDesired",
          "type": "uint256"
        },
        {
          "internalType": "uint256",
          "name": "amountAMin",
          "type": "uint256"
        },
        {
          "internalType": "uint256",
          "name": "amountBMin",
          "type": "uint256"
        },
        {
          "internalType": "address",
          "name": "to",
          "type": "address"
        },
        {
          "internalType": "uint256",
          "name": "deadline",
          "type": "uint256"
        },
        {
          "internalType": "uint256",
          "name": "timeLock",
          "type": "uint256"
        },
        {
          "internalType": "uint256",
          "name": "startTime",
          "type": "uint256"
        }
      ],
      "name": "addLiquidity",
      "outputs": [
        {
          "internalType": "uint256",
          "name": "amountA",
          "type": "uint256"
        },
        {
          "internalType": "uint256",
          "name": "amountB",
          "type": "uint256"
        },
        {
          "internalType": "uint256",
          "name": "liquidity",
          "type": "uint256"
        }
      ],
      "stateMutability": "nonpayable",
      "type": "function"
    },
    {
      "inputs": [
        {
          "internalType": "address",
          "name": "token",
          "type": "address"
        },
        {
          "internalType": "uint256",
          "name": "amountTokenDesired",
          "type": "uint256"
        },
        {
          "internalType": "uint256",
          "name": "amountTokenMin",
          "type": "uint256"
        },
        {
          "internalType": "uint256",
          "name": "amountETHMin",
          "type": "uint256"
        },
        {
          "internalType": "address",
          "name": "to",
          "type": "address"
        },
        {
          "internalType": "uint256",
          "name": "deadline",
          "type": "uint256"
        },
        {
          "internalType": "uint256",
          "name": "timeLock",
          "type": "uint256"
        },
        {
          "internalType": "uint256",
          "name": "startTime",
          "type": "uint256"
        }
      ],
      "name": "addLiquidityETH",
      "outputs": [
        {
          "internalType": "uint256",
          "name": "amountToken",
          "type": "uint256"
        },
        {
          "internalType": "uint256",
          "name": "amountETH",
          "type": "uint256"
        },
        {
          "internalType": "uint256",
          "name": "liquidity",
          "type": "uint256"
        }
      ],
      "stateMutability": "payable",
      "type": "function"
    },
    {
      "inputs": [],
      "name": "factory",
      "outputs": [
        {
          "internalType": "address",
          "name": "",
          "type": "address"
        }
      ],
      "stateMutability": "view",
      "type": "function"
    },
    {
      "inputs": [
        {
          "internalType": "uint256",
          "name": "amountIn",
          "type": "uint256"
        },
        {
          "internalType": "address[]",
          "name": "path",
          "type": "address[]"
        }
      ],
      "name": "getAmountsOut",
      "outputs": [
        {
          "internalType": "uint256[]",
          "name": "amounts",
          "type": "uint256[]"
        }
      ],
      "stateMutability": "view",
      "type": "function"
    },
    {
      "inputs": [
        {
          "internalType": "address",
          "name": "token1",
          "type": "address"
        },
        {
          "internalType": "address",
          "name": "token2",
          "type": "address"
        }
      ],
      "name": "getPair",
      "outputs": [
        {
          "internalType": "address",
          "name": "",
          "type": "address"
        }
      ],
      "stateMutability": "view",
      "type": "function"
    },
    {
      "inputs": [
        {
          "internalType": "uint256",
          "name": "amountA",
          "type": "uint256"
        },
        {
          "internalType": "uint256",
          "name": "reserveA",
          "type": "uint256"
        },
        {
          "internalType": "uint256",
          "name": "reserveB",
          "type": "uint256"
        }
      ],
      "name": "quote",
      "outputs": [
        {
          "internalType": "uint256",
          "name": "amountB",
          "type": "uint256"
        }
      ],
      "stateMutability": "pure",
      "type": "function"
    },
    {
      "inputs": [
        {
          "internalType": "address",
          "name": "tokenA",
          "type": "address"
        },
        {
          "internalType": "address",
          "name": "tokenB",
          "type": "address"
        },
        {
          "internalType": "uint256",
          "name": "liquidity",
          "type": "uint256"
        },
        {
          "internalType": "uint256",
          "name": "amountAMin",
          "type": "uint256"
        },
        {
          "internalType": "uint256",
          "name": "amountBMin",
          "type": "uint256"
        },
        {
          "internalType": "address",
          "name": "to",
          "type": "address"
        },
        {
          "internalType": "uint256",
          "name": "deadline",
          "type": "uint256"
        }
      ],
      "name": "removeLiquidity",
      "outputs": [
        {
          "internalType": "uint256",
          "name": "amountA",
          "type": "uint256"
        },
        {
          "internalType": "uint256",
          "name": "amountB",
          "type": "uint256"
        }
      ],
      "stateMutability": "nonpayable",
      "type": "function"
    },
    {
      "inputs": [
        {
          "internalType": "address",
          "name": "token",
          "type": "address"
        },
        {
          "internalType": "uint256",
          "name": "liquidity",
          "type": "uint256"
        },
        {
          "internalType": "uint256",
          "name": "amountTokenMin",
          "type": "uint256"
        },
        {
          "internalType": "uint256",
          "name": "amountETHMin",
          "type": "uint256"
        },
        {
          "internalType": "address",
          "name": "to",
          "type": "address"
        },
        {
          "internalType": "uint256",
          "name": "deadline",
          "type": "uint256"
        }
      ],
      "name": "removeLiquidityETH",
      "outputs": [
        {
          "internalType": "uint256",
          "name": "amountToken",
          "type": "uint256"
        },
        {
          "internalType": "uint256",
          "name": "amountETH",
          "type": "uint256"
        }
      ],
      "stateMutability": "nonpayable",
      "type": "function"
    },
    {
      "inputs": [
        {
          "internalType": "address",
          "name": "token",
          "type": "address"
        },
        {
          "internalType": "uint256",
          "name": "liquidity",
          "type": "uint256"
        },
        {
          "internalType": "uint256",
          "name": "amountTokenMin",
          "type": "uint256"
        },
        {
          "internalType": "uint256",
          "name": "amountETHMin",
          "type": "uint256"
        },
        {
          "internalType": "address",
          "name": "to",
          "type": "address"
        },
        {
          "internalType": "uint256",
          "name": "deadline",
          "type": "uint256"
        }
      ],
      "name": "removeLiquidityETHSupportingFeeOnTransferTokens",
      "outputs": [
        {
          "internalType": "uint256",
          "name": "amountETH",
          "type": "uint256"
        }
      ],
      "stateMutability": "nonpayable",
      "type": "function"
    },
    {
      "inputs": [
        {
          "internalType": "address",
          "name": "token",
          "type": "address"
        },
        {
          "internalType": "uint256",
          "name": "liquidity",
          "type": "uint256"
        },
        {
          "internalType": "uint256",
          "name": "amountTokenMin",
          "type": "uint256"
        },
        {
          "internalType": "uint256",
          "name": "amountETHMin",
          "type": "uint256"
        },
        {
          "internalType": "address",
          "name": "to",
          "type": "address"
        },
        {
          "internalType": "uint256",
          "name": "deadline",
          "type": "uint256"
        },
        {
          "internalType": "bool",
          "name": "approveMax",
          "type": "bool"
        },
        {
          "internalType": "uint8",
          "name": "v",
          "type": "uint8"
        },
        {
          "internalType": "bytes32",
          "name": "r",
          "type": "bytes32"
        },
        {
          "internalType": "bytes32",
          "name": "s",
          "type": "bytes32"
        }
      ],
      "name": "removeLiquidityETHWithPermit",
      "outputs": [
        {
          "internalType": "uint256",
          "name": "amountToken",
          "type": "uint256"
        },
        {
          "internalType": "uint256",
          "name": "amountETH",
          "type": "uint256"
        }
      ],
      "stateMutability": "nonpayable",
      "type": "function"
    },
    {
      "inputs": [
        {
          "internalType": "address",
          "name": "token",
          "type": "address"
        },
        {
          "internalType": "uint256",
          "name": "liquidity",
          "type": "uint256"
        },
        {
          "internalType": "uint256",
          "name": "amountTokenMin",
          "type": "uint256"
        },
        {
          "internalType": "uint256",
          "name": "amountETHMin",
          "type": "uint256"
        },
        {
          "internalType": "address",
          "name": "to",
          "type": "address"
        },
        {
          "internalType": "uint256",
          "name": "deadline",
          "type": "uint256"
        },
        {
          "internalType": "bool",
          "name": "approveMax",
          "type": "bool"
        },
        {
          "internalType": "uint8",
          "name": "v",
          "type": "uint8"
        },
        {
          "internalType": "bytes32",
          "name": "r",
          "type": "bytes32"
        },
        {
          "internalType": "bytes32",
          "name": "s",
          "type": "bytes32"
        }
      ],
      "name": "removeLiquidityETHWithPermitSupportingFeeOnTransferTokens",
      "outputs": [
        {
          "internalType": "uint256",
          "name": "amountETH",
          "type": "uint256"
        }
      ],
      "stateMutability": "nonpayable",
      "type": "function"
    },
    {
      "inputs": [
        {
          "internalType": "address",
          "name": "tokenA",
          "type": "address"
        },
        {
          "internalType": "address",
          "name": "tokenB",
          "type": "address"
        },
        {
          "internalType": "uint256",
          "name": "liquidity",
          "type": "uint256"
        },
        {
          "internalType": "uint256",
          "name": "amountAMin",
          "type": "uint256"
        },
        {
          "internalType": "uint256",
          "name": "amountBMin",
          "type": "uint256"
        },
        {
          "internalType": "address",
          "name": "to",
          "type": "address"
        },
        {
          "internalType": "uint256",
          "name": "deadline",
          "type": "uint256"
        },
        {
          "internalType": "bool",
          "name": "approveMax",
          "type": "bool"
        },
        {
          "internalType": "uint8",
          "name": "v",
          "type": "uint8"
        },
        {
          "internalType": "bytes32",
          "name": "r",
          "type": "bytes32"
        },
        {
          "internalType": "bytes32",
          "name": "s",
          "type": "bytes32"
        }
      ],
      "name": "removeLiquidityWithPermit",
      "outputs": [
        {
          "internalType": "uint256",
          "name": "amountA",
          "type": "uint256"
        },
        {
          "internalType": "uint256",
          "name": "amountB",
          "type": "uint256"
        }
      ],
      "stateMutability": "nonpayable",
      "type": "function"
    },
    {
      "inputs": [
        {
          "internalType": "uint256",
          "name": "amountOutMin",
          "type": "uint256"
        },
        {
          "internalType": "address[]",
          "name": "path",
          "type": "address[]"
        },
        {
          "internalType": "address",
          "name": "to",
          "type": "address"
        },
        {
          "internalType": "address",
          "name": "referrer",
          "type": "address"
        },
        {
          "internalType": "uint256",
          "name": "deadline",
          "type": "uint256"
        }
      ],
      "name": "swapExactETHForTokensSupportingFeeOnTransferTokens",
      "outputs": [],
      "stateMutability": "payable",
      "type": "function"
    },
    {
      "inputs": [
        {
          "internalType": "uint256",
          "name": "amountIn",
          "type": "uint256"
        },
        {
          "internalType": "uint256",
          "name": "amountOutMin",
          "type": "uint256"
        },
        {
          "internalType": "address[]",
          "name": "path",
          "type": "address[]"
        },
        {
          "internalType": "address",
          "name": "to",
          "type": "address"
        },
        {
          "internalType": "address",
          "name": "referrer",
          "type": "address"
        },
        {
          "internalType": "uint256",
          "name": "deadline",
          "type": "uint256"
        }
      ],
      "name": "swapExactTokensForETHSupportingFeeOnTransferTokens",
      "outputs": [],
      "stateMutability": "nonpayable",
      "type": "function"
    },
    {
      "inputs": [
        {
          "internalType": "uint256",
          "name": "amountIn",
          "type": "uint256"
        },
        {
          "internalType": "uint256",
          "name": "amountOutMin",
          "type": "uint256"
        },
        {
          "internalType": "address[]",
          "name": "path",
          "type": "address[]"
        },
        {
          "internalType": "address",
          "name": "to",
          "type": "address"
        },
        {
          "internalType": "address",
          "name": "referrer",
          "type": "address"
        },
        {
          "internalType": "uint256",
          "name": "deadline",
          "type": "uint256"
        }
      ],
      "name": "swapExactTokensForTokensSupportingFeeOnTransferTokens",
      "outputs": [],
      "stateMutability": "nonpayable",
      "type": "function"
    },
    {
      "stateMutability": "payable",
      "type": "receive"
    }
  ],
  "bytecode": "0x60c0346200010e57601f62002ff438819003918201601f19168301916001600160401b03831184841017620001135780849260409485528339810103126200010e576200005a6020620000528362000129565b920162000129565b9060805260a052604051612eb590816200013f823960805181818161019d0152818161028d015281816102e901528181610691015281816108e001528181610952015281816110ff0152818161140b015281816115fc0152818161186201528181611eda015281816123450152612781015260a05181818160280152818161030b01528181610bc801528181610ed2015281816110dd015281816111fa015281816113c20152818161183601526123190152f35b600080fd5b634e487b7160e01b600052604160045260246000fd5b51906001600160a01b03821682036200010e5756fe60806040815260a0604052600480361015610058575b5050361561002257600080fd5b610056337f00000000000000000000000000000000000000000000000000000000000000006001600160a01b031614611bf5565b005b600091823560e01c806302751cec1461180c5780632195995c146115a9578063443146721461138157806352aa4c22146111b45780635b0d5984146110ba578063ac3893ba14610f01578063ad5c464814610ebc578063ad615dec14610e94578063af2979eb14610e6a578063b4822be314610b4a578063baa2abde1461090f578063c45a0155146108ca578063d06ca61f14610655578063ded9382a146102c7578063e6a43905146102615763f3b790cd146101155750610015565b3461025d5761014036600319011261025d5761012f611a7e565b92610138611a94565b6001600160a01b039390929060c43585811690819003610244576024602092856101d39861016a4260e4351015611c12565b61018c61012435610104358d60a435908d608435916064359160443591611ed0565b8c8b6101cc839f859f959e6101c1917f0000000000000000000000000000000000000000000000000000000000000000612c1e565b9d8e80943390611d02565b3390611d02565b86515198899586946335313c2160e11b8652850152165af19182156102515791610217575b51519283526020830193909352506040810191909152606090f35b0390f35b90506020823d8211610249575b8161023160209383611c88565b81010312610244576102139151906101f8565b600080fd5b3d9150610224565b905151903d90823e3d90fd5b8280fd5b8382346102c35780513660031901126102c3576020906102b1610282611a7e565b61028a611a94565b907f0000000000000000000000000000000000000000000000000000000000000000612c1e565b9051516001600160a01b039091168152f35b5080fd5b508290346102c357816102d936611b8f565b90889d979a9699949291989395987f0000000000000000000000000000000000000000000000000000000000000000947f000000000000000000000000000000000000000000000000000000000000000097610336898989612c1e565b99501561064f5750600019905b6001600160a01b0398891692833b1561064b57918f8f61038182969489968f935151998a988997889663d505accf60e01b88523090339089016122c8565b03925af1801561064057918c85928794610620575b5050926103b16103b6944211156103ac81611c12565b611c12565b612c1e565b885151633331daeb60e01b8152602097918581169189818981865afa908115610615578d916105e8575b5042106105ac578a51516323b872dd60e01b8152338882019081526001600160a01b039092166020830152604082019d909d529a9b999a9899979896978c978a908290819060600103818b865af180156105a157610574575b508a6024815151809e819363226bf2d160e21b8352308b84015251945af19a8b15610569578690879c61052c575b508261049d9c9289928761047e886104aa98612b57565b50168884161460001461051d57906104a5919e8f959d5b861015611e1c565b8c1015611e76565b6121e5565b1690813b1561025d578560248492838a51519586948593632e1a7d4d60e01b85528401525af1801561051257908592916104f7575b50506104ea9161214a565b8251519384528301525190f35b81925061050390611c5e565b61050f578084916104df565b80fd5b8651513d84823e3d90fd5b93906104a5919e8f959d610495565b9b505089513d8111610562575b610543818d611c88565b8b8b51918101031261055e578a519a8801519a6104aa610467565b8580fd5b503d610539565b8a51513d88823e3d90fd5b610593908a3d8c1161059a575b61058b8183611c88565b810190611cea565b508c610439565b503d610581565b8c51513d8a823e3d90fd5b8a515162461bcd60e51b81528088018a905260216024820152600080516020612e608339815191526044820152604b60f81b6064820152608490fd5b90508981813d831161060e575b6105ff8183611c88565b8101031261024457518e6103e0565b503d6105f5565b8c51513d8f823e3d90fd5b90925061062e919350611c5e565b61063c578284918c8f610396565b8a80fd5b8b51513d8e823e3d90fd5b8f80fd5b90610343565b503461025d57805136600319011261025d57602491823567ffffffffffffffff81116108c6579361068d6106b8949536908401611b00565b94907f0000000000000000000000000000000000000000000000000000000000000000953691612641565b906002825110610883578151926106e76106d185612629565b946106df8751519687611c88565b808652612629565b9560209384860197601f190136893785511561086f5782358852835b8151600019810190811161085d5781101561081c576001600160a01b038061072b838561270d565b511690600183019182841161080a57818061075a8b9386956107516107a299988b61270d565b5116908a612c1e565b16610765858d61270d565b5191610771868961270d565b518e51516378a051ad60e11b81528b810194855291166001600160a01b031660208401529586928391829160400190565b03915afa9283156107ff5787936107ce575b50916107c36107c9938a61270d565b526126fe565b610703565b92508783813d83116107f8575b6107e58183611c88565b81010312610244579151916107c36107b4565b503d6107db565b8a51513d89823e3d90fd5b634e487b7160e01b8852601187528c88fd5b875151868152875181880181905289518291908201908c908a8a5b82811061084657505050500390f35b835185528695509381019392810192600101610837565b634e487b7160e01b8652601185528a86fd5b88603284634e487b7160e01b600052526000fd5b83515162461bcd60e51b8152602081850152601e818801527f556e697377617056324c6962726172793a20494e56414c49445f5041544800006044820152606490fd5b8480fd5b8382346102c357816003193601126102c35751517f00000000000000000000000000000000000000000000000000000000000000006001600160a01b03168152602090f35b50823461050f5760e036600319011261050f5761092a611a7e565b92610933611a94565b9361093c611aaa565b9161094b4260c4351015611c12565b61097686837f0000000000000000000000000000000000000000000000000000000000000000612c1e565b855151633331daeb60e01b81526020956001600160a01b039390928481169288818481875afa908115610b3f578591610b12575b504210610ad6578851516323b872dd60e01b8152338382019081526001600160a01b039092166020830152604435604083015290889082908190606001038187875af18015610acb57610aae575b50838851519663226bf2d160e21b8852169086015284602481848a51945af1968715610aa15781948298610a67575b5090610a34839285612b57565b50905016911614600014610a615792905b610a53606435851015611e1c565b6104ea608435831015611e76565b90610a45565b9450965085513d8111610a9a575b610a7f8186611c88565b848751918101031261050f5783519385015196610a34610a27565b503d610a75565b50855151903d90823e3d90fd5b610ac490883d8a1161059a5761058b8183611c88565b50896109f8565b8951513d86823e3d90fd5b88515162461bcd60e51b815280830189905260216024820152600080516020612e608339815191526044820152604b60f81b6064820152608490fd5b90508881813d8311610b38575b610b298183611c88565b8101031261024457518b6109aa565b503d610b1f565b8a51513d87823e3d90fd5b50919060a03660031901126102c357602492833567ffffffffffffffff8111610e6657610b7a9036908401611b00565b6001600160a01b039360443592909185841691908285036102445760643591878316830361024457610bb0426084351015611c12565b8115610e54579081610bf2610bc68a9594612615565b7f000000000000000000000000000000000000000000000000000000000000000086169a168a14612ab9565b883b15610e4557875151630d0e30db60e41b81528a818881348e5af18015610e4957908b91610e31575b5050610c2781612615565b988a8360011015610e1f579987610c82928b610c4f9b9c9d60209c8d9561028a878a01612615565b91515163a9059cbb60e01b81526001600160a01b0390921693820193845234602085015290948593849291839160400190565b03925af1908115610e145790610c9f918c91610df7575b50611bf5565b600019820192828411610de5579282828897958e8b8f9c9b99968f90610cd0610ccb89869c8c946125ef565b612615565b16905151928380928c6370a0823160e01b9e8f84528301525afa9b8c15610dd9579b610d9a575b5091610d219391610d1c610ccb948c9d9e610d179d9b9c9d368686612641565b61277f565b6125ef565b169388515194859384928352878301525afa928315610d8f578693610d5d575b5050610d5992610d52913592612b05565b101561269f565b5151f35b9080929350813d8311610d88575b610d758183611c88565b8101031261024457519082610d52610d41565b503d610d6b565b8551513d88823e3d90fd5b9391979899809b5084819492943d8311610dd2575b610db98183611c88565b8101031261024457925199989796909291610d21610cf7565b503d610daf565b8e5151903d90823e3d90fd5b634e487b7160e01b8b52601187528b8bfd5b610e0e9150893d8b1161059a5761058b8183611c88565b38610c99565b8a51513d8d823e3d90fd5b634e487b7160e01b8152603288528c90fd5b610e3a90611c5e565b610e45578938610c1c565b8980fd5b8951513d8d823e3d90fd5b634e487b7160e01b8952603285528989fd5b8380fd5b8382346102c357602090610e8c610e8036611ac0565b94939093929192612304565b905151908152f35b50823461050f57606036600319011261050f5750610e8c602092604435906024359035612d03565b8382346102c357816003193601126102c35751517f00000000000000000000000000000000000000000000000000000000000000006001600160a01b03168152602090f35b508290346102c357610f24610f1536611b31565b96909392919496421115611c12565b80156110a757610f3382612615565b94610f3d83612615565b9582600110156110945790610f6591610f5d60209861028a8a8801612615565b903390611d02565b60001981019181831161108157889695948a94859491936001600160a01b0393909184610f96610ccb8686866125ef565b16958c51518a816024816370a0823160e01b9b8c82528b87169e8f908301525afa9c8d15610dd9579c611041575b509360249593610fe493610d1c610ccb948d9b9a98610d17368686612641565b16895151958694859384528301525afa918215610d8f578692611011575b5050610d5992610d5291612b05565b90809250813d831161103a575b6110288183611c88565b81010312610244575182610d52611002565b503d61101e565b929593979694909b508983813d831161107a575b61105f8183611c88565b810103126102445791519a9596939592949193926024610fc4565b503d611055565b634e487b7160e01b895260118a52602489fd5b634e487b7160e01b8a5260328b5260248afd5b634e487b7160e01b885260328952602488fd5b50903461025d576110ca36611b8f565b6111239c959a919392949c9996999897987f0000000000000000000000000000000000000000000000000000000000000000887f0000000000000000000000000000000000000000000000000000000000000000612c1e565b92156111ad57600019925b6001600160a01b031693843b156111a95786949261116a8f95938f9388945151998a988997889663d505accf60e01b88523090339089016122c8565b03925af1801561119e5761118a575b602088610e8c8b8a8a8a8a8a612304565b6111948291611c5e565b61050f5780611179565b8851513d84823e3d90fd5b8680fd5b879261112e565b50903461025d576111d66111c736611b31565b97949690939197421115611c12565b600019820182811161136e57610ccb6111f09184846125ef565b6001600160a01b037f00000000000000000000000000000000000000000000000000000000000000008116969161122991168714612ab9565b821561135b5761123882612615565b61124183612615565b8460011015611348579261126b6112749593610d1793610f5d8f9b9a999761028a60208701612615565b30923691612641565b8551516370a0823160e01b8152308282015293602085602481865afa94851561133d578495611304575b506112ab9085101561269f565b813b1561025d578360248492838951519586948593632e1a7d4d60e01b85528401525af180156112f9576112e5575b5050610d599161214a565b6112ee90611c5e565b610e665783386112da565b8551513d84823e3d90fd5b935093506020833d8211611335575b8161132060209383611c88565b81010312610244576112ab879351949061129e565b3d9150611313565b8751513d86823e3d90fd5b634e487b7160e01b8c526032875260248cfd5b634e487b7160e01b8a526032855260248afd5b634e487b7160e01b8a526011855260248afd5b509161010036600319011261050f57611398611a7e565b6001600160a01b039390919060843585811690819003610244576113c04260a4351015611c12565b7f000000000000000000000000000000000000000000000000000000000000000094866113fd60e43560c435606435604435346024358d8d611ed0565b9890976114388961142f838b7f0000000000000000000000000000000000000000000000000000000000000000612c1e565b809a3390611d02565b16803b1561055e57845151630d0e30db60e41b8152868185818d865af1801561157f578a9594939291889161158a575b505085515163a9059cbb60e01b81526001600160a01b0389168482019081526020818101979097529091869183919082908b90829060400103925af190811561157f576024926114c3879695938a9384916115685750611bf5565b875151998a9586946335313c2160e11b8652850152165af192831561155c579261152a575b506102139250843411611512575b5151938493846040919493926060820195825260208201520152565b61152561151f8634612127565b3361214a565b6114f6565b90915082813d8311611555575b6115418183611c88565b8101031261024457610213915190386114e8565b503d611537565b825151903d90823e3d90fd5b610e0e9150883d8a1161059a5761058b8183611c88565b8651513d89823e3d90fd5b61159991929394959650611c5e565b61055e5790889392918638611468565b50903461025d5761016036600319011261025d576115c5611a7e565b926115ce611a94565b936044356115da611aaa565b9260c4359060e4359283151584036102c3576101043560ff8116810361025d577f0000000000000000000000000000000000000000000000000000000000000000906116278b8884612c1e565b951561180557600019905b6001600160a01b0396871690813b1561055e5785918b9183898f6116789051519788968795869463d505accf60e01b8652610144359361012435933090339089016122c8565b03925af180156117fa579187918c936117e1575b506103b161169e949596421115611c12565b958387169188515197633331daeb60e01b895260209889818581885afa9081156117d65786916117a9575b50421061176d578951516323b872dd60e01b8152338482019081526001600160a01b0390921660208301526040820192909252889082908190606001038187875af18015610acb576117505750838851519663226bf2d160e21b8852169086015284602481848a51945af1968715610aa15781948298610a67575090610a34839285612b57565b61176690883d8a1161059a5761058b8183611c88565b50386109f8565b89515162461bcd60e51b81528084018a905260216024820152600080516020612e608339815191526044820152604b60f81b6064820152608490fd5b90508981813d83116117cf575b6117c08183611c88565b810103126102445751386116c9565b503d6117b6565b8b51513d88823e3d90fd5b61169e94956117f26103b192611c5e565b95945061168c565b8a51513d86823e3d90fd5b8290611632565b50903461025d5761181c36611ac0565b95929594909391944211159061183182611c12565b61185b7f000000000000000000000000000000000000000000000000000000000000000092611c12565b61188682827f0000000000000000000000000000000000000000000000000000000000000000612c1e565b885151633331daeb60e01b81526020976001600160a01b03959092868116928d908b818b81885afa918215610dd95791611a4d575b504210611a11578b51516323b872dd60e01b8152338982019081526001600160a01b03909216602083015260408201929092528c969594939291908a908290819060600103818a865af18015611a06576119e9575b508a6024815151809e819363226bf2d160e21b8352308c84015251945af19a8b15610b3f578590869c6119b0575b508261049d9c9289928761047e8861195598612b57565b1691823b156102c3578560248392838a51519687948593632e1a7d4d60e01b85528401525af19081156119a457509184916104ea93611995575b5061214a565b61199e90611c5e565b3861198f565b865151903d90823e3d90fd5b9b505089513d81116119e2575b6119c7818d611c88565b8b8b5191810103126108c6578a519a8801519a61195561193e565b503d6119bd565b6119ff908a3d8c1161059a5761058b8183611c88565b5038611910565b8c51513d89823e3d90fd5b8b515162461bcd60e51b81528089018b905260216024820152600080516020612e608339815191526044820152604b60f81b6064820152608490fd5b90508a81813d8311611a77575b611a648183611c88565b81010312611a735751386118bb565b8d80fd5b503d611a5a565b600435906001600160a01b038216820361024457565b602435906001600160a01b038216820361024457565b60a435906001600160a01b038216820361024457565b60c0906003190112610244576001600160a01b03600435818116810361024457916024359160443591606435916084359081168103610244579060a43590565b9181601f840112156102445782359167ffffffffffffffff8311610244576020808501948460051b01011161024457565b60c06003198201126102445760043591602435916044359067ffffffffffffffff821161024457611b6491600401611b00565b90916001600160a01b0390606435828116810361024457916084359081168103610244579060a43590565b610140906003190112610244576001600160a01b03600435818116810361024457916024359160443591606435916084359081168103610244579060a4359060c4358015158103610244579060e43560ff81168103610244579061010435906101243590565b15611bfc57565b634e487b7160e01b600052600160045260246000fd5b15611c1957565b60405162461bcd60e51b815260206004820152601760248201527f466c617368706164526f757465723a20455850495245440000000000000000006044820152606490fd5b67ffffffffffffffff8111611c7257604052565b634e487b7160e01b600052604160045260246000fd5b90601f8019910116810190811067ffffffffffffffff821117611c7257604052565b3d15611ce5573d9067ffffffffffffffff8211611c725760405191611cd9601f8201601f191660200184611c88565b82523d6000602084013e565b606090565b90816020910312610244575180151581036102445790565b6040516323b872dd60e01b602082019081526001600160a01b0393841660248301529390921660448301526064820193909352600092839290918390611d5581608481015b03601f198101835282611c88565b51925af1611d61611caa565b81611dce575b5015611d6f57565b60405162461bcd60e51b815260206004820152603160248201527f5472616e7366657248656c7065723a3a7472616e7366657246726f6d3a207472604482015270185b9cd9995c919c9bdb4819985a5b1959607a1b6064820152608490fd5b8051801592508215611de3575b505038611d67565b611df69250602080918301019101611cea565b3880611ddb565b9081602091031261024457516001600160a01b03811681036102445790565b15611e2357565b60405162461bcd60e51b815260206004820152602560248201527f466c617368706164526f757465723a20494e53554646494349454e545f415f416044820152641353d5539560da1b6064820152608490fd5b15611e7d57565b60405162461bcd60e51b815260206004820152602560248201527f466c617368706164526f757465723a20494e53554646494349454e545f425f416044820152641353d5539560da1b6064820152608490fd5b96909493929591967f00000000000000000000000000000000000000000000000000000000000000009560018060a01b03918288169360409586519163e6a4390560e01b835285841696876004850152868616918260248601526020948581604481865afa90811561211c579189809897969594928c946000916120ff575b50161561206b575b50505050505090611f788383611f71600496608096612b57565b509b612c1e565b16855192838092630240bc6b60e21b82525afa9384156120615750600090819461202c575b506001600160701b038091169316951614600014612026575b80158061201e575b15611fcb57505050509091565b611fda84828897959697612d03565b94838611611ff65750505050611ff290821015611e76565b9091565b839550611ff294509061200d916120169394612d03565b94851115611bf5565b831015611e1c565b508315611fbe565b92611fb6565b905061205091935060803d811161205a575b6120488183611c88565b810190612744565b5050929038611f9d565b503d61203e565b513d6000823e3d90fd5b85969750608492916000918d97969751978896879563035f962d60e01b875260048701526024860152604485015260648401525af180156120f457936080938693611f78936004976120c6575b8397839697508a9250611f57565b816120e592903d106120ed575b6120dd8183611c88565b810190611dfd565b5038806120b8565b503d6120d3565b87513d6000823e3d90fd5b6121169150883d8a116120ed576120dd8183611c88565b38611f4f565b8b513d6000823e3d90fd5b9190820391821161213457565b634e487b7160e01b600052601160045260246000fd5b6040516020810181811067ffffffffffffffff821117611c7257600093849384809484604052525af161217b611caa565b501561218357565b60405162461bcd60e51b815260206004820152603460248201527f5472616e7366657248656c7065723a3a736166655472616e736665724554483a60448201527308115512081d1c985b9cd9995c8819985a5b195960621b6064820152608490fd5b60405163a9059cbb60e01b602082019081526001600160a01b039093166024820152604481019390935260009283929083906122248160648101611d47565b51925af1612230611caa565b81612299575b501561223e57565b60405162461bcd60e51b815260206004820152602d60248201527f5472616e7366657248656c7065723a3a736166655472616e736665723a20747260448201526c185b9cd9995c8819985a5b1959609a1b6064820152608490fd5b80518015925082156122ae575b505038612236565b6122c19250602080918301019101611cea565b38806122a6565b9360ff929897969360c0969260e087019a60018060a01b0380921688521660208701526040860152606085015216608083015260a08201520152565b9092919442111561231481611c12565b61233e7f000000000000000000000000000000000000000000000000000000000000000091611c12565b61236981837f0000000000000000000000000000000000000000000000000000000000000000612c1e565b60408051633331daeb60e01b815260049691956001600160a01b039593602093919287821692919085818c81875afa9081156125e4576000916125b7575b50421061257c5788516323b872dd60e01b815233818c019081526001600160a01b039092166020830152604082019290925284908290819060600103816000865af180156125715791889160009493612554575b50815163226bf2d160e21b8152308b82015293849160249183915af1998a156120f457600092839b61251e575b506124338686612b57565b5085881693908816840361250b57849261049d60249593612456935b1015611e1c565b87516370a0823160e01b8152308a82015292839182905afa918215612500579088916000936124cd575b505061248b926121e5565b1691823b15610244578460246000928385519687948593632e1a7d4d60e01b85528401525af190811561206157509183916124ca93611995575061214a565b90565b9080939250813d83116124f9575b6124e58183611c88565b8101031261050f5750518661248b38612480565b503d6124db565b86513d6000823e3d90fd5b9a849261049d602495936124569361244f565b92909a508783813d831161254d575b6125378183611c88565b8101031261050f57508282519201519938612428565b503d61252d565b61256a90863d881161059a5761058b8183611c88565b50386123fb565b88513d6000823e3d90fd5b885162461bcd60e51b8152808b0186905260216024820152600080516020612e608339815191526044820152604b60f81b6064820152608490fd5b908682813d83116125dd575b6125cd8183611c88565b8101031261050f575051386123a7565b503d6125c3565b8a513d6000823e3d90fd5b91908110156125ff5760051b0190565b634e487b7160e01b600052603260045260246000fd5b356001600160a01b03811681036102445790565b67ffffffffffffffff8111611c725760051b60200190565b929161264c82612629565b9161265a6040519384611c88565b829481845260208094019160051b810192831161024457905b8282106126805750505050565b81356001600160a01b0381168103610244578152908301908301612673565b156126a657565b60405162461bcd60e51b815260206004820152602a60248201527f466c617368706164526f757465723a20494e53554646494349454e545f4f555460448201526914155517d05353d5539560b21b6064820152608490fd5b60001981146121345760010190565b80518210156125ff5760209160051b010190565b51906001600160701b038216820361024457565b519061ffff8216820361024457565b91908260809103126102445761275982612721565b9161276660208201612721565b916124ca606061277860408501612735565b9301612735565b7f0000000000000000000000000000000000000000000000000000000000000000939290919060005b8351600019810190811161213457811015612ab1576001600160a01b03806127d0838761270d565b51169060018301808411612134576127e982918861270d565b5116916127f68382612b57565b50918061280485848d612c1e565b1691604093845191630240bc6b60e21b835260809660049780858a818a5afa948515612571576000918296612a8b575b5050856001600160701b0380921694168314948515612a81575b50508651936370a0823160e01b8552868986015260209360249585818881885afa9081156125e45790869291600091612a4f575b509061288d91612b05565b89516378a051ad60e11b8152808c019182526001600160a01b0390951660208201528490819060400103818a5afa92831561257157600093612a20575b5015612a1857600091905b8c5160011981019081116129fc578a1015612a105760028a01808b116129fc578f9091878f61290f946129079161270d565b511691612c1e565b905b87519484860186811067ffffffffffffffff8211176129e857895260008652873b1561024457908694939996929189989698519a8b98636e1fdd7f60e01b8a5289015287015216604485015260a060648501528451908160a48601526000955b8287106129cf57505060009450839182869260c492848483850101528c166084830152601f801991011681010301925af19081156120615750906129bb92916129c0575b506126fe565b6127a8565b6129c990611c5e565b386129b5565b86810182015189880160c4015295810195889550612971565b50634e487b7160e01b600090815260418b52fd5b8560118b634e487b7160e01b600052526000fd5b508a90612911565b6000906128d5565b90928482813d8311612a48575b612a378183611c88565b8101031261050f57505191386128ca565b503d612a2d565b919282813d8311612a7a575b612a658183611c88565b8101031261050f57505185919061288d612882565b503d612a5b565b169250388061284e565b612aa693965080919250903d1061205a576120488183611c88565b505093903880612834565b505050509050565b15612ac057565b60405162461bcd60e51b815260206004820152601c60248201527f466c617368706164526f757465723a20494e56414c49445f50415448000000006044820152606490fd5b9190612b119083612127565b918211612b1a57565b60405162461bcd60e51b815260206004820152601560248201527464732d6d6174682d7375622d756e646572666c6f7760581b6044820152606490fd5b90916001600160a01b0391828416838216808214612bcb571015612bc657925b91831615612b8157565b60405162461bcd60e51b815260206004820152601e60248201527f556e697377617056324c6962726172793a205a45524f5f4144445245535300006044820152606490fd5b612b77565b60405162461bcd60e51b815260206004820152602560248201527f556e697377617056324c6962726172793a204944454e544943414c5f41444452604482015264455353455360d81b6064820152608490fd5b91612c2891612b57565b6040929192519260208401906bffffffffffffffffffffffff199283809260601b16835260601b16603485015260288452606084019367ffffffffffffffff9281861084871117611c725760e092866040528251902090608083019560ff60f81b875260601b16608183015260958201527fb7429c44a757df00f37137f101aedbaf19309c941c7dc692903b2423d46fe37a60b582015260558552019083821090821117611c7257604052905190206001600160a01b031690565b8115612ced570490565b634e487b7160e01b600052601260045260246000fd5b8015612e0c5781151580612e03575b15612dad576000928015918215612d70575b505015612d34576124ca91612ce3565b60405162461bcd60e51b815260206004820152601460248201527364732d6d6174682d6d756c2d6f766572666c6f7760601b6044820152606490fd5b809250600094919419048411600116612d995750612d918382029384612ce3565b143880612d24565b634e487b7160e01b81526011600452602490fd5b60405162461bcd60e51b815260206004820152602860248201527f556e697377617056324c6962726172793a20494e53554646494349454e545f4c604482015267495155494449545960c01b6064820152608490fd5b50821515612d12565b60405162461bcd60e51b815260206004820152602560248201527f556e697377617056324c6962726172793a20494e53554646494349454e545f416044820152641353d5539560da1b6064820152608490fdfe466c617368706164526f757465723a20494e56414c49445f54494d455f4c4f43a26469706673582212208d63af852a484b596e607c8775068ccd384bc5714d12133f12a25f1a43b8744f64736f6c63430008100033",
  "linkReferences": {},
  "deployedLinkReferences": {}
}