{
  "_format": "hh-sol-artifact-1",
  "contractName": "FlashToken",
  "sourceName": "contracts/FlashToken.sol",
  "abi": [
    {
      "inputs": [
        {
          "internalType": "uint256",
          "name": "maxSupply_",
          "type": "uint256"
        },
        {
          "internalType": "uint256",
          "name": "initialSupply",
          "type": "uint256"
        },
        {
          "internalType": "uint256",
          "name": "initialEmissionRate",
          "type": "uint256"
        },
        {
          "internalType": "address",
          "name": "treasuryAddress_",
          "type": "address"
        }
      ],
      "stateMutability": "nonpayable",
      "type": "constructor"
    },
    {
      "anonymous": false,
      "inputs": [
        {
          "indexed": false,
          "internalType": "uint256",
          "name": "masterShare",
          "type": "uint256"
        },
        {
          "indexed": false,
          "internalType": "uint256",
          "name": "treasuryShare",
          "type": "uint256"
        }
      ],
      "name": "AllocationsDistributed",
      "type": "event"
    },
    {
      "anonymous": false,
      "inputs": [
        {
          "indexed": true,
          "internalType": "address",
          "name": "owner",
          "type": "address"
        },
        {
          "indexed": true,
          "internalType": "address",
          "name": "spender",
          "type": "address"
        },
        {
          "indexed": false,
          "internalType": "uint256",
          "name": "value",
          "type": "uint256"
        }
      ],
      "name": "Approval",
      "type": "event"
    },
    {
      "anonymous": false,
      "inputs": [
        {
          "indexed": false,
          "internalType": "uint256",
          "name": "amount",
          "type": "uint256"
        }
      ],
      "name": "ClaimMasterRewards",
      "type": "event"
    },
    {
      "anonymous": false,
      "inputs": [
        {
          "indexed": false,
          "internalType": "uint256",
          "name": "startTime",
          "type": "uint256"
        }
      ],
      "name": "InitializeEmissionStart",
      "type": "event"
    },
    {
      "anonymous": false,
      "inputs": [
        {
          "indexed": false,
          "internalType": "address",
          "name": "masterAddress",
          "type": "address"
        }
      ],
      "name": "InitializeMasterAddress",
      "type": "event"
    },
    {
      "anonymous": false,
      "inputs": [
        {
          "indexed": true,
          "internalType": "address",
          "name": "previousOwner",
          "type": "address"
        },
        {
          "indexed": true,
          "internalType": "address",
          "name": "newOwner",
          "type": "address"
        }
      ],
      "name": "OwnershipTransferred",
      "type": "event"
    },
    {
      "anonymous": false,
      "inputs": [
        {
          "indexed": true,
          "internalType": "address",
          "name": "from",
          "type": "address"
        },
        {
          "indexed": true,
          "internalType": "address",
          "name": "to",
          "type": "address"
        },
        {
          "indexed": false,
          "internalType": "uint256",
          "name": "value",
          "type": "uint256"
        }
      ],
      "name": "Transfer",
      "type": "event"
    },
    {
      "anonymous": false,
      "inputs": [
        {
          "indexed": false,
          "internalType": "uint256",
          "name": "farmingAllocation",
          "type": "uint256"
        },
        {
          "indexed": false,
          "internalType": "uint256",
          "name": "treasuryAllocation",
          "type": "uint256"
        }
      ],
      "name": "UpdateAllocations",
      "type": "event"
    },
    {
      "anonymous": false,
      "inputs": [
        {
          "indexed": false,
          "internalType": "uint256",
          "name": "previousEmissionRate",
          "type": "uint256"
        },
        {
          "indexed": false,
          "internalType": "uint256",
          "name": "newEmissionRate",
          "type": "uint256"
        }
      ],
      "name": "UpdateEmissionRate",
      "type": "event"
    },
    {
      "anonymous": false,
      "inputs": [
        {
          "indexed": false,
          "internalType": "uint256",
          "name": "previousMaxSupply",
          "type": "uint256"
        },
        {
          "indexed": false,
          "internalType": "uint256",
          "name": "newMaxSupply",
          "type": "uint256"
        }
      ],
      "name": "UpdateMaxSupply",
      "type": "event"
    },
    {
      "anonymous": false,
      "inputs": [
        {
          "indexed": false,
          "internalType": "address",
          "name": "previousTreasuryAddress",
          "type": "address"
        },
        {
          "indexed": false,
          "internalType": "address",
          "name": "newTreasuryAddress",
          "type": "address"
        }
      ],
      "name": "UpdateTreasuryAddress",
      "type": "event"
    },
    {
      "inputs": [],
      "name": "ALLOCATION_PRECISION",
      "outputs": [
        {
          "internalType": "uint256",
          "name": "",
          "type": "uint256"
        }
      ],
      "stateMutability": "view",
      "type": "function"
    },
    {
      "inputs": [],
      "name": "BURN_ADDRESS",
      "outputs": [
        {
          "internalType": "address",
          "name": "",
          "type": "address"
        }
      ],
      "stateMutability": "view",
      "type": "function"
    },
    {
      "inputs": [],
      "name": "MAX_EMISSION_RATE",
      "outputs": [
        {
          "internalType": "uint256",
          "name": "",
          "type": "uint256"
        }
      ],
      "stateMutability": "view",
      "type": "function"
    },
    {
      "inputs": [],
      "name": "MAX_SUPPLY_LIMIT",
      "outputs": [
        {
          "internalType": "uint256",
          "name": "",
          "type": "uint256"
        }
      ],
      "stateMutability": "view",
      "type": "function"
    },
    {
      "inputs": [
        {
          "internalType": "address",
          "name": "owner",
          "type": "address"
        },
        {
          "internalType": "address",
          "name": "spender",
          "type": "address"
        }
      ],
      "name": "allowance",
      "outputs": [
        {
          "internalType": "uint256",
          "name": "",
          "type": "uint256"
        }
      ],
      "stateMutability": "view",
      "type": "function"
    },
    {
      "inputs": [
        {
          "internalType": "address",
          "name": "spender",
          "type": "address"
        },
        {
          "internalType": "uint256",
          "name": "amount",
          "type": "uint256"
        }
      ],
      "name": "approve",
      "outputs": [
        {
          "internalType": "bool",
          "name": "",
          "type": "bool"
        }
      ],
      "stateMutability": "nonpayable",
      "type": "function"
    },
    {
      "inputs": [
        {
          "internalType": "address",
          "name": "account",
          "type": "address"
        }
      ],
      "name": "balanceOf",
      "outputs": [
        {
          "internalType": "uint256",
          "name": "",
          "type": "uint256"
        }
      ],
      "stateMutability": "view",
      "type": "function"
    },
    {
      "inputs": [
        {
          "internalType": "uint256",
          "name": "amount",
          "type": "uint256"
        }
      ],
      "name": "burn",
      "outputs": [],
      "stateMutability": "nonpayable",
      "type": "function"
    },
    {
      "inputs": [
        {
          "internalType": "uint256",
          "name": "amount",
          "type": "uint256"
        }
      ],
      "name": "claimMasterRewards",
      "outputs": [
        {
          "internalType": "uint256",
          "name": "effectiveAmount",
          "type": "uint256"
        }
      ],
      "stateMutability": "nonpayable",
      "type": "function"
    },
    {
      "inputs": [],
      "name": "decimals",
      "outputs": [
        {
          "internalType": "uint8",
          "name": "",
          "type": "uint8"
        }
      ],
      "stateMutability": "view",
      "type": "function"
    },
    {
      "inputs": [
        {
          "internalType": "address",
          "name": "spender",
          "type": "address"
        },
        {
          "internalType": "uint256",
          "name": "subtractedValue",
          "type": "uint256"
        }
      ],
      "name": "decreaseAllowance",
      "outputs": [
        {
          "internalType": "bool",
          "name": "",
          "type": "bool"
        }
      ],
      "stateMutability": "nonpayable",
      "type": "function"
    },
    {
      "inputs": [],
      "name": "elasticMaxSupply",
      "outputs": [
        {
          "internalType": "uint256",
          "name": "",
          "type": "uint256"
        }
      ],
      "stateMutability": "view",
      "type": "function"
    },
    {
      "inputs": [],
      "name": "emissionRate",
      "outputs": [
        {
          "internalType": "uint256",
          "name": "",
          "type": "uint256"
        }
      ],
      "stateMutability": "view",
      "type": "function"
    },
    {
      "inputs": [],
      "name": "emitAllocations",
      "outputs": [],
      "stateMutability": "nonpayable",
      "type": "function"
    },
    {
      "inputs": [],
      "name": "farmingAllocation",
      "outputs": [
        {
          "internalType": "uint256",
          "name": "",
          "type": "uint256"
        }
      ],
      "stateMutability": "view",
      "type": "function"
    },
    {
      "inputs": [
        {
          "internalType": "address",
          "name": "spender",
          "type": "address"
        },
        {
          "internalType": "uint256",
          "name": "addedValue",
          "type": "uint256"
        }
      ],
      "name": "increaseAllowance",
      "outputs": [
        {
          "internalType": "bool",
          "name": "",
          "type": "bool"
        }
      ],
      "stateMutability": "nonpayable",
      "type": "function"
    },
    {
      "inputs": [
        {
          "internalType": "uint256",
          "name": "startTime",
          "type": "uint256"
        }
      ],
      "name": "initializeEmissionStart",
      "outputs": [],
      "stateMutability": "nonpayable",
      "type": "function"
    },
    {
      "inputs": [
        {
          "internalType": "address",
          "name": "masterAddress_",
          "type": "address"
        }
      ],
      "name": "initializeMasterAddress",
      "outputs": [],
      "stateMutability": "nonpayable",
      "type": "function"
    },
    {
      "inputs": [],
      "name": "lastEmissionTime",
      "outputs": [
        {
          "internalType": "uint256",
          "name": "",
          "type": "uint256"
        }
      ],
      "stateMutability": "view",
      "type": "function"
    },
    {
      "inputs": [],
      "name": "masterAddress",
      "outputs": [
        {
          "internalType": "address",
          "name": "",
          "type": "address"
        }
      ],
      "stateMutability": "view",
      "type": "function"
    },
    {
      "inputs": [],
      "name": "masterAllocation",
      "outputs": [
        {
          "internalType": "uint256",
          "name": "",
          "type": "uint256"
        }
      ],
      "stateMutability": "view",
      "type": "function"
    },
    {
      "inputs": [],
      "name": "masterEmissionRate",
      "outputs": [
        {
          "internalType": "uint256",
          "name": "",
          "type": "uint256"
        }
      ],
      "stateMutability": "view",
      "type": "function"
    },
    {
      "inputs": [],
      "name": "masterReserve",
      "outputs": [
        {
          "internalType": "uint256",
          "name": "",
          "type": "uint256"
        }
      ],
      "stateMutability": "view",
      "type": "function"
    },
    {
      "inputs": [],
      "name": "name",
      "outputs": [
        {
          "internalType": "string",
          "name": "",
          "type": "string"
        }
      ],
      "stateMutability": "view",
      "type": "function"
    },
    {
      "inputs": [],
      "name": "owner",
      "outputs": [
        {
          "internalType": "address",
          "name": "",
          "type": "address"
        }
      ],
      "stateMutability": "view",
      "type": "function"
    },
    {
      "inputs": [],
      "name": "renounceOwnership",
      "outputs": [],
      "stateMutability": "nonpayable",
      "type": "function"
    },
    {
      "inputs": [],
      "name": "symbol",
      "outputs": [
        {
          "internalType": "string",
          "name": "",
          "type": "string"
        }
      ],
      "stateMutability": "view",
      "type": "function"
    },
    {
      "inputs": [],
      "name": "totalSupply",
      "outputs": [
        {
          "internalType": "uint256",
          "name": "",
          "type": "uint256"
        }
      ],
      "stateMutability": "view",
      "type": "function"
    },
    {
      "inputs": [
        {
          "internalType": "address",
          "name": "to",
          "type": "address"
        },
        {
          "internalType": "uint256",
          "name": "amount",
          "type": "uint256"
        }
      ],
      "name": "transfer",
      "outputs": [
        {
          "internalType": "bool",
          "name": "",
          "type": "bool"
        }
      ],
      "stateMutability": "nonpayable",
      "type": "function"
    },
    {
      "inputs": [
        {
          "internalType": "address",
          "name": "from",
          "type": "address"
        },
        {
          "internalType": "address",
          "name": "to",
          "type": "address"
        },
        {
          "internalType": "uint256",
          "name": "amount",
          "type": "uint256"
        }
      ],
      "name": "transferFrom",
      "outputs": [
        {
          "internalType": "bool",
          "name": "",
          "type": "bool"
        }
      ],
      "stateMutability": "nonpayable",
      "type": "function"
    },
    {
      "inputs": [
        {
          "internalType": "address",
          "name": "newOwner",
          "type": "address"
        }
      ],
      "name": "transferOwnership",
      "outputs": [],
      "stateMutability": "nonpayable",
      "type": "function"
    },
    {
      "inputs": [],
      "name": "treasuryAddress",
      "outputs": [
        {
          "internalType": "address",
          "name": "",
          "type": "address"
        }
      ],
      "stateMutability": "view",
      "type": "function"
    },
    {
      "inputs": [],
      "name": "treasuryAllocation",
      "outputs": [
        {
          "internalType": "uint256",
          "name": "",
          "type": "uint256"
        }
      ],
      "stateMutability": "view",
      "type": "function"
    },
    {
      "inputs": [
        {
          "internalType": "uint256",
          "name": "farmingAllocation_",
          "type": "uint256"
        }
      ],
      "name": "updateAllocations",
      "outputs": [],
      "stateMutability": "nonpayable",
      "type": "function"
    },
    {
      "inputs": [
        {
          "internalType": "uint256",
          "name": "emissionRate_",
          "type": "uint256"
        }
      ],
      "name": "updateEmissionRate",
      "outputs": [],
      "stateMutability": "nonpayable",
      "type": "function"
    },
    {
      "inputs": [
        {
          "internalType": "uint256",
          "name": "maxSupply_",
          "type": "uint256"
        }
      ],
      "name": "updateMaxSupply",
      "outputs": [],
      "stateMutability": "nonpayable",
      "type": "function"
    },
    {
      "inputs": [
        {
          "internalType": "address",
          "name": "treasuryAddress_",
          "type": "address"
        }
      ],
      "name": "updateTreasuryAddress",
      "outputs": [],
      "stateMutability": "nonpayable",
      "type": "function"
    }
  ],
  "bytecode": "0x6080346200060e57601f62001d9c38819003918201601f191683019291906001600160401b03841183851017620004e05781608092849260409687528339810103126200060e57805160208201518383015160609093015190926001600160a01b039283831683036200060e576200007662000613565b600b81526a233630b9b4103a37b5b2b760a91b60208201526200009862000613565b90600582526408c9882a6960db1b60208301526000543360018060a01b0319821617600055863391167f8be0079c531659141344cd1fd0a4f28419497f9722a3daafe3b4186f6b6457e060008b51a38051906001600160401b038211620004e05760045490600182811c9216801562000603575b6020831014620004bf5781601f84931162000591575b50602090601f83116001146200050257600092620004f6575b50508160011b916000199060031b1c1916176004555b8051906001600160401b038211620004e05760055490600182811c92168015620004d5575b6020831014620004bf5781601f84931162000466575b50602090601f8311600114620003db57600092620003cf575b50508160011b916000199060031b1c1916176005555b6032600a5567016345785d8a000082116200038b576a084595161401484a0000008111620003475780851015620003035783831615620002bf576006556007551660018060a01b0319600c541617600c5533156200027b57620002218160035462000633565b600355336000526001602052816000206200023e82825462000633565b9055815190815260007fddf252ad1be2c89b69c2b068fc378daa952ba7f163c4a11628f55a4df523b3ef60203393a3516117449081620006588239f35b815162461bcd60e51b815260206004820152601f60248201527f45524332303a206d696e7420746f20746865207a65726f2061646472657373006044820152606490fd5b855162461bcd60e51b815260206004820152601860248201527f696e76616c6964207472656173757279206164647265737300000000000000006044820152606490fd5b855162461bcd60e51b815260206004820152601660248201527f696e76616c696420696e697469616c20737570706c79000000000000000000006044820152606490fd5b855162461bcd60e51b815260206004820152601960248201527f696e76616c696420696e697469616c206d6178537570706c79000000000000006044820152606490fd5b855162461bcd60e51b815260206004820152601560248201527f696e76616c696420656d697373696f6e207261746500000000000000000000006044820152606490fd5b015190503880620001a5565b600560009081527f036b6384b5eca791c62761152d0c79bb0604c104a5fb6f4eb0703f3154bb3db09350601f198516905b8181106200044d575090846001959493921062000433575b505050811b01600555620001bb565b015160001960f88460031b161c1916905538808062000424565b929360206001819287860151815501950193016200040c565b90915060056000526020600020601f840160051c81019160208510620004b4575b90601f859493920160051c01905b818110620004a457506200018c565b6000815584935060010162000495565b909150819062000487565b634e487b7160e01b600052602260045260246000fd5b91607f169162000176565b634e487b7160e01b600052604160045260246000fd5b0151905038806200013b565b6004600090815293507f8a35acfbc15ff81a39ae7d344fd709f28e8600b4aa8c65c6b64bfe7fe36bd19b91905b601f198416851062000575576001945083601f198116106200055b575b505050811b0160045562000151565b015160001960f88460031b161c191690553880806200054c565b818101518355602094850194600190930192909101906200052f565b60046000529091507f8a35acfbc15ff81a39ae7d344fd709f28e8600b4aa8c65c6b64bfe7fe36bd19b601f840160051c810160208510620005fb575b90849392915b601f830160051c82018110620005eb57505062000122565b60008155859450600101620005d3565b5080620005cd565b91607f16916200010c565b600080fd5b60408051919082016001600160401b03811183821017620004e057604052565b919082018092116200064157565b634e487b7160e01b600052601160045260246000fdfe608060408181526004918236101561001657600080fd5b600092833560e01c9182624fbf6b146111395750816306fdde0314611061578163095ea7b3146110375781630ba84cd214610f7657816318160ddd14610f5757816323b872dd14610e8b57816327dede2d14610e6c578163313ce56714610e505781633950935114610e0057816339eb418914610db557816342966c6814610c8b578163436cc3d614610c68578163439af45e14610c495781634f3147ba14610c29578163617d112614610c0357816367c0f27814610abe57816370a0823114610a86578163715018a614610a2957816378135705146109a0578163841e4561146108d35781638c5624571461080b5781638da5cb5b146107e35781638f88bba31461058257816395d89b41146106c257816396afc450146106a3578163a457c2d7146105fb578163a9059cbb146105ca578163c5f956af146105a1578163c68bb4c514610582578163d365a08e14610559578163dd62ed3e14610510578163e4ef9dce146104f3578163ed424fd0146104d4578163f103b433146103ac578163f2fde38b146102e9578163fc1852fb146101da575063fccc2813146101bb57600080fd5b346101d657816003193601126101d6576020905161dead8152f35b5080fd5b9050346102e55760203660031901126102e5578035906101f86111ce565b60085461027c578142101561023957506020817f10e116be9bb4f621259f592ccd7e00d783e796535f2a5f3bc91a79da0fc3456d926008558351908152a151f35b606490602084519162461bcd60e51b8352820152602060248201527f696e697469616c697a65456d697373696f6e53746172743a20696e76616c69646044820152fd5b608490602084519162461bcd60e51b8352820152603b60248201527f696e697469616c697a65456d697373696f6e53746172743a20656d697373696f60448201527f6e20737461727420616c726561647920696e697469616c697a656400000000006064820152fd5b8280fd5b9050346102e55760203660031901126102e55761030461119d565b61030c6111ce565b6001600160a01b0390811691821561035a575083546001600160a01b0319811683178555925192167f8be0079c531659141344cd1fd0a4f28419497f9722a3daafe3b4186f6b6457e08484a3f35b608490602085519162461bcd60e51b8352820152602660248201527f4f776e61626c653a206e6577206f776e657220697320746865207a65726f206160448201526564647265737360d01b6064820152fd5b9050346102e55760203660031901126102e5578035906103ca6111ce565b600354821061046b576a084595161401484a000000821161041d57507f6a84334bf6663b783f2bbfcaf459b2cbc73570cf346a46d9e6a0f290fcf3ebfc826006548151908152836020820152a160065551f35b608490602084519162461bcd60e51b8352820152602260248201527f7570646174654d6178537570706c793a20696e76616c6964206d6178537570706044820152616c7960f01b6064820152fd5b608490602084519162461bcd60e51b8352820152603f60248201527f7570646174654d6178537570706c793a2063616e2774206265206c6f7765722060448201527f7468616e2063757272656e742063697263756c6174696e6720737570706c79006064820152fd5b5050346101d657816003193601126101d6576020906006549051908152f35b5050346101d657816003193601126101d65761050d6114dd565b51f35b5050346101d657806003193601126101d6578060209261052e61119d565b6105366111b8565b6001600160a01b0391821683526002865283832091168252845220549051908152f35b5050346101d657816003193601126101d657600b5490516001600160a01b039091168152602090f35b5050346101d657816003193601126101d657602090600a549051908152f35b5050346101d657816003193601126101d657600c5490516001600160a01b039091168152602090f35b5050346101d657806003193601126101d6576020906105f46105ea61119d565b6024359033611249565b5160018152f35b905082346106a057826003193601126106a05761061661119d565b918360243592338152600260205281812060018060a01b038616825260205220549082821061064f576020856105f485850387336113c0565b608490602086519162461bcd60e51b8352820152602560248201527f45524332303a2064656372656173656420616c6c6f77616e63652062656c6f77604482015264207a65726f60d81b6064820152fd5b80fd5b5050346101d657816003193601126101d6576020906007549051908152f35b8383346101d657816003193601126101d65780519082600554600181811c908083169283156107d9575b60209384841081146107c6578388529081156107aa5750600114610754575b505050829003601f01601f191682019267ffffffffffffffff841183851017610741575082918261073d925282611154565b0390f35b634e487b7160e01b815260418552602490fd5b600587529192508591837f036b6384b5eca791c62761152d0c79bb0604c104a5fb6f4eb0703f3154bb3db05b838510610796575050505083010185808061070b565b805488860183015293019284908201610780565b60ff1916878501525050151560051b840101905085808061070b565b634e487b7160e01b895260228a52602489fd5b91607f16916106ec565b5050346101d657816003193601126101d657905490516001600160a01b039091168152602090f35b9050346102e55760203660031901126102e5578035906108296111ce565b6108316114dd565b60648211610878575081817fb1bc322c959dd23e6f87515e39a687bed073fbe1e93bd977fe8ecae3852c14ba92600a5561086a816114c2565b82519182526020820152a151f35b608490602084519162461bcd60e51b8352820152602f60248201527f757064617465416c6c6f636174696f6e733a20746f74616c20616c6c6f63617460448201526e0d2dedc40d2e640e8dede40d0d2ced608b1b6064820152fd5b9050346102e55760203660031901126102e5576108ee61119d565b6108f66111ce565b6001600160a01b0390811691821561094e57507f5634a90413b79beba6c5f37aa8f19d1aee84a5320ff20ac7bd1ac63280867d5c83600c549281519084168152846020820152a16001600160a01b03191617600c5551f35b608490602085519162461bcd60e51b8352820152602660248201527f7570646174655472656173757279416464726573733a20696e76616c6964206160448201526564647265737360d01b6064820152fd5b905082346106a05760203660031901126106a05750600b546001600160a01b031633036109db57906109d460209235611692565b9051908152f35b6020608492519162461bcd60e51b83528201526024808201527f466c617368546f6b656e3a2063616c6c6572206973206e6f7420746865206d6160448201526339ba32b960e11b6064820152fd5b5050346101d657816003193601126101d657610a436111ce565b81546001600160a01b03198116835590519082906001600160a01b03167f8be0079c531659141344cd1fd0a4f28419497f9722a3daafe3b4186f6b6457e08284a3f35b5050346101d65760203660031901126101d65760209181906001600160a01b03610aae61119d565b1681526001845220549051908152f35b9050346102e55760203660031901126102e557610ad961119d565b610ae16111ce565b600b54906001600160a01b0390818316610ba45716918215610b3b57506001600160a01b0319168117600b5581519081527fcba13eb1e65d2c1588ce6d10f862f4535cc67855c3f31e3d2732f8fb6b5317b290602090a151f35b608490602085519162461bcd60e51b8352820152603b60248201527f696e697469616c697a654d6173746572416464726573733a206d61737465722060448201527f696e697469616c697a656420746f207a65726f206164647265737300000000006064820152fd5b845162461bcd60e51b8152602081860152603360248201527f696e697469616c697a654d6173746572416464726573733a206d617374657220604482015272185b1c9958591e481a5b9a5d1a585b1a5e9959606a1b6064820152608490fd5b5050346101d657816003193601126101d657602090516a084595161401484a0000008152f35b5050346101d657816003193601126101d6576020906109d4600a546114c2565b5050346101d657816003193601126101d6576020906008549051908152f35b5050346101d657816003193601126101d6576020905167016345785d8a00008152f35b9050346102e55760209081600319360112610db1578035903315610d6057338552600183528385205490828210610d0e575081903386526001845203838520557fddf252ad1be2c89b69c2b068fc378daa952ba7f163c4a11628f55a4df523b3ef61dead92838652848620610d01848254611226565b905584519283523392a351f35b845162461bcd60e51b8152908101849052602660248201527f45524332303a207472616e7366657220616d6f756e7420657863656564732062604482015265616c616e636560d01b6064820152608490fd5b835162461bcd60e51b8152908101839052602560248201527f45524332303a207472616e736665722066726f6d20746865207a65726f206164604482015264647265737360d81b6064820152608490fd5b8380fd5b8284346106a057806003193601126106a05760075491600a54918360001904831184151516610ded5760208460648585519202048152f35b634e487b7160e01b815260118552602490fd5b5050346101d657806003193601126101d6576105f4602092610e49610e2361119d565b338352600286528483206001600160a01b03821684528652918490205460243590611226565b90336113c0565b5050346101d657816003193601126101d6576020905160128152f35b5050346101d657816003193601126101d6576020906009549051908152f35b839150346101d65760603660031901126101d657610ea761119d565b610eaf6111b8565b6001600160a01b03821684526002602090815285852033865290529284902054604435939260018201610eeb575b6020866105f4878787611249565b848210610f145750918391610f09602096956105f4950333836113c0565b919394819350610edd565b606490602087519162461bcd60e51b8352820152601d60248201527f45524332303a20696e73756666696369656e7420616c6c6f77616e63650000006044820152fd5b5050346101d657816003193601126101d6576020906003549051908152f35b9050346102e55760203660031901126102e557803590610f946111ce565b67016345785d8a00008211610fe35750610fac6114dd565b7f16b9091836a63537907593ebc3a80f3528891f3575b10f58ad7dd9c29fd0d44f826007548151908152836020820152a160075551f35b608490602084519162461bcd60e51b8352820152602860248201527f757064617465456d697373696f6e526174653a2063616e277420657863656564604482015267206d6178696d756d60c01b6064820152fd5b5050346101d657806003193601126101d6576020906105f461105761119d565b60243590336113c0565b8383346101d657816003193601126101d657805190828454600181811c9080831692831561112f575b60209384841081146107c6578388529081156107aa57506001146110da57505050829003601f01601f191682019267ffffffffffffffff841183851017610741575082918261073d925282611154565b8787529192508591837f8a35acfbc15ff81a39ae7d344fd709f28e8600b4aa8c65c6b64bfe7fe36bd19b5b83851061111b575050505083010185808061070b565b805488860183015293019284908201611105565b91607f169161108a565b8490346101d657816003193601126101d65780606460209252f35b6020808252825181830181905290939260005b82811061118957505060409293506000838284010152601f8019910116010190565b818101860151848201604001528501611167565b600435906001600160a01b03821682036111b357565b600080fd5b602435906001600160a01b03821682036111b357565b6000546001600160a01b031633036111e257565b606460405162461bcd60e51b815260206004820152602060248201527f4f776e61626c653a2063616c6c6572206973206e6f7420746865206f776e65726044820152fd5b9190820180921161123357565b634e487b7160e01b600052601160045260246000fd5b6001600160a01b0390811691821561136d571691821561131c57600082815260016020526040812054918083106112c857604082827fddf252ad1be2c89b69c2b068fc378daa952ba7f163c4a11628f55a4df523b3ef958760209652600186520382822055868152206112bd828254611226565b9055604051908152a3565b60405162461bcd60e51b815260206004820152602660248201527f45524332303a207472616e7366657220616d6f756e7420657863656564732062604482015265616c616e636560d01b6064820152608490fd5b60405162461bcd60e51b815260206004820152602360248201527f45524332303a207472616e7366657220746f20746865207a65726f206164647260448201526265737360e81b6064820152608490fd5b60405162461bcd60e51b815260206004820152602560248201527f45524332303a207472616e736665722066726f6d20746865207a65726f206164604482015264647265737360d81b6064820152608490fd5b6001600160a01b0390811691821561147157169182156114215760207f8c5be1e5ebec7d5bd14f71427d1e84f3dd0314c0f7b2291e5b200ac8c7c3b925918360005260028252604060002085600052825280604060002055604051908152a3565b60405162461bcd60e51b815260206004820152602260248201527f45524332303a20617070726f766520746f20746865207a65726f206164647265604482015261737360f01b6064820152608490fd5b60405162461bcd60e51b8152602060048201526024808201527f45524332303a20617070726f76652066726f6d20746865207a65726f206164646044820152637265737360e01b6064820152608490fd5b606403906064821161123357565b9190820391821161123357565b60035460085490600654918042118015906115ea575b6115e5578183118015906115db575b6115d25761151090426114d0565b60075460001992918015158185048311166112335702926115318483611226565b81106115bf575b505081600a549104811182151516611233578161157e60646040937f26c155e7637ca49a34c19c7f8cb8533322897de0808134df1a98f7155711168495020480926114d0565b4260085561158e82600954611226565b60095561159b82306115f2565b600c546115b29082906001600160a01b03166115f2565b82519182526020820152a1565b6115ca9293506114d0565b903880611538565b50505042600855565b5060075415611502565b505050565b5080156114f3565b6001600160a01b031690811561164d577fddf252ad1be2c89b69c2b068fc378daa952ba7f163c4a11628f55a4df523b3ef602082611634600094600354611226565b60035584845260018252604084206112bd828254611226565b60405162461bcd60e51b815260206004820152601f60248201527f45524332303a206d696e7420746f20746865207a65726f2061646472657373006044820152606490fd5b9061169b6114dd565b60095491808310156117085750815b8280156117035750826116bc916114d0565b600955600b546116d79083906001600160a01b031630611249565b7f45102e9ef2c4f14fd9f3e8510c4bb2ad67fe498584602f26647da23039f125316020604051848152a1565b925050565b916116aa56fea26469706673582212208222448e417694639777714bd1c252215a1287111eb9b02f0308cc9e00ba5a6e64736f6c63430008100033",
  "linkReferences": {},
  "deployedLinkReferences": {}
}