{
  "_format": "hh-sol-artifact-1",
  "contractName": "Launchpad",
  "sourceName": "contracts/Launchpad.sol",
  "abi": [
    {
      "inputs": [
        {
          "internalType": "contract IXArtToken",
          "name": "xArtToken_",
          "type": "address"
        }
      ],
      "stateMutability": "nonpayable",
      "type": "constructor"
    },
    {
      "anonymous": false,
      "inputs": [
        {
          "indexed": true,
          "internalType": "address",
          "name": "userAddress",
          "type": "address"
        },
        {
          "indexed": false,
          "internalType": "uint256",
          "name": "amount",
          "type": "uint256"
        }
      ],
      "name": "Allocate",
      "type": "event"
    },
    {
      "anonymous": false,
      "inputs": [
        {
          "indexed": true,
          "internalType": "address",
          "name": "owner",
          "type": "address"
        },
        {
          "indexed": true,
          "internalType": "address",
          "name": "spender",
          "type": "address"
        },
        {
          "indexed": false,
          "internalType": "uint256",
          "name": "value",
          "type": "uint256"
        }
      ],
      "name": "Approval",
      "type": "event"
    },
    {
      "anonymous": false,
      "inputs": [
        {
          "indexed": true,
          "internalType": "address",
          "name": "userAddress",
          "type": "address"
        },
        {
          "indexed": false,
          "internalType": "uint256",
          "name": "amount",
          "type": "uint256"
        }
      ],
      "name": "Deallocate",
      "type": "event"
    },
    {
      "anonymous": false,
      "inputs": [
        {
          "indexed": true,
          "internalType": "address",
          "name": "previousOwner",
          "type": "address"
        },
        {
          "indexed": true,
          "internalType": "address",
          "name": "newOwner",
          "type": "address"
        }
      ],
      "name": "OwnershipTransferred",
      "type": "event"
    },
    {
      "anonymous": false,
      "inputs": [
        {
          "indexed": false,
          "internalType": "uint256",
          "name": "id",
          "type": "uint256"
        }
      ],
      "name": "Snapshot",
      "type": "event"
    },
    {
      "anonymous": false,
      "inputs": [
        {
          "indexed": true,
          "internalType": "address",
          "name": "from",
          "type": "address"
        },
        {
          "indexed": true,
          "internalType": "address",
          "name": "to",
          "type": "address"
        },
        {
          "indexed": false,
          "internalType": "uint256",
          "name": "value",
          "type": "uint256"
        }
      ],
      "name": "Transfer",
      "type": "event"
    },
    {
      "anonymous": false,
      "inputs": [
        {
          "indexed": false,
          "internalType": "uint256",
          "name": "newDuration",
          "type": "uint256"
        }
      ],
      "name": "UpdateDeallocationCooldown",
      "type": "event"
    },
    {
      "inputs": [
        {
          "internalType": "address",
          "name": "userAddress",
          "type": "address"
        },
        {
          "internalType": "uint256",
          "name": "amount",
          "type": "uint256"
        },
        {
          "internalType": "bytes",
          "name": "",
          "type": "bytes"
        }
      ],
      "name": "allocate",
      "outputs": [],
      "stateMutability": "nonpayable",
      "type": "function"
    },
    {
      "inputs": [
        {
          "internalType": "address",
          "name": "owner",
          "type": "address"
        },
        {
          "internalType": "address",
          "name": "spender",
          "type": "address"
        }
      ],
      "name": "allowance",
      "outputs": [
        {
          "internalType": "uint256",
          "name": "",
          "type": "uint256"
        }
      ],
      "stateMutability": "view",
      "type": "function"
    },
    {
      "inputs": [
        {
          "internalType": "address",
          "name": "spender",
          "type": "address"
        },
        {
          "internalType": "uint256",
          "name": "amount",
          "type": "uint256"
        }
      ],
      "name": "approve",
      "outputs": [
        {
          "internalType": "bool",
          "name": "",
          "type": "bool"
        }
      ],
      "stateMutability": "nonpayable",
      "type": "function"
    },
    {
      "inputs": [
        {
          "internalType": "address",
          "name": "account",
          "type": "address"
        }
      ],
      "name": "balanceOf",
      "outputs": [
        {
          "internalType": "uint256",
          "name": "",
          "type": "uint256"
        }
      ],
      "stateMutability": "view",
      "type": "function"
    },
    {
      "inputs": [
        {
          "internalType": "address",
          "name": "account",
          "type": "address"
        },
        {
          "internalType": "uint256",
          "name": "snapshotId",
          "type": "uint256"
        }
      ],
      "name": "balanceOfAt",
      "outputs": [
        {
          "internalType": "uint256",
          "name": "",
          "type": "uint256"
        }
      ],
      "stateMutability": "view",
      "type": "function"
    },
    {
      "inputs": [
        {
          "internalType": "address",
          "name": "userAddress",
          "type": "address"
        },
        {
          "internalType": "uint256",
          "name": "amount",
          "type": "uint256"
        },
        {
          "internalType": "bytes",
          "name": "",
          "type": "bytes"
        }
      ],
      "name": "deallocate",
      "outputs": [],
      "stateMutability": "nonpayable",
      "type": "function"
    },
    {
      "inputs": [],
      "name": "deallocationCooldown",
      "outputs": [
        {
          "internalType": "uint256",
          "name": "",
          "type": "uint256"
        }
      ],
      "stateMutability": "view",
      "type": "function"
    },
    {
      "inputs": [],
      "name": "decimals",
      "outputs": [
        {
          "internalType": "uint8",
          "name": "",
          "type": "uint8"
        }
      ],
      "stateMutability": "view",
      "type": "function"
    },
    {
      "inputs": [
        {
          "internalType": "address",
          "name": "spender",
          "type": "address"
        },
        {
          "internalType": "uint256",
          "name": "subtractedValue",
          "type": "uint256"
        }
      ],
      "name": "decreaseAllowance",
      "outputs": [
        {
          "internalType": "bool",
          "name": "",
          "type": "bool"
        }
      ],
      "stateMutability": "nonpayable",
      "type": "function"
    },
    {
      "inputs": [
        {
          "internalType": "address",
          "name": "userAddress",
          "type": "address"
        }
      ],
      "name": "getUserInfo",
      "outputs": [
        {
          "internalType": "uint256",
          "name": "allocation",
          "type": "uint256"
        },
        {
          "internalType": "uint256",
          "name": "allocationTime",
          "type": "uint256"
        }
      ],
      "stateMutability": "view",
      "type": "function"
    },
    {
      "inputs": [
        {
          "internalType": "address",
          "name": "spender",
          "type": "address"
        },
        {
          "internalType": "uint256",
          "name": "addedValue",
          "type": "uint256"
        }
      ],
      "name": "increaseAllowance",
      "outputs": [
        {
          "internalType": "bool",
          "name": "",
          "type": "bool"
        }
      ],
      "stateMutability": "nonpayable",
      "type": "function"
    },
    {
      "inputs": [],
      "name": "name",
      "outputs": [
        {
          "internalType": "string",
          "name": "",
          "type": "string"
        }
      ],
      "stateMutability": "view",
      "type": "function"
    },
    {
      "inputs": [],
      "name": "owner",
      "outputs": [
        {
          "internalType": "address",
          "name": "",
          "type": "address"
        }
      ],
      "stateMutability": "view",
      "type": "function"
    },
    {
      "inputs": [],
      "name": "renounceOwnership",
      "outputs": [],
      "stateMutability": "nonpayable",
      "type": "function"
    },
    {
      "inputs": [],
      "name": "snapshot",
      "outputs": [],
      "stateMutability": "nonpayable",
      "type": "function"
    },
    {
      "inputs": [],
      "name": "symbol",
      "outputs": [
        {
          "internalType": "string",
          "name": "",
          "type": "string"
        }
      ],
      "stateMutability": "view",
      "type": "function"
    },
    {
      "inputs": [],
      "name": "totalAllocation",
      "outputs": [
        {
          "internalType": "uint256",
          "name": "",
          "type": "uint256"
        }
      ],
      "stateMutability": "view",
      "type": "function"
    },
    {
      "inputs": [],
      "name": "totalSupply",
      "outputs": [
        {
          "internalType": "uint256",
          "name": "",
          "type": "uint256"
        }
      ],
      "stateMutability": "view",
      "type": "function"
    },
    {
      "inputs": [
        {
          "internalType": "uint256",
          "name": "snapshotId",
          "type": "uint256"
        }
      ],
      "name": "totalSupplyAt",
      "outputs": [
        {
          "internalType": "uint256",
          "name": "",
          "type": "uint256"
        }
      ],
      "stateMutability": "view",
      "type": "function"
    },
    {
      "inputs": [
        {
          "internalType": "address",
          "name": "to",
          "type": "address"
        },
        {
          "internalType": "uint256",
          "name": "amount",
          "type": "uint256"
        }
      ],
      "name": "transfer",
      "outputs": [
        {
          "internalType": "bool",
          "name": "",
          "type": "bool"
        }
      ],
      "stateMutability": "nonpayable",
      "type": "function"
    },
    {
      "inputs": [
        {
          "internalType": "address",
          "name": "from",
          "type": "address"
        },
        {
          "internalType": "address",
          "name": "to",
          "type": "address"
        },
        {
          "internalType": "uint256",
          "name": "amount",
          "type": "uint256"
        }
      ],
      "name": "transferFrom",
      "outputs": [
        {
          "internalType": "bool",
          "name": "",
          "type": "bool"
        }
      ],
      "stateMutability": "nonpayable",
      "type": "function"
    },
    {
      "inputs": [
        {
          "internalType": "address",
          "name": "newOwner",
          "type": "address"
        }
      ],
      "name": "transferOwnership",
      "outputs": [],
      "stateMutability": "nonpayable",
      "type": "function"
    },
    {
      "inputs": [
        {
          "internalType": "uint256",
          "name": "duration",
          "type": "uint256"
        }
      ],
      "name": "updateDeallocationCooldown",
      "outputs": [],
      "stateMutability": "nonpayable",
      "type": "function"
    },
    {
      "inputs": [
        {
          "internalType": "address",
          "name": "",
          "type": "address"
        }
      ],
      "name": "usersAllocation",
      "outputs": [
        {
          "internalType": "uint256",
          "name": "allocation",
          "type": "uint256"
        },
        {
          "internalType": "uint256",
          "name": "allocationTime",
          "type": "uint256"
        }
      ],
      "stateMutability": "view",
      "type": "function"
    },
    {
      "inputs": [],
      "name": "xArtToken",
      "outputs": [
        {
          "internalType": "contract IXArtToken",
          "name": "",
          "type": "address"
        }
      ],
      "stateMutability": "view",
      "type": "function"
    }
  ],
  "bytecode": "0x60a034620003c057601f19906001600160401b03601f62001a70388190038281018616850184811186821017620003c557859282916040528339602094859181010312620003c05751936001600160a01b038086168603620003c05762000065620003db565b94601886527f417274687572206c61756e6368706164207265636569707400000000000000008187015262000099620003db565b92600d84526c1e11d49052531c9958d95a5c1d609a1b828501526000928354903360018060a01b031983161785553391167f8be0079c531659141344cd1fd0a4f28419497f9722a3daafe3b4186f6b6457e085604051a36001968780558051878111620003ac5760059182548a81811c91168015620003a1575b868210146200038d579081898493116200033c575b508590898311600114620002db578792620002cf575b5050600019600383901b1c191690891b1781555b8451968711620002bb57600654908882811c92168015620002b0575b848310146200029c5786821162000255575b505081948611600114620001ed57505091839491849394620001e1575b50501b916000199060031b1c1916176006555b62278d00600d556080526040516116749081620003fc823960805181818161014b015281816107af0152610c7e0152f35b0151925038806200019d565b600683528183209493928692918316915b888383106200023a575050501062000220575b505050811b01600655620001b0565b015160001960f88460031b161c1916905538808062000211565b858701518855909601959485019487935090810190620001fe565b600685528385209087808a01821c830193868b1062000292575b01901c019088905b82811062000286575062000180565b85815501889062000277565b935082936200026f565b634e487b7160e01b85526022600452602485fd5b91607f16916200016e565b634e487b7160e01b84526041600452602484fd5b0151905038806200013e565b90858c94169185895287892092895b898282106200032557505084116200030b575b505050811b01815562000152565b015160001960f88460031b161c19169055388080620002fd565b8385015186558f97909501949384019301620002ea565b90915083875285872089808501861c82019288861062000383575b918d918695949301871c01915b8281106200037457505062000128565b8981558594508d910162000364565b9250819262000357565b634e487b7160e01b87526022600452602487fd5b90607f169062000113565b634e487b7160e01b85526041600452602485fd5b600080fd5b634e487b7160e01b600052604160045260246000fd5b60408051919082016001600160401b03811183821017620003c55760405256fe608060408181526004918236101561001657600080fd5b600092833560e01c91826306fdde0314610df757508163095ea7b314610dcd57816318160ddd14610daf5781631c75e36914610c4857816323b872dd14610ab3578163313ce56714610a975781633950935114610a475781634ee2cd7e146109e9578163549230c91461077b5781635a6d56d51461072e5781636386c1c71461028e57816370a08231146106f6578163715018a61461069957816379203dc41461067a5781638da5cb5b1461065257816395d89b41146105315781639711715a146104e1578163981b24d0146104a7578163a457c2d7146103fb578163a9059cbb146102ef578163b82d0cba146102d0578163c4d3e0831461028e578163dd62ed3e14610245578163f2fde38b1461017e575063fa07269a1461013857600080fd5b3461017a578160031936011261017a57517f00000000000000000000000000000000000000000000000000000000000000006001600160a01b03168152602090f35b5080fd5b90503461024157602036600319011261024157610199610f18565b6101a1610fab565b6001600160a01b039081169182156101ef575083546001600160a01b0319811683178555925192167f8be0079c531659141344cd1fd0a4f28419497f9722a3daafe3b4186f6b6457e08484a3f35b608490602085519162461bcd60e51b8352820152602660248201527f4f776e61626c653a206e6577206f776e657220697320746865207a65726f206160448201526564647265737360d01b6064820152fd5b8280fd5b50503461017a578060031936011261017a5780602092610263610f18565b61026b610f33565b6001600160a01b0391821683526003865283832091168252845220549051908152f35b50503461017a57602036600319011261017a579081906001600160a01b036102b4610f18565b168152600b602052206001815491015482519182526020820152f35b50503461017a578160031936011261017a57602090600d549051908152f35b905082346103f857826003193601126103f8575061030b610f18565b33156103a7576001600160a01b031615610359576020606492519162461bcd60e51b835282015260156024820152741d1c985b9cd9995c8e881b9bdd08185b1b1bddd959605a1b6044820152fd5b6020608492519162461bcd60e51b8352820152602360248201527f45524332303a207472616e7366657220746f20746865207a65726f206164647260448201526265737360e81b6064820152fd5b506020608492519162461bcd60e51b8352820152602560248201527f45524332303a207472616e736665722066726f6d20746865207a65726f206164604482015264647265737360d81b6064820152fd5b80fd5b905082346103f857826003193601126103f857610416610f18565b918360243592338152600360205281812060018060a01b03861682526020522054908282106104565760208561044f8585038733611026565b5160018152f35b608490602086519162461bcd60e51b8352820152602560248201527f45524332303a2064656372656173656420616c6c6f77616e63652062656c6f77604482015264207a65726f60d81b6064820152fd5b9050346102415760203660031901126102415791826104c8602094356111c4565b9250156104d85750905b51908152f35b905054906104d2565b50503461017a578160031936011261017a576104fb610fab565b7f8030e83b04d87bef53480e26263266d6ca66863aa8506aca6f2559d18aa1cb6760206001600a540180600a558351908152a151f35b83833461017a578160031936011261017a5780519082600654600181811c90808316928315610648575b60209384841081146106355783885290811561061957506001146105c3575b505050829003601f01601f191682019267ffffffffffffffff8411838510176105b057508291826105ac925282610ecf565b0390f35b634e487b7160e01b815260418552602490fd5b600687529192508591837ff652222313e28459528d920b65115c16c04f3efc82aaedc97be59f3f377c0d3f5b838510610605575050505083010185808061057a565b8054888601830152930192849082016105ef565b60ff1916878501525050151560051b840101905085808061057a565b634e487b7160e01b895260228a52602489fd5b91607f169161055b565b50503461017a578160031936011261017a57905490516001600160a01b039091168152602090f35b50503461017a578160031936011261017a57602090600c549051908152f35b50503461017a578160031936011261017a576106b3610fab565b81546001600160a01b03198116835590519082906001600160a01b03167f8be0079c531659141344cd1fd0a4f28419497f9722a3daafe3b4186f6b6457e08284a3f35b50503461017a57602036600319011261017a5760209181906001600160a01b0361071e610f18565b1681526002845220549051908152f35b9050346102415760203660031901126102415760207fd9150669a28fc47a859ffc9379099b66f1dd2e504cced2df31390b6d868c740c913561076e610fab565b80600d558351908152a151f35b9050346102415761078b36610f49565b505061079c60026001541415611421565b60026001556001600160a01b036107d6337f000000000000000000000000000000000000000000000000000000000000000083161461146d565b821692838652602092600b8452858720805484811061099c576108006001830154600d5490611003565b421061095b5784610810916112bf565b905561081e83600c546112bf565b600c55841561090e57610830906114cb565b61083861151a565b83865260028352848620548281106108c05790827fd338c9f6c5eed79757e45cc8cc8b14bce8f5413e34e2dbbe362bc914bf6c439b9493928689526002855203868820556108878282546112bf565b905585847fddf252ad1be2c89b69c2b068fc378daa952ba7f163c4a11628f55a4df523b3ef848851858152a38451908152a26001805551f35b855162461bcd60e51b8152808301859052602260248201527f45524332303a206275726e20616d6f756e7420657863656564732062616c616e604482015261636560f01b6064820152608490fd5b855162461bcd60e51b8152808301859052602160248201527f45524332303a206275726e2066726f6d20746865207a65726f206164647265736044820152607360f81b6064820152608490fd5b60648487808b519262461bcd60e51b845283015260248201527f6465616c6c6f636174653a20636f6f6c646f776e206e6f7420726561636865646044820152fd5b875162461bcd60e51b8152808501879052602160248201527f6465616c6c6f636174653a206e6f6e20617574686f72697a656420616d6f756e6044820152601d60fa1b6064820152608490fd5b50503461017a578060031936011261017a57602091816001600160a01b03610a0f610f18565b169182815260078552610a26828220602435611288565b939015610a37575050509051908152f35b81526002855220549190506104d2565b50503461017a578060031936011261017a5761044f602092610a90610a6a610f18565b338352600386528483206001600160a01b03821684528652918490205460243590611003565b9033611026565b50503461017a578160031936011261017a576020905160128152f35b905082346103f85760603660031901126103f857610acf610f18565b610ad7610f33565b60443560018060a01b0392838116918286528760209660038852818120338252885220546000198103610be7575b50505015610b97571615610b4b57606492519162461bcd60e51b835282015260156024820152741d1c985b9cd9995c8e881b9bdd08185b1b1bddd959605a1b6044820152fd5b608492519162461bcd60e51b8352820152602360248201527f45524332303a207472616e7366657220746f20746865207a65726f206164647260448201526265737360e81b6064820152fd5b5050608492519162461bcd60e51b8352820152602560248201527f45524332303a207472616e736665722066726f6d20746865207a65726f206164604482015264647265737360d81b6064820152fd5b818110610c055790610bfd929103903390611026565b868080610b05565b885162461bcd60e51b8152808901889052601d60248201527f45524332303a20696e73756666696369656e7420616c6c6f77616e63650000006044820152606490fd5b90503461024157610c5836610f49565b50509091610c6b60026001541415611421565b60026001556001600160a01b03610ca5337f000000000000000000000000000000000000000000000000000000000000000083161461146d565b831692838652600b602052848620610cbe848254611003565b8155600142910155610cd283600c54611003565b600c558315610d6c5791602091610d097f249d8eb76d5a22983620d741de2470148d1a9a26ab923aec4262770690d11ebc946114cb565b610d1161151a565b610d1c828254611003565b905583865260028252848620610d33828254611003565b905583867fddf252ad1be2c89b69c2b068fc378daa952ba7f163c4a11628f55a4df523b3ef848851858152a38451908152a26001805551f35b845162461bcd60e51b8152602081840152601f60248201527f45524332303a206d696e7420746f20746865207a65726f2061646472657373006044820152606490fd5b90503461024157826003193601126102415760209250549051908152f35b50503461017a578060031936011261017a5760209061044f610ded610f18565b6024359033611026565b8490843461024157826003193601126102415782600554600181811c90808316928315610ec5575b6020938484108114610635578388529081156106195750600114610e6f57505050829003601f01601f191682019267ffffffffffffffff8411838510176105b057508291826105ac925282610ecf565b600587529192508591837f036b6384b5eca791c62761152d0c79bb0604c104a5fb6f4eb0703f3154bb3db05b838510610eb1575050505083010185808061057a565b805488860183015293019284908201610e9b565b91607f1691610e1f565b6020808252825181830181905290939260005b828110610f0457505060409293506000838284010152601f8019910116010190565b818101860151848201604001528501610ee2565b600435906001600160a01b0382168203610f2e57565b600080fd5b602435906001600160a01b0382168203610f2e57565b906060600319830112610f2e576004356001600160a01b0381168103610f2e57916024359160443567ffffffffffffffff92838211610f2e5780602383011215610f2e578160040135938411610f2e5760248483010111610f2e576024019190565b6000546001600160a01b03163303610fbf57565b606460405162461bcd60e51b815260206004820152602060248201527f4f776e61626c653a2063616c6c6572206973206e6f7420746865206f776e65726044820152fd5b9190820180921161101057565b634e487b7160e01b600052601160045260246000fd5b6001600160a01b039081169182156110d757169182156110875760207f8c5be1e5ebec7d5bd14f71427d1e84f3dd0314c0f7b2291e5b200ac8c7c3b925918360005260038252604060002085600052825280604060002055604051908152a3565b60405162461bcd60e51b815260206004820152602260248201527f45524332303a20617070726f766520746f20746865207a65726f206164647265604482015261737360f01b6064820152608490fd5b60405162461bcd60e51b8152602060048201526024808201527f45524332303a20617070726f76652066726f6d20746865207a65726f206164646044820152637265737360e01b6064820152608490fd5b60095481101561115f5760096000527f6e1540171b6c0c960b71a7020d9f60077f6af931a8bbf590da0223dacf75c7af0190600090565b634e487b7160e01b600052603260045260246000fd5b60085481101561115f5760086000527ff3f7a9fe364faab93b216da50a3214154f22a0a2b415b23a84c8169e8b636ee30190600090565b805482101561115f5760005260206000200190600090565b801561124a57600a548111611205576111dc906112cc565b60085481036111ee5750600090600090565b6111f790611128565b90549060031b1c9060019190565b60405162461bcd60e51b815260206004820152601d60248201527f4552433230536e617073686f743a206e6f6e6578697374656e742069640000006044820152606490fd5b60405162461bcd60e51b815260206004820152601660248201527504552433230536e617073686f743a20696420697320360541b6044820152606490fd5b801561124a57600a548111611205576112a19082611376565b815481036112b3575050600090600090565b60016111f792016111ac565b9190820391821161101057565b60085490811561136f576000915b80831061132957508115159081611304575b50156113015760001981019081116110105790565b90565b905060001982018281116110105761131b90611175565b90549060031b1c14386112ec565b60019061133c818518831c828616611003565b918361134784611175565b90549060031b1c1160001461135d5750506112da565b909350810180911161101057916112da565b5050600090565b8054918215611419576000925b8084106113d2575082151591826113ab575b5050156113015760001981019081116110105790565b9091506000198301838111611010576113c3916111ac565b90549060031b1c143880611395565b6001906113e5818618831c828716611003565b91836113f184876111ac565b90549060031b1c11600014611407575050611383565b90945081018091116110105792611383565b505050600090565b1561142857565b60405162461bcd60e51b815260206004820152601f60248201527f5265656e7472616e637947756172643a207265656e7472616e742063616c6c006044820152606490fd5b1561147457565b60405162461bcd60e51b815260206004820152602960248201527f78417274546f6b656e4f6e6c793a2063616c6c65722073686f756c64206265206044820152683c20b93a2a37b5b2b760b91b6064820152608490fd5b60018060a01b0316600052600760205260406000206002602052604060002054600a54806114f88461161b565b1061150257505050565b82611512600192611518956115b7565b016115b7565b565b600454600a54908161152a6115ee565b10611533575050565b600854600160401b90818110156115a1578060016115549201600855611175565b9381549460031b946000199586811b9283911b16911916179055600954908110156115a1578060016115899201600955611128565b909283549160031b90811b9283911b16911916179055565b634e487b7160e01b600052604160045260246000fd5b8054600160401b8110156115a1576115d4916001820181556111ac565b819291549060031b600019811b9283911b16911916179055565b600854806115fc5750600090565b60001981019081116110105761161190611175565b90549060031b1c90565b805480611629575050600090565b600019810190811161101057611611916111ac56fea2646970667358221220f8b6b65b68a863c00e41d29272ebe96fc3b0edab168cd0d9df0682130c18b10964736f6c63430008100033",
  "linkReferences": {},
  "deployedLinkReferences": {}
}