{
  "_format": "hh-sol-artifact-1",
  "contractName": "MerlinPoolFactory",
  "sourceName": "contracts/MerlinPoolFactory.sol",
  "abi": [
    {
      "inputs": [
        {
          "internalType": "contract IArtTokenV2",
          "name": "artToken_",
          "type": "address"
        },
        {
          "internalType": "contract IXArtToken",
          "name": "xArtToken_",
          "type": "address"
        },
        {
          "internalType": "address",
          "name": "emergencyRecoveryAddress_",
          "type": "address"
        },
        {
          "internalType": "address",
          "name": "feeAddress_",
          "type": "address"
        }
      ],
      "stateMutability": "nonpayable",
      "type": "constructor"
    },
    {
      "anonymous": false,
      "inputs": [
        {
          "indexed": false,
          "internalType": "address",
          "name": "merlinAddress",
          "type": "address"
        }
      ],
      "name": "CreateMerlinPool",
      "type": "event"
    },
    {
      "anonymous": false,
      "inputs": [
        {
          "indexed": true,
          "internalType": "address",
          "name": "previousOwner",
          "type": "address"
        },
        {
          "indexed": true,
          "internalType": "address",
          "name": "newOwner",
          "type": "address"
        }
      ],
      "name": "OwnershipTransferred",
      "type": "event"
    },
    {
      "anonymous": false,
      "inputs": [
        {
          "indexed": false,
          "internalType": "address",
          "name": "merlinAddress",
          "type": "address"
        }
      ],
      "name": "PublishMerlinPool",
      "type": "event"
    },
    {
      "anonymous": false,
      "inputs": [
        {
          "indexed": false,
          "internalType": "uint256",
          "name": "fee",
          "type": "uint256"
        }
      ],
      "name": "SetDefaultFee",
      "type": "event"
    },
    {
      "anonymous": false,
      "inputs": [
        {
          "indexed": false,
          "internalType": "address",
          "name": "emergencyRecoveryAddress",
          "type": "address"
        }
      ],
      "name": "SetEmergencyRecoveryAddress",
      "type": "event"
    },
    {
      "anonymous": false,
      "inputs": [
        {
          "indexed": false,
          "internalType": "address",
          "name": "exemptedAddress",
          "type": "address"
        },
        {
          "indexed": false,
          "internalType": "bool",
          "name": "isExempted",
          "type": "bool"
        }
      ],
      "name": "SetExemptedAddress",
      "type": "event"
    },
    {
      "anonymous": false,
      "inputs": [
        {
          "indexed": false,
          "internalType": "address",
          "name": "feeAddress",
          "type": "address"
        }
      ],
      "name": "SetFeeAddress",
      "type": "event"
    },
    {
      "anonymous": false,
      "inputs": [
        {
          "indexed": false,
          "internalType": "address",
          "name": "previousOwner",
          "type": "address"
        },
        {
          "indexed": false,
          "internalType": "address",
          "name": "newOwner",
          "type": "address"
        }
      ],
      "name": "SetMerlinPoolOwner",
      "type": "event"
    },
    {
      "inputs": [],
      "name": "MAX_DEFAULT_FEE",
      "outputs": [
        {
          "internalType": "uint256",
          "name": "",
          "type": "uint256"
        }
      ],
      "stateMutability": "view",
      "type": "function"
    },
    {
      "inputs": [],
      "name": "artToken",
      "outputs": [
        {
          "internalType": "contract IArtTokenV2",
          "name": "",
          "type": "address"
        }
      ],
      "stateMutability": "view",
      "type": "function"
    },
    {
      "inputs": [
        {
          "internalType": "address",
          "name": "nftPoolAddress",
          "type": "address"
        },
        {
          "internalType": "contract IERC20",
          "name": "rewardsToken1",
          "type": "address"
        },
        {
          "internalType": "contract IERC20",
          "name": "rewardsToken2",
          "type": "address"
        },
        {
          "components": [
            {
              "internalType": "uint256",
              "name": "startTime",
              "type": "uint256"
            },
            {
              "internalType": "uint256",
              "name": "endTime",
              "type": "uint256"
            },
            {
              "internalType": "uint256",
              "name": "harvestStartTime",
              "type": "uint256"
            },
            {
              "internalType": "uint256",
              "name": "depositEndTime",
              "type": "uint256"
            },
            {
              "internalType": "uint256",
              "name": "lockDurationReq",
              "type": "uint256"
            },
            {
              "internalType": "uint256",
              "name": "lockEndReq",
              "type": "uint256"
            },
            {
              "internalType": "uint256",
              "name": "depositAmountReq",
              "type": "uint256"
            },
            {
              "internalType": "bool",
              "name": "whitelist",
              "type": "bool"
            },
            {
              "internalType": "string",
              "name": "description",
              "type": "string"
            }
          ],
          "internalType": "struct MerlinPool.Settings",
          "name": "settings",
          "type": "tuple"
        }
      ],
      "name": "createMerlinPool",
      "outputs": [
        {
          "internalType": "address",
          "name": "merlinPool",
          "type": "address"
        }
      ],
      "stateMutability": "nonpayable",
      "type": "function"
    },
    {
      "inputs": [],
      "name": "defaultFee",
      "outputs": [
        {
          "internalType": "uint256",
          "name": "",
          "type": "uint256"
        }
      ],
      "stateMutability": "view",
      "type": "function"
    },
    {
      "inputs": [],
      "name": "emergencyRecoveryAddress",
      "outputs": [
        {
          "internalType": "address",
          "name": "",
          "type": "address"
        }
      ],
      "stateMutability": "view",
      "type": "function"
    },
    {
      "inputs": [],
      "name": "exemptedAddressesLength",
      "outputs": [
        {
          "internalType": "uint256",
          "name": "",
          "type": "uint256"
        }
      ],
      "stateMutability": "view",
      "type": "function"
    },
    {
      "inputs": [],
      "name": "feeAddress",
      "outputs": [
        {
          "internalType": "address",
          "name": "",
          "type": "address"
        }
      ],
      "stateMutability": "view",
      "type": "function"
    },
    {
      "inputs": [
        {
          "internalType": "uint256",
          "name": "index",
          "type": "uint256"
        }
      ],
      "name": "getExemptedAddress",
      "outputs": [
        {
          "internalType": "address",
          "name": "",
          "type": "address"
        }
      ],
      "stateMutability": "view",
      "type": "function"
    },
    {
      "inputs": [
        {
          "internalType": "uint256",
          "name": "index",
          "type": "uint256"
        }
      ],
      "name": "getMerlinPool",
      "outputs": [
        {
          "internalType": "address",
          "name": "",
          "type": "address"
        }
      ],
      "stateMutability": "view",
      "type": "function"
    },
    {
      "inputs": [
        {
          "internalType": "address",
          "name": "merlinPoolAddress",
          "type": "address"
        },
        {
          "internalType": "address",
          "name": "ownerAddress",
          "type": "address"
        }
      ],
      "name": "getMerlinPoolFee",
      "outputs": [
        {
          "internalType": "uint256",
          "name": "",
          "type": "uint256"
        }
      ],
      "stateMutability": "view",
      "type": "function"
    },
    {
      "inputs": [
        {
          "internalType": "address",
          "name": "nftPoolAddress",
          "type": "address"
        },
        {
          "internalType": "uint256",
          "name": "index",
          "type": "uint256"
        }
      ],
      "name": "getNftPoolPublishedMerlinPool",
      "outputs": [
        {
          "internalType": "address",
          "name": "",
          "type": "address"
        }
      ],
      "stateMutability": "view",
      "type": "function"
    },
    {
      "inputs": [
        {
          "internalType": "address",
          "name": "userAddress",
          "type": "address"
        },
        {
          "internalType": "uint256",
          "name": "index",
          "type": "uint256"
        }
      ],
      "name": "getOwnerMerlinPool",
      "outputs": [
        {
          "internalType": "address",
          "name": "",
          "type": "address"
        }
      ],
      "stateMutability": "view",
      "type": "function"
    },
    {
      "inputs": [
        {
          "internalType": "uint256",
          "name": "index",
          "type": "uint256"
        }
      ],
      "name": "getPublishedMerlinPool",
      "outputs": [
        {
          "internalType": "address",
          "name": "",
          "type": "address"
        }
      ],
      "stateMutability": "view",
      "type": "function"
    },
    {
      "inputs": [
        {
          "internalType": "address",
          "name": "checkedAddress",
          "type": "address"
        }
      ],
      "name": "isExemptedAddress",
      "outputs": [
        {
          "internalType": "bool",
          "name": "",
          "type": "bool"
        }
      ],
      "stateMutability": "view",
      "type": "function"
    },
    {
      "inputs": [],
      "name": "merlinPoolsLength",
      "outputs": [
        {
          "internalType": "uint256",
          "name": "",
          "type": "uint256"
        }
      ],
      "stateMutability": "view",
      "type": "function"
    },
    {
      "inputs": [
        {
          "internalType": "address",
          "name": "nftPoolAddress",
          "type": "address"
        }
      ],
      "name": "nftPoolPublishedMerlinPoolsLength",
      "outputs": [
        {
          "internalType": "uint256",
          "name": "",
          "type": "uint256"
        }
      ],
      "stateMutability": "view",
      "type": "function"
    },
    {
      "inputs": [],
      "name": "owner",
      "outputs": [
        {
          "internalType": "address",
          "name": "",
          "type": "address"
        }
      ],
      "stateMutability": "view",
      "type": "function"
    },
    {
      "inputs": [
        {
          "internalType": "address",
          "name": "userAddress",
          "type": "address"
        }
      ],
      "name": "ownerMerlinPoolsLength",
      "outputs": [
        {
          "internalType": "uint256",
          "name": "",
          "type": "uint256"
        }
      ],
      "stateMutability": "view",
      "type": "function"
    },
    {
      "inputs": [
        {
          "internalType": "address",
          "name": "nftAddress",
          "type": "address"
        }
      ],
      "name": "publishMerlinPool",
      "outputs": [],
      "stateMutability": "nonpayable",
      "type": "function"
    },
    {
      "inputs": [],
      "name": "publishedMerlinPoolsLength",
      "outputs": [
        {
          "internalType": "uint256",
          "name": "",
          "type": "uint256"
        }
      ],
      "stateMutability": "view",
      "type": "function"
    },
    {
      "inputs": [],
      "name": "renounceOwnership",
      "outputs": [],
      "stateMutability": "nonpayable",
      "type": "function"
    },
    {
      "inputs": [
        {
          "internalType": "uint256",
          "name": "newFee",
          "type": "uint256"
        }
      ],
      "name": "setDefaultFee",
      "outputs": [],
      "stateMutability": "nonpayable",
      "type": "function"
    },
    {
      "inputs": [
        {
          "internalType": "address",
          "name": "emergencyRecoveryAddress_",
          "type": "address"
        }
      ],
      "name": "setEmergencyRecoveryAddress",
      "outputs": [],
      "stateMutability": "nonpayable",
      "type": "function"
    },
    {
      "inputs": [
        {
          "internalType": "address",
          "name": "exemptedAddress",
          "type": "address"
        },
        {
          "internalType": "bool",
          "name": "isExempted",
          "type": "bool"
        }
      ],
      "name": "setExemptedAddress",
      "outputs": [],
      "stateMutability": "nonpayable",
      "type": "function"
    },
    {
      "inputs": [
        {
          "internalType": "address",
          "name": "feeAddress_",
          "type": "address"
        }
      ],
      "name": "setFeeAddress",
      "outputs": [],
      "stateMutability": "nonpayable",
      "type": "function"
    },
    {
      "inputs": [
        {
          "internalType": "address",
          "name": "previousOwner",
          "type": "address"
        },
        {
          "internalType": "address",
          "name": "newOwner",
          "type": "address"
        }
      ],
      "name": "setMerlinPoolOwner",
      "outputs": [],
      "stateMutability": "nonpayable",
      "type": "function"
    },
    {
      "inputs": [
        {
          "internalType": "address",
          "name": "newOwner",
          "type": "address"
        }
      ],
      "name": "transferOwnership",
      "outputs": [],
      "stateMutability": "nonpayable",
      "type": "function"
    },
    {
      "inputs": [],
      "name": "xArtToken",
      "outputs": [
        {
          "internalType": "contract IXArtToken",
          "name": "",
          "type": "address"
        }
      ],
      "stateMutability": "view",
      "type": "function"
    }
  ],
  "bytecode": "0x60806040523480156200001157600080fd5b506040516200577338038062005773833981016040819052620000349162000158565b6200003f33620000ef565b6001600160a01b038216158015906200006057506001600160a01b03811615155b6200009b5760405162461bcd60e51b81526020600482015260076024820152661a5b9d985b1a5960ca1b604482015260640160405180910390fd5b600180546001600160a01b039586166001600160a01b0319918216179091556002805494861694821694909417909355600d805492851692841692909217909155600a8054919093169116179055620001c0565b600080546001600160a01b038381166001600160a01b0319831681178455604051919092169283917f8be0079c531659141344cd1fd0a4f28419497f9722a3daafe3b4186f6b6457e09190a35050565b6001600160a01b03811681146200015557600080fd5b50565b600080600080608085870312156200016f57600080fd5b84516200017c816200013f565b60208601519094506200018f816200013f565b6040860151909350620001a2816200013f565b6060860151909250620001b5816200013f565b939692955090935050565b6155a380620001d06000396000f3fe60806040523480156200001157600080fd5b5060043610620001e95760003560e01c80638da5cb5b116200010d578063c854108211620000a3578063dd4f6af6116200007a578063dd4f6af61462000405578063f2fde38b146200041c578063fa07269a1462000433578063fb7393f2146200044757600080fd5b8063c854108214620003c0578063c93a6c8414620003d7578063d142f17714620003ee57600080fd5b8063976aaffb11620000e4578063976aaffb1462000367578063a35eedcc146200037e578063bd4cc0f51462000395578063c23cd2ea14620003a957600080fd5b80638da5cb5b1462000323578063904cc5841462000335578063929f6357146200033f57600080fd5b80636b4d4b0511620001835780638705fcd4116200015a5780638705fcd414620002ca57806388f2c3c514620002e15780638a2779cd14620002f85780638c67a0c2146200030f57600080fd5b80636b4d4b051462000292578063715018a614620002a957806385f390fd14620002b357600080fd5b80632da83ac211620001c45780632da83ac2146200025357806335b01117146200026a5780634127535814620002745780635a6c72d0146200028857600080fd5b80630ddbb9d814620001ee578063144ad332146200020a5780631ecb566e1462000223575b600080fd5b620001f7606481565b6040519081526020015b60405180910390f35b620002216200021b36600462000dc2565b62000451565b005b6200023a6200023436600462000e00565b62000575565b6040516001600160a01b03909116815260200162000201565b6200023a6200026436600462000e1a565b6200058a565b620001f7620005b5565b600a546200023a906001600160a01b031681565b620001f760095481565b6200023a620002a336600462000e49565b620005c8565b6200022162000697565b62000221620002c436600462000ee3565b620006af565b62000221620002db36600462000f1d565b62000754565b620001f7620002f236600462000f1d565b620007dc565b6200023a6200030936600462000e00565b620007ff565b600d546200023a906001600160a01b031681565b6000546001600160a01b03166200023a565b620001f76200080e565b620003566200035036600462000f1d565b6200081c565b604051901515815260200162000201565b6200023a6200037836600462000e1a565b6200082b565b620002216200038f36600462000f1d565b6200084f565b6001546200023a906001600160a01b031681565b620001f7620003ba36600462000f1d565b62000904565b6200023a620003d136600462000e00565b62000927565b62000221620003e836600462000e00565b62000936565b620001f7620003ff36600462000dc2565b620009ba565b620002216200041636600462000f1d565b620009f6565b620002216200042d36600462000f1d565b62000a78565b6002546200023a906001600160a01b031681565b620001f762000af7565b336200045f60038262000b05565b620004a65760405162461bcd60e51b81526020600482015260126024820152711d5b9adb9bdddb881b595c9b1a5b941bdbdb60721b60448201526064015b60405180910390fd5b6001600160a01b0383166000908152600860205260409020620004ca903362000b28565b620005085760405162461bcd60e51b815260206004820152600d60248201526c34b73b30b634b21037bbb732b960991b60448201526064016200049d565b6001600160a01b03821660009081526008602052604090206200052c903362000b3f565b50604080516001600160a01b038086168252841660208201527feb9a01a02f235bd74e46fd3289e483e6470e7a16d3355fa49dccc2b3811e34ba910160405180910390a1505050565b60006200058460058362000b56565b92915050565b6001600160a01b0382166000908152600860205260408120620005ae908362000b56565b9392505050565b6000620005c3600362000b64565b905090565b6001546002546040516000926001600160a01b0390811692169033908890889088908890620005f79062000d9e565b62000609979695949392919062000fb6565b604051809103906000f08015801562000626573d6000803e3d6000fd5b5090506200063660038262000b3f565b5033600090815260086020526040902062000652908262000b3f565b506040516001600160a01b03821681527f15c35aa1e2a8e56889d7067ca0eff5a0655b41f58558a9c8c93b8da2dc8945839060200160405180910390a1949350505050565b620006a162000b6f565b620006ad600062000bcb565b565b620006b962000b6f565b6001600160a01b038216620006e25760405162461bcd60e51b81526004016200049d906200108d565b8015620006fd57620006f6600b8362000b3f565b506200070c565b6200070a600b8362000b28565b505b604080516001600160a01b038416815282151560208201527f6846b2c9ff87fefdeb93357820cd156a78eeabaeb15cd6faba2350eab3cc668891015b60405180910390a15050565b6200075e62000b6f565b6001600160a01b038116620007875760405162461bcd60e51b81526004016200049d906200108d565b600a80546001600160a01b0319166001600160a01b0383169081179091556040519081527ffcb8a963756b148f85a52537b63147b6c4b40af694099c901ac3b99d317a2db8906020015b60405180910390a150565b6001600160a01b0381166000908152600760205260408120620005849062000b64565b600062000584600b8362000b56565b6000620005c3600562000b64565b600062000584600b8362000b05565b6001600160a01b0382166000908152600760205260408120620005ae908362000b56565b336200085d60038262000b05565b620008a05760405162461bcd60e51b81526020600482015260126024820152711d5b9adb9bdddb881b595c9b1a5b941bdbdb60721b60448201526064016200049d565b620008ad60053362000b3f565b506001600160a01b0382166000908152600760205260409020620008d2903362000b3f565b506040513381527f4893be93d49dc4b6a96ca8273586ff8f61b6b538aae4b14cc8dd6746dda6aa359060200162000748565b6001600160a01b0381166000908152600860205260408120620005849062000b64565b60006200058460038362000b56565b6200094062000b6f565b6064811115620009845760405162461bcd60e51b815260206004820152600e60248201526d1a5b9d985b1a5908185b5bdd5b9d60921b60448201526064016200049d565b60098190556040518181527f51de95b18d7cedb4ab77c8de227822bc1a76e45e8f04983f27472cf847126cc090602001620007d1565b6000620009c9600b8462000b05565b80620009dd5750620009dd600b8362000b05565b15620009ec5750600062000584565b5060095492915050565b62000a0062000b6f565b6001600160a01b03811662000a295760405162461bcd60e51b81526004016200049d906200108d565b600d80546001600160a01b0319166001600160a01b0383169081179091556040519081527f143cbda11019f61b7117840c50e3a997d14f4e0ab489bb55236cfa8f982aeeeb90602001620007d1565b62000a8262000b6f565b6001600160a01b03811662000ae95760405162461bcd60e51b815260206004820152602660248201527f4f776e61626c653a206e6577206f776e657220697320746865207a65726f206160448201526564647265737360d01b60648201526084016200049d565b62000af48162000bcb565b50565b6000620005c3600b62000b64565b6001600160a01b03811660009081526001830160205260408120541515620005ae565b6000620005ae836001600160a01b03841662000c1b565b6000620005ae836001600160a01b03841662000d1f565b6000620005ae838362000d71565b600062000584825490565b6000546001600160a01b03163314620006ad5760405162461bcd60e51b815260206004820181905260248201527f4f776e61626c653a2063616c6c6572206973206e6f7420746865206f776e657260448201526064016200049d565b600080546001600160a01b038381166001600160a01b0319831681178455604051919092169283917f8be0079c531659141344cd1fd0a4f28419497f9722a3daafe3b4186f6b6457e09190a35050565b6000818152600183016020526040812054801562000d1457600062000c42600183620010b3565b855490915060009062000c5890600190620010b3565b905081811462000cc457600086600001828154811062000c7c5762000c7c620010d5565b906000526020600020015490508087600001848154811062000ca25762000ca2620010d5565b6000918252602080832090910192909255918252600188019052604090208390555b855486908062000cd85762000cd8620010eb565b60019003818190600052602060002001600090559055856001016000868152602001908152602001600020600090556001935050505062000584565b600091505062000584565b600081815260018301602052604081205462000d685750815460018181018455600084815260208082209093018490558454848252828601909352604090209190915562000584565b50600062000584565b600082600001828154811062000d8b5762000d8b620010d5565b9060005260206000200154905092915050565b61446c806200110283390190565b6001600160a01b038116811462000af457600080fd5b6000806040838503121562000dd657600080fd5b823562000de38162000dac565b9150602083013562000df58162000dac565b809150509250929050565b60006020828403121562000e1357600080fd5b5035919050565b6000806040838503121562000e2e57600080fd5b823562000e3b8162000dac565b946020939093013593505050565b6000806000806080858703121562000e6057600080fd5b843562000e6d8162000dac565b9350602085013562000e7f8162000dac565b9250604085013562000e918162000dac565b9150606085013567ffffffffffffffff81111562000eae57600080fd5b8501610120818803121562000ec257600080fd5b939692955090935050565b8035801515811462000ede57600080fd5b919050565b6000806040838503121562000ef757600080fd5b823562000f048162000dac565b915062000f146020840162000ecd565b90509250929050565b60006020828403121562000f3057600080fd5b8135620005ae8162000dac565b6000808335601e1984360301811262000f5557600080fd5b830160208101925035905067ffffffffffffffff81111562000f7657600080fd5b80360382131562000f8657600080fd5b9250929050565b81835281816020850137506000828201602090810191909152601f909101601f19169091010190565b600060018060a01b03808a168352808916602084015280881660408401528087166060840152808616608084015280851660a08401525060e060c0830152823560e08301526101006020840135818401526101206040850135818501526060850135610140850152608085013561016085015260a085013561018085015260c08501356101a08501526200104d60e0860162000ecd565b15156101c0850152620010638286018662000f3d565b9250816101e08601526200107d6102008601848362000f8d565b9c9b505050505050505050505050565b6020808252600c908201526b7a65726f206164647265737360a01b604082015260600190565b818103818111156200058457634e487b7160e01b600052601160045260246000fd5b634e487b7160e01b600052603260045260246000fd5b634e487b7160e01b600052603160045260246000fdfe60806040523480156200001157600080fd5b506040516200446c3803806200446c833981016040819052620000349162000817565b60016000556200004433620003aa565b6001600160a01b038716158015906200006557506001600160a01b03861615155b80156200007a57506001600160a01b03851615155b80156200008f57506001600160a01b03841615155b8015620000a457506001600160a01b03831615155b620000e55760405162461bcd60e51b815260206004820152600c60248201526b7a65726f206164647265737360a01b60448201526064015b60405180910390fd5b805142106200012b5760405162461bcd60e51b8152602060048201526011602482015270696e76616c696420737461727454696d6560781b6044820152606401620000dc565b6020810151815110620001735760405162461bcd60e51b815260206004820152600f60248201526e696e76616c696420656e6454696d6560881b6044820152606401620000dc565b606081015115806200018a57506060810151815111155b620001d85760405162461bcd60e51b815260206004820152601660248201527f696e76616c6964206465706f736974456e6454696d65000000000000000000006044820152606401620000dc565b60408101511580620001ef57506040810151815111155b6200023d5760405162461bcd60e51b815260206004820152601860248201527f696e76616c69642068617276657374537461727454696d6500000000000000006044820152606401620000dc565b816001600160a01b0316836001600160a01b031603620002915760405162461bcd60e51b815260206004820152600e60248201526d696e76616c696420746f6b656e7360901b6044820152606401620000dc565b60028054336001600160a01b0319918216179091556003805482166001600160a01b038a81169190911790915560048054831689831617905560058054909216908616179055620002df4290565b600755600b80546001600160a01b038086166001600160a01b031992831617909255600f8054928516929091169190911790558051601a8190556020820151601b5560145560408101516000036200033c578051601c5562000345565b6040810151601c555b6060810151601d55610100810151602290620003629082620009fa565b506200038781608001518260a001518360c001518460e00151620003fc60201b60201c565b6200039d856200060c60201b62001fe51760201c565b5050505050505062000ac6565b600180546001600160a01b038381166001600160a01b0319831681179093556040519116919082907f8be0079c531659141344cd1fd0a4f28419497f9722a3daafe3b4186f6b6457e090600090a35050565b8215806200040b5750601a5483115b6200044b5760405162461bcd60e51b815260206004820152600f60248201526e1a5b9d985b1a59081b1bd8dad15b99608a1b6044820152606401620000dc565b60085460ff1615620005a257601e54841015620004ab5760405162461bcd60e51b815260206004820152601460248201527f696e76616c6964206c6f636b4475726174696f6e0000000000000000000000006044820152606401620000dc565b601f54831015620004f15760405162461bcd60e51b815260206004820152600f60248201526e1a5b9d985b1a59081b1bd8dad15b99608a1b6044820152606401620000dc565b602054821015620005455760405162461bcd60e51b815260206004820152601560248201527f696e76616c6964206465706f736974416d6f756e7400000000000000000000006044820152606401620000dc565b60215460ff16158062000560575060215460ff161515811515145b620005a25760405162461bcd60e51b81526020600482015260116024820152701a5b9d985b1a59081dda1a5d195b1a5cdd607a1b6044820152606401620000dc565b601e849055601f83905560208281556021805460ff191683151590811790915560408051878152928301869052820184905260608201527f4f49c49ff16acb310d9b9b87703c99594e407985b787e282988a4389faba8bc69060800160405180910390a150505050565b620006166200068b565b6001600160a01b0381166200067d5760405162461bcd60e51b815260206004820152602660248201527f4f776e61626c653a206e6577206f776e657220697320746865207a65726f206160448201526564647265737360d01b6064820152608401620000dc565b6200068881620003aa565b50565b6001546001600160a01b03163314620006e75760405162461bcd60e51b815260206004820181905260248201527f4f776e61626c653a2063616c6c6572206973206e6f7420746865206f776e65726044820152606401620000dc565b565b6001600160a01b03811681146200068857600080fd5b634e487b7160e01b600052604160045260246000fd5b60405161012081016001600160401b03811182821017156200073b576200073b620006ff565b60405290565b604051601f8201601f191681016001600160401b03811182821017156200076c576200076c620006ff565b604052919050565b805180151581146200078557600080fd5b919050565b600082601f8301126200079c57600080fd5b81516001600160401b03811115620007b857620007b8620006ff565b6020620007ce601f8301601f1916820162000741565b8281528582848701011115620007e357600080fd5b60005b8381101562000803578581018301518282018401528201620007e6565b506000928101909101919091529392505050565b600080600080600080600060e0888a0312156200083357600080fd5b87516200084081620006e9565b60208901519097506200085381620006e9565b60408901519096506200086681620006e9565b60608901519095506200087981620006e9565b60808901519094506200088c81620006e9565b60a08901519093506200089f81620006e9565b60c08901519092506001600160401b0380821115620008bd57600080fd5b90890190610120828c031215620008d357600080fd5b620008dd62000715565b825181526020830151602082015260408301516040820152606083015160608201526080830151608082015260a083015160a082015260c083015160c08201526200092b60e0840162000774565b60e082015261010080840151838111156200094557600080fd5b620009538e8287016200078a565b82840152505080935050505092959891949750929550565b600181811c908216806200098057607f821691505b602082108103620009a157634e487b7160e01b600052602260045260246000fd5b50919050565b601f821115620009f557600081815260208120601f850160051c81016020861015620009d05750805b601f850160051c820191505b81811015620009f157828155600101620009dc565b5050505b505050565b81516001600160401b0381111562000a165762000a16620006ff565b62000a2e8162000a2784546200096b565b84620009a7565b602080601f83116001811462000a66576000841562000a4d5750858301515b600019600386901b1c1916600185901b178555620009f1565b600085815260208120601f198616915b8281101562000a975788860151825594840194600190910190840162000a76565b508582101562000ab65787850151600019600388901b60f8161c191681555b5050505050600190811b01905550565b6139968062000ad66000396000f3fe608060405234801561001057600080fd5b506004361061028a5760003560e01c806390c3f38f1161015c578063c933934a116100ce578063f296171111610087578063f29617111461061c578063f2fde38b1461062f578063f533c96a14610642578063fa07269a1461064a578063fc41aa091461065d578063fe4ee9671461067057600080fd5b8063c933934a146105bf578063d8270dce146105d2578063e06174e4146105db578063e2b36dc3146105f8578063e3161ddd1461060b578063e467fa801461061357600080fd5b8063b92ca19711610120578063b92ca1971461054b578063bc13c46e1461055e578063bd4cc0f51461057d578063bf1e333214610590578063c45a0155146105a3578063c5408d50146105b657600080fd5b806390c3f38f146105075780639231cf741461051a578063961938f114610523578063a9cc9ae914610536578063ada278ef1461054357600080fd5b80633af32abf1161020057806378bb5164116101b957806378bb51641461045c5780637c042d61146104645780638950b9a6146104775780638d4d2b0c146104c05780638da5cb5b146104cd5780638e3291c9146104de57600080fd5b80633af32abf1461040b5780634641257d1461041e57806352cb5133146104265780635312ea8e146104395780635909865a1461044c578063715018a61461045457600080fd5b8063248a56c011610252578063248a56c01461037b5780632c2a5928146103835780632e1a7d4d146103965780632e3c5919146103a957806331d7a262146103bc57806334677c7a146103e457600080fd5b8063075d47821461028f5780630828862d14610299578063150b7a02146102c95780631959a002146102f557806321b4921c1461035a575b600080fd5b610297610683565b005b6005546102ac906001600160a01b031681565b6040516001600160a01b0390911681526020015b60405180910390f35b6102dc6102d73660046131c1565b6107cf565b6040516001600160e01b031990911681526020016102c0565b610332610303366004613234565b601560205260009081526040902080546001820154600283015460038401546004909401549293919290919085565b604080519586526020860194909452928401919091526060830152608082015260a0016102c0565b61036d610368366004613234565b6109ae565b6040519081526020016102c0565b6102976109d5565b6102ac610391366004613251565b610b15565b6102976103a4366004613251565b610b22565b61036d6103b736600461326a565b610cbf565b6103cf6103ca366004613234565b610ce8565b604080519283526020830191909152016102c0565b6103fb6103f2366004613296565b60009392505050565b60405190151581526020016102c0565b6103fb610419366004613234565b610e8a565b610297610e97565b6102976104343660046132cb565b610ef2565b610297610447366004613251565b6110da565b610297611257565b6102976112d2565b61036d6112ee565b6102976104723660046132ed565b6112ff565b600b54600c54600d54600e54610496936001600160a01b031692919084565b604080516001600160a01b03909516855260208501939093529183015260608201526080016102c0565b6008546103fb9060ff1681565b6001546001600160a01b03166102ac565b6102ac6104ec366004613251565b6016602052600090815260409020546001600160a01b031681565b610297610515366004613362565b61141c565b61036d60145481565b610297610531366004613234565b61146f565b600a546103fb9060ff1681565b61036d611500565b6006546102ac906001600160a01b031681565b600f54601054601154601254610496936001600160a01b031692919084565b6003546102ac906001600160a01b031681565b61029761059e366004613234565b611533565b6002546102ac906001600160a01b031681565b61036d60135481565b6102976105cd3660046133b2565b61166c565b61036d60075481565b6105e3611686565b6040516102c099989796959493929190613443565b6103fb610606366004613296565b611743565b6102976117ed565b61036d60095481565b61029761062a36600461349a565b611823565b61029761063d366004613234565b611ae7565b61036d611b04565b6004546102ac906001600160a01b031681565b61029761066b3660046132cb565b611b37565b6103fb61067e3660046134c6565b611e6e565b61068b61205b565b60085460ff16156106b75760405162461bcd60e51b81526004016106ae90613517565b60405180910390fd5b42601a54116106f05760405162461bcd60e51b81526020600482015260056024820152647374616c6560d81b60448201526064016106ae565b600c5461072c5760405162461bcd60e51b815260206004820152600a6024820152696e6f207265776172647360b01b60448201526064016106ae565b6008805460ff191660011790556107404290565b6009556002546005546040516328d7bb7360e21b81526001600160a01b03918216600482015291169063a35eedcc90602401600060405180830381600087803b15801561078c57600080fd5b505af11580156107a0573d6000803e3d6000fd5b50506040517f12e60d2b86077411e0638198488616eb20137be7d4543ffde74a18c60d840788925060009150a1565b60006002600054036107f35760405162461bcd60e51b81526004016106ae9061353a565b600260005560055433906001600160a01b031681146108245760405162461bcd60e51b81526004016106ae90613571565b60085460ff166108665760405162461bcd60e51b815260206004820152600d60248201526c1b9bdd081c1d589b1a5cda1959609a1b60448201526064016106ae565b60215460ff16158061087e575061087e6018876120b5565b6108bc5760405162461bcd60e51b815260206004820152600f60248201526e1b9bdd081dda1a5d195b1a5cdd1959608a1b60448201526064016106ae565b6001600160a01b03861660009081526017602052604090206108de90866120d7565b50600085815260166020526040812080546001600160a01b0319166001600160a01b0389161790558080610911886120e3565b925092509250610922838383612169565b61092d898985612251565b60055460405163095ea7b360e01b81526001600160a01b038b81166004830152602482018b90529091169063095ea7b390604401600060405180830381600087803b15801561097b57600080fd5b505af115801561098f573d6000803e3d6000fd5b5050600160005550630a85bd0160e11b9b9a5050505050505050505050565b6001600160a01b03811660009081526017602052604081206109cf906123ef565b92915050565b6002600054036109f75760405162461bcd60e51b81526004016106ae9061353a565b6002600055610a0461205b565b60025460408051634633d06160e11b815290516000926001600160a01b031691638c67a0c29160048083019260209291908290030181865afa158015610a4e573d6000803e3d6000fd5b505050506040513d601f19601f82011682018060405250810190610a72919061359a565b600d54601154600c549293509091610a8a90836123f9565b600c556000600d55601054610a9f90826123f9565b60105560006011819055600a805460ff191660011790556040517f8f2074b85901276b66e93d26866fda1a15b75609ce29ee820a90c3eb1eab2efc9190a1600b54610af4906001600160a01b03168484612405565b600f54610b0b906001600160a01b03168483612405565b5050600160005550565b60006109cf60188361249f565b600260005403610b445760405162461bcd60e51b81526004016106ae9061353a565b60026000908155818152601660205260409020546001600160a01b03163314610b7f5760405162461bcd60e51b81526004016106ae906135b7565b6000610b8a826120e3565b50509050610b966124ab565b33600081815260156020526040902090610bb1908290612600565b8054610bbd90836123f9565b8155601354610bcc90836123f9565b601355610bd881612841565b336000908152601760205260409020610bf190846128ab565b506000838152601660205260409081902080546001600160a01b03191690556005549051632142170760e11b8152306004820152336024820152604481018590526001600160a01b03909116906342842e0e90606401600060405180830381600087803b158015610c6157600080fd5b505af1158015610c75573d6000803e3d6000fd5b505060408051868152602081018690523393507ff279e6a1f5e320cca91135676d9cb6e44ca8a08c0b88342bcdb1144f6511b5689250015b60405180910390a25050600160005550565b6001600160a01b0382166000908152601760205260408120610ce1908361249f565b9392505050565b6001600160a01b0381166000908152601560209081526040808320815160a0810183528154815260018201549381019390935260028101549183019190915260038101546060830152600401546080820152600e546012548392919042601454108015610d5757506000601354115b15610e12576000610d82610d74601454610d6e4290565b906123f9565b610d7c611b04565b906128b7565b600d54909150811115610d945750600d545b601354610dbe90610db790610db184670de0b6b3a76400006128b7565b906128c3565b84906128cf565b9250610dd8610dd0601454610d6e4290565b610d7c611500565b601154909150811115610dea57506011545b601354610e0e90610e0790610db184670de0b6b3a76400006128b7565b83906128cf565b9150505b610e4b8360600151610e458560200151610d6e670de0b6b3a7640000610db1888a600001516128b790919063ffffffff16565b906128cf565b9450610e808360800151610e458560400151610d6e670de0b6b3a7640000610db1878a600001516128b790919063ffffffff16565b9350505050915091565b60006109cf6018836120b5565b600260005403610eb95760405162461bcd60e51b81526004016106ae9061353a565b6002600055610ec66124ab565b33600081815260156020526040902090610ee1908290612600565b610eea81612841565b506001600055565b610efa61205b565b600260005403610f1c5760405162461bcd60e51b81526004016106ae9061353a565b600260005560085460ff1615610f445760405162461bcd60e51b81526004016106ae90613517565b8115610ffe576040805180820190915260088152670e8dede40d0d2ced60c31b6020820152600c54610f779184906128db565b600c556040805180820190915260088152670e8dede40d0d2ced60c31b6020820152600d54610fa79184906128db565b600d55600c546040805184815260208101929092527f7ae1cbfc94d111a288e93adca547fd53d15f17df6bca73e865c13805ca722264910160405180910390a1600b54610ffe906001600160a01b03163384612405565b6000811180156110185750600f546001600160a01b031615155b156110d1576040805180820190915260088152670e8dede40d0d2ced60c31b602082015260105461104a9183906128db565b6010556040805180820190915260088152670e8dede40d0d2ced60c31b602082015260115461107a9183906128db565b6011556010546040805183815260208101929092527f55638f4a6d3d291dc7d21ee797dd02f3e9b84117ac89d4dd1a066ac015a53b26910160405180910390a1600f546110d1906001600160a01b03163383612405565b50506001600055565b6002600054036110fc5760405162461bcd60e51b81526004016106ae9061353a565b60026000908155818152601660205260409020546001600160a01b031633146111375760405162461bcd60e51b81526004016106ae906135b7565b6000611142826120e3565b505033600090815260156020526040902080549192509061116390836123f9565b815560135461117290836123f9565b60135561117e81612841565b33600090815260176020526040902061119790846128ab565b506000838152601660205260409081902080546001600160a01b03191690556005549051632142170760e11b8152306004820152336024820152604481018590526001600160a01b03909116906342842e0e90606401600060405180830381600087803b15801561120757600080fd5b505af115801561121b573d6000803e3d6000fd5b505060408051868152602081018690523393507fbb757047c2b5f3974fe26b7c10f732e7bce710b0952a71082702781e62ae0595925001610cad565b61125f61205b565b600061126b60186123ef565b90505b80156112a65761129561128d6112856001846135f2565b60189061249f565b601890612907565b5061129f81613605565b905061126e565b6040517f22f196d9cf5ab2abfb5e4f2e291a2452f5c28d88e99b62b74b9c6e62ab231a4490600090a150565b6112da61205b565b6112e4600061291c565b6112ec6129a3565b565b60006112fa60186123ef565b905090565b61130761205b565b808061133d5760405162461bcd60e51b8152602060048201526005602482015264656d70747960d81b60448201526064016106ae565b60005b818110156113ed5783838281811061135a5761135a61361c565b90506040020160200160208101906113729190613632565b156113b0576113aa84848381811061138c5761138c61361c565b6113a29260206040909202019081019150613234565b6018906129b5565b506113dd565b6113db8484838181106113c5576113c561361c565b61128d9260206040909202019081019150613234565b505b6113e68161364f565b9050611340565b506040517f22f196d9cf5ab2abfb5e4f2e291a2452f5c28d88e99b62b74b9c6e62ab231a4490600090a1505050565b61142461205b565b6022611431828483613706565b507fab7dca68789bfbe74d09f14600944885d215fdf09987a0aba59a2df71857724182826040516114639291906137c6565b60405180910390a15050565b61147761205b565b60085460ff16158061149057506001600160a01b038116155b6114ac5760405162461bcd60e51b81526004016106ae90613517565b600680546001600160a01b0319166001600160a01b0383169081179091556040519081527f070ac22faf9ccb6c368b4dc940445967905c3cd9f50459204e09e30ac382c7329060200160405180910390a150565b6000601454601a60010154116115165750600090565b601454601b546112fa9161152a91906123f9565b601154906128c3565b61153b61205b565b60026000540361155d5760405162461bcd60e51b81526004016106ae9061353a565b600260005560085460ff16156115855760405162461bcd60e51b81526004016106ae90613517565b600f546001600160a01b0316156115cc5760405162461bcd60e51b815260206004820152600b60248201526a185b1c9958591e481cd95d60aa1b60448201526064016106ae565b600b546001600160a01b038083169116036116135760405162461bcd60e51b81526020600482015260076024820152661a5b9d985b1a5960ca1b60448201526064016106ae565b600f80546001600160a01b0319166001600160a01b0383169081179091556040519081527f5e11eef9026871e4634731ac8981015002d27a183f26034f4f6466e62f0eeb6f9060200160405180910390a1506001600055565b61167461205b565b611680848484846129ca565b50505050565b601a8054601b54601c54601d54601e54601f5460205460215460228054989997989697959694959394929360ff909216926116c09061367e565b80601f01602080910402602001604051908101604052809291908181526020018280546116ec9061367e565b80156117395780601f1061170e57610100808354040283529160200191611739565b820191906000526020600020905b81548152906001019060200180831161171c57829003601f168201915b5050505050905089565b60006002600054036117675760405162461bcd60e51b81526004016106ae9061353a565b600260005560055433906001600160a01b031681146117985760405162461bcd60e51b81526004016106ae90613571565b6000848152601660205260409020546001600160a01b038681169116146117d15760405162461bcd60e51b81526004016106ae906135b7565b6117dc858585612251565b600191505060016000559392505050565b60026000540361180f5760405162461bcd60e51b81526004016106ae9061353a565b600260005561181c6124ab565b6001600055565b6002600054036118455760405162461bcd60e51b81526004016106ae9061353a565b600260005561185261205b565b601a5483116118955760405162461bcd60e51b815260206004820152600f60248201526e696e76616c696420656e6454696d6560881b60448201526064016106ae565b601b544211156118d45760405162461bcd60e51b815260206004820152600a6024820152691c1bdbdb08195b99195960b21b60448201526064016106ae565b8015806118e35750601a548110155b6119285760405162461bcd60e51b8152602060048201526016602482015275696e76616c6964206465706f736974456e6454696d6560501b60448201526064016106ae565b8115806119375750601a548210155b6119835760405162461bcd60e51b815260206004820152601860248201527f696e76616c69642068617276657374537461727454696d65000000000000000060448201526064016106ae565b60085460ff1615611a7857601b548310156119d65760405162461bcd60e51b81526020600482015260136024820152726e6f7420616c6c6f77656420656e6454696d6560681b60448201526064016106ae565b601d548114611a275760405162461bcd60e51b815260206004820152601a60248201527f6e6f7420616c6c6f776564206465706f736974456e6454696d6500000000000060448201526064016106ae565b601c548214611a785760405162461bcd60e51b815260206004820152601c60248201527f6e6f7420616c6c6f7765642068617276657374537461727454696d650000000060448201526064016106ae565b601b8390556000829003611a9157601a54601c55611a97565b601c8290555b601d81905560408051848152602081018490529081018290527f7861cb8c66210f838711e11fe52412c9757ae520575ceee7ee008cbbe57f76229060600160405180910390a15050600160005550565b611aef61205b565b611af88161291c565b611b0181611fe5565b50565b6000601454601a6001015411611b1a5750600090565b601454601b546112fa91611b2e91906123f9565b600d54906128c3565b600260005403611b595760405162461bcd60e51b81526004016106ae9061353a565b6002600055601b544210611b9c5760405162461bcd60e51b815260206004820152600a6024820152691c1bdbdb08195b99195960b21b60448201526064016106ae565b611ba46124ab565b6002546000906001600160a01b031663d142f17730611bcb6001546001600160a01b031690565b6040516001600160e01b031960e085901b1681526001600160a01b03928316600482015291166024820152604401602060405180830381865afa158015611c16573d6000803e3d6000fd5b505050506040513d601f19601f82011682018060405250810190611c3a91906137f5565b90506000600260009054906101000a90046001600160a01b03166001600160a01b031663412753586040518163ffffffff1660e01b8152600401602060405180830381865afa158015611c91573d6000803e3d6000fd5b505050506040513d601f19601f82011682018060405250810190611cb5919061359a565b905060008415611d6c57611ccf612710610db187866128b7565b600b54909150611cf2906001600160a01b031633611ced88856123f9565b612b78565b600c54909550611d0290866128cf565b600c55600d54611d1290866128cf565b600d5560408051868152602081018390527f5066830ee857f8185d6b00ef7557246e98fd7fc2ac0528a4fffe750053313776910160405180910390a18015611d6c57600b54611d6c906001600160a01b0316338484612c73565b8315611e6257600f546001600160a01b0316611dba5760405162461bcd60e51b815260206004820152600d60248201526c3932bbb0b93239aa37b5b2b71960991b60448201526064016106ae565b611dca612710610db186866128b7565b600f54909150611de8906001600160a01b031633611ced87856123f9565b601054909450611df890856128cf565b601055601154611e0890856128cf565b60115560408051858152602081018390527f45241e302e41254ac31ac15e7346d8b7e83b49610507828c043e75d97b1ea0d5910160405180910390a18015611e6257600f54611e62906001600160a01b0316338484612c73565b50506001600055505050565b60055460009033906001600160a01b03168114611e9d5760405162461bcd60e51b81526004016106ae90613571565b6000858152601660205260409020546001600160a01b039081169088168114611ed85760405162461bcd60e51b81526004016106ae906135b7565b6001600160a01b03871630141580611f5757506004805460405162f773f360e51b815230928101929092526001600160a01b031690631eee7e6090602401602060405180830381865afa158015611f33573d6000803e3d6000fd5b505050506040513d601f19601f82011682018060405250810190611f57919061380e565b611f995760405162461bcd60e51b815260206004820152601360248201527263616e742068616e646c65207265776172647360681b60448201526064016106ae565b306001600160a01b03881603611fd757600354611fc0906001600160a01b03168287612cde565b600454611fd7906001600160a01b03168286612cde565b506001979650505050505050565b611fed61205b565b6001600160a01b0381166120525760405162461bcd60e51b815260206004820152602660248201527f4f776e61626c653a206e6577206f776e657220697320746865207a65726f206160448201526564647265737360d01b60648201526084016106ae565b611b0181612d0e565b6001546001600160a01b031633146112ec5760405162461bcd60e51b815260206004820181905260248201527f4f776e61626c653a2063616c6c6572206973206e6f7420746865206f776e657260448201526064016106ae565b6001600160a01b03811660009081526001830160205260408120541515610ce1565b6000610ce18383612d60565b6005546040516308521f7960e01b815260048101839052600091829182916001600160a01b0316906308521f799060240161010060405180830381865afa158015612132573d6000803e3d6000fd5b505050506040513d601f19601f82011682018060405250810190612156919061382b565b50959a9399509197509195505050505050565b601e54156121ce5761217b82826128cf565b4210801561218b5750601e548110155b6121ce5760405162461bcd60e51b815260206004820152601460248201527334b73b30b634b2103637b1b5a23ab930ba34b7b760611b60448201526064016106ae565b601f5415612201576121e082826128cf565b601f5411156122015760405162461bcd60e51b81526004016106ae90613888565b6020541561224c5760205483101561224c5760405162461bcd60e51b815260206004820152600e60248201526d1a5b9d985b1a5908185b5bdd5b9d60921b60448201526064016106ae565b505050565b601d541580612262575042601d5410155b80156122715750600a5460ff16155b61228d5760405162461bcd60e51b81526004016106ae906135b7565b6006546001600160a01b0316156123535760065460405163387777d760e21b81526001600160a01b038581166004830152602482018590529091169063e1dddf5c90604401602060405180830381865afa1580156122ef573d6000803e3d6000fd5b505050506040513d601f19601f82011682018060405250810190612313919061380e565b6123535760405162461bcd60e51b8152602060048201526011602482015270696e76616c696420637573746f6d52657160781b60448201526064016106ae565b61235b6124ab565b6001600160a01b038316600090815260156020526040902061237d8185612600565b805461238990836128cf565b815560135461239890836128cf565b6013556123a481612841565b60408051848152602081018490526001600160a01b038616917f90890809c654f11d6e72a28fa60149770a0d11ec6c92319d6ceb2bb0a4ea1a1591015b60405180910390a250505050565b60006109cf825490565b6000610ce182846135f2565b8060000361241257505050565b6040516370a0823160e01b81523060048201526000906001600160a01b038516906370a0823190602401602060405180830381865afa158015612459573d6000803e3d6000fd5b505050506040513d601f19601f8201168201806040525081019061247d91906137f5565b90508082111561248b578091505b6116806001600160a01b0385168484612cde565b6000610ce18383612daf565b601454429081116124b95750565b6013546000036124f45760148190556040517f3b995fb49557022d683e66ab27e0339ab7db40111da9b4f57765b99e20f7868690600090a150565b600061250e610d74601454846123f990919063ffffffff16565b600d549091508111156125205750600d545b600d5461252d90826123f9565b600d556013546125569061254d90610db184670de0b6b3a76400006128b7565b600e54906128cf565b600e55600f546001600160a01b0316156125ce57612582610dd0601454846123f990919063ffffffff16565b60115490915081111561259457506011545b6011546125a190826123f9565b6011556013546125ca906125c190610db184670de0b6b3a76400006128b7565b601254906128cf565b6012555b60148290556040517f3b995fb49557022d683e66ab27e0339ab7db40111da9b4f57765b99e20f7868690600090a15050565b6006546001906001600160a01b03161561268557600654604051637db8130d60e11b81526001600160a01b0384811660048301529091169063fb70261a90602401602060405180830381865afa15801561265e573d6000803e3d6000fd5b505050506040513d601f19601f82011682018060405250810190612682919061380e565b90505b60006126b78460010154610d6e670de0b6b3a7640000610db1600b6003015489600001546128b790919063ffffffff16565b601c549091504210806126c8575081155b156126e65760038401546126dc90826128cf565b6003850155612762565b60038401546126f69082906128cf565b60006003860155600b54909150612717906001600160a01b03168483612405565b600b54604080516001600160a01b03928316815260208101849052918516917fa0306f61d3fafe13787b78e276cb6b644382854a66cb46daae14227d3ec26797910160405180910390a25b600f546001600160a01b031615611680576002840154601254855461279a9291610d6e91670de0b6b3a764000091610db191906128b7565b601c549091504210806127ab575081155b156127c95760048401546127bf90826128cf565b6004850155611680565b60048401546127d99082906128cf565b60006004860155600f549091506127fa906001600160a01b03168483612405565b600f54604080516001600160a01b03928316815260208101849052918516917fa0306f61d3fafe13787b78e276cb6b644382854a66cb46daae14227d3ec2679791016123e1565b600e548154600091829161285491612dd9565b9150915081156128765761287081670de0b6b3a76400006128c3565b60018401555b601254835461288491612dd9565b9092509050811561224c576128a181670de0b6b3a76400006128c3565b6002840155505050565b6000610ce18383612e24565b6000610ce182846138b1565b6000610ce182846138e6565b6000610ce18284613908565b600081848411156128ff5760405162461bcd60e51b81526004016106ae919061391b565b505050900390565b6000610ce1836001600160a01b038416612e24565b6002546001600160a01b031663144ad33261293f6001546001600160a01b031690565b6040516001600160e01b031960e084901b1681526001600160a01b0391821660048201529084166024820152604401600060405180830381600087803b15801561298857600080fd5b505af115801561299c573d6000803e3d6000fd5b5050505050565b6129ab61205b565b6112ec6000612d0e565b6000610ce1836001600160a01b038416612d60565b8215806129d85750601a5483115b6129f45760405162461bcd60e51b81526004016106ae90613888565b60085460ff1615612b0e57601e54841015612a485760405162461bcd60e51b815260206004820152601460248201527334b73b30b634b2103637b1b5a23ab930ba34b7b760611b60448201526064016106ae565b601f54831015612a6a5760405162461bcd60e51b81526004016106ae90613888565b602054821015612ab45760405162461bcd60e51b81526020600482015260156024820152741a5b9d985b1a590819195c1bdcda5d105b5bdd5b9d605a1b60448201526064016106ae565b60215460ff161580612ace575060215460ff161515811515145b612b0e5760405162461bcd60e51b81526020600482015260116024820152701a5b9d985b1a59081dda1a5d195b1a5cdd607a1b60448201526064016106ae565b601e849055601f83905560208281556021805460ff191683151590811790915560408051878152928301869052820184905260608201527f4f49c49ff16acb310d9b9b87703c99594e407985b787e282988a4389faba8bc69060800160405180910390a150505050565b6040516370a0823160e01b815230600482015260009081906001600160a01b038616906370a0823190602401602060405180830381865afa158015612bc1573d6000803e3d6000fd5b505050506040513d601f19601f82011682018060405250810190612be591906137f5565b9050612bfc6001600160a01b038616853086612c73565b6040516370a0823160e01b8152306004820152612c6a9082906001600160a01b038816906370a0823190602401602060405180830381865afa158015612c46573d6000803e3d6000fd5b505050506040513d601f19601f82011682018060405250810190610d6e91906137f5565b95945050505050565b6040516001600160a01b03808516602483015283166044820152606481018290526116809085906323b872dd60e01b906084015b60408051601f198184030181529190526020810180516001600160e01b03166001600160e01b031990931692909217909152612f17565b6040516001600160a01b03831660248201526044810182905261224c90849063a9059cbb60e01b90606401612ca7565b600180546001600160a01b038381166001600160a01b0319831681179093556040519116919082907f8be0079c531659141344cd1fd0a4f28419497f9722a3daafe3b4186f6b6457e090600090a35050565b6000818152600183016020526040812054612da7575081546001818101845560008481526020808220909301849055845484825282860190935260409020919091556109cf565b5060006109cf565b6000826000018281548110612dc657612dc661361c565b9060005260206000200154905092915050565b60008083600003612df05750600190506000612e1d565b83830283858281612e0357612e036138d0565b0414612e16576000809250925050612e1d565b6001925090505b9250929050565b60008181526001830160205260408120548015612f0d576000612e486001836135f2565b8554909150600090612e5c906001906135f2565b9050818114612ec1576000866000018281548110612e7c57612e7c61361c565b9060005260206000200154905080876000018481548110612e9f57612e9f61361c565b6000918252602080832090910192909255918252600188019052604090208390555b8554869080612ed257612ed261392e565b6001900381819060005260206000200160009055905585600101600086815260200190815260200160002060009055600193505050506109cf565b60009150506109cf565b6000612f6c826040518060400160405280602081526020017f5361666545524332303a206c6f772d6c6576656c2063616c6c206661696c6564815250856001600160a01b0316612fe99092919063ffffffff16565b80519091501561224c5780806020019051810190612f8a919061380e565b61224c5760405162461bcd60e51b815260206004820152602a60248201527f5361666545524332303a204552433230206f7065726174696f6e20646964206e6044820152691bdd081cdd58d8d9595960b21b60648201526084016106ae565b6060612ff88484600085613000565b949350505050565b6060824710156130615760405162461bcd60e51b815260206004820152602660248201527f416464726573733a20696e73756666696369656e742062616c616e636520666f6044820152651c8818d85b1b60d21b60648201526084016106ae565b6001600160a01b0385163b6130b85760405162461bcd60e51b815260206004820152601d60248201527f416464726573733a2063616c6c20746f206e6f6e2d636f6e747261637400000060448201526064016106ae565b600080866001600160a01b031685876040516130d49190613944565b60006040518083038185875af1925050503d8060008114613111576040519150601f19603f3d011682016040523d82523d6000602084013e613116565b606091505b5091509150613126828286613131565b979650505050505050565b60608315613140575081610ce1565b8251156131505782518084602001fd5b8160405162461bcd60e51b81526004016106ae919061391b565b6001600160a01b0381168114611b0157600080fd5b60008083601f84011261319157600080fd5b50813567ffffffffffffffff8111156131a957600080fd5b602083019150836020828501011115612e1d57600080fd5b6000806000806000608086880312156131d957600080fd5b85356131e48161316a565b945060208601356131f48161316a565b935060408601359250606086013567ffffffffffffffff81111561321757600080fd5b6132238882890161317f565b969995985093965092949392505050565b60006020828403121561324657600080fd5b8135610ce18161316a565b60006020828403121561326357600080fd5b5035919050565b6000806040838503121561327d57600080fd5b82356132888161316a565b946020939093013593505050565b6000806000606084860312156132ab57600080fd5b83356132b68161316a565b95602085013595506040909401359392505050565b600080604083850312156132de57600080fd5b50508035926020909101359150565b6000806020838503121561330057600080fd5b823567ffffffffffffffff8082111561331857600080fd5b818501915085601f83011261332c57600080fd5b81358181111561333b57600080fd5b8660208260061b850101111561335057600080fd5b60209290920196919550909350505050565b6000806020838503121561337557600080fd5b823567ffffffffffffffff81111561338c57600080fd5b6133988582860161317f565b90969095509350505050565b8015158114611b0157600080fd5b600080600080608085870312156133c857600080fd5b84359350602085013592506040850135915060608501356133e8816133a4565b939692955090935050565b60005b8381101561340e5781810151838201526020016133f6565b50506000910152565b6000815180845261342f8160208601602086016133f3565b601f01601f19169290920160200192915050565b60006101208b83528a60208401528960408401528860608401528760808401528660a08401528560c084015284151560e08401528061010084015261348a81840185613417565b9c9b505050505050505050505050565b6000806000606084860312156134af57600080fd5b505081359360208301359350604090920135919050565b600080600080600060a086880312156134de57600080fd5b85356134e98161316a565b945060208601356134f98161316a565b94979496505050506040830135926060810135926080909101359150565b6020808252600990820152681c1d589b1a5cda195960ba1b604082015260600190565b6020808252601f908201527f5265656e7472616e637947756172643a207265656e7472616e742063616c6c00604082015260600190565b6020808252600f908201526e1a5b9d985b1a5908139195141bdbdb608a1b604082015260600190565b6000602082840312156135ac57600080fd5b8151610ce18161316a565b6020808252600b908201526a1b9bdd08185b1b1bddd95960aa1b604082015260600190565b634e487b7160e01b600052601160045260246000fd5b818103818111156109cf576109cf6135dc565b600081613614576136146135dc565b506000190190565b634e487b7160e01b600052603260045260246000fd5b60006020828403121561364457600080fd5b8135610ce1816133a4565b600060018201613661576136616135dc565b5060010190565b634e487b7160e01b600052604160045260246000fd5b600181811c9082168061369257607f821691505b6020821081036136b257634e487b7160e01b600052602260045260246000fd5b50919050565b601f82111561224c57600081815260208120601f850160051c810160208610156136df5750805b601f850160051c820191505b818110156136fe578281556001016136eb565b505050505050565b67ffffffffffffffff83111561371e5761371e613668565b6137328361372c835461367e565b836136b8565b6000601f841160018114613766576000851561374e5750838201355b600019600387901b1c1916600186901b17835561299c565b600083815260209020601f19861690835b828110156137975786850135825560209485019460019092019101613777565b50868210156137b45760001960f88860031b161c19848701351681555b505060018560011b0183555050505050565b60208152816020820152818360408301376000818301604090810191909152601f909201601f19160101919050565b60006020828403121561380757600080fd5b5051919050565b60006020828403121561382057600080fd5b8151610ce1816133a4565b600080600080600080600080610100898b03121561384857600080fd5b505086516020880151604089015160608a015160808b015160a08c015160c08d015160e0909d0151959e949d50929b919a50985090965094509092509050565b6020808252600f908201526e1a5b9d985b1a59081b1bd8dad15b99608a1b604082015260600190565b60008160001904831182151516156138cb576138cb6135dc565b500290565b634e487b7160e01b600052601260045260246000fd5b60008261390357634e487b7160e01b600052601260045260246000fd5b500490565b808201808211156109cf576109cf6135dc565b602081526000610ce16020830184613417565b634e487b7160e01b600052603160045260246000fd5b600082516139568184602087016133f3565b919091019291505056fea2646970667358221220b993930a67d98b5130f0af9562beabb95b6e3716c9b0bc93c3e6013fd90b51d764736f6c63430008100033a264697066735822122055a759f6d823aadf1ca8cbad69fb551c3069282859cd4675069ad60a7dfb98ba64736f6c63430008100033",
  "linkReferences": {},
  "deployedLinkReferences": {}
}