{
  "_format": "hh-sol-artifact-1",
  "contractName": "NFTPoolFactory",
  "sourceName": "contracts/NFTPoolFactory.sol",
  "abi": [
    {
      "inputs": [
        {
          "internalType": "contract IArthurMaster",
          "name": "master_",
          "type": "address"
        },
        {
          "internalType": "contract IERC20",
          "name": "artToken_",
          "type": "address"
        },
        {
          "internalType": "contract IXArtToken",
          "name": "xArtToken_",
          "type": "address"
        }
      ],
      "stateMutability": "nonpayable",
      "type": "constructor"
    },
    {
      "anonymous": false,
      "inputs": [
        {
          "indexed": true,
          "internalType": "address",
          "name": "lpToken",
          "type": "address"
        },
        {
          "indexed": false,
          "internalType": "address",
          "name": "pool",
          "type": "address"
        }
      ],
      "name": "PoolCreated",
      "type": "event"
    },
    {
      "inputs": [],
      "name": "artToken",
      "outputs": [
        {
          "internalType": "contract IERC20",
          "name": "",
          "type": "address"
        }
      ],
      "stateMutability": "view",
      "type": "function"
    },
    {
      "inputs": [
        {
          "internalType": "address",
          "name": "lpToken",
          "type": "address"
        }
      ],
      "name": "createPool",
      "outputs": [
        {
          "internalType": "address",
          "name": "pool",
          "type": "address"
        }
      ],
      "stateMutability": "nonpayable",
      "type": "function"
    },
    {
      "inputs": [
        {
          "internalType": "address",
          "name": "",
          "type": "address"
        }
      ],
      "name": "getPool",
      "outputs": [
        {
          "internalType": "address",
          "name": "",
          "type": "address"
        }
      ],
      "stateMutability": "view",
      "type": "function"
    },
    {
      "inputs": [],
      "name": "master",
      "outputs": [
        {
          "internalType": "contract IArthurMaster",
          "name": "",
          "type": "address"
        }
      ],
      "stateMutability": "view",
      "type": "function"
    },
    {
      "inputs": [
        {
          "internalType": "uint256",
          "name": "",
          "type": "uint256"
        }
      ],
      "name": "pools",
      "outputs": [
        {
          "internalType": "address",
          "name": "",
          "type": "address"
        }
      ],
      "stateMutability": "view",
      "type": "function"
    },
    {
      "inputs": [],
      "name": "poolsLength",
      "outputs": [
        {
          "internalType": "uint256",
          "name": "",
          "type": "uint256"
        }
      ],
      "stateMutability": "view",
      "type": "function"
    },
    {
      "inputs": [],
      "name": "xArtToken",
      "outputs": [
        {
          "internalType": "contract IXArtToken",
          "name": "",
          "type": "address"
        }
      ],
      "stateMutability": "view",
      "type": "function"
    }
  ],
  "bytecode": "0x60e060405234801561001057600080fd5b50604051614ea1380380614ea183398101604081905261002f91610064565b6001600160a01b0392831660805290821660a0521660c0526100b1565b6001600160a01b038116811461006157600080fd5b50565b60008060006060848603121561007957600080fd5b83516100848161004c565b60208501519093506100958161004c565b60408501519092506100a68161004c565b809150509250925092565b60805160a05160c051614dac6100f56000396000818161015201526102ca01526000818161010401526102a201526000818161012b015261027a0152614dac6000f3fe608060405234801561001057600080fd5b506004361061007d5760003560e01c8063bbe4f6db1161005b578063bbe4f6db146100d6578063bd4cc0f5146100ff578063ee97f7f314610126578063fa07269a1461014d57600080fd5b80632716ae66146100825780639049f9d214610098578063ac4afa38146100c3575b600080fd5b6001546040519081526020015b60405180910390f35b6100ab6100a6366004610439565b610174565b6040516001600160a01b03909116815260200161008f565b6100ab6100d1366004610469565b6103d8565b6100ab6100e4366004610439565b6000602081905290815260409020546001600160a01b031681565b6100ab7f000000000000000000000000000000000000000000000000000000000000000081565b6100ab7f000000000000000000000000000000000000000000000000000000000000000081565b6100ab7f000000000000000000000000000000000000000000000000000000000000000081565b6001600160a01b03818116600090815260208190526040812054909116156101d15760405162461bcd60e51b815260206004820152600b60248201526a706f6f6c2065786973747360a81b60448201526064015b60405180910390fd5b60006101db610402565b6040516bffffffffffffffffffffffff19606086901b166020820152909150600090603401604051602081830303815290604052805190602001209050808251602084016000f592506001600160a01b0383166102635760405162461bcd60e51b815260206004820152600660248201526519985a5b195960d21b60448201526064016101c8565b604051637c643b2f60e11b81526001600160a01b037f0000000000000000000000000000000000000000000000000000000000000000811660048301527f0000000000000000000000000000000000000000000000000000000000000000811660248301527f000000000000000000000000000000000000000000000000000000000000000081166044830152858116606483015284169063f8c8765e90608401600060405180830381600087803b15801561031e57600080fd5b505af1158015610332573d6000803e3d6000fd5b505050506001600160a01b0384811660008181526020818152604080832080549589166001600160a01b0319968716811790915560018054808201825594527fb10e2d527612073b26eecdfd717e6a320cf44b4afac2b0732d9fcbe2b7fa0cf690930180549095168317909455925190815290917f4f2ce4e40f623ca765fc0167a25cb7842ceaafb8d82d3dec26ca0d0e0d2d4896910160405180910390a25050919050565b600181815481106103e857600080fd5b6000918252602090912001546001600160a01b0316905081565b6060604051806020016104149061042c565b601f1982820381018352601f90910116604052919050565b6148f48061048383390190565b60006020828403121561044b57600080fd5b81356001600160a01b038116811461046257600080fd5b9392505050565b60006020828403121561047b57600080fd5b503591905056fe60a0604052614e2060125562f14280601355612710601455612710601555611f406016553480156200003057600080fd5b506040518060400160405280601b81526020017f417274687572207374616b696e6720706f736974696f6e204e46540000000000815250604051806040016040528060058152602001641cdc13919560da1b815250600160008190555081600190816200009e91906200015f565b506002620000ad82826200015f565b505033608052506200022b565b634e487b7160e01b600052604160045260246000fd5b600181811c90821680620000e557607f821691505b6020821081036200010657634e487b7160e01b600052602260045260246000fd5b50919050565b601f8211156200015a57600081815260208120601f850160051c81016020861015620001355750805b601f850160051c820191505b81811015620001565782815560010162000141565b5050505b505050565b81516001600160401b038111156200017b576200017b620000ba565b62000193816200018c8454620000d0565b846200010c565b602080601f831160018114620001cb5760008415620001b25750858301515b600019600386901b1c1916600185901b17855562000156565b600085815260208120601f198616915b82811015620001fc57888601518255948401946001909101908401620001db565b50858210156200021b5787850151600019600388901b60f8161c191681555b5050505050600190811b01905550565b6080516146a66200024e6000396000818161078001526121f001526146a66000f3fe608060405234801561001057600080fd5b506004361061038e5760003560e01c806370a08231116101de578063c87b56dd1161010f578063e985e9c5116100ad578063f84ddf0b1161007c578063f84ddf0b14610864578063f8c8765e1461086c578063fb38799b1461087f578063fdc5f9301461089257600080fd5b8063e985e9c5146107f5578063ee97f7f314610831578063f2c3999214610844578063f2e16b3c1461085157600080fd5b8063d5232dee116100e9578063d5232dee146107c8578063dc6e15bd146107db578063e3161ddd146107e3578063e61f927d146107eb57600080fd5b8063c87b56dd146107a2578063d1aaef05146107b5578063d4e32de6146103bb57600080fd5b80639016f8221161017c578063a6b0b2a811610156578063a6b0b2a814610742578063b3ab15fb14610755578063b88d4fde14610768578063c45a01551461077b57600080fd5b80639016f8221461071457806395d89b4114610727578063a22cb4651461072f57600080fd5b8063832c51f6116101b8578063832c51f6146106c55780638380edb7146106f1578063842072af146106f95780638da5cb5b1461070c57600080fd5b806370a0823114610696578063739610da146106a95780637dcb2abf146106b257600080fd5b80633e9b453e116102c35780635312ea8e116102615780636352211e116102305780636352211e1461065557806368e5dab5146106685780636e00e2da146106705780636f8297af1461068357600080fd5b80635312ea8e146105c857806356dd590b146105db578063570ca735146105ee57806360246c881461060157600080fd5b80634a2567861161029d5780634a2567861461057c5780634cd5520b1461058f5780634d05c318146105a25780634f558e79146105b557600080fd5b80633e9b453e1461054357806340be7bec1461055657806342842e0e1461056957600080fd5b806313e46e841161033057806320f8e94e1161030a57806320f8e94e146104f757806323b872dd1461050a5780632c542ede1461051d5780632f38e0421461053057600080fd5b806313e46e84146104c7578063158ef93e146104d05780631dc60207146104e457600080fd5b806306fdde031161036c57806306fdde03146103e7578063081812fc146103fc57806308521f7914610427578063095ea7b3146104b457600080fd5b806301ffc9a7146103935780630332f114146103bb57806304d5b62d146103d2575b600080fd5b6103a66103a1366004613e03565b6108a5565b60405190151581526020015b60405180910390f35b6103c4613a9881565b6040519081526020016103b2565b6103e56103e0366004613e20565b6108f7565b005b6103ef610b26565b6040516103b29190613e92565b61040f61040a366004613ea5565b610bb8565b6040516001600160a01b0390911681526020016103b2565b610479610435366004613ea5565b600090815260186020526040902080546001820154600283015460038401546004850154600586015460068701546007909701549597949693959294919390929091565b604080519889526020890197909752958701949094526060860192909252608085015260a084015260c083015260e0820152610100016103b2565b6103e56104c2366004613ed3565b610bdf565b6103c46161a881565b600b546103a690600160a01b900460ff1681565b61040f6104f2366004613ea5565b610cf4565b6103e5610505366004613ea5565b610d19565b6103e5610518366004613eff565b610d7d565b6103e561052b366004613e20565b610db9565b6103e561053e366004613f4e565b610f08565b6103e5610551366004613f6b565b610f5e565b6103e5610564366004613e20565b610ff7565b6103e5610577366004613eff565b6110e4565b6103e561058a366004613e20565b6110ff565b6103e561059d366004613fe7565b6111b3565b6103e56105b036600461403e565b6112b1565b6103a66105c3366004613ea5565b61131d565b6103e56105d6366004613ea5565b611328565b6103e56105e936600461406c565b611453565b600a5461040f906001600160a01b031681565b6106096116c1565b604080516001600160a01b03998a168152978916602089015295909716948601949094526060850192909252608084015260a083015260c082015260e0810191909152610100016103b2565b61040f610663366004613ea5565b6117b1565b61040f611811565b6103c461067e366004613e20565b611884565b6103a66106913660046140b8565b611950565b6103c46106a43660046140b8565b61195d565b6103c460165481565b6103c46106c0366004613ea5565b6119e3565b6012546013546014546015546040805194855260208501939093529183015260608201526080016103b2565b6103a6611b2e565b6103c4610707366004613ea5565b611bb4565b61040f611c11565b6103e5610722366004613e20565b611c5b565b6103ef611cbd565b6103e561073d36600461403e565b611ccc565b6103e5610750366004613e20565b611cdb565b6103e56107633660046140b8565b611da5565b6103e56107763660046140eb565b611dfb565b61040f7f000000000000000000000000000000000000000000000000000000000000000081565b6103ef6107b0366004613ea5565b611e39565b6103e56107c3366004613e20565b611ead565b6103e56107d6366004613e20565b6120fb565b6103c461213d565b6103e5612149565b60105415156103a6565b6103a66108033660046141cb565b6001600160a01b03918216600090815260066020908152604080832093909416825291909152205460ff1690565b600b5461040f906001600160a01b031681565b6017546103a69060ff1681565b6103e561085f366004613e20565b61217f565b6103c46121da565b6103e561087a3660046141f9565b6121e5565b6103e561088d366004613ea5565b61231e565b6103e56108a0366004613ea5565b61237d565b60006001600160e01b031982166380ac58cd60e01b14806108d657506001600160e01b03198216635b5e139f60e01b145b806108f157506301ffc9a760e01b6001600160e01b03198316145b92915050565b6002600054036109225760405162461bcd60e51b815260040161091990614255565b60405180910390fd5b6002600055610930826123d2565b61093861243c565b61094a82610945846117b1565b612517565b60008281526018602052604090208054821061099e5760405162461bcd60e51b81526020600482015260136024820152721a5b9d985b1a59081cdc1b1a5d105b5bdd5b9d606a1b6044820152606401610919565b80546109aa90836126b5565b81556109b5816126c1565b60006109c033612764565b600383015460048401549192509060006109f06127106109ea6109e38583612787565b8990612793565b9061279f565b905060405180610140016040528087815260200182815260200186600201548152602001848152602001838152602001610a41670de0b6b3a76400006109ea6011548661279390919063ffffffff16565b815260006020808301829052604080840187905260608085018490526080948501849052898452601883529281902085518155918501516001830155840151600282015590830151600382015590820151600482015560a0820151600582015560c0820151600682015560e08201516007820155610100820151600882015561012090910151600990910155601054610ada9082612787565b601055604080518781526020810186905288917f83ad7662a93cf58f10a379c6370e942debc7c8cb1cffb157f519b12973264a4c910160405180910390a2505060016000555050505050565b606060018054610b359061428c565b80601f0160208091040260200160405190810160405280929190818152602001828054610b619061428c565b8015610bae5780601f10610b8357610100808354040283529160200191610bae565b820191906000526020600020905b815481529060010190602001808311610b9157829003601f168201915b5050505050905090565b6000610bc3826127ab565b506000908152600560205260409020546001600160a01b031690565b6000610bea826117b1565b9050806001600160a01b0316836001600160a01b031603610c575760405162461bcd60e51b815260206004820152602160248201527f4552433732313a20617070726f76616c20746f2063757272656e74206f776e656044820152603960f91b6064820152608401610919565b336001600160a01b0382161480610c735750610c738133610803565b610ce55760405162461bcd60e51b815260206004820152603e60248201527f4552433732313a20617070726f76652063616c6c6572206973206e6f7420746f60448201527f6b656e206f776e6572206e6f7220617070726f76656420666f7220616c6c00006064820152608401610919565b610cef83836127fb565b505050565b600081610d016008612869565b11610d0e57506000919050565b6108f1600883612873565b600260005403610d3b5760405162461bcd60e51b815260040161091990614255565b6002600055610d498161287f565b610d5161243c565b610d5e81610945836117b1565b6000818152601860205260409020610d75906126c1565b506001600055565b600260005403610d9f5760405162461bcd60e51b815260040161091990614255565b6002600055610daf8383836128e5565b5050600160005550565b600260005403610ddb5760405162461bcd60e51b815260040161091990614255565b6002600055610de982612916565b60008111610e245760405162461bcd60e51b81526020600482015260086024820152670c08185b5bdd5b9d60c21b6044820152606401610919565b610e2c61243c565b6000610e37836117b1565b9050610e438382612517565b6000838152601860205260409020600381015415610e75574260028201556003810154610e6f90611bb4565b60048201555b600c54610e8c906001600160a01b03163385612920565b8154909350610e9b9084612787565b8155600f54610eaa9084612787565b600f55610eb6816126c1565b610ec1828585612a1b565b604080513381526020810185905285917f2bc3f231118d71058e11ae6ae9f199b789d86a7012a9d45f4c2ed7d7016478c291015b60405180910390a2505060016000555050565b610f10612af7565b6017805460ff191682151590811790915560405160ff909116151581527f1545be19b3ba6f2e76454d1b8b59529cbbbdf7af9046fd49bd86c17314a5509d906020015b60405180910390a150565b600260005403610f805760405162461bcd60e51b815260040161091990614255565b6002600055610f8e8261287f565b610fa9610f9a836117b1565b6001600160a01b03163b151590565b610fc55760405162461bcd60e51b8152600401610919906142c6565b610fcd61243c565b610fd78282612517565b6000828152601860205260409020610fee906126c1565b50506001600055565b6002600054036110195760405162461bcd60e51b815260040161091990614255565b6002600055611026612b31565b61102f82612b39565b61106d5760405162461bcd60e51b815260206004820152600f60248201526e1a5b9d985b1a59081d1bdad95b9259608a1b6044820152606401610919565b61107561243c565b611080826000612517565b600082815260186020526040812060068101549091906110a09084612787565b6006830181905590506110b2826126c1565b837fe96d35ce795c2d6a754b1bf60d2ea30785c5a460b6d4bf0e5b48190e5084860d82604051610ef591815260200190565b610cef83838360405180602001604052806000815250611dfb565b611107612af7565b6161a88211156111295760405162461bcd60e51b8152600401610919906142e9565b613a98811115801561114f57508161114c6014548361278790919063ffffffff16565b11155b61116b5760405162461bcd60e51b8152600401610919906142e9565b6012829055601581905560408051838152602081018390527fde0bddf440a694ffa55b73c57fcb0c32fc9794b258c4e71ca2c867f6d7137f0591015b60405180910390a15050565b6002600054036111d55760405162461bcd60e51b815260040161091990614255565b60026000556111e261243c565b8160005b818110156112a55760008585838181106112025761120261430b565b9050602002013590506112148161287f565b600061121f826117b1565b9050336001600160a01b0382161480156112415750336001600160a01b038616145b8061125557506001600160a01b0381163b15155b6112715760405162461bcd60e51b8152600401610919906142c6565b61127b8286612517565b6000828152601860205260409020611292906126c1565b50508061129e90614337565b90506111e6565b50506001600055505050565b6112b9612af7565b80156112d0576112ca600883612b56565b506112dd565b6112db600883612b6b565b505b604080516001600160a01b038416815282151560208201527f28d57a4483d2172573741520aa0af0c5ac1e83cb2523c0d1a37c07b90a2e939591016111a7565b60006108f182612b39565b60026000540361134a5760405162461bcd60e51b815260040161091990614255565b6002600055611358816123d2565b6000818152601860205260409020611371600833612b80565b8061138e5750426003820154600283015461138b91612787565b11155b8061139c575061139c611b2e565b6113d15760405162461bcd60e51b81526020600482015260066024820152651b1bd8dad95960d21b6044820152606401610919565b8054600f546113e090826126b5565b600f5560018201546010546113f4916126b5565b601055611402836000612ba2565b827fb073e6fbd06d7557d2c82f414fee57de28e7fb517ecc0afdd6b1fc57034a9cb88260405161143491815260200190565b60405180910390a2600c54610daf906001600160a01b03163383612c69565b6002600054036114755760405162461bcd60e51b815260040161091990614255565b600260005561148261243c565b81600181116114a35760405162461bcd60e51b815260040161091990614350565b6000848460008181106114b8576114b861430b565b9050602002013590506114ca816123d2565b6000818152601860205260409020600381015484101561151a5760405162461bcd60e51b815260206004820152600b60248201526a63616e2774206d6572676560a81b6044820152606401610919565b6115248233612517565b6003810184905561153484611bb4565b600482015560015b838110156116675760008787838181106115585761155861430b565b90506020020135905061156a816123d2565b8381036115ac5760405162461bcd60e51b815260206004820152601060248201526f1a5b9d985b1a59081d1bdad95b881a5960821b6044820152606401610919565b6115b68133612517565b600081815260186020526040902060038101548710156116065760405162461bcd60e51b815260206004820152600b60248201526a63616e2774206d6572676560a81b6044820152606401610919565b80600201548460020154101561162157600280820154908501555b8054845461162e91612787565b84556001810154601054611641916126b5565b6010556006810154611654908390612ba2565b50508061166090614337565b905061153c565b50611671816126c1565b336001600160a01b03167f1b6a7445053b0df83054e159a97edc3f3aad4284adaece07bef2fca11928a93087876040516116ac929190614371565b60405180910390a25050600160005550505050565b600b5460405162d7f52760e31b815230600482015260009182918291829182918291829182916001600160a01b03909116906306bfa9389060240160a060405180830381865afa158015611719573d6000803e3d6000fd5b505050506040513d601f19601f8201168201806040525081019061173d91906143aa565b90919293509050508096508192505050600c60009054906101000a90046001600160a01b0316600d60009054906101000a90046001600160a01b0316600e60009054906101000a90046001600160a01b031687601154600f5460105497509750975097509750975097509091929394959697565b6000818152600360205260408120546001600160a01b0316806108f15760405162461bcd60e51b8152602060048201526018602482015277115490cdcc8c4e881a5b9d985b1a59081d1bdad95b88125160421b6044820152606401610919565b600b54604080516368e5dab560e01b815290516000926001600160a01b0316916368e5dab59160048083019260209291908290030181865afa15801561185b573d6000803e3d6000fd5b505050506040513d601f19601f8201168201806040525081019061187f91906143f3565b905090565b6000811580611891575082155b1561189e575060006108f1565b60006118a8611811565b90506001600160a01b0381166118bf576000611948565b601554600f5460405163d2eec6ff60e01b81523060048201526024810192909252604482018690526064820152608481018490526001600160a01b0382169063d2eec6ff9060a401602060405180830381865afa158015611924573d6000803e3d6000fd5b505050506040513d601f19601f820116820180604052508101906119489190614410565b949350505050565b60006108f1600883612b80565b60006001600160a01b0382166119c75760405162461bcd60e51b815260206004820152602960248201527f4552433732313a2061646472657373207a65726f206973206e6f7420612076616044820152683634b21037bbb732b960b91b6064820152608401610919565b506001600160a01b031660009081526004602052604090205490565b600081815260186020526040808220601154600b54925162d7f52760e31b8152306004820152919290918491829182916001600160a01b0316906306bfa9389060240160a060405180830381865afa158015611a43573d6000803e3d6000fd5b505050506040513d601f19601f82011682018060405250810190611a6791906143aa565b94509450945050506000821180611a7d57508242115b8015611a8b57506000601054115b15611ae8576000611a9e84425b906126b5565b90506000611ab684611ab08486612793565b90612787565b9050611ae3611adc6010546109ea670de0b6b3a76400008561279390919063ffffffff16565b8790612787565b955050505b611b238560090154611ab08760080154611ab08960050154611a98670de0b6b3a76400006109ea8c8e6001015461279390919063ffffffff16565b979650505050505050565b60175460009060ff168061187f5750600b60009054906101000a90046001600160a01b03166001600160a01b031663f2c399926040518163ffffffff1660e01b8152600401602060405180830381865afa158015611b90573d6000803e3d6000fd5b505050506040513d601f19601f8201168201806040525081019061187f9190614429565b6000611bbe611b2e565b15611bcb57506000919050565b6013541580611bd8575081155b15611be557506000919050565b6013548210611bf657505060145490565b6108f16013546109ea8460145461279390919063ffffffff16565b600b5460408051638da5cb5b60e01b815290516000926001600160a01b031691638da5cb5b9160048083019260209291908290030181865afa15801561185b573d6000803e3d6000fd5b600260005403611c7d5760405162461bcd60e51b815260040161091990614255565b6002600055611c8a612b31565b611c9261243c565b611c9d826000612517565b600082815260186020526040812060068101549091906110a090846126b5565b606060028054610b359061428c565b611cd7338383612ccc565b5050565b611ce3611c11565b6001600160a01b0316336001600160a01b03161480611d0c5750600a546001600160a01b031633145b611d285760405162461bcd60e51b8152600401610919906142c6565b613a988111158015611d495750601254601554611d46908390612787565b11155b611d655760405162461bcd60e51b8152600401610919906142e9565b6013829055601481905560408051838152602081018390527f46cf6b9b4ec75e8786b2e93d4beb426d70d56d9b0eb9bfd40e975f9dc59d770391016111a7565b611dad612af7565b600a80546001600160a01b0319166001600160a01b0383169081179091556040519081527fdbebfba65bd6398fb722063efc10c99f624f9cd8ba657201056af918a676d5ee90602001610f53565b600260005403611e1d5760405162461bcd60e51b815260040161091990614255565b6002600055611e2e84848484612d9a565b505060016000555050565b6060611e44826127ab565b6000611e5b60408051602081019091526000815290565b90506000815111611e7b5760405180602001604052806000815250611ea6565b80611e8584612dcc565b604051602001611e96929190614446565b6040516020818303038152906040525b9392505050565b600260005403611ecf5760405162461bcd60e51b815260040161091990614255565b6002600055611edc611b2e565b15611f20578015611f205760405162461bcd60e51b815260206004820152600e60248201526d1b1bd8dadcc8191a5cd8589b195960921b6044820152606401610919565b611f2861243c565b600c54611f3f906001600160a01b03163384612920565b915081600003611f7f5760405162461bcd60e51b815260206004820152600b60248201526a1e995c9bc8185b5bdd5b9d60aa1b6044820152606401610919565b6000611f8a33612764565b90506000611f9783611bb4565b90506000611fb56127106109ea611fae8583612787565b8890612793565b9050604051806101400160405280868152602001828152602001611fd64290565b8152602001858152602001838152602001612008670de0b6b3a76400006109ea6011548661279390919063ffffffff16565b815260006020808301829052604080840187905260608085018490526080948501849052888452601883529281902085518155918501516001830155840151600282015590830151600382015590820151600482015560a0820151600582015560c0820151600682015560e08201516007820155610100820151600882015561012090910151600990910155600f546120a19086612787565b600f556010546120b19082612787565b601055604080518681526020810186905284917fc75220a9dbab7c65d9cc87d8534accb348d3f151ee2afccfb42e6ccf75556f23910160405180910390a250506001600055505050565b60026000540361211d5760405162461bcd60e51b815260040161091990614255565b600260005561212b8261287f565b61213361243c565b610fee8282612ecd565b600061187f6008612869565b60026000540361216b5760405162461bcd60e51b815260040161091990614255565b600260005561217861243c565b6001600055565b6002600054036121a15760405162461bcd60e51b815260040161091990614255565b60026000556121af8261287f565b6121b761243c565b60006121c2836117b1565b90506121cf818484612fe7565b610daf81848461316e565b600061187f60075490565b336001600160a01b037f0000000000000000000000000000000000000000000000000000000000000000161480156122275750600b54600160a01b900460ff16155b6122435760405162461bcd60e51b8152600401610919906142c6565b600c80546001600160a01b038084166001600160a01b031992831617909255600b8054600d80548886169085168117909155600e80548887169516851790556001600160a81b031990911693881693909317600160a01b17905560405163095ea7b360e01b815263095ea7b3916122d491600019906004016001600160a01b03929092168252602082015260400190565b6020604051808303816000875af11580156122f3573d6000803e3d6000fd5b505050506040513d601f19601f820116820180604052508101906123179190614429565b5050505050565b612326612af7565b6127108111156123485760405162461bcd60e51b8152600401610919906142e9565b60168190556040518181527f245dcc61a0dbc5dfd6e10013afb53cab2be35be24e6306f5781b602556d1390990602001610f53565b60026000540361239f5760405162461bcd60e51b815260040161091990614255565b60026000556123ad8161287f565b6123b561243c565b600081815260186020526040902060030154610d75908290612ecd565b6123db81612b39565b6123f75760405162461bcd60e51b815260040161091990614475565b61240133826131ad565b6124395760405162461bcd60e51b81526020600482015260096024820152683737ba1037bbb732b960b91b6044820152606401610919565b50565b600b546040805163372500ab60e01b815290516000926001600160a01b03169163372500ab916004808301926020929190829003018187875af1158015612487573d6000803e3d6000fd5b505050506040513d601f19601f820116820180604052508101906124ab9190614410565b905080156124dd576010546124d9906124d0906109ea84670de0b6b3a7640000612793565b60115490612787565b6011555b7f7fa9647ec1cc14e3822b46d05a2b9d4e019bde8875c0088c46b6503d71bf17224260115460408051928352602083019190915201610f53565b6000828152601860205260408120600581015460115460018301549293926125529291611a9891670de0b6b3a7640000916109ea9190612793565b905061255c611b2e565b806125795750426003830154600284015461257691612787565b11155b1561258d5760006003830181905560048301555b60008111806125a0575060008260080154115b806125af575060008260090154115b1561266b5760006125d16127106109ea6016548561279390919063ffffffff16565b905060006125f082611a9886600901548661278790919063ffffffff16565b905061260984600801548361278790919063ffffffff16565b91506001600160a01b03851660000361262f576008840182905560098401819055612668565b600060088501819055600985015581156126505761264d85836131d4565b91505b61265a85826132c8565b90506126688587838561335e565b50505b604080516001600160a01b03851681526020810183905285917fcc70d7e29d5f6e6a993743a891f22f70aee482bafb25b00b8909ee1bf9028ae2910160405180910390a250505050565b6000611ea682846144c1565b60006126dd8260040154611ab084600001548560060154611884565b90506012548111156126ee57506012545b6007820181905560006127126127106109ea61270a8583612787565b865490612793565b905061273181611ab085600101546010546126b590919063ffffffff16565b6010556001830181905560115461275790670de0b6b3a7640000906109ea908490612793565b8360050181905550505050565b6000612774600780546001019055565b506007546127828282613445565b919050565b6000611ea682846144d4565b6000611ea682846144e7565b6000611ea6828461451c565b6127b481612b39565b6124395760405162461bcd60e51b8152602060048201526018602482015277115490cdcc8c4e881a5b9d985b1a59081d1bdad95b88125160421b6044820152606401610919565b600081815260056020526040902080546001600160a01b0319166001600160a01b0384169081179091558190612830826117b1565b6001600160a01b03167f8c5be1e5ebec7d5bd14f71427d1e84f3dd0314c0f7b2291e5b200ac8c7c3b92560405160405180910390a45050565b60006108f1825490565b6000611ea6838361345f565b61288881612b39565b6128a45760405162461bcd60e51b815260040161091990614475565b6128ae33826131ad565b806128c95750336128be82610bb8565b6001600160a01b0316145b6124395760405162461bcd60e51b8152600401610919906142c6565b6128ef3382613489565b61290b5760405162461bcd60e51b815260040161091990614530565b610cef838383613507565b6128c93382613489565b6040516370a0823160e01b815230600482015260009081906001600160a01b038616906370a0823190602401602060405180830381865afa158015612969573d6000803e3d6000fd5b505050506040513d601f19601f8201168201806040525081019061298d9190614410565b90506129a46001600160a01b0386168530866136ae565b6040516370a0823160e01b8152306004820152612a129082906001600160a01b038816906370a0823190602401602060405180830381865afa1580156129ee573d6000803e3d6000fd5b505050506040513d601f19601f82011682018060405250810190611a989190614410565b95945050505050565b6001600160a01b0383163b15610cef576040513360248201526044810183905260648101829052600090612abf9063e2b36dc360e01b906084015b60408051601f19818403018152918152602080830180516001600160e01b03166001600160e01b0319909516949094179093528051808201909152600f81526e1b9bdb881a5b5c1b195b595b9d1959608a1b928101929092526001600160a01b038716916136e6565b905080806020019051810190612ad59190614429565b612af15760405162461bcd60e51b8152600401610919906142c6565b50505050565b612aff611c11565b6001600160a01b0316336001600160a01b031614612b2f5760405162461bcd60e51b8152600401610919906142c6565b565b612aff611811565b6000908152600360205260409020546001600160a01b0316151590565b6000611ea6836001600160a01b0384166136f5565b6000611ea6836001600160a01b038416613744565b6001600160a01b03811660009081526001830160205260408120541515611ea6565b8015612c1357612bb0611811565b60405163152150d560e21b8152336004820152602481018490526001600160a01b039190911690635485435490604401600060405180830381600087803b158015612bfa57600080fd5b505af1158015612c0e573d6000803e3d6000fd5b505050505b6000828152601860205260408120818155600181018290556002810182905560038101829055600481018290556005810182905560068101829055600781018290556008810182905560090155611cd782613837565b6040516001600160a01b038316602482015260448101829052610cef90849063a9059cbb60e01b906064015b60408051601f198184030181529190526020810180516001600160e01b03166001600160e01b0319909316929092179091526138de565b816001600160a01b0316836001600160a01b031603612d2d5760405162461bcd60e51b815260206004820152601960248201527f4552433732313a20617070726f766520746f2063616c6c6572000000000000006044820152606401610919565b6001600160a01b03838116600081815260066020908152604080832094871680845294825291829020805460ff191686151590811790915591519182527f17307eab39ab6107e8899845ad3d59bd9653f200f220920489ca2b5937696c31910160405180910390a3505050565b612da43383613489565b612dc05760405162461bcd60e51b815260040161091990614530565b612af1848484846139b0565b606081600003612df35750506040805180820190915260018152600360fc1b602082015290565b8160005b8115612e1d5780612e0781614337565b9150612e169050600a8361451c565b9150612df7565b60008167ffffffffffffffff811115612e3857612e386140d5565b6040519080825280601f01601f191660200182016040528015612e62576020820181803683370190505b5090505b841561194857612e776001836144c1565b9150612e84600a8661457e565b612e8f9060306144d4565b60f81b818381518110612ea457612ea461430b565b60200101906001600160f81b031916908160001a905350612ec6600a8661451c565b9450612e66565b612ed5611b2e565b15612f135760405162461bcd60e51b815260206004820152600e60248201526d1b1bd8dadcc8191a5cd8589b195960921b6044820152606401610919565b600082815260186020526040812060038101546002820154919291612f3791612787565b90504280821115612f7757612f4c82826126b5565b8410158015612f5b5750600084115b612f775760405162461bcd60e51b815260040161091990614350565b612f818533612517565b60038301849055612f9184611bb4565b600484015560028301819055612fa6836126c1565b847f817ea9dab606b88f1d3b71d35f23e301a95c27058f35c39acf502f471feb03b885604051612fd891815260200190565b60405180910390a25050505050565b600081116130205760405162461bcd60e51b8152600401610919906020808252600490820152631b9d5b1b60e21b604082015260600190565b6000828152601860205260409020613039600885612b80565b806130565750426003820154600283015461305391612787565b11155b806130645750613064611b2e565b6130995760405162461bcd60e51b81526020600482015260066024820152651b1bd8dad95960d21b6044820152606401610919565b80548211156130ba5760405162461bcd60e51b815260040161091990614350565b6130c48385612517565b80546130d090836126b5565b8155600f546130df90836126b5565b600f5580546000036131145760018101546010546130fc916126b5565b601055600681015461310f908490612ba2565b61311d565b61311d816126c1565b827f10b3873e32aa5edce774b02db517f3bde3429d0e97b57b74cb569ba85ce69a588360405161314f91815260200190565b60405180910390a2600c54612af1906001600160a01b03168584612c69565b6001600160a01b0383163b15610cef576040513360248201526044810183905260648101829052600090612abf90631a33be3d60e11b90608401612a56565b60006131b8826117b1565b6001600160a01b0316836001600160a01b031614905092915050565b600d546040516370a0823160e01b815230600482015260009182916001600160a01b03909116906370a0823190602401602060405180830381865afa158015613221573d6000803e3d6000fd5b505050506040513d601f19601f820116820180604052508101906132459190614410565b905080831115613253578092505b82156132c057600e546040516316874d3760e21b8152600481018590526001600160a01b03868116602483015290911690635a1d34dc90604401600060405180830381600087803b1580156132a757600080fd5b505af11580156132bb573d6000803e3d6000fd5b505050505b509092915050565b600d546040516370a0823160e01b815230600482015260009182916001600160a01b03909116906370a0823190602401602060405180830381865afa158015613315573d6000803e3d6000fd5b505050506040513d601f19601f820116820180604052508101906133399190614410565b905080831115613347578092505b600d546132c0906001600160a01b03168585612c69565b6000613369846117b1565b90506001600160a01b0381163b1561231757604080513360248201526001600160a01b038781166044830152606482018790526084820186905260a48083018690528351808403909101815260c49092018352602080830180516001600160e01b031663fe4ee96760e01b1790528351808501909452600f84526e1b9bdb881a5b5c1b195b595b9d1959608a1b9084015260009261340b9291851691906136e6565b9050808060200190518101906134219190614429565b61343d5760405162461bcd60e51b8152600401610919906142c6565b505050505050565b611cd78282604051806020016040528060008152506139e3565b60008260000182815481106134765761347661430b565b9060005260206000200154905092915050565b600080613495836117b1565b9050806001600160a01b0316846001600160a01b031614806134dc57506001600160a01b0380821660009081526006602090815260408083209388168352929052205460ff165b806119485750836001600160a01b03166134f584610bb8565b6001600160a01b031614949350505050565b826001600160a01b031661351a826117b1565b6001600160a01b03161461357e5760405162461bcd60e51b815260206004820152602560248201527f4552433732313a207472616e736665722066726f6d20696e636f72726563742060448201526437bbb732b960d91b6064820152608401610919565b6001600160a01b0382166135e05760405162461bcd60e51b8152602060048201526024808201527f4552433732313a207472616e7366657220746f20746865207a65726f206164646044820152637265737360e01b6064820152608401610919565b6135eb838383613a16565b6135f66000826127fb565b6001600160a01b038316600090815260046020526040812080546001929061361f9084906144c1565b90915550506001600160a01b038216600090815260046020526040812080546001929061364d9084906144d4565b909155505060008181526003602052604080822080546001600160a01b0319166001600160a01b0386811691821790925591518493918716917fddf252ad1be2c89b69c2b068fc378daa952ba7f163c4a11628f55a4df523b3ef91a4505050565b6040516001600160a01b0380851660248301528316604482015260648101829052612af19085906323b872dd60e01b90608401612c95565b60606119488484600085613a51565b600081815260018301602052604081205461373c575081546001818101845560008481526020808220909301849055845484825282860190935260409020919091556108f1565b5060006108f1565b6000818152600183016020526040812054801561382d5760006137686001836144c1565b855490915060009061377c906001906144c1565b90508181146137e157600086600001828154811061379c5761379c61430b565b90600052602060002001549050808760000184815481106137bf576137bf61430b565b6000918252602080832090910192909255918252600188019052604090208390555b85548690806137f2576137f2614592565b6001900381819060005260206000200160009055905585600101600086815260200190815260200160002060009055600193505050506108f1565b60009150506108f1565b6000613842826117b1565b905061385081600084613a16565b61385b6000836127fb565b6001600160a01b03811660009081526004602052604081208054600192906138849084906144c1565b909155505060008281526003602052604080822080546001600160a01b0319169055518391906001600160a01b038416907fddf252ad1be2c89b69c2b068fc378daa952ba7f163c4a11628f55a4df523b3ef908390a45050565b6000613933826040518060400160405280602081526020017f5361666545524332303a206c6f772d6c6576656c2063616c6c206661696c6564815250856001600160a01b03166136e69092919063ffffffff16565b805190915015610cef57808060200190518101906139519190614429565b610cef5760405162461bcd60e51b815260206004820152602a60248201527f5361666545524332303a204552433230206f7065726174696f6e20646964206e6044820152691bdd081cdd58d8d9595960b21b6064820152608401610919565b6139bb848484613507565b6139c784848484613b77565b612af15760405162461bcd60e51b8152600401610919906145a8565b6139ed8383613c75565b6139fa6000848484613b77565b610cef5760405162461bcd60e51b8152600401610919906145a8565b6001600160a01b0383163b1580613a355750336001600160a01b038416145b610cef5760405162461bcd60e51b8152600401610919906142c6565b606082471015613ab25760405162461bcd60e51b815260206004820152602660248201527f416464726573733a20696e73756666696369656e742062616c616e636520666f6044820152651c8818d85b1b60d21b6064820152608401610919565b6001600160a01b0385163b613b095760405162461bcd60e51b815260206004820152601d60248201527f416464726573733a2063616c6c20746f206e6f6e2d636f6e74726163740000006044820152606401610919565b600080866001600160a01b03168587604051613b2591906145fa565b60006040518083038185875af1925050503d8060008114613b62576040519150601f19603f3d011682016040523d82523d6000602084013e613b67565b606091505b5091509150611b23828286613db4565b60006001600160a01b0384163b15613c6d57604051630a85bd0160e11b81526001600160a01b0385169063150b7a0290613bbb903390899088908890600401614616565b6020604051808303816000875af1925050508015613bf6575060408051601f3d908101601f19168201909252613bf391810190614653565b60015b613c53573d808015613c24576040519150601f19603f3d011682016040523d82523d6000602084013e613c29565b606091505b508051600003613c4b5760405162461bcd60e51b8152600401610919906145a8565b805181602001fd5b6001600160e01b031916630a85bd0160e11b149050611948565b506001611948565b6001600160a01b038216613ccb5760405162461bcd60e51b815260206004820181905260248201527f4552433732313a206d696e7420746f20746865207a65726f20616464726573736044820152606401610919565b613cd481612b39565b15613d215760405162461bcd60e51b815260206004820152601c60248201527f4552433732313a20746f6b656e20616c7265616479206d696e746564000000006044820152606401610919565b613d2d60008383613a16565b6001600160a01b0382166000908152600460205260408120805460019290613d569084906144d4565b909155505060008181526003602052604080822080546001600160a01b0319166001600160a01b03861690811790915590518392907fddf252ad1be2c89b69c2b068fc378daa952ba7f163c4a11628f55a4df523b3ef908290a45050565b60608315613dc3575081611ea6565b825115613dd35782518084602001fd5b8160405162461bcd60e51b81526004016109199190613e92565b6001600160e01b03198116811461243957600080fd5b600060208284031215613e1557600080fd5b8135611ea681613ded565b60008060408385031215613e3357600080fd5b50508035926020909101359150565b60005b83811015613e5d578181015183820152602001613e45565b50506000910152565b60008151808452613e7e816020860160208601613e42565b601f01601f19169290920160200192915050565b602081526000611ea66020830184613e66565b600060208284031215613eb757600080fd5b5035919050565b6001600160a01b038116811461243957600080fd5b60008060408385031215613ee657600080fd5b8235613ef181613ebe565b946020939093013593505050565b600080600060608486031215613f1457600080fd5b8335613f1f81613ebe565b92506020840135613f2f81613ebe565b929592945050506040919091013590565b801515811461243957600080fd5b600060208284031215613f6057600080fd5b8135611ea681613f40565b60008060408385031215613f7e57600080fd5b823591506020830135613f9081613ebe565b809150509250929050565b60008083601f840112613fad57600080fd5b50813567ffffffffffffffff811115613fc557600080fd5b6020830191508360208260051b8501011115613fe057600080fd5b9250929050565b600080600060408486031215613ffc57600080fd5b833567ffffffffffffffff81111561401357600080fd5b61401f86828701613f9b565b909450925050602084013561403381613ebe565b809150509250925092565b6000806040838503121561405157600080fd5b823561405c81613ebe565b91506020830135613f9081613f40565b60008060006040848603121561408157600080fd5b833567ffffffffffffffff81111561409857600080fd5b6140a486828701613f9b565b909790965060209590950135949350505050565b6000602082840312156140ca57600080fd5b8135611ea681613ebe565b634e487b7160e01b600052604160045260246000fd5b6000806000806080858703121561410157600080fd5b843561410c81613ebe565b9350602085013561411c81613ebe565b925060408501359150606085013567ffffffffffffffff8082111561414057600080fd5b818701915087601f83011261415457600080fd5b813581811115614166576141666140d5565b604051601f8201601f19908116603f0116810190838211818310171561418e5761418e6140d5565b816040528281528a60208487010111156141a757600080fd5b82602086016020830137600060208483010152809550505050505092959194509250565b600080604083850312156141de57600080fd5b82356141e981613ebe565b91506020830135613f9081613ebe565b6000806000806080858703121561420f57600080fd5b843561421a81613ebe565b9350602085013561422a81613ebe565b9250604085013561423a81613ebe565b9150606085013561424a81613ebe565b939692955090935050565b6020808252601f908201527f5265656e7472616e637947756172643a207265656e7472616e742063616c6c00604082015260600190565b600181811c908216806142a057607f821691505b6020821081036142c057634e487b7160e01b600052602260045260246000fd5b50919050565b6020808252600990820152682327a92124a22222a760b91b604082015260600190565b6020808252600890820152670e8dede40d0d2ced60c31b604082015260600190565b634e487b7160e01b600052603260045260246000fd5b634e487b7160e01b600052601160045260246000fd5b60006001820161434957614349614321565b5060010190565b6020808252600790820152661a5b9d985b1a5960ca1b604082015260600190565b6020808252810182905260006001600160fb1b0383111561439157600080fd5b8260051b80856040850137919091016040019392505050565b600080600080600060a086880312156143c257600080fd5b85516143cd81613ebe565b602087015160408801516060890151608090990151929a91995097965090945092505050565b60006020828403121561440557600080fd5b8151611ea681613ebe565b60006020828403121561442257600080fd5b5051919050565b60006020828403121561443b57600080fd5b8151611ea681613f40565b60008351614458818460208801613e42565b83519083019061446c818360208801613e42565b01949350505050565b6020808252602c908201527f4552433732313a206f70657261746f7220717565727920666f72206e6f6e657860408201526b34b9ba32b73a103a37b5b2b760a11b606082015260800190565b818103818111156108f1576108f1614321565b808201808211156108f1576108f1614321565b600081600019048311821515161561450157614501614321565b500290565b634e487b7160e01b600052601260045260246000fd5b60008261452b5761452b614506565b500490565b6020808252602e908201527f4552433732313a2063616c6c6572206973206e6f7420746f6b656e206f776e6560408201526d1c881b9bdc88185c1c1c9bdd995960921b606082015260800190565b60008261458d5761458d614506565b500690565b634e487b7160e01b600052603160045260246000fd5b60208082526032908201527f4552433732313a207472616e7366657220746f206e6f6e20455243373231526560408201527131b2b4bb32b91034b6b83632b6b2b73a32b960711b606082015260800190565b6000825161460c818460208701613e42565b9190910192915050565b6001600160a01b038581168252841660208201526040810183905260806060820181905260009061464990830184613e66565b9695505050505050565b60006020828403121561466557600080fd5b8151611ea681613ded56fea2646970667358221220e73da16cad98a193d5c9732c685841f53ce0a77577f9a1f9d96cbabcbc41ae2564736f6c63430008100033a26469706673582212201bbe7576c280c0d49ee56c381d95b5fda8003fb5e28b9f670e90630d1ae8182564736f6c63430008100033",
  "linkReferences": {},
  "deployedLinkReferences": {}
}