{
  "_format": "hh-sol-artifact-1",
  "contractName": "PositionHelper",
  "sourceName": "contracts/PositionHelper.sol",
  "abi": [
    {
      "inputs": [
        {
          "internalType": "contract IArthurRouter",
          "name": "router_",
          "type": "address"
        },
        {
          "internalType": "address",
          "name": "weth_",
          "type": "address"
        }
      ],
      "stateMutability": "nonpayable",
      "type": "constructor"
    },
    {
      "inputs": [
        {
          "internalType": "address",
          "name": "tokenA",
          "type": "address"
        },
        {
          "internalType": "address",
          "name": "tokenB",
          "type": "address"
        },
        {
          "internalType": "uint256",
          "name": "amountADesired",
          "type": "uint256"
        },
        {
          "internalType": "uint256",
          "name": "amountBDesired",
          "type": "uint256"
        },
        {
          "internalType": "uint256",
          "name": "amountAMin",
          "type": "uint256"
        },
        {
          "internalType": "uint256",
          "name": "amountBMin",
          "type": "uint256"
        },
        {
          "internalType": "uint256",
          "name": "deadline",
          "type": "uint256"
        },
        {
          "internalType": "address",
          "name": "to",
          "type": "address"
        },
        {
          "internalType": "contract INFTPool",
          "name": "nftPool",
          "type": "address"
        },
        {
          "internalType": "uint256",
          "name": "lockDuration",
          "type": "uint256"
        },
        {
          "internalType": "uint256",
          "name": "timeLock",
          "type": "uint256"
        }
      ],
      "name": "addLiquidityAndCreatePosition",
      "outputs": [],
      "stateMutability": "nonpayable",
      "type": "function"
    },
    {
      "inputs": [
        {
          "internalType": "address",
          "name": "token",
          "type": "address"
        },
        {
          "internalType": "uint256",
          "name": "amountTokenDesired",
          "type": "uint256"
        },
        {
          "internalType": "uint256",
          "name": "amountTokenMin",
          "type": "uint256"
        },
        {
          "internalType": "uint256",
          "name": "amountETHMin",
          "type": "uint256"
        },
        {
          "internalType": "uint256",
          "name": "deadline",
          "type": "uint256"
        },
        {
          "internalType": "uint256",
          "name": "timeLock",
          "type": "uint256"
        },
        {
          "internalType": "address",
          "name": "to",
          "type": "address"
        },
        {
          "internalType": "contract INFTPool",
          "name": "nftPool",
          "type": "address"
        },
        {
          "internalType": "uint256",
          "name": "lockDuration",
          "type": "uint256"
        }
      ],
      "name": "addLiquidityETHAndCreatePosition",
      "outputs": [],
      "stateMutability": "payable",
      "type": "function"
    },
    {
      "inputs": [
        {
          "internalType": "address",
          "name": "",
          "type": "address"
        },
        {
          "internalType": "address",
          "name": "from",
          "type": "address"
        },
        {
          "internalType": "uint256",
          "name": "tokenId",
          "type": "uint256"
        },
        {
          "internalType": "bytes",
          "name": "",
          "type": "bytes"
        }
      ],
      "name": "onERC721Received",
      "outputs": [
        {
          "internalType": "bytes4",
          "name": "",
          "type": "bytes4"
        }
      ],
      "stateMutability": "view",
      "type": "function"
    },
    {
      "inputs": [],
      "name": "router",
      "outputs": [
        {
          "internalType": "contract IArthurRouter",
          "name": "",
          "type": "address"
        }
      ],
      "stateMutability": "view",
      "type": "function"
    },
    {
      "inputs": [],
      "name": "weth",
      "outputs": [
        {
          "internalType": "address",
          "name": "",
          "type": "address"
        }
      ],
      "stateMutability": "view",
      "type": "function"
    },
    {
      "stateMutability": "payable",
      "type": "receive"
    }
  ],
  "bytecode": "0x60c060405234801561001057600080fd5b5060405161154f38038061154f83398101604081905261002f91610063565b60016000556001600160a01b039182166080521660a05261009d565b6001600160a01b038116811461006057600080fd5b50565b6000806040838503121561007657600080fd5b82516100818161004b565b60208401519092506100928161004b565b809150509250929050565b60805160a05161146c6100e360003960008181605e0152818160e201526107770152600081816101610152818161028801528181610454015261079f015261146c6000f3fe60806040526004361061004e5760003560e01c8063150b7a02146100925780633fc8cef3146100d0578063966a194e1461011c578063bc793a9f1461013c578063f887ea401461014f57600080fd5b3661008d57336001600160a01b037f0000000000000000000000000000000000000000000000000000000000000000161461008b5761008b611023565b005b600080fd5b34801561009e57600080fd5b506100b26100ad366004611051565b610183565b6040516001600160e01b031990911681526020015b60405180910390f35b3480156100dc57600080fd5b506101047f000000000000000000000000000000000000000000000000000000000000000081565b6040516001600160a01b0390911681526020016100c7565b34801561012857600080fd5b5061008b6101373660046110f0565b610208565b61008b61014a366004611195565b6106ff565b34801561015b57600080fd5b506101047f000000000000000000000000000000000000000000000000000000000000000081565b6000600154841480156101a057506002546001600160a01b031633145b80156101b357506001600160a01b038516155b6101f65760405162461bcd60e51b815260206004820152600f60248201526e125b9d985b1a59081d1bdad95b9259608a1b60448201526064015b60405180910390fd5b50630a85bd0160e11b95945050505050565b60026000540361025a5760405162461bcd60e51b815260206004820152601f60248201527f5265656e7472616e637947756172643a207265656e7472616e742063616c6c0060448201526064016101ed565b6002600090815560405163e6a4390560e01b81526001600160a01b038d811660048301528c811660248301527f0000000000000000000000000000000000000000000000000000000000000000169063e6a4390590604401602060405180830381865afa1580156102cf573d6000803e3d6000fd5b505050506040513d601f19601f820116820180604052508101906102f3919061121b565b90506000846001600160a01b03166360246c886040518163ffffffff1660e01b815260040161010060405180830381865afa158015610336573d6000803e3d6000fd5b505050506040513d601f19601f8201168201806040525081019061035a9190611238565b505050505050509050806001600160a01b0316826001600160a01b0316146103b65760405162461bcd60e51b815260206004820152600f60248201526e1a5b9d985b1a59081b999d141bdbdb608a1b60448201526064016101ed565b506040516001600160a01b03808e1660248301528c166044820152606481018b9052608481018a905260a4810189905260c481018890523060e48201526101048101879052610124810183905260009061047a90632ba9466560e11b90610144015b60408051601f198184030181529190526020810180516001600160e01b03166001600160e01b0319909316929092179091526001600160a01b037f00000000000000000000000000000000000000000000000000000000000000001690610b7b565b905060008180602001905181019061049291906112b5565b925050506105036001876001600160a01b031663f84ddf0b6040518163ffffffff1660e01b8152600401602060405180830381865afa1580156104d9573d6000803e3d6000fd5b505050506040513d601f19601f820116820180604052508101906104fd91906112e3565b90610ba9565b600155600280546001600160a01b0319166001600160a01b038881169182179092556105329185169083610bb5565b60405163d1aaef0560e01b815260048101829052602481018690526001600160a01b0387169063d1aaef0590604401600060405180830381600087803b15801561057b57600080fd5b505af115801561058f573d6000803e3d6000fd5b50505050600080876001600160a01b03166308521f796001546040518263ffffffff1660e01b81526004016105c691815260200190565b61010060405180830381865afa1580156105e4573d6000803e3d6000fd5b505050506040513d601f19601f8201168201806040525081019061060891906112fc565b50505050935050509150818314801561062057508087145b6106675760405162461bcd60e51b81526020600482015260186024820152771a5b9d985b1a59081c1bdcda5d1a5bdb8818dc99585d195960421b60448201526064016101ed565b600154604051632142170760e11b81523060048201526001600160a01b038b811660248301526044820192909252908916906342842e0e90606401600060405180830381600087803b1580156106bc57600080fd5b505af11580156106d0573d6000803e3d6000fd5b505060006001818155600280546001600160a01b03191690559055505050505050505050505050505050505050565b6002600054036107515760405162461bcd60e51b815260206004820152601f60248201527f5265656e7472616e637947756172643a207265656e7472616e742063616c6c0060448201526064016101ed565b6002600090815560405163e6a4390560e01b81526001600160a01b038b811660048301527f0000000000000000000000000000000000000000000000000000000000000000811660248301527f0000000000000000000000000000000000000000000000000000000000000000169063e6a4390590604401602060405180830381865afa1580156107e6573d6000803e3d6000fd5b505050506040513d601f19601f8201168201806040525081019061080a919061121b565b90506000836001600160a01b03166360246c886040518163ffffffff1660e01b815260040161010060405180830381865afa15801561084d573d6000803e3d6000fd5b505050506040513d601f19601f820116820180604052508101906108719190611238565b505050505050509050806001600160a01b0316826001600160a01b0316146108cd5760405162461bcd60e51b815260206004820152600f60248201526e1a5b9d985b1a59081b999d141bdbdb608a1b60448201526064016101ed565b6040516001600160a01b038c166024820152604481018b9052606481018a9052608481018990523060a482015260c4810188905260e48101879052600090610921906335db537b60e11b9061010401610418565b905060008180602001905181019061093991906112b5565b925050506109806001876001600160a01b031663f84ddf0b6040518163ffffffff1660e01b8152600401602060405180830381865afa1580156104d9573d6000803e3d6000fd5b600155600280546001600160a01b0319166001600160a01b038881169182179092556109af9186169083610bb5565b60405163d1aaef0560e01b815260048101829052602481018690526001600160a01b0387169063d1aaef0590604401600060405180830381600087803b1580156109f857600080fd5b505af1158015610a0c573d6000803e3d6000fd5b50505050600080876001600160a01b03166308521f796001546040518263ffffffff1660e01b8152600401610a4391815260200190565b61010060405180830381865afa158015610a61573d6000803e3d6000fd5b505050506040513d601f19601f82011682018060405250810190610a8591906112fc565b505050509350505091508183148015610a9d57508087145b610ae45760405162461bcd60e51b81526020600482015260186024820152771a5b9d985b1a59081c1bdcda5d1a5bdb8818dc99585d195960421b60448201526064016101ed565b600154604051632142170760e11b81523060048201526001600160a01b038b811660248301526044820192909252908916906342842e0e90606401600060405180830381600087803b158015610b3957600080fd5b505af1158015610b4d573d6000803e3d6000fd5b505060006001818155600280546001600160a01b031916905590555050505050505050505050505050505050565b6060610ba0838360405180606001604052806027815260200161141060279139610cf1565b90505b92915050565b6000610ba08284611359565b801580610c2f5750604051636eb1769f60e11b81523060048201526001600160a01b03838116602483015284169063dd62ed3e90604401602060405180830381865afa158015610c09573d6000803e3d6000fd5b505050506040513d601f19601f82011682018060405250810190610c2d91906112e3565b155b610c9a5760405162461bcd60e51b815260206004820152603660248201527f5361666545524332303a20617070726f76652066726f6d206e6f6e2d7a65726f60448201527520746f206e6f6e2d7a65726f20616c6c6f77616e636560501b60648201526084016101ed565b604080516001600160a01b038416602482015260448082018490528251808303909101815260649091019091526020810180516001600160e01b031663095ea7b360e01b179052610cec908490610dd0565b505050565b60606001600160a01b0384163b610d595760405162461bcd60e51b815260206004820152602660248201527f416464726573733a2064656c65676174652063616c6c20746f206e6f6e2d636f6044820152651b9d1c9858dd60d21b60648201526084016101ed565b600080856001600160a01b031685604051610d74919061139e565b600060405180830381855af49150503d8060008114610daf576040519150601f19603f3d011682016040523d82523d6000602084013e610db4565b606091505b5091509150610dc4828286610ea2565b925050505b9392505050565b6000610e25826040518060400160405280602081526020017f5361666545524332303a206c6f772d6c6576656c2063616c6c206661696c6564815250856001600160a01b0316610edb9092919063ffffffff16565b805190915015610cec5780806020019051810190610e4391906113ba565b610cec5760405162461bcd60e51b815260206004820152602a60248201527f5361666545524332303a204552433230206f7065726174696f6e20646964206e6044820152691bdd081cdd58d8d9595960b21b60648201526084016101ed565b60608315610eb1575081610dc9565b825115610ec15782518084602001fd5b8160405162461bcd60e51b81526004016101ed91906113dc565b6060610eea8484600085610ef2565b949350505050565b606082471015610f535760405162461bcd60e51b815260206004820152602660248201527f416464726573733a20696e73756666696369656e742062616c616e636520666f6044820152651c8818d85b1b60d21b60648201526084016101ed565b6001600160a01b0385163b610faa5760405162461bcd60e51b815260206004820152601d60248201527f416464726573733a2063616c6c20746f206e6f6e2d636f6e747261637400000060448201526064016101ed565b600080866001600160a01b03168587604051610fc6919061139e565b60006040518083038185875af1925050503d8060008114611003576040519150601f19603f3d011682016040523d82523d6000602084013e611008565b606091505b5091509150611018828286610ea2565b979650505050505050565b634e487b7160e01b600052600160045260246000fd5b6001600160a01b038116811461104e57600080fd5b50565b60008060008060006080868803121561106957600080fd5b853561107481611039565b9450602086013561108481611039565b935060408601359250606086013567ffffffffffffffff808211156110a857600080fd5b818801915088601f8301126110bc57600080fd5b8135818111156110cb57600080fd5b8960208285010111156110dd57600080fd5b9699959850939650602001949392505050565b60008060008060008060008060008060006101608c8e03121561111257600080fd5b8b3561111d81611039565b9a5060208c013561112d81611039565b995060408c0135985060608c0135975060808c0135965060a08c0135955060c08c0135945060e08c013561116081611039565b93506101008c013561117181611039565b809350506101208c013591506101408c013590509295989b509295989b9093969950565b60008060008060008060008060006101208a8c0312156111b457600080fd5b89356111bf81611039565b985060208a0135975060408a0135965060608a0135955060808a0135945060a08a0135935060c08a01356111f281611039565b925060e08a013561120281611039565b809250506101008a013590509295985092959850929598565b60006020828403121561122d57600080fd5b8151610dc981611039565b600080600080600080600080610100898b03121561125557600080fd5b885161126081611039565b60208a015190985061127181611039565b60408a015190975061128281611039565b60608a015160808b015160a08c015160c08d015160e0909d01519b9e9a9d50929b919a9099929850909650945092505050565b6000806000606084860312156112ca57600080fd5b8351925060208401519150604084015190509250925092565b6000602082840312156112f557600080fd5b5051919050565b600080600080600080600080610100898b03121561131957600080fd5b505086516020880151604089015160608a015160808b015160a08c015160c08d015160e0909d0151959e949d50929b919a50985090965094509092509050565b80820180821115610ba357634e487b7160e01b600052601160045260246000fd5b60005b8381101561139557818101518382015260200161137d565b50506000910152565b600082516113b081846020870161137a565b9190910192915050565b6000602082840312156113cc57600080fd5b81518015158114610dc957600080fd5b60208152600082518060208401526113fb81604085016020870161137a565b601f01601f1916919091016040019291505056fe416464726573733a206c6f772d6c6576656c2064656c65676174652063616c6c206661696c6564a2646970667358221220487b483f49b11461dd1bfbaf870f8ac3b5be08a161822951dc359644f64d87ab64736f6c63430008100033",
  "linkReferences": {},
  "deployedLinkReferences": {}
}