{
  "_format": "hh-sol-artifact-1",
  "contractName": "PositionHelper",
  "sourceName": "contracts/PositionHelper.sol",
  "abi": [
    {
      "inputs": [
        {
          "internalType": "contract IFlashpadRouter",
          "name": "router_",
          "type": "address"
        },
        {
          "internalType": "address",
          "name": "weth_",
          "type": "address"
        }
      ],
      "stateMutability": "nonpayable",
      "type": "constructor"
    },
    {
      "inputs": [
        {
          "internalType": "address",
          "name": "tokenA",
          "type": "address"
        },
        {
          "internalType": "address",
          "name": "tokenB",
          "type": "address"
        },
        {
          "internalType": "uint256",
          "name": "amountADesired",
          "type": "uint256"
        },
        {
          "internalType": "uint256",
          "name": "amountBDesired",
          "type": "uint256"
        },
        {
          "internalType": "uint256",
          "name": "amountAMin",
          "type": "uint256"
        },
        {
          "internalType": "uint256",
          "name": "amountBMin",
          "type": "uint256"
        },
        {
          "internalType": "uint256",
          "name": "deadline",
          "type": "uint256"
        },
        {
          "internalType": "address",
          "name": "to",
          "type": "address"
        },
        {
          "internalType": "contract INFTPool",
          "name": "nftPool",
          "type": "address"
        },
        {
          "internalType": "uint256",
          "name": "lockDuration",
          "type": "uint256"
        },
        {
          "internalType": "uint256",
          "name": "timeLock",
          "type": "uint256"
        },
        {
          "internalType": "uint256",
          "name": "startTime",
          "type": "uint256"
        }
      ],
      "name": "addLiquidityAndCreatePosition",
      "outputs": [],
      "stateMutability": "nonpayable",
      "type": "function"
    },
    {
      "inputs": [
        {
          "internalType": "address",
          "name": "token",
          "type": "address"
        },
        {
          "internalType": "uint256",
          "name": "amountTokenDesired",
          "type": "uint256"
        },
        {
          "internalType": "uint256",
          "name": "amountTokenMin",
          "type": "uint256"
        },
        {
          "internalType": "uint256",
          "name": "amountETHMin",
          "type": "uint256"
        },
        {
          "internalType": "uint256",
          "name": "deadline",
          "type": "uint256"
        },
        {
          "internalType": "uint256",
          "name": "timeLock",
          "type": "uint256"
        },
        {
          "internalType": "uint256",
          "name": "startTime",
          "type": "uint256"
        },
        {
          "internalType": "address",
          "name": "to",
          "type": "address"
        },
        {
          "internalType": "contract INFTPool",
          "name": "nftPool",
          "type": "address"
        },
        {
          "internalType": "uint256",
          "name": "lockDuration",
          "type": "uint256"
        }
      ],
      "name": "addLiquidityETHAndCreatePosition",
      "outputs": [],
      "stateMutability": "payable",
      "type": "function"
    },
    {
      "inputs": [
        {
          "internalType": "address",
          "name": "",
          "type": "address"
        },
        {
          "internalType": "address",
          "name": "from",
          "type": "address"
        },
        {
          "internalType": "uint256",
          "name": "tokenId",
          "type": "uint256"
        },
        {
          "internalType": "bytes",
          "name": "",
          "type": "bytes"
        }
      ],
      "name": "onERC721Received",
      "outputs": [
        {
          "internalType": "bytes4",
          "name": "",
          "type": "bytes4"
        }
      ],
      "stateMutability": "view",
      "type": "function"
    },
    {
      "inputs": [],
      "name": "router",
      "outputs": [
        {
          "internalType": "contract IFlashpadRouter",
          "name": "",
          "type": "address"
        }
      ],
      "stateMutability": "view",
      "type": "function"
    },
    {
      "inputs": [],
      "name": "weth",
      "outputs": [
        {
          "internalType": "address",
          "name": "",
          "type": "address"
        }
      ],
      "stateMutability": "view",
      "type": "function"
    },
    {
      "stateMutability": "payable",
      "type": "receive"
    }
  ],
  "bytecode": "0x60c0346100a457601f6111af38819003918201601f19168301916001600160401b038311848410176100a95780849260409485528339810103126100a45780516001600160a01b039182821682036100a4576020015191821682036100a457600160005560805260a0526040516110ef90816100c0823960805181818160ba0152818161016a0152610655015260a05181818160220152818161059801526106230152f35b600080fd5b634e487b7160e01b600052604160045260246000fdfe608060409080825260049182361015610067575b5050361561002057600080fd5b7f00000000000000000000000000000000000000000000000000000000000000006001600160a01b0316330361005257005b600190634e487b7160e01b6000525260246000fd5b600091823560e01c908163150b7a0214610a71575080632a45ec1e146105c75780633fc8cef3146105845780636dc2ffb9146100ed5763f887ea400361001357346100e957816003193601126100e957517f00000000000000000000000000000000000000000000000000000000000000006001600160a01b03168152602090f35b5080fd5b508234610580578261018091826003193601126100e95761010c610b55565b90610115610b6b565b9361011e610b81565b92610127610b97565b916002966101388888541415610bae565b878755885163e6a4390560e01b81526001600160a01b03848116878301908152838216602080830191909152929992937f0000000000000000000000000000000000000000000000000000000000000000831692909185908c9081900360400181865afa9a8b1561057657849b61053f575b50808d5198630c048d9160e31b8a52169a888c818c6101009c8d935afa95861561053457956104f6575b5081806101e5921695168514610caa565b8c51908582019263f3b790cd60e01b84528160249916898401521660448201526044356064820152606435608482015260843560a482015260a43560c48201523060e482015260c435610104820152610144956101249680358884015261016435818401528252810181811067ffffffffffffffff8211176104e2578d52518d928392905af4610273610ce8565b90156104a95780838061028b93518301019101610d28565b939150508a5163f84ddf0b60e01b8152818189818d5afa91821561049f578d9261046c575b50506001810180911161045a57918893918c989796959360015581858a8d8054906bffffffffffffffffffffffff60a01b9e8f831617905516176102f392610dca565b833b15610456578a519163d1aaef0560e01b8352818784015235918284820152888160448183895af1908115610438578991610442575b505060015494808c5180956308521f7960e01b8252888a83015281885afa9182156104385761036d948a928b946103fc575b50501491826103f2575b5050610d7e565b803b156103ee578751632142170760e11b8152309381019384526001600160a01b0390941660208401526040830191909152839183919082908490829060600103925af180156103e4576103cc575b5060015581541690556001825551f35b6103d590610bfa565b6103e05783856103bc565b8380fd5b85513d84823e3d90fd5b8480fd5b1490508b80610366565b80919294506104209350903d10610431575b6104188183610c24565b810190610d43565b505050509291505090918e8061035c565b503d61040e565b8c513d8b823e3d90fd5b61044b90610bfa565b61045657878d61032a565b8780fd5b634e487b7160e01b8c5260118752848cfd5b90809250813d8311610498575b6104838183610c24565b8101031261049357518c806102b0565b600080fd5b503d610479565b8c513d8f823e3d90fd5b8a5162461bcd60e51b81528088018490526014818701527319195b1959d85d194818d85b1b0819985a5b195960621b6044820152606490fd5b8760418b634e487b7160e01b600052526000fd5b6101e59195508261051d81928c8d3d1061052d575b6105158183610c24565b810190610c5a565b50505050505050969250506101d4565b503d61050b565b8f51903d90823e3d90fd5b909a508481813d831161056f575b6105578183610c24565b810103126103e05761056890610c46565b998e6101aa565b503d61054d565b8d513d86823e3d90fd5b8280fd5b50346100e957816003193601126100e957517f00000000000000000000000000000000000000000000000000000000000000006001600160a01b03168152602090f35b506101409283600319360112610580576105df610b55565b906105e8610b81565b6105f0610b97565b916002936106018588541415610bae565b848755855163e6a4390560e01b81526001600160a01b038281168483019081527f000000000000000000000000000000000000000000000000000000000000000082166020808301919091529a92939192907f00000000000000000000000000000000000000000000000000000000000000008416908c90869081900360400181845afa948515610951578b95610a36575b50838a5198630c048d9160e31b8a52169361010095868a8981895afa998a1561049f578d9a610a08575b5081806106ce92169a168a14610caa565b8a51928d840191632218a33960e11b8352602495168585015284356044850152604435606485015260643560848501523060a485015260843560c485015260a43560e485015261010460c43581860152845283019267ffffffffffffffff818510818611176109f6576101a08201908111858210176109f6578c52602784527f416464726573733a206c6f772d6c6576656c2064656c65676174652063616c6c610160820152660819985a5b195960ca1b610180820152823b156109a3578c6107aa936107b89593829351915af46107a4610ce8565b9061103e565b8b8082518301019101610d28565b9b915050885163f84ddf0b60e01b815281818781875afa918215610951578b92610971575b50506001810180911161095f576001556108108a836bffffffffffffffffffffffff60a01b98818a8c5416178b55610dca565b813b1561095b5787519963d1aaef0560e01b8b5280858c0152610124359081838d01528a8c60448183885af1801561095157610937575b8a9b5060019a9798999a5494808c5180956308521f7960e01b8252888a83015281885afa9182156104385761088f948a928b9461090b575b5050149182610901575050610d7e565b803b156103ee578751632142170760e11b8152309381019384526001600160a01b0390941660208401526040830191909152839183919082908490829060600103925af180156103e4576108ed575060015581541690556001825551f35b6108f690610bfa565b6103e05783386103bc565b1490503880610366565b80919294506109269350903d10610431576104188183610c24565b50505050929150509091388061087f565b96979899909a61094690610bfa565b989796958a90610847565b8a513d8d823e3d90fd5b8880fd5b50634e487b7160e01b89526011845288fd5b90809250813d831161099c575b6109888183610c24565b81010312610998575138806107dd565b8980fd5b503d61097e565b5050895162461bcd60e51b81528087018d90526026818501527f416464726573733a2064656c65676174652063616c6c20746f206e6f6e2d636f6044820152651b9d1c9858dd60d21b6064820152608490fd5b634e487b7160e01b8e5260418952858efd5b6106ce919a5082610a2681928a3d8c1161052d576105158183610c24565b505050505050509b9250506106bd565b9094508b81813d8311610a6a575b610a4e8183610c24565b81010312610a6657610a5f90610c46565b9338610693565b8a80fd5b503d610a44565b9050838334610b52576080366003190112610b5257610a8e610b55565b50610a97610b6b565b9060643567ffffffffffffffff808211610580573660238301121561058057818501359081116105805736910160240111610b525750600154604435149081610b3d575b81610b2b575b5015610af8578251630a85bd0160e11b8152602090f35b62461bcd60e51b8252602090820152600f60248201526e125b9d985b1a59081d1bdad95b9259608a1b6044820152606490fd5b6001600160a01b031615905084610ae1565b6002546001600160a01b031633149150610adb565b80fd5b600435906001600160a01b038216820361049357565b602435906001600160a01b038216820361049357565b60e435906001600160a01b038216820361049357565b61010435906001600160a01b038216820361049357565b15610bb557565b60405162461bcd60e51b815260206004820152601f60248201527f5265656e7472616e637947756172643a207265656e7472616e742063616c6c006044820152606490fd5b67ffffffffffffffff8111610c0e57604052565b634e487b7160e01b600052604160045260246000fd5b90601f8019910116810190811067ffffffffffffffff821117610c0e57604052565b51906001600160a01b038216820361049357565b91908261010091031261049357610c7082610c46565b91610c7d60208201610c46565b91610c8a60408301610c46565b9160608101519160808201519160a08101519160e060c083015192015190565b15610cb157565b60405162461bcd60e51b815260206004820152600f60248201526e1a5b9d985b1a59081b999d141bdbdb608a1b6044820152606490fd5b3d15610d23573d9067ffffffffffffffff8211610c0e5760405191610d17601f8201601f191660200184610c24565b82523d6000602084013e565b606090565b90816060910312610493578051916040602083015192015190565b9190826101009103126104935781519160208101519160408201519160608101519160808201519160a08101519160e060c083015192015190565b15610d8557565b60405162461bcd60e51b815260206004820152601860248201527f696e76616c696420706f736974696f6e206372656174656400000000000000006044820152606490fd5b9082158015610fb2575b15610f4e57604051926020938481019163095ea7b360e01b835260018060a01b038094166024830152604482015260448152608081019267ffffffffffffffff9482851086861117610c0e57169360c0820190811184821017610c0e576040528483527f5361666545524332303a206c6f772d6c6576656c2063616c6c206661696c656460a0820152833b15610f095790610e7e9291600094859283809351925af16107a4610ce8565b805180610e8c575b50505050565b818491810103126100e95782015190811591821503610b525750610eb257808080610e86565b6084906040519062461bcd60e51b82526004820152602a60248201527f5361666545524332303a204552433230206f7065726174696f6e20646964206e6044820152691bdd081cdd58d8d9595960b21b6064820152fd5b60405162461bcd60e51b815260048101869052601d60248201527f416464726573733a2063616c6c20746f206e6f6e2d636f6e74726163740000006044820152606490fd5b60405162461bcd60e51b815260206004820152603660248201527f5361666545524332303a20617070726f76652066726f6d206e6f6e2d7a65726f60448201527520746f206e6f6e2d7a65726f20616c6c6f77616e636560501b6064820152608490fd5b50604051636eb1769f60e11b81523060048201526001600160a01b0382166024820152602081806044810103816001600160a01b0387165afa90811561103257600091611001575b5015610dd4565b906020823d821161102a575b8161101a60209383610c24565b81010312610b5257505138610ffa565b3d915061100d565b6040513d6000823e3d90fd5b9091901561104a575090565b81511561105a5750805190602001fd5b6040519062461bcd60e51b82528160208060048301528251908160248401526000935b8285106110a0575050604492506000838284010152601f80199101168101030190fd5b848101820151868601604401529381019385935061107d56fea26469706673582212203f45b7a4d6d6de409e8b49b5d3c3fd852d98f735686a99503ffe80c95ceecd2664736f6c63430008100033",
  "linkReferences": {},
  "deployedLinkReferences": {}
}