{
  "_format": "hh-sol-artifact-1",
  "contractName": "PositionHelper",
  "sourceName": "contracts/PositionHelper.sol",
  "abi": [
    {
      "inputs": [
        {
          "internalType": "contract IArthurRouter",
          "name": "router_",
          "type": "address"
        },
        {
          "internalType": "address",
          "name": "weth_",
          "type": "address"
        }
      ],
      "stateMutability": "nonpayable",
      "type": "constructor"
    },
    {
      "inputs": [
        {
          "internalType": "address",
          "name": "tokenA",
          "type": "address"
        },
        {
          "internalType": "address",
          "name": "tokenB",
          "type": "address"
        },
        {
          "internalType": "uint256",
          "name": "amountADesired",
          "type": "uint256"
        },
        {
          "internalType": "uint256",
          "name": "amountBDesired",
          "type": "uint256"
        },
        {
          "internalType": "uint256",
          "name": "amountAMin",
          "type": "uint256"
        },
        {
          "internalType": "uint256",
          "name": "amountBMin",
          "type": "uint256"
        },
        {
          "internalType": "uint256",
          "name": "deadline",
          "type": "uint256"
        },
        {
          "internalType": "address",
          "name": "to",
          "type": "address"
        },
        {
          "internalType": "contract INFTPool",
          "name": "nftPool",
          "type": "address"
        },
        {
          "internalType": "uint256",
          "name": "lockDuration",
          "type": "uint256"
        },
        {
          "internalType": "uint256",
          "name": "timeLock",
          "type": "uint256"
        }
      ],
      "name": "addLiquidityAndCreatePosition",
      "outputs": [],
      "stateMutability": "nonpayable",
      "type": "function"
    },
    {
      "inputs": [
        {
          "internalType": "address",
          "name": "token",
          "type": "address"
        },
        {
          "internalType": "uint256",
          "name": "amountTokenDesired",
          "type": "uint256"
        },
        {
          "internalType": "uint256",
          "name": "amountTokenMin",
          "type": "uint256"
        },
        {
          "internalType": "uint256",
          "name": "amountETHMin",
          "type": "uint256"
        },
        {
          "internalType": "uint256",
          "name": "deadline",
          "type": "uint256"
        },
        {
          "internalType": "uint256",
          "name": "timeLock",
          "type": "uint256"
        },
        {
          "internalType": "address",
          "name": "to",
          "type": "address"
        },
        {
          "internalType": "contract INFTPool",
          "name": "nftPool",
          "type": "address"
        },
        {
          "internalType": "uint256",
          "name": "lockDuration",
          "type": "uint256"
        }
      ],
      "name": "addLiquidityETHAndCreatePosition",
      "outputs": [],
      "stateMutability": "payable",
      "type": "function"
    },
    {
      "inputs": [
        {
          "internalType": "address",
          "name": "",
          "type": "address"
        },
        {
          "internalType": "address",
          "name": "from",
          "type": "address"
        },
        {
          "internalType": "uint256",
          "name": "tokenId",
          "type": "uint256"
        },
        {
          "internalType": "bytes",
          "name": "",
          "type": "bytes"
        }
      ],
      "name": "onERC721Received",
      "outputs": [
        {
          "internalType": "bytes4",
          "name": "",
          "type": "bytes4"
        }
      ],
      "stateMutability": "view",
      "type": "function"
    },
    {
      "inputs": [],
      "name": "router",
      "outputs": [
        {
          "internalType": "contract IArthurRouter",
          "name": "",
          "type": "address"
        }
      ],
      "stateMutability": "view",
      "type": "function"
    },
    {
      "inputs": [],
      "name": "weth",
      "outputs": [
        {
          "internalType": "address",
          "name": "",
          "type": "address"
        }
      ],
      "stateMutability": "view",
      "type": "function"
    },
    {
      "stateMutability": "payable",
      "type": "receive"
    }
  ],
  "bytecode": "0x60c0346100a457601f6111b438819003918201601f19168301916001600160401b038311848410176100a95780849260409485528339810103126100a45780516001600160a01b039182821682036100a4576020015191821682036100a457600160005560805260a0526040516110f490816100c0823960805181818160ba0152818161018c0152610685015260a05181818160220152818161015a0152610a5e0152f35b600080fd5b634e487b7160e01b600052604160045260246000fdfe608060409080825260049182361015610067575b5050361561002057600080fd5b7f00000000000000000000000000000000000000000000000000000000000000006001600160a01b0316330361005257005b600190634e487b7160e01b6000525260246000fd5b600091823560e01c908163150b7a0214610a8d575080633fc8cef314610a4a578063966a194e146105f6578063bc793a9f146100ed5763f887ea400361001357346100e957816003193601126100e957517f00000000000000000000000000000000000000000000000000000000000000006001600160a01b03168152602090f35b5080fd5b50610120833660031901821361043b57610105610b71565b6001600160a01b039160c4359183831683036104ee57610123610b9d565b9061010435600296610138888b541415610bb3565b878a55885163e6a4390560e01b81526001600160a01b038481168783019081527f0000000000000000000000000000000000000000000000000000000000000000909116602080830191909152928c9290917f00000000000000000000000000000000000000000000000000000000000000008b1691908590829081906040010381855afa9788156105ec578b9185996105b2575b5016998c5197630c048d9160e31b8952888c818c6101009c8d935afa9586156105a75795610569575b508180610207921695168514610caf565b8c5192858401916335db537b60e11b8352602498168885015287356044850152604435606485015260643560848501523060a485015260843560c485015260a43560e485015260e4845283019267ffffffffffffffff8185108186111761055557610180820190811185821017610555578e52602784527f416464726573733a206c6f772d6c6576656c2064656c65676174652063616c6c610140820152660819985a5b195960ca1b610160820152823b15610504578e6102db936102e99593829351915af46102d5610ced565b90611043565b838082518301019101610d2d565b939150508a5163f84ddf0b60e01b8152818189818d5afa9182156104fa578d926104c7575b5050600181018091116104b557918893918c989796959360015581858a8d8054906bffffffffffffffffffffffff60a01b9e8f8316179055161761035192610dcf565b833b156104b1578a5163d1aaef0560e01b815281878201528284820152888160448183895af190811561049357899161049d575b505060015494808c5180956308521f7960e01b8252888a83015281885afa918215610493576103c8948a928b94610457575b505014918261044d575b5050610d83565b803b15610449578751632142170760e11b8152309381019384526001600160a01b0390941660208401526040830191909152839183919082908490829060600103925af1801561043f57610427575b5060015581541690556001825551f35b61043090610bff565b61043b578385610417565b8380fd5b85513d84823e3d90fd5b8480fd5b1490508b806103c1565b809192945061047b9350903d1061048c575b6104738183610c29565b810190610d48565b505050509291505090918e806103b7565b503d610469565b8c513d8b823e3d90fd5b6104a690610bff565b6104b157878d610385565b8780fd5b634e487b7160e01b8c5260118752848cfd5b90809250813d83116104f3575b6104de8183610c29565b810103126104ee57518c8061030e565b600080fd5b503d6104d4565b8c513d8f823e3d90fd5b8d5162461bcd60e51b8152808b018790526026818a01527f416464726573733a2064656c65676174652063616c6c20746f206e6f6e2d636f6044820152651b9d1c9858dd60d21b6064820152608490fd5b8860418c634e487b7160e01b600052526000fd5b6102079195508261059081928c8d3d106105a0575b6105888183610c29565b810190610c5f565b50505050505050969250506101f6565b503d61057e565b8f51903d90823e3d90fd5b8680929a508193503d83116105e5575b6105cc8183610c29565b8101031261043b576105de8b91610c4b565b978f6101cd565b503d6105c2565b8d513d86823e3d90fd5b50346100e9576101609283600319360112610a4657610613610b71565b61061b610b87565b91610624610b9d565b9061010492833560018060a01b0391828216809203610a425760029661064d888b541415610bb3565b878a55885163e6a4390560e01b81526001600160a01b03808416878301908152908316602082015290948592909183906040010391807f00000000000000000000000000000000000000000000000000000000000000001692602094859181865afa9687156104fa578d97610a07575b508b51630c048d9160e31b81529961010097888c8b818b5afa9b8c156109fb578f9c6109cd575b5082806106f592169c168c14610caf565b8c519185830193632ba9466560e11b85528160249816888501521660448301526044356064830152606435608483015260843560a483015260a43560c48301523060e483015260c435908201526101249d8e61014435818401528252810181811067ffffffffffffffff8211176109bb578c52518c928392905af4610778610ced565b90156109825780828061079093518301019101610d2d565b92915050895163f84ddf0b60e01b815281818881885afa918215610978578c92610946575b505060018101809111610934576001556107e881846bffffffffffffffffffffffff60a01b99818b8d5416178c55610dcf565b823b156109305788519a63d1aaef0560e01b8c5281868d0152359081838d01528a8c60448183885af180156109265761090c575b8a9b5060019a9798999a5494808c5180956308521f7960e01b8252888a83015281885afa91821561049357610864948a928b946108e0575b50501491826108d6575050610d83565b803b15610449578751632142170760e11b8152309381019384526001600160a01b0390941660208401526040830191909152839183919082908490829060600103925af1801561043f576108c2575060015581541690556001825551f35b6108cb90610bff565b61043b578338610417565b14905038806103c1565b80919294506108fb9350903d1061048c576104738183610c29565b505050509291505090913880610854565b96979899909a61091b90610bff565b989796958a9061081c565b8a513d8d823e3d90fd5b8980fd5b634e487b7160e01b8b5260118652828bfd5b90809250813d8311610971575b61095d8183610c29565b8101031261096d575138806107b5565b8a80fd5b503d610953565b8b513d8e823e3d90fd5b895162461bcd60e51b81528087018390526014818501527319195b1959d85d194818d85b1b0819985a5b195960621b6044820152606490fd5b634e487b7160e01b8e5260418952858efd5b6106f5919c50836109eb81928c8d3d106105a0576105888183610c29565b505050505050509d9250506106e4565b8f8f51903d90823e3d90fd5b9096508381813d8311610a3b575b610a1f8183610c29565b81010312610a3757610a3090610c4b565b95386106bd565b8c80fd5b503d610a15565b8880fd5b8280fd5b50346100e957816003193601126100e957517f00000000000000000000000000000000000000000000000000000000000000006001600160a01b03168152602090f35b9050838334610b6e576080366003190112610b6e57610aaa610b71565b50610ab3610b87565b9060643567ffffffffffffffff808211610a465736602383011215610a465781850135908111610a465736910160240111610b6e5750600154604435149081610b59575b81610b47575b5015610b14578251630a85bd0160e11b8152602090f35b62461bcd60e51b8252602090820152600f60248201526e125b9d985b1a59081d1bdad95b9259608a1b6044820152606490fd5b6001600160a01b031615905084610afd565b6002546001600160a01b031633149150610af7565b80fd5b600435906001600160a01b03821682036104ee57565b602435906001600160a01b03821682036104ee57565b60e435906001600160a01b03821682036104ee57565b15610bba57565b60405162461bcd60e51b815260206004820152601f60248201527f5265656e7472616e637947756172643a207265656e7472616e742063616c6c006044820152606490fd5b67ffffffffffffffff8111610c1357604052565b634e487b7160e01b600052604160045260246000fd5b90601f8019910116810190811067ffffffffffffffff821117610c1357604052565b51906001600160a01b03821682036104ee57565b9190826101009103126104ee57610c7582610c4b565b91610c8260208201610c4b565b91610c8f60408301610c4b565b9160608101519160808201519160a08101519160e060c083015192015190565b15610cb657565b60405162461bcd60e51b815260206004820152600f60248201526e1a5b9d985b1a59081b999d141bdbdb608a1b6044820152606490fd5b3d15610d28573d9067ffffffffffffffff8211610c135760405191610d1c601f8201601f191660200184610c29565b82523d6000602084013e565b606090565b908160609103126104ee578051916040602083015192015190565b9190826101009103126104ee5781519160208101519160408201519160608101519160808201519160a08101519160e060c083015192015190565b15610d8a57565b60405162461bcd60e51b815260206004820152601860248201527f696e76616c696420706f736974696f6e206372656174656400000000000000006044820152606490fd5b9082158015610fb7575b15610f5357604051926020938481019163095ea7b360e01b835260018060a01b038094166024830152604482015260448152608081019267ffffffffffffffff9482851086861117610c1357169360c0820190811184821017610c13576040528483527f5361666545524332303a206c6f772d6c6576656c2063616c6c206661696c656460a0820152833b15610f0e5790610e839291600094859283809351925af16102d5610ced565b805180610e91575b50505050565b818491810103126100e95782015190811591821503610b6e5750610eb757808080610e8b565b6084906040519062461bcd60e51b82526004820152602a60248201527f5361666545524332303a204552433230206f7065726174696f6e20646964206e6044820152691bdd081cdd58d8d9595960b21b6064820152fd5b60405162461bcd60e51b815260048101869052601d60248201527f416464726573733a2063616c6c20746f206e6f6e2d636f6e74726163740000006044820152606490fd5b60405162461bcd60e51b815260206004820152603660248201527f5361666545524332303a20617070726f76652066726f6d206e6f6e2d7a65726f60448201527520746f206e6f6e2d7a65726f20616c6c6f77616e636560501b6064820152608490fd5b50604051636eb1769f60e11b81523060048201526001600160a01b0382166024820152602081806044810103816001600160a01b0387165afa90811561103757600091611006575b5015610dd9565b906020823d821161102f575b8161101f60209383610c29565b81010312610b6e57505138610fff565b3d9150611012565b6040513d6000823e3d90fd5b9091901561104f575090565b81511561105f5750805190602001fd5b6040519062461bcd60e51b82528160208060048301528251908160248401526000935b8285106110a5575050604492506000838284010152601f80199101168101030190fd5b848101820151868601604401529381019385935061108256fea2646970667358221220b16a5400ea67c3977e39a13c116be6b65c2711ab15a2f616c4dff053f77da90064736f6c63430008100033",
  "linkReferences": {},
  "deployedLinkReferences": {}
}