{
  "_format": "hh-sol-artifact-1",
  "contractName": "XArtToken",
  "sourceName": "contracts/XArtToken.sol",
  "abi": [
    {
      "inputs": [
        {
          "internalType": "contract IArtToken",
          "name": "artToken_",
          "type": "address"
        }
      ],
      "stateMutability": "nonpayable",
      "type": "constructor"
    },
    {
      "anonymous": false,
      "inputs": [
        {
          "indexed": true,
          "internalType": "address",
          "name": "userAddress",
          "type": "address"
        },
        {
          "indexed": true,
          "internalType": "address",
          "name": "usageAddress",
          "type": "address"
        },
        {
          "indexed": false,
          "internalType": "uint256",
          "name": "amount",
          "type": "uint256"
        }
      ],
      "name": "Allocate",
      "type": "event"
    },
    {
      "anonymous": false,
      "inputs": [
        {
          "indexed": true,
          "internalType": "address",
          "name": "owner",
          "type": "address"
        },
        {
          "indexed": true,
          "internalType": "address",
          "name": "spender",
          "type": "address"
        },
        {
          "indexed": false,
          "internalType": "uint256",
          "name": "value",
          "type": "uint256"
        }
      ],
      "name": "Approval",
      "type": "event"
    },
    {
      "anonymous": false,
      "inputs": [
        {
          "indexed": true,
          "internalType": "address",
          "name": "userAddress",
          "type": "address"
        },
        {
          "indexed": true,
          "internalType": "address",
          "name": "usageAddress",
          "type": "address"
        },
        {
          "indexed": false,
          "internalType": "uint256",
          "name": "amount",
          "type": "uint256"
        }
      ],
      "name": "ApproveUsage",
      "type": "event"
    },
    {
      "anonymous": false,
      "inputs": [
        {
          "indexed": true,
          "internalType": "address",
          "name": "userAddress",
          "type": "address"
        },
        {
          "indexed": false,
          "internalType": "uint256",
          "name": "xArtAmount",
          "type": "uint256"
        }
      ],
      "name": "CancelRedeem",
      "type": "event"
    },
    {
      "anonymous": false,
      "inputs": [
        {
          "indexed": true,
          "internalType": "address",
          "name": "from",
          "type": "address"
        },
        {
          "indexed": false,
          "internalType": "address",
          "name": "to",
          "type": "address"
        },
        {
          "indexed": false,
          "internalType": "uint256",
          "name": "amount",
          "type": "uint256"
        }
      ],
      "name": "Convert",
      "type": "event"
    },
    {
      "anonymous": false,
      "inputs": [
        {
          "indexed": true,
          "internalType": "address",
          "name": "userAddress",
          "type": "address"
        },
        {
          "indexed": true,
          "internalType": "address",
          "name": "usageAddress",
          "type": "address"
        },
        {
          "indexed": false,
          "internalType": "uint256",
          "name": "amount",
          "type": "uint256"
        },
        {
          "indexed": false,
          "internalType": "uint256",
          "name": "fee",
          "type": "uint256"
        }
      ],
      "name": "Deallocate",
      "type": "event"
    },
    {
      "anonymous": false,
      "inputs": [
        {
          "indexed": true,
          "internalType": "address",
          "name": "userAddress",
          "type": "address"
        },
        {
          "indexed": false,
          "internalType": "uint256",
          "name": "xArtAmount",
          "type": "uint256"
        },
        {
          "indexed": false,
          "internalType": "uint256",
          "name": "artAmount",
          "type": "uint256"
        }
      ],
      "name": "FinalizeRedeem",
      "type": "event"
    },
    {
      "anonymous": false,
      "inputs": [
        {
          "indexed": true,
          "internalType": "address",
          "name": "previousOwner",
          "type": "address"
        },
        {
          "indexed": true,
          "internalType": "address",
          "name": "newOwner",
          "type": "address"
        }
      ],
      "name": "OwnershipTransferred",
      "type": "event"
    },
    {
      "anonymous": false,
      "inputs": [
        {
          "indexed": true,
          "internalType": "address",
          "name": "userAddress",
          "type": "address"
        },
        {
          "indexed": false,
          "internalType": "uint256",
          "name": "xArtAmount",
          "type": "uint256"
        },
        {
          "indexed": false,
          "internalType": "uint256",
          "name": "artAmount",
          "type": "uint256"
        },
        {
          "indexed": false,
          "internalType": "uint256",
          "name": "duration",
          "type": "uint256"
        }
      ],
      "name": "Redeem",
      "type": "event"
    },
    {
      "anonymous": false,
      "inputs": [
        {
          "indexed": false,
          "internalType": "address",
          "name": "account",
          "type": "address"
        },
        {
          "indexed": false,
          "internalType": "bool",
          "name": "add",
          "type": "bool"
        }
      ],
      "name": "SetTransferWhitelist",
      "type": "event"
    },
    {
      "anonymous": false,
      "inputs": [
        {
          "indexed": true,
          "internalType": "address",
          "name": "from",
          "type": "address"
        },
        {
          "indexed": true,
          "internalType": "address",
          "name": "to",
          "type": "address"
        },
        {
          "indexed": false,
          "internalType": "uint256",
          "name": "value",
          "type": "uint256"
        }
      ],
      "name": "Transfer",
      "type": "event"
    },
    {
      "anonymous": false,
      "inputs": [
        {
          "indexed": true,
          "internalType": "address",
          "name": "usageAddress",
          "type": "address"
        },
        {
          "indexed": false,
          "internalType": "uint256",
          "name": "fee",
          "type": "uint256"
        }
      ],
      "name": "UpdateDeallocationFee",
      "type": "event"
    },
    {
      "anonymous": false,
      "inputs": [
        {
          "indexed": false,
          "internalType": "address",
          "name": "previousDividendsAddress",
          "type": "address"
        },
        {
          "indexed": false,
          "internalType": "address",
          "name": "newDividendsAddress",
          "type": "address"
        }
      ],
      "name": "UpdateDividendsAddress",
      "type": "event"
    },
    {
      "anonymous": false,
      "inputs": [
        {
          "indexed": true,
          "internalType": "address",
          "name": "userAddress",
          "type": "address"
        },
        {
          "indexed": false,
          "internalType": "uint256",
          "name": "redeemIndex",
          "type": "uint256"
        },
        {
          "indexed": false,
          "internalType": "address",
          "name": "previousDividendsAddress",
          "type": "address"
        },
        {
          "indexed": false,
          "internalType": "address",
          "name": "newDividendsAddress",
          "type": "address"
        }
      ],
      "name": "UpdateRedeemDividendsAddress",
      "type": "event"
    },
    {
      "anonymous": false,
      "inputs": [
        {
          "indexed": false,
          "internalType": "uint256",
          "name": "minRedeemRatio",
          "type": "uint256"
        },
        {
          "indexed": false,
          "internalType": "uint256",
          "name": "maxRedeemRatio",
          "type": "uint256"
        },
        {
          "indexed": false,
          "internalType": "uint256",
          "name": "minRedeemDuration",
          "type": "uint256"
        },
        {
          "indexed": false,
          "internalType": "uint256",
          "name": "maxRedeemDuration",
          "type": "uint256"
        },
        {
          "indexed": false,
          "internalType": "uint256",
          "name": "redeemDividendsAdjustment",
          "type": "uint256"
        }
      ],
      "name": "UpdateRedeemSettings",
      "type": "event"
    },
    {
      "inputs": [],
      "name": "MAX_DEALLOCATION_FEE",
      "outputs": [
        {
          "internalType": "uint256",
          "name": "",
          "type": "uint256"
        }
      ],
      "stateMutability": "view",
      "type": "function"
    },
    {
      "inputs": [],
      "name": "MAX_FIXED_RATIO",
      "outputs": [
        {
          "internalType": "uint256",
          "name": "",
          "type": "uint256"
        }
      ],
      "stateMutability": "view",
      "type": "function"
    },
    {
      "inputs": [
        {
          "internalType": "address",
          "name": "usageAddress",
          "type": "address"
        },
        {
          "internalType": "uint256",
          "name": "amount",
          "type": "uint256"
        },
        {
          "internalType": "bytes",
          "name": "usageData",
          "type": "bytes"
        }
      ],
      "name": "allocate",
      "outputs": [],
      "stateMutability": "nonpayable",
      "type": "function"
    },
    {
      "inputs": [
        {
          "internalType": "address",
          "name": "userAddress",
          "type": "address"
        },
        {
          "internalType": "uint256",
          "name": "amount",
          "type": "uint256"
        }
      ],
      "name": "allocateFromUsage",
      "outputs": [],
      "stateMutability": "nonpayable",
      "type": "function"
    },
    {
      "inputs": [
        {
          "internalType": "address",
          "name": "owner",
          "type": "address"
        },
        {
          "internalType": "address",
          "name": "spender",
          "type": "address"
        }
      ],
      "name": "allowance",
      "outputs": [
        {
          "internalType": "uint256",
          "name": "",
          "type": "uint256"
        }
      ],
      "stateMutability": "view",
      "type": "function"
    },
    {
      "inputs": [
        {
          "internalType": "address",
          "name": "spender",
          "type": "address"
        },
        {
          "internalType": "uint256",
          "name": "amount",
          "type": "uint256"
        }
      ],
      "name": "approve",
      "outputs": [
        {
          "internalType": "bool",
          "name": "",
          "type": "bool"
        }
      ],
      "stateMutability": "nonpayable",
      "type": "function"
    },
    {
      "inputs": [
        {
          "internalType": "contract IXArtTokenUsage",
          "name": "usage",
          "type": "address"
        },
        {
          "internalType": "uint256",
          "name": "amount",
          "type": "uint256"
        }
      ],
      "name": "approveUsage",
      "outputs": [],
      "stateMutability": "nonpayable",
      "type": "function"
    },
    {
      "inputs": [],
      "name": "artToken",
      "outputs": [
        {
          "internalType": "contract IArtToken",
          "name": "",
          "type": "address"
        }
      ],
      "stateMutability": "view",
      "type": "function"
    },
    {
      "inputs": [
        {
          "internalType": "address",
          "name": "account",
          "type": "address"
        }
      ],
      "name": "balanceOf",
      "outputs": [
        {
          "internalType": "uint256",
          "name": "",
          "type": "uint256"
        }
      ],
      "stateMutability": "view",
      "type": "function"
    },
    {
      "inputs": [
        {
          "internalType": "uint256",
          "name": "redeemIndex",
          "type": "uint256"
        }
      ],
      "name": "cancelRedeem",
      "outputs": [],
      "stateMutability": "nonpayable",
      "type": "function"
    },
    {
      "inputs": [
        {
          "internalType": "uint256",
          "name": "amount",
          "type": "uint256"
        }
      ],
      "name": "convert",
      "outputs": [],
      "stateMutability": "nonpayable",
      "type": "function"
    },
    {
      "inputs": [
        {
          "internalType": "uint256",
          "name": "amount",
          "type": "uint256"
        },
        {
          "internalType": "address",
          "name": "to",
          "type": "address"
        }
      ],
      "name": "convertTo",
      "outputs": [],
      "stateMutability": "nonpayable",
      "type": "function"
    },
    {
      "inputs": [
        {
          "internalType": "address",
          "name": "usageAddress",
          "type": "address"
        },
        {
          "internalType": "uint256",
          "name": "amount",
          "type": "uint256"
        },
        {
          "internalType": "bytes",
          "name": "usageData",
          "type": "bytes"
        }
      ],
      "name": "deallocate",
      "outputs": [],
      "stateMutability": "nonpayable",
      "type": "function"
    },
    {
      "inputs": [
        {
          "internalType": "address",
          "name": "userAddress",
          "type": "address"
        },
        {
          "internalType": "uint256",
          "name": "amount",
          "type": "uint256"
        }
      ],
      "name": "deallocateFromUsage",
      "outputs": [],
      "stateMutability": "nonpayable",
      "type": "function"
    },
    {
      "inputs": [],
      "name": "decimals",
      "outputs": [
        {
          "internalType": "uint8",
          "name": "",
          "type": "uint8"
        }
      ],
      "stateMutability": "view",
      "type": "function"
    },
    {
      "inputs": [
        {
          "internalType": "address",
          "name": "spender",
          "type": "address"
        },
        {
          "internalType": "uint256",
          "name": "subtractedValue",
          "type": "uint256"
        }
      ],
      "name": "decreaseAllowance",
      "outputs": [
        {
          "internalType": "bool",
          "name": "",
          "type": "bool"
        }
      ],
      "stateMutability": "nonpayable",
      "type": "function"
    },
    {
      "inputs": [],
      "name": "dividendsAddress",
      "outputs": [
        {
          "internalType": "contract IXArtTokenUsage",
          "name": "",
          "type": "address"
        }
      ],
      "stateMutability": "view",
      "type": "function"
    },
    {
      "inputs": [
        {
          "internalType": "uint256",
          "name": "redeemIndex",
          "type": "uint256"
        }
      ],
      "name": "finalizeRedeem",
      "outputs": [],
      "stateMutability": "nonpayable",
      "type": "function"
    },
    {
      "inputs": [
        {
          "internalType": "uint256",
          "name": "amount",
          "type": "uint256"
        },
        {
          "internalType": "uint256",
          "name": "duration",
          "type": "uint256"
        }
      ],
      "name": "getArtByVestingDuration",
      "outputs": [
        {
          "internalType": "uint256",
          "name": "",
          "type": "uint256"
        }
      ],
      "stateMutability": "view",
      "type": "function"
    },
    {
      "inputs": [
        {
          "internalType": "address",
          "name": "userAddress",
          "type": "address"
        },
        {
          "internalType": "address",
          "name": "usageAddress",
          "type": "address"
        }
      ],
      "name": "getUsageAllocation",
      "outputs": [
        {
          "internalType": "uint256",
          "name": "",
          "type": "uint256"
        }
      ],
      "stateMutability": "view",
      "type": "function"
    },
    {
      "inputs": [
        {
          "internalType": "address",
          "name": "userAddress",
          "type": "address"
        },
        {
          "internalType": "address",
          "name": "usageAddress",
          "type": "address"
        }
      ],
      "name": "getUsageApproval",
      "outputs": [
        {
          "internalType": "uint256",
          "name": "",
          "type": "uint256"
        }
      ],
      "stateMutability": "view",
      "type": "function"
    },
    {
      "inputs": [
        {
          "internalType": "address",
          "name": "userAddress",
          "type": "address"
        },
        {
          "internalType": "uint256",
          "name": "redeemIndex",
          "type": "uint256"
        }
      ],
      "name": "getUserRedeem",
      "outputs": [
        {
          "internalType": "uint256",
          "name": "artAmount",
          "type": "uint256"
        },
        {
          "internalType": "uint256",
          "name": "xArtAmount",
          "type": "uint256"
        },
        {
          "internalType": "uint256",
          "name": "endTime",
          "type": "uint256"
        },
        {
          "internalType": "address",
          "name": "dividendsContract",
          "type": "address"
        },
        {
          "internalType": "uint256",
          "name": "dividendsAllocation",
          "type": "uint256"
        }
      ],
      "stateMutability": "view",
      "type": "function"
    },
    {
      "inputs": [
        {
          "internalType": "address",
          "name": "userAddress",
          "type": "address"
        }
      ],
      "name": "getUserRedeemsLength",
      "outputs": [
        {
          "internalType": "uint256",
          "name": "",
          "type": "uint256"
        }
      ],
      "stateMutability": "view",
      "type": "function"
    },
    {
      "inputs": [
        {
          "internalType": "address",
          "name": "userAddress",
          "type": "address"
        }
      ],
      "name": "getXArtBalance",
      "outputs": [
        {
          "internalType": "uint256",
          "name": "allocatedAmount",
          "type": "uint256"
        },
        {
          "internalType": "uint256",
          "name": "redeemingAmount",
          "type": "uint256"
        }
      ],
      "stateMutability": "view",
      "type": "function"
    },
    {
      "inputs": [
        {
          "internalType": "address",
          "name": "spender",
          "type": "address"
        },
        {
          "internalType": "uint256",
          "name": "addedValue",
          "type": "uint256"
        }
      ],
      "name": "increaseAllowance",
      "outputs": [
        {
          "internalType": "bool",
          "name": "",
          "type": "bool"
        }
      ],
      "stateMutability": "nonpayable",
      "type": "function"
    },
    {
      "inputs": [
        {
          "internalType": "address",
          "name": "account",
          "type": "address"
        }
      ],
      "name": "isTransferWhitelisted",
      "outputs": [
        {
          "internalType": "bool",
          "name": "",
          "type": "bool"
        }
      ],
      "stateMutability": "view",
      "type": "function"
    },
    {
      "inputs": [],
      "name": "maxRedeemDuration",
      "outputs": [
        {
          "internalType": "uint256",
          "name": "",
          "type": "uint256"
        }
      ],
      "stateMutability": "view",
      "type": "function"
    },
    {
      "inputs": [],
      "name": "maxRedeemRatio",
      "outputs": [
        {
          "internalType": "uint256",
          "name": "",
          "type": "uint256"
        }
      ],
      "stateMutability": "view",
      "type": "function"
    },
    {
      "inputs": [],
      "name": "minRedeemDuration",
      "outputs": [
        {
          "internalType": "uint256",
          "name": "",
          "type": "uint256"
        }
      ],
      "stateMutability": "view",
      "type": "function"
    },
    {
      "inputs": [],
      "name": "minRedeemRatio",
      "outputs": [
        {
          "internalType": "uint256",
          "name": "",
          "type": "uint256"
        }
      ],
      "stateMutability": "view",
      "type": "function"
    },
    {
      "inputs": [],
      "name": "name",
      "outputs": [
        {
          "internalType": "string",
          "name": "",
          "type": "string"
        }
      ],
      "stateMutability": "view",
      "type": "function"
    },
    {
      "inputs": [],
      "name": "owner",
      "outputs": [
        {
          "internalType": "address",
          "name": "",
          "type": "address"
        }
      ],
      "stateMutability": "view",
      "type": "function"
    },
    {
      "inputs": [
        {
          "internalType": "uint256",
          "name": "xArtAmount",
          "type": "uint256"
        },
        {
          "internalType": "uint256",
          "name": "duration",
          "type": "uint256"
        }
      ],
      "name": "redeem",
      "outputs": [],
      "stateMutability": "nonpayable",
      "type": "function"
    },
    {
      "inputs": [],
      "name": "redeemDividendsAdjustment",
      "outputs": [
        {
          "internalType": "uint256",
          "name": "",
          "type": "uint256"
        }
      ],
      "stateMutability": "view",
      "type": "function"
    },
    {
      "inputs": [],
      "name": "renounceOwnership",
      "outputs": [],
      "stateMutability": "nonpayable",
      "type": "function"
    },
    {
      "inputs": [],
      "name": "symbol",
      "outputs": [
        {
          "internalType": "string",
          "name": "",
          "type": "string"
        }
      ],
      "stateMutability": "view",
      "type": "function"
    },
    {
      "inputs": [],
      "name": "totalSupply",
      "outputs": [
        {
          "internalType": "uint256",
          "name": "",
          "type": "uint256"
        }
      ],
      "stateMutability": "view",
      "type": "function"
    },
    {
      "inputs": [
        {
          "internalType": "address",
          "name": "to",
          "type": "address"
        },
        {
          "internalType": "uint256",
          "name": "amount",
          "type": "uint256"
        }
      ],
      "name": "transfer",
      "outputs": [
        {
          "internalType": "bool",
          "name": "",
          "type": "bool"
        }
      ],
      "stateMutability": "nonpayable",
      "type": "function"
    },
    {
      "inputs": [
        {
          "internalType": "address",
          "name": "from",
          "type": "address"
        },
        {
          "internalType": "address",
          "name": "to",
          "type": "address"
        },
        {
          "internalType": "uint256",
          "name": "amount",
          "type": "uint256"
        }
      ],
      "name": "transferFrom",
      "outputs": [
        {
          "internalType": "bool",
          "name": "",
          "type": "bool"
        }
      ],
      "stateMutability": "nonpayable",
      "type": "function"
    },
    {
      "inputs": [
        {
          "internalType": "address",
          "name": "newOwner",
          "type": "address"
        }
      ],
      "name": "transferOwnership",
      "outputs": [],
      "stateMutability": "nonpayable",
      "type": "function"
    },
    {
      "inputs": [
        {
          "internalType": "uint256",
          "name": "index",
          "type": "uint256"
        }
      ],
      "name": "transferWhitelist",
      "outputs": [
        {
          "internalType": "address",
          "name": "",
          "type": "address"
        }
      ],
      "stateMutability": "view",
      "type": "function"
    },
    {
      "inputs": [],
      "name": "transferWhitelistLength",
      "outputs": [
        {
          "internalType": "uint256",
          "name": "",
          "type": "uint256"
        }
      ],
      "stateMutability": "view",
      "type": "function"
    },
    {
      "inputs": [
        {
          "internalType": "address",
          "name": "usageAddress",
          "type": "address"
        },
        {
          "internalType": "uint256",
          "name": "fee",
          "type": "uint256"
        }
      ],
      "name": "updateDeallocationFee",
      "outputs": [],
      "stateMutability": "nonpayable",
      "type": "function"
    },
    {
      "inputs": [
        {
          "internalType": "contract IXArtTokenUsage",
          "name": "dividendsAddress_",
          "type": "address"
        }
      ],
      "name": "updateDividendsAddress",
      "outputs": [],
      "stateMutability": "nonpayable",
      "type": "function"
    },
    {
      "inputs": [
        {
          "internalType": "uint256",
          "name": "redeemIndex",
          "type": "uint256"
        }
      ],
      "name": "updateRedeemDividendsAddress",
      "outputs": [],
      "stateMutability": "nonpayable",
      "type": "function"
    },
    {
      "inputs": [
        {
          "internalType": "uint256",
          "name": "minRedeemRatio_",
          "type": "uint256"
        },
        {
          "internalType": "uint256",
          "name": "maxRedeemRatio_",
          "type": "uint256"
        },
        {
          "internalType": "uint256",
          "name": "minRedeemDuration_",
          "type": "uint256"
        },
        {
          "internalType": "uint256",
          "name": "maxRedeemDuration_",
          "type": "uint256"
        },
        {
          "internalType": "uint256",
          "name": "redeemDividendsAdjustment_",
          "type": "uint256"
        }
      ],
      "name": "updateRedeemSettings",
      "outputs": [],
      "stateMutability": "nonpayable",
      "type": "function"
    },
    {
      "inputs": [
        {
          "internalType": "address",
          "name": "account",
          "type": "address"
        },
        {
          "internalType": "bool",
          "name": "add",
          "type": "bool"
        }
      ],
      "name": "updateTransferWhitelist",
      "outputs": [],
      "stateMutability": "nonpayable",
      "type": "function"
    },
    {
      "inputs": [
        {
          "internalType": "address",
          "name": "",
          "type": "address"
        },
        {
          "internalType": "address",
          "name": "",
          "type": "address"
        }
      ],
      "name": "usageAllocations",
      "outputs": [
        {
          "internalType": "uint256",
          "name": "",
          "type": "uint256"
        }
      ],
      "stateMutability": "view",
      "type": "function"
    },
    {
      "inputs": [
        {
          "internalType": "address",
          "name": "",
          "type": "address"
        },
        {
          "internalType": "address",
          "name": "",
          "type": "address"
        }
      ],
      "name": "usageApprovals",
      "outputs": [
        {
          "internalType": "uint256",
          "name": "",
          "type": "uint256"
        }
      ],
      "stateMutability": "view",
      "type": "function"
    },
    {
      "inputs": [
        {
          "internalType": "address",
          "name": "",
          "type": "address"
        }
      ],
      "name": "usagesDeallocationFee",
      "outputs": [
        {
          "internalType": "uint256",
          "name": "",
          "type": "uint256"
        }
      ],
      "stateMutability": "view",
      "type": "function"
    },
    {
      "inputs": [
        {
          "internalType": "address",
          "name": "",
          "type": "address"
        },
        {
          "internalType": "uint256",
          "name": "",
          "type": "uint256"
        }
      ],
      "name": "userRedeems",
      "outputs": [
        {
          "internalType": "uint256",
          "name": "artAmount",
          "type": "uint256"
        },
        {
          "internalType": "uint256",
          "name": "xArtAmount",
          "type": "uint256"
        },
        {
          "internalType": "uint256",
          "name": "endTime",
          "type": "uint256"
        },
        {
          "internalType": "contract IXArtTokenUsage",
          "name": "dividendsAddress",
          "type": "address"
        },
        {
          "internalType": "uint256",
          "name": "dividendsAllocation",
          "type": "uint256"
        }
      ],
      "stateMutability": "view",
      "type": "function"
    },
    {
      "inputs": [
        {
          "internalType": "address",
          "name": "",
          "type": "address"
        }
      ],
      "name": "xArtBalances",
      "outputs": [
        {
          "internalType": "uint256",
          "name": "allocatedAmount",
          "type": "uint256"
        },
        {
          "internalType": "uint256",
          "name": "redeemingAmount",
          "type": "uint256"
        }
      ],
      "stateMutability": "view",
      "type": "function"
    }
  ],
  "bytecode": "0x60a034620003e057601f19906001600160401b03601f62003317388190038281018616850184811186821017620003e557859282916040528339602094859181010312620003e05751936001600160a01b038086168603620003e05762000065620003fb565b94601586527f41727468757220657363726f77656420746f6b656e00000000000000000000008187015262000099620003fb565b9260048452631e10549560e21b828501526000928354903360018060a01b031983161785553391167f8be0079c531659141344cd1fd0a4f28419497f9722a3daafe3b4186f6b6457e085604051a36001968780558051878111620003cc5760059182548a81811c91168015620003c1575b86821014620003ad579081898493116200035c575b508590898311600114620002fb578792620002ef575b5050600019600383901b1c191690891b1781555b8451968711620002db57600654908882811c92168015620002d0575b84831014620002bc5786821162000275575b5050819486116001146200020d5750509183949184939462000201575b50501b916000199060031b1c1916176006555b6032600d556064600e556213c680600f556276a7006010556032601155608052620001d2306200041b565b50604051612e5b9081620004bc82396080518181816105500152818161248b0152818161274e0152612b880152f35b01519250388062000194565b600683528183209493928692918316915b888383106200025a575050501062000240575b505050811b01600655620001a7565b015160001960f88460031b161c1916905538808062000231565b8587015188559096019594850194879350908101906200021e565b600685528385209087808a01821c830193868b10620002b2575b01901c019088905b828110620002a6575062000177565b85815501889062000297565b935082936200028f565b634e487b7160e01b85526022600452602485fd5b91607f169162000165565b634e487b7160e01b84526041600452602484fd5b01519050388062000135565b90858c94169185895287892092895b898282106200034557505084116200032b575b505050811b01815562000149565b015160001960f88460031b161c191690553880806200031d565b8385015186558f979095019493840193016200030a565b90915083875285872089808501861c820192888610620003a3575b918d918695949301871c01915b828110620003945750506200011f565b8981558594508d910162000384565b9250819262000377565b634e487b7160e01b87526022600452602487fd5b90607f16906200010a565b634e487b7160e01b85526041600452602485fd5b600080fd5b634e487b7160e01b600052604160045260246000fd5b60408051919082016001600160401b03811183821017620003e557604052565b600081815260096020526040812054620004b65760085468010000000000000000811015620004a25760018101806008558110156200048e577ff3f7a9fe364faab93b216da50a3214154f22a0a2b415b23a84c8169e8b636ee30182905560085491815260096020526040902055600190565b634e487b7160e01b82526032600452602482fd5b634e487b7160e01b82526041600452602482fd5b90509056fe6080604081815260048036101561001557600080fd5b600092833560e01c90816302f91e5514611ad95750806306045a2114611a5557806306fdde0314611988578063093220b71461187a578063095ea7b3146118505780630f7d3a691461179d578063161aab431461177e57806318160ddd146117615780631c352679146117425780631c75e369146116a75780631eee7e601461166b57806323b872dd1461159f5780632b489679146112885780632cc2f5ce146115515780632e9a76e41461155157806331124ce31461137d578063313ce5671461136157806339509351146113125780633b90f9a0146112d6578063488c830314611288578063497965ee1461125f578063498e6268146111435780634a5b406e146112405780634b359d38146111ce5780634f62b7ec146111855780635141dc9014611143578063539ffb771461100357838163549230c914610f62575080635a1d34dc14610ee6578063619ac95b14610eca57806370a0823114610e92578063714b3ee014610e6f578063715018a614610e125780637cbc237314610b105780638908365414610a0e5780638975f918146109d65780638da5cb5b146109ae57806395d89b4114610893578063a0bdc7cb14610857578063a3908e1b1461081e578063a457c2d714610775578063a9059cbb14610744578063aff6cbf1146105b7578063b90c2b521461057f578063bd4cc0f51461053b578063c360ed1c1461045f578063c4b1076614610440578063cc6c5423146103bb578063dd62ed3e1461036d578063e3a2950b1461034e578063e9ed87f81461032b5763f2fde38b1461026157600080fd5b346103275760203660031901126103275761027a611af4565b610282611c0f565b6001600160a01b039081169182156102d5575060005492826001600160601b0360a01b8516176000555192167f8be0079c531659141344cd1fd0a4f28419497f9722a3daafe3b4186f6b6457e0600084a3f35b608490602085519162461bcd60e51b8352820152602660248201527f4f776e61626c653a206e6577206f776e657220697320746865207a65726f206160448201526564647265737360d01b6064820152fd5b8280fd5b50503461034a578160031936011261034a576020906010549051908152f35b5080fd5b50503461034a578160031936011261034a57602090600e549051908152f35b50503461034a578060031936011261034a5760209161038a611af4565b82610393611b4f565b6001600160a01b03928316845260038652922091166000908152908352819020549051908152f35b503461032757816003193601126103275760a09261040c6103da611af4565b918460243591600180891b0380951680825260136020526103ff83832054851061208c565b8152601360205220611bc7565b5090815493600183015493600284015492600385015416930154938151958652602086015284015260608301526080820152f35b50503461034a578160031936011261034a57602090600f549051908152f35b5034610327578160031936011261032757610478611af4565b6024359061048b600260015414156122e9565b6001600160a01b03169182156104e65750338452600a6020528284208260005260205280836000205582519081527fe75ec259c38e4601f24580968665ec00b21cca4f996689b260ec598aec5c08db60203392a36001805551f35b608490602085519162461bcd60e51b8352820152602960248201527f617070726f766555736167653a20617070726f766520746f20746865207a65726044820152686f206164647265737360b81b6064820152fd5b50503461034a578160031936011261034a57517f00000000000000000000000000000000000000000000000000000000000000006001600160a01b03168152602090f35b50503461034a57602036600319011261034a5760209181906001600160a01b036105a7611af4565b1681526013845220549051908152f35b50346103275760203660031901126103275780356001916105dc6002845414156122e9565b6002835533855260136020526105f684862054831061208c565b338552601260205283852090601360205261061383868820611bc7565b5091600283015442106106e65790610647858894930180549061063b8886019283549061207f565b90555483549033612716565b808201549182610664575b5050505061065f90612d1d565b805551f35b600301548651906001600160a01b031661067d82611c91565b848252803b156106e2576106aa938580948a519687958694859363549230c960e01b855233908501612335565b03925af180156106d8576106c0575b8080610652565b6106c990611c67565b6106d45783386106b9565b8380fd5b85513d84823e3d90fd5b8480fd5b855162461bcd60e51b8152602081840152603260248201527f66696e616c697a6552656465656d3a2076657374696e67206475726174696f6e604482015271081a185cc81b9bdd08195b991959081e595d60721b6064820152608490fd5b50503461034a578060031936011261034a5760209061076e610764611af4565b6024359033611cf2565b5160018152f35b50823461081b578260031936011261081b5761078f611af4565b91836024359233815260036020522060018060a01b0384166000526020528360002054908282106107ca5760208561076e8585038733611ece565b608490602086519162461bcd60e51b8352820152602560248201527f45524332303a2064656372656173656420616c6c6f77616e63652062656c6f77604482015264207a65726f60d81b6064820152fd5b80fd5b50346103275760203660031901126103275761085090610843600260015414156122e9565b6002600155339035612397565b6001805551f35b50503461034a578060031936011261034a57610850610874611af4565b610883600260015414156122e9565b6002600155602435903390612ae5565b50913461081b578060031936011261081b578151918160065492600184811c918186169586156109a4575b6020968785108114610991578899509688969785829a52918260001461096a57505060011461090e575b50505061090a92916108fb910385611cad565b51928284938452830190611b0f565b0390f35b9190869350600683527ff652222313e28459528d920b65115c16c04f3efc82aaedc97be59f3f377c0d3f5b82841061095257505050820101816108fb61090a6108e8565b8054848a018601528895508794909301928101610939565b60ff19168782015293151560051b860190930193508492506108fb915061090a90506108e8565b634e487b7160e01b835260228a52602483fd5b92607f16926108be565b50503461034a578160031936011261034a57905490516001600160a01b039091168152602090f35b50503461034a57602036600319011261034a5760209181906001600160a01b036109fe611af4565b168152600c845220549051908152f35b5034610327578160031936011261032757610a27611af4565b60243580151591828203610b0c57610a3d611c0f565b6001600160a01b031692308414610aa357509183917f3a34209cb941a5d23a56dea730a13738454bc7daefd4bb32e8d7df58c1bd920d93600014610a9457610a8482612180565b505b82519182526020820152a151f35b610a9d826121ff565b50610a86565b608490602086519162461bcd60e51b8352820152603a60248201527f7570646174655472616e7366657257686974656c6973743a2043616e6e6f742060448201527f72656d6f766520784172742066726f6d2077686974656c6973740000000000006064820152fd5b8580fd5b503461032757610b1f36611bf9565b9091600192610b326002855414156122e9565b600284558015610dc557600f548310610d8257610b50813033611cf2565b33865260126020528486209284610b678284611fd0565b94875184815286602082015283898201527fbd5034ffbd47e4e72a94baa2cdb74c6fad73cb3bcdc13036b72ec8306f5a764660603392a28215610d735701610bb0838254611ccf565b9055601154826000190481118616610d60576064908302049182610cb9575b3388526013602052610be48789209242611ccf565b60018060a01b039182600754169389519760a0890189811067ffffffffffffffff821117610ca4578b528852602088019182528988019283526060880194855260808801958652805490600160401b821015610c915790610c49918a82018155611bc7565b979097610c7f575187555187870155516002860155600385019151166001600160601b0360a01b82541617905551910155805551f35b634e487b7160e01b8b528a875260248bfd5b634e487b7160e01b8c526041885260248cfd5b604189634e487b7160e01b6000525260246000fd5b6007548751906001600160a01b03166020820167ffffffffffffffff811183821017610d4b578952898252899190803b1561032757610d1391839187838a8e5196879586948593631c75e36960e01b855233908501612335565b03925af18015610d4157610d29575b5050610bcf565b610d3290611c67565b610d3d578738610d22565b8780fd5b89513d84823e3d90fd5b604187634e487b7160e01b6000525260246000fd5b634e487b7160e01b885260118452602488fd5b50505061065f92915033612716565b845162461bcd60e51b8152602081840152601860248201527f72656465656d3a206475726174696f6e20746f6f206c6f7700000000000000006044820152606490fd5b845162461bcd60e51b8152602081840152602160248201527f72656465656d3a2078417274416d6f756e742063616e6e6f74206265206e756c6044820152601b60fa1b6064820152608490fd5b50503461034a578160031936011261034a57610e2c611c0f565b600080546001600160a01b0319811682559151916001600160a01b03167f8be0079c531659141344cd1fd0a4f28419497f9722a3daafe3b4186f6b6457e08284a3f35b50503461034a57602090610e8b610e8536611bf9565b90611fd0565b9051908152f35b50503461034a57602036600319011261034a5760209181906001600160a01b03610eba611af4565b1681526002845220549051908152f35b50503461034a578160031936011261034a576020905160648152f35b5034610327578160031936011261032757610eff611b4f565b90610f0f600260015414156122e9565b6002600155333b15610f2657906108509135612397565b606490602084519162461bcd60e51b8352820152601660248201527518dbdb9d995c9d151bce881b9bdd08185b1b1bddd95960521b6044820152fd5b9190503461034a57610f7336611b65565b9392610f87600260019493945414156122e9565b6002600155610f97828233612ae5565b6001600160a01b031690813b15610b0c57858094610fca89519788968795869463549230c960e01b86523390860161235c565b03925af18015610ff657610fe2575b50506001805551f35b610feb90611c67565b61034a578138610fd9565b50505051903d90823e3d90fd5b5034610327576020366003190112610327578035906001916110296002845414156122e9565b60028355338552601360205261104384862054821061208c565b33855260126020528484812060136020528461106184888520611bc7565b509101938454946110778784019687549061207f565b905561108585543330611cf2565b8082015491826110c9575b5050505061065f915484519081527f56d7520e387607a8daa892e3fed116badc2a636307bdc794b1c1aed97ae203f460203392a2612d1d565b600301548751906001600160a01b03166110e282611c91565b848252803b156106e25761110f938580948b519687958694859363549230c960e01b855233908501612335565b03925af1801561113957611125575b8080611090565b61112e90611c67565b6106e257843861111e565b86513d84823e3d90fd5b50503461034a57602036600319011261034a579081906001600160a01b03611169611af4565b1681526012602052206001815491015482519182526020820152f35b503461032757816003193601126103275761119e611af4565b6001600160a01b03908116845260136020528284208054602435959086101561081b575060a09461040c91611bc7565b50913461081b57602036600319011261081b5750813560085481101561122b5760086000527ff3f7a9fe364faab93b216da50a3214154f22a0a2b415b23a84c8169e8b636ee3015490516001600160a01b03909116815260209150f35b603283634e487b7160e01b6000525260246000fd5b50503461034a578160031936011261034a576020906011549051908152f35b50503461034a578160031936011261034a5760075490516001600160a01b039091168152602090f35b50503461034a578060031936011261034a576020916112a5611af4565b826112ae611b4f565b6001600160a01b039283168452600a8652922091166000908152908352819020549051908152f35b50503461034a578060031936011261034a576108506112f3611af4565b611302600260015414156122e9565b6002600155602435903390612988565b50503461034a578060031936011261034a5761076e60209282611333611af4565b91338152600386522060018060a01b038216600052845261135a6024358460002054611ccf565b9033611ece565b50503461034a578160031936011261034a576020905160128152f35b5034610327576020366003190112610327578035906113a1600260015414156122e9565b600260015533845260136020526113bc83852054831061208c565b33845260136020526113d082848620611bc7565b5060075460038201805490946001600160a01b039490938893928616928616838114159081611547575b50611409575b83886001805551f35b810191825480611472575b505050505082549082600754169285519182528216602082015282858201527fa60c8f9118be22c9277a8129333d64ffda3de44ca7a5831d077a3127f1237a1860603392a26001600160a01b03191617905538808084818080611400565b885161147d81611c91565b858152823b15610b0c576114a9928692838c5180968195829463549230c960e01b8452338b8501612335565b03925af190811561153d578491611529575b505084600754169154918751906114d182611c91565b848252803b156106e2576114fe938580948b5196879586948593631c75e36960e01b855233908501612335565b03925af1801561113957611515575b808080611414565b61151e90611c67565b6106e257843861150d565b61153290611c67565b6103275782386114bb565b88513d86823e3d90fd5b90501515386113fa565b50503461034a578060031936011261034a5760209161156e611af4565b82611577611b4f565b6001600160a01b039283168452600b8652922091166000908152908352819020549051908152f35b5082903461034a57606036600319011261034a576115bb611af4565b6115c3611b4f565b91846044359460018060a01b03841681526003602052203360005260205284600020549060001982036115ff575b60208661076e878787611cf2565b848210611628575091839161161d6020969561076e95033383611ece565b9193948193506115f1565b606490602087519162461bcd60e51b8352820152601d60248201527f45524332303a20696e73756666696369656e7420616c6c6f77616e63650000006044820152fd5b50503461034a57602036600319011261034a576020906001600160a01b03611691611af4565b1660005260098252806000205415159051908152f35b5082903461034a576116b836611b65565b939190926116cb600260015414156122e9565b60026001556116db828233612988565b6001600160a01b031691823b15610b0c57908580949392611711895197889687958694631c75e36960e01b86523390860161235c565b03925af1801561173857611729575b50906001805551f35b61173290611c67565b82611720565b83513d84823e3d90fd5b50503461034a578160031936011261034a57602090600d549051908152f35b503461032757826003193601126103275760209250549051908152f35b50503461034a578160031936011261034a576020906008549051908152f35b50346103275781600319360112610327576117b6611af4565b602435916117c2611c0f565b60c8831161180d575060207f6ff024152fc2cd8071bc701f966036513eb03e243863f21d8218646faac0eaef9160018060a01b031692838652600c825280858720558451908152a251f35b606490602085519162461bcd60e51b8352820152601f60248201527f7570646174654465616c6c6f636174696f6e4665653a20746f6f2068696768006044820152fd5b50503461034a578060031936011261034a5760209061076e611870611af4565b6024359033611ece565b50346103275760a03660031901126103275780359060243560443560643591608435936118a5611c0f565b6118b182871115612123565b8383101561193157509160a093918360647f5b37d10782e41a6539b50d59366d4112a880236e4187e85b6d1514d20e07d9b89795111580611926575b6118f690612123565b84600d5580600e5581600f558260105583601155875194855260208501528684015260608301526080820152a151f35b5060648411156118ed565b608490602088519162461bcd60e51b8352820152602b60248201527f75706461746552656465656d53657474696e67733a2077726f6e67206475726160448201526a74696f6e2076616c75657360a81b6064820152fd5b50913461081b578060031936011261081b578151918160055492600184811c91818616958615611a4b575b6020968785108114610991578899509688969785829a52918260001461096a5750506001146119ef5750505061090a92916108fb910385611cad565b9190869350600583527f036b6384b5eca791c62761152d0c79bb0604c104a5fb6f4eb0703f3154bb3db05b828410611a3357505050820101816108fb61090a6108e8565b8054848a018601528895508794909301928101611a1a565b92607f16926119b3565b50503461034a57602036600319011261034a57611a70611af4565b611a78611c0f565b6001600160a01b03908116908115611ad0575b7f044c75b8fa43ce72364b4c23fdb8451beafbda46505bf44c76f0853a01ed4ade836007549281519084168152846020820152a16001600160a01b0319161760075551f35b83601155611a8b565b84903461034a578160031936011261034a578060c860209252f35b600435906001600160a01b0382168203611b0a57565b600080fd5b919082519283825260005b848110611b3b575050826000602080949584010152601f8019910116010190565b602081830181015184830182015201611b1a565b602435906001600160a01b0382168203611b0a57565b906060600319830112611b0a576004356001600160a01b0381168103611b0a57916024359160443567ffffffffffffffff92838211611b0a5780602383011215611b0a578160040135938411611b0a5760248483010111611b0a576024019190565b8054821015611be3576000526005602060002091020190600090565b634e487b7160e01b600052603260045260246000fd5b6040906003190112611b0a576004359060243590565b6000546001600160a01b03163303611c2357565b606460405162461bcd60e51b815260206004820152602060248201527f4f776e61626c653a2063616c6c6572206973206e6f7420746865206f776e65726044820152fd5b67ffffffffffffffff8111611c7b57604052565b634e487b7160e01b600052604160045260246000fd5b6020810190811067ffffffffffffffff821117611c7b57604052565b90601f8019910116810190811067ffffffffffffffff821117611c7b57604052565b91908201809211611cdc57565b634e487b7160e01b600052601160045260246000fd5b6001600160a01b03908116918215611e7b5716918215611e2a57600090828252602091600983526040908181205415801590611e1b575b15611ddf578481526002845281812054838110611d8c579181847fddf252ad1be2c89b69c2b068fc378daa952ba7f163c4a11628f55a4df523b3ef9695948884955260028752038282205587815220611d83838254611ccf565b905551908152a3565b825162461bcd60e51b815260048101869052602660248201527f45524332303a207472616e7366657220616d6f756e7420657863656564732062604482015265616c616e636560d01b6064820152608490fd5b815162461bcd60e51b81526004810185905260156024820152741d1c985b9cd9995c8e881b9bdd08185b1b1bddd959605a1b6044820152606490fd5b50858152818120541515611d29565b60405162461bcd60e51b815260206004820152602360248201527f45524332303a207472616e7366657220746f20746865207a65726f206164647260448201526265737360e81b6064820152608490fd5b60405162461bcd60e51b815260206004820152602560248201527f45524332303a207472616e736665722066726f6d20746865207a65726f206164604482015264647265737360d81b6064820152608490fd5b6001600160a01b03908116918215611f7f5716918215611f2f5760207f8c5be1e5ebec7d5bd14f71427d1e84f3dd0314c0f7b2291e5b200ac8c7c3b925918360005260038252604060002085600052825280604060002055604051908152a3565b60405162461bcd60e51b815260206004820152602260248201527f45524332303a20617070726f766520746f20746865207a65726f206164647265604482015261737360f01b6064820152608490fd5b60405162461bcd60e51b8152602060048201526024808201527f45524332303a20617070726f76652066726f6d20746865207a65726f206164646044820152637265737360e01b6064820152608490fd5b90600f5490818110612077576010549081811161205a57611ff483600d549261207f565b9061200181600e5461207f565b9260001994838604851184151516611cdc5761201c9161207f565b801561204457859361203093020490611ccf565b9104811182151516611cdc57606491020490565b634e487b7160e01b600052601260045260246000fd5b505050600e548160001904811182151516611cdc57606491020490565b505050600090565b91908203918211611cdc57565b1561209357565b60405162461bcd60e51b815260206004820152602b60248201527f76616c696461746552656465656d3a2072656465656d20656e74727920646f6560448201526a1cc81b9bdd08195e1a5cdd60aa1b6064820152608490fd5b600854811015611be35760086000527ff3f7a9fe364faab93b216da50a3214154f22a0a2b415b23a84c8169e8b636ee30190600090565b1561212a57565b60405162461bcd60e51b815260206004820152602860248201527f75706461746552656465656d53657474696e67733a2077726f6e6720726174696044820152676f2076616c75657360c01b6064820152608490fd5b6000818152600960205260408120546121fa57600854600160401b8110156121e65790826121d26121b9846001604096016008556120ec565b819391549060031b600019811b9283911b169119161790565b905560085492815260096020522055600190565b634e487b7160e01b82526041600452602482fd5b905090565b60008181526009602052604081205490919080156122e457600019908082018181116122d057600854908382019182116122bc57808203612288575b505050600854801561227457810190612253826120ec565b909182549160031b1b19169055600855815260096020526040812055600190565b634e487b7160e01b84526031600452602484fd5b6122a66122976121b9936120ec565b90549060031b1c9283926120ec565b905584526009602052604084205538808061223b565b634e487b7160e01b86526011600452602486fd5b634e487b7160e01b85526011600452602485fd5b505090565b156122f057565b60405162461bcd60e51b815260206004820152601f60248201527f5265656e7472616e637947756172643a207265656e7472616e742063616c6c006044820152606490fd5b612359939260609260018060a01b0316825260208201528160408201520190611b0f565b90565b9284926080959260018060a01b03168552602085015260606040850152816060850152848401376000828201840152601f01601f1916010190565b80156124f7576001600160a01b039180831680156124b2576123bb83600454611ccf565b60045580600052600260205260406000206123d7848254611ccf565b905560007fddf252ad1be2c89b69c2b068fc378daa952ba7f163c4a11628f55a4df523b3ef6020604051868152a3604080516001600160a01b039290921682526020820183905233917fccfaeb3043a96a967dc036ab72e078a9632af809671bc2a1ac30a8043645f89e9190a2604051906323b872dd60e01b602083015233602483015230604483015260648201526064815260a081019181831067ffffffffffffffff841117611c7b576124b0926040527f00000000000000000000000000000000000000000000000000000000000000001661253c565b565b60405162461bcd60e51b815260206004820152601f60248201527f45524332303a206d696e7420746f20746865207a65726f2061646472657373006044820152606490fd5b60405162461bcd60e51b815260206004820152601e60248201527f636f6e766572743a20616d6f756e742063616e6e6f74206265206e756c6c00006044820152606490fd5b604080516001600160a01b039290921692909167ffffffffffffffff81840181811183821017611c7b5784526020948583527f5361666545524332303a206c6f772d6c6576656c2063616c6c206661696c656486840152803b1561268e5760008481959282898195519301915af13d15612680573d91821161266c57906125e192918551916125d488601f19601f8401160184611cad565b82523d858884013e6126d2565b8051806125f0575b5050505050565b8185918101031261034a578301519081159182150361081b5750612616578080806125e9565b60849250519062461bcd60e51b82526004820152602a60248201527f5361666545524332303a204552433230206f7065726174696f6e20646964206e6044820152691bdd081cdd58d8d9595960b21b6064820152fd5b634e487b7160e01b84526041600452602484fd5b6125e19291506060906126d2565b845162461bcd60e51b815260048101879052601d60248201527f416464726573733a2063616c6c20746f206e6f6e2d636f6e74726163740000006044820152606490fd5b909190156126de575090565b8151156126ee5750805190602001fd5b60405162461bcd60e51b815260206004820152908190612712906024830190611b0f565b0390fd5b9091612722818461207f565b60405163a9059cbb60e01b60208201526001600160a01b038481166024830152604480830185905282527f00000000000000000000000000000000000000000000000000000000000000008116949092909161278990612783606482611cad565b8661253c565b843b15611b0a57600094602486926040519788938492630852cd8d60e31b845260048401525af192831561280a577f0da072ebd7a5649099f43a3776eb0cda17aca79426ee9f28aae203f5dfa04eda946040946127fb575b506127ec8630612816565b835195865260208601521692a2565b61280490611c67565b386127e1565b6040513d6000823e3d90fd5b6001600160a01b0316801561293957600091818352602090600982526040808520541580159061292a575b156128ef5783855260028352808520548281106128a05790827fddf252ad1be2c89b69c2b068fc378daa952ba7f163c4a11628f55a4df523b3ef9493928688526002855203818720556128968260045461207f565b60045551908152a3565b815162461bcd60e51b815260048101859052602260248201527f45524332303a206275726e20616d6f756e7420657863656564732062616c616e604482015261636560f01b6064820152608490fd5b5162461bcd60e51b81526004810183905260156024820152741d1c985b9cd9995c8e881b9bdd08185b1b1bddd959605a1b6044820152606490fd5b50848052808520541515612841565b60405162461bcd60e51b815260206004820152602160248201527f45524332303a206275726e2066726f6d20746865207a65726f206164647265736044820152607360f81b6064820152608490fd5b92918015612aa05760018060a01b03808516916000958387526020926012845260409788812091600a8652898220971696878252855288812054848110612a5c5792612a559285926129ff847f5168bfb88d6125d4580e2b91ecb103a730312c3e8b0be9c4031a0fc794e2cd5f9a9b9c9d9761207f565b8a8252600a89528682208c8352895286822055898152600b88528581208b8252885285612a2f8582842054611ccf565b918b8152600b8a528181208d82528a522055612a4c838254611ccf565b90553090611cf2565b51908152a3565b895162461bcd60e51b815260048101879052601f60248201527f616c6c6f636174653a206e6f6e20617574686f72697a656420616d6f756e74006044820152606490fd5b60405162461bcd60e51b815260206004820152601f60248201527f616c6c6f636174653a20616d6f756e742063616e6e6f74206265206e756c6c006044820152606490fd5b92918015612cce5760018060a01b03808516916000958387526020600b815260409380858a20971696878a52825284892054848110612c805784612b289161207f565b868a52600b8352858a20888b528352858a2055600c82528489205484600019048111600116612c6c5790612b866127108b938702049488845260128552878420612b7388825461207f565b9055612b7f868861207f565b9030611cf2565b7f000000000000000000000000000000000000000000000000000000000000000016803b1561034a5781906024875180948193630852cd8d60e31b83528860048401525af18015612c6257612c12575b507f7d613f7bd1a777aeeefdd38ae61201003086575188df50618d02482220f5c1479495969750612c078230612816565b8351928352820152a3565b67ffffffffffffffff8111612c4e57845295965086957f7d613f7bd1a777aeeefdd38ae61201003086575188df50618d02482220f5c147612bd6565b634e487b7160e01b89526041600452602489fd5b85513d8b823e3d90fd5b634e487b7160e01b8a52601160045260248afd5b855162461bcd60e51b815260048101849052602160248201527f6465616c6c6f636174653a206e6f6e20617574686f72697a656420616d6f756e6044820152601d60fa1b6064820152608490fd5b60405162461bcd60e51b815260206004820152602160248201527f6465616c6c6f636174653a20616d6f756e742063616e6e6f74206265206e756c6044820152601b60fa1b6064820152608490fd5b600090338252601360205260408220906040832054600019928382019182116122d057612d6091612d4d91611bc7565b5091338552601360205260408520611bc7565b919091612e1157808203612dc7575b50503382526013602052604082209081548015612274570191612d928383611bc7565b612db357808260049255826001820155826002820155826003820155015555565b634e487b7160e01b82526004829052602482fd5b600481819254845560018101546001850155600281015460028501556003840160018060a01b036003830154166001600160601b0360a01b82541617905501549101553880612d6f565b634e487b7160e01b84526004849052602484fdfea264697066735822122099bca758d5c28913a1f28a3f85775cedb74b709f49d8adbf15a0e8c216e45e1664736f6c63430008100033",
  "linkReferences": {},
  "deployedLinkReferences": {}
}