{
  "_format": "hh-sol-artifact-1",
  "contractName": "XFlashToken",
  "sourceName": "contracts/XFlashToken.sol",
  "abi": [
    {
      "inputs": [
        {
          "internalType": "contract IFlashToken",
          "name": "flashToken_",
          "type": "address"
        }
      ],
      "stateMutability": "nonpayable",
      "type": "constructor"
    },
    {
      "anonymous": false,
      "inputs": [
        {
          "indexed": true,
          "internalType": "address",
          "name": "userAddress",
          "type": "address"
        },
        {
          "indexed": true,
          "internalType": "address",
          "name": "usageAddress",
          "type": "address"
        },
        {
          "indexed": false,
          "internalType": "uint256",
          "name": "amount",
          "type": "uint256"
        }
      ],
      "name": "Allocate",
      "type": "event"
    },
    {
      "anonymous": false,
      "inputs": [
        {
          "indexed": true,
          "internalType": "address",
          "name": "owner",
          "type": "address"
        },
        {
          "indexed": true,
          "internalType": "address",
          "name": "spender",
          "type": "address"
        },
        {
          "indexed": false,
          "internalType": "uint256",
          "name": "value",
          "type": "uint256"
        }
      ],
      "name": "Approval",
      "type": "event"
    },
    {
      "anonymous": false,
      "inputs": [
        {
          "indexed": true,
          "internalType": "address",
          "name": "userAddress",
          "type": "address"
        },
        {
          "indexed": true,
          "internalType": "address",
          "name": "usageAddress",
          "type": "address"
        },
        {
          "indexed": false,
          "internalType": "uint256",
          "name": "amount",
          "type": "uint256"
        }
      ],
      "name": "ApproveUsage",
      "type": "event"
    },
    {
      "anonymous": false,
      "inputs": [
        {
          "indexed": true,
          "internalType": "address",
          "name": "userAddress",
          "type": "address"
        },
        {
          "indexed": false,
          "internalType": "uint256",
          "name": "xFlashAmount",
          "type": "uint256"
        }
      ],
      "name": "CancelRedeem",
      "type": "event"
    },
    {
      "anonymous": false,
      "inputs": [
        {
          "indexed": true,
          "internalType": "address",
          "name": "from",
          "type": "address"
        },
        {
          "indexed": false,
          "internalType": "address",
          "name": "to",
          "type": "address"
        },
        {
          "indexed": false,
          "internalType": "uint256",
          "name": "amount",
          "type": "uint256"
        }
      ],
      "name": "Convert",
      "type": "event"
    },
    {
      "anonymous": false,
      "inputs": [
        {
          "indexed": true,
          "internalType": "address",
          "name": "userAddress",
          "type": "address"
        },
        {
          "indexed": true,
          "internalType": "address",
          "name": "usageAddress",
          "type": "address"
        },
        {
          "indexed": false,
          "internalType": "uint256",
          "name": "amount",
          "type": "uint256"
        },
        {
          "indexed": false,
          "internalType": "uint256",
          "name": "fee",
          "type": "uint256"
        }
      ],
      "name": "Deallocate",
      "type": "event"
    },
    {
      "anonymous": false,
      "inputs": [
        {
          "indexed": true,
          "internalType": "address",
          "name": "userAddress",
          "type": "address"
        },
        {
          "indexed": false,
          "internalType": "uint256",
          "name": "xFlashAmount",
          "type": "uint256"
        },
        {
          "indexed": false,
          "internalType": "uint256",
          "name": "flashAmount",
          "type": "uint256"
        }
      ],
      "name": "FinalizeRedeem",
      "type": "event"
    },
    {
      "anonymous": false,
      "inputs": [
        {
          "indexed": true,
          "internalType": "address",
          "name": "previousOwner",
          "type": "address"
        },
        {
          "indexed": true,
          "internalType": "address",
          "name": "newOwner",
          "type": "address"
        }
      ],
      "name": "OwnershipTransferred",
      "type": "event"
    },
    {
      "anonymous": false,
      "inputs": [
        {
          "indexed": true,
          "internalType": "address",
          "name": "userAddress",
          "type": "address"
        },
        {
          "indexed": false,
          "internalType": "uint256",
          "name": "xFlashAmount",
          "type": "uint256"
        },
        {
          "indexed": false,
          "internalType": "uint256",
          "name": "flashAmount",
          "type": "uint256"
        },
        {
          "indexed": false,
          "internalType": "uint256",
          "name": "duration",
          "type": "uint256"
        }
      ],
      "name": "Redeem",
      "type": "event"
    },
    {
      "anonymous": false,
      "inputs": [
        {
          "indexed": false,
          "internalType": "address",
          "name": "account",
          "type": "address"
        },
        {
          "indexed": false,
          "internalType": "bool",
          "name": "add",
          "type": "bool"
        }
      ],
      "name": "SetTransferWhitelist",
      "type": "event"
    },
    {
      "anonymous": false,
      "inputs": [
        {
          "indexed": true,
          "internalType": "address",
          "name": "from",
          "type": "address"
        },
        {
          "indexed": true,
          "internalType": "address",
          "name": "to",
          "type": "address"
        },
        {
          "indexed": false,
          "internalType": "uint256",
          "name": "value",
          "type": "uint256"
        }
      ],
      "name": "Transfer",
      "type": "event"
    },
    {
      "anonymous": false,
      "inputs": [
        {
          "indexed": true,
          "internalType": "address",
          "name": "usageAddress",
          "type": "address"
        },
        {
          "indexed": false,
          "internalType": "uint256",
          "name": "fee",
          "type": "uint256"
        }
      ],
      "name": "UpdateDeallocationFee",
      "type": "event"
    },
    {
      "anonymous": false,
      "inputs": [
        {
          "indexed": false,
          "internalType": "address",
          "name": "previousDividendsAddress",
          "type": "address"
        },
        {
          "indexed": false,
          "internalType": "address",
          "name": "newDividendsAddress",
          "type": "address"
        }
      ],
      "name": "UpdateDividendsAddress",
      "type": "event"
    },
    {
      "anonymous": false,
      "inputs": [
        {
          "indexed": true,
          "internalType": "address",
          "name": "userAddress",
          "type": "address"
        },
        {
          "indexed": false,
          "internalType": "uint256",
          "name": "redeemIndex",
          "type": "uint256"
        },
        {
          "indexed": false,
          "internalType": "address",
          "name": "previousDividendsAddress",
          "type": "address"
        },
        {
          "indexed": false,
          "internalType": "address",
          "name": "newDividendsAddress",
          "type": "address"
        }
      ],
      "name": "UpdateRedeemDividendsAddress",
      "type": "event"
    },
    {
      "anonymous": false,
      "inputs": [
        {
          "indexed": false,
          "internalType": "uint256",
          "name": "minRedeemRatio",
          "type": "uint256"
        },
        {
          "indexed": false,
          "internalType": "uint256",
          "name": "maxRedeemRatio",
          "type": "uint256"
        },
        {
          "indexed": false,
          "internalType": "uint256",
          "name": "minRedeemDuration",
          "type": "uint256"
        },
        {
          "indexed": false,
          "internalType": "uint256",
          "name": "maxRedeemDuration",
          "type": "uint256"
        },
        {
          "indexed": false,
          "internalType": "uint256",
          "name": "redeemDividendsAdjustment",
          "type": "uint256"
        }
      ],
      "name": "UpdateRedeemSettings",
      "type": "event"
    },
    {
      "inputs": [],
      "name": "MAX_DEALLOCATION_FEE",
      "outputs": [
        {
          "internalType": "uint256",
          "name": "",
          "type": "uint256"
        }
      ],
      "stateMutability": "view",
      "type": "function"
    },
    {
      "inputs": [],
      "name": "MAX_FIXED_RATIO",
      "outputs": [
        {
          "internalType": "uint256",
          "name": "",
          "type": "uint256"
        }
      ],
      "stateMutability": "view",
      "type": "function"
    },
    {
      "inputs": [
        {
          "internalType": "address",
          "name": "usageAddress",
          "type": "address"
        },
        {
          "internalType": "uint256",
          "name": "amount",
          "type": "uint256"
        },
        {
          "internalType": "bytes",
          "name": "usageData",
          "type": "bytes"
        }
      ],
      "name": "allocate",
      "outputs": [],
      "stateMutability": "nonpayable",
      "type": "function"
    },
    {
      "inputs": [
        {
          "internalType": "address",
          "name": "userAddress",
          "type": "address"
        },
        {
          "internalType": "uint256",
          "name": "amount",
          "type": "uint256"
        }
      ],
      "name": "allocateFromUsage",
      "outputs": [],
      "stateMutability": "nonpayable",
      "type": "function"
    },
    {
      "inputs": [
        {
          "internalType": "address",
          "name": "owner",
          "type": "address"
        },
        {
          "internalType": "address",
          "name": "spender",
          "type": "address"
        }
      ],
      "name": "allowance",
      "outputs": [
        {
          "internalType": "uint256",
          "name": "",
          "type": "uint256"
        }
      ],
      "stateMutability": "view",
      "type": "function"
    },
    {
      "inputs": [
        {
          "internalType": "address",
          "name": "spender",
          "type": "address"
        },
        {
          "internalType": "uint256",
          "name": "amount",
          "type": "uint256"
        }
      ],
      "name": "approve",
      "outputs": [
        {
          "internalType": "bool",
          "name": "",
          "type": "bool"
        }
      ],
      "stateMutability": "nonpayable",
      "type": "function"
    },
    {
      "inputs": [
        {
          "internalType": "contract IXFlashTokenUsage",
          "name": "usage",
          "type": "address"
        },
        {
          "internalType": "uint256",
          "name": "amount",
          "type": "uint256"
        }
      ],
      "name": "approveUsage",
      "outputs": [],
      "stateMutability": "nonpayable",
      "type": "function"
    },
    {
      "inputs": [
        {
          "internalType": "address",
          "name": "account",
          "type": "address"
        }
      ],
      "name": "balanceOf",
      "outputs": [
        {
          "internalType": "uint256",
          "name": "",
          "type": "uint256"
        }
      ],
      "stateMutability": "view",
      "type": "function"
    },
    {
      "inputs": [
        {
          "internalType": "uint256",
          "name": "redeemIndex",
          "type": "uint256"
        }
      ],
      "name": "cancelRedeem",
      "outputs": [],
      "stateMutability": "nonpayable",
      "type": "function"
    },
    {
      "inputs": [
        {
          "internalType": "uint256",
          "name": "amount",
          "type": "uint256"
        }
      ],
      "name": "convert",
      "outputs": [],
      "stateMutability": "nonpayable",
      "type": "function"
    },
    {
      "inputs": [
        {
          "internalType": "uint256",
          "name": "amount",
          "type": "uint256"
        },
        {
          "internalType": "address",
          "name": "to",
          "type": "address"
        }
      ],
      "name": "convertTo",
      "outputs": [],
      "stateMutability": "nonpayable",
      "type": "function"
    },
    {
      "inputs": [
        {
          "internalType": "address",
          "name": "usageAddress",
          "type": "address"
        },
        {
          "internalType": "uint256",
          "name": "amount",
          "type": "uint256"
        },
        {
          "internalType": "bytes",
          "name": "usageData",
          "type": "bytes"
        }
      ],
      "name": "deallocate",
      "outputs": [],
      "stateMutability": "nonpayable",
      "type": "function"
    },
    {
      "inputs": [
        {
          "internalType": "address",
          "name": "userAddress",
          "type": "address"
        },
        {
          "internalType": "uint256",
          "name": "amount",
          "type": "uint256"
        }
      ],
      "name": "deallocateFromUsage",
      "outputs": [],
      "stateMutability": "nonpayable",
      "type": "function"
    },
    {
      "inputs": [],
      "name": "decimals",
      "outputs": [
        {
          "internalType": "uint8",
          "name": "",
          "type": "uint8"
        }
      ],
      "stateMutability": "view",
      "type": "function"
    },
    {
      "inputs": [
        {
          "internalType": "address",
          "name": "spender",
          "type": "address"
        },
        {
          "internalType": "uint256",
          "name": "subtractedValue",
          "type": "uint256"
        }
      ],
      "name": "decreaseAllowance",
      "outputs": [
        {
          "internalType": "bool",
          "name": "",
          "type": "bool"
        }
      ],
      "stateMutability": "nonpayable",
      "type": "function"
    },
    {
      "inputs": [],
      "name": "dividendsAddress",
      "outputs": [
        {
          "internalType": "contract IXFlashTokenUsage",
          "name": "",
          "type": "address"
        }
      ],
      "stateMutability": "view",
      "type": "function"
    },
    {
      "inputs": [
        {
          "internalType": "uint256",
          "name": "redeemIndex",
          "type": "uint256"
        }
      ],
      "name": "finalizeRedeem",
      "outputs": [],
      "stateMutability": "nonpayable",
      "type": "function"
    },
    {
      "inputs": [],
      "name": "flashToken",
      "outputs": [
        {
          "internalType": "contract IFlashToken",
          "name": "",
          "type": "address"
        }
      ],
      "stateMutability": "view",
      "type": "function"
    },
    {
      "inputs": [
        {
          "internalType": "uint256",
          "name": "amount",
          "type": "uint256"
        },
        {
          "internalType": "uint256",
          "name": "duration",
          "type": "uint256"
        }
      ],
      "name": "getFlashByVestingDuration",
      "outputs": [
        {
          "internalType": "uint256",
          "name": "",
          "type": "uint256"
        }
      ],
      "stateMutability": "view",
      "type": "function"
    },
    {
      "inputs": [
        {
          "internalType": "address",
          "name": "userAddress",
          "type": "address"
        },
        {
          "internalType": "address",
          "name": "usageAddress",
          "type": "address"
        }
      ],
      "name": "getUsageAllocation",
      "outputs": [
        {
          "internalType": "uint256",
          "name": "",
          "type": "uint256"
        }
      ],
      "stateMutability": "view",
      "type": "function"
    },
    {
      "inputs": [
        {
          "internalType": "address",
          "name": "userAddress",
          "type": "address"
        },
        {
          "internalType": "address",
          "name": "usageAddress",
          "type": "address"
        }
      ],
      "name": "getUsageApproval",
      "outputs": [
        {
          "internalType": "uint256",
          "name": "",
          "type": "uint256"
        }
      ],
      "stateMutability": "view",
      "type": "function"
    },
    {
      "inputs": [
        {
          "internalType": "address",
          "name": "userAddress",
          "type": "address"
        },
        {
          "internalType": "uint256",
          "name": "redeemIndex",
          "type": "uint256"
        }
      ],
      "name": "getUserRedeem",
      "outputs": [
        {
          "internalType": "uint256",
          "name": "flashAmount",
          "type": "uint256"
        },
        {
          "internalType": "uint256",
          "name": "xFlashAmount",
          "type": "uint256"
        },
        {
          "internalType": "uint256",
          "name": "endTime",
          "type": "uint256"
        },
        {
          "internalType": "address",
          "name": "dividendsContract",
          "type": "address"
        },
        {
          "internalType": "uint256",
          "name": "dividendsAllocation",
          "type": "uint256"
        }
      ],
      "stateMutability": "view",
      "type": "function"
    },
    {
      "inputs": [
        {
          "internalType": "address",
          "name": "userAddress",
          "type": "address"
        }
      ],
      "name": "getUserRedeemsLength",
      "outputs": [
        {
          "internalType": "uint256",
          "name": "",
          "type": "uint256"
        }
      ],
      "stateMutability": "view",
      "type": "function"
    },
    {
      "inputs": [
        {
          "internalType": "address",
          "name": "userAddress",
          "type": "address"
        }
      ],
      "name": "getXFlashBalance",
      "outputs": [
        {
          "internalType": "uint256",
          "name": "allocatedAmount",
          "type": "uint256"
        },
        {
          "internalType": "uint256",
          "name": "redeemingAmount",
          "type": "uint256"
        }
      ],
      "stateMutability": "view",
      "type": "function"
    },
    {
      "inputs": [
        {
          "internalType": "address",
          "name": "spender",
          "type": "address"
        },
        {
          "internalType": "uint256",
          "name": "addedValue",
          "type": "uint256"
        }
      ],
      "name": "increaseAllowance",
      "outputs": [
        {
          "internalType": "bool",
          "name": "",
          "type": "bool"
        }
      ],
      "stateMutability": "nonpayable",
      "type": "function"
    },
    {
      "inputs": [
        {
          "internalType": "address",
          "name": "account",
          "type": "address"
        }
      ],
      "name": "isTransferWhitelisted",
      "outputs": [
        {
          "internalType": "bool",
          "name": "",
          "type": "bool"
        }
      ],
      "stateMutability": "view",
      "type": "function"
    },
    {
      "inputs": [],
      "name": "maxRedeemDuration",
      "outputs": [
        {
          "internalType": "uint256",
          "name": "",
          "type": "uint256"
        }
      ],
      "stateMutability": "view",
      "type": "function"
    },
    {
      "inputs": [],
      "name": "maxRedeemRatio",
      "outputs": [
        {
          "internalType": "uint256",
          "name": "",
          "type": "uint256"
        }
      ],
      "stateMutability": "view",
      "type": "function"
    },
    {
      "inputs": [],
      "name": "minRedeemDuration",
      "outputs": [
        {
          "internalType": "uint256",
          "name": "",
          "type": "uint256"
        }
      ],
      "stateMutability": "view",
      "type": "function"
    },
    {
      "inputs": [],
      "name": "minRedeemRatio",
      "outputs": [
        {
          "internalType": "uint256",
          "name": "",
          "type": "uint256"
        }
      ],
      "stateMutability": "view",
      "type": "function"
    },
    {
      "inputs": [],
      "name": "name",
      "outputs": [
        {
          "internalType": "string",
          "name": "",
          "type": "string"
        }
      ],
      "stateMutability": "view",
      "type": "function"
    },
    {
      "inputs": [],
      "name": "owner",
      "outputs": [
        {
          "internalType": "address",
          "name": "",
          "type": "address"
        }
      ],
      "stateMutability": "view",
      "type": "function"
    },
    {
      "inputs": [
        {
          "internalType": "uint256",
          "name": "xFlashAmount",
          "type": "uint256"
        },
        {
          "internalType": "uint256",
          "name": "duration",
          "type": "uint256"
        }
      ],
      "name": "redeem",
      "outputs": [],
      "stateMutability": "nonpayable",
      "type": "function"
    },
    {
      "inputs": [],
      "name": "redeemDividendsAdjustment",
      "outputs": [
        {
          "internalType": "uint256",
          "name": "",
          "type": "uint256"
        }
      ],
      "stateMutability": "view",
      "type": "function"
    },
    {
      "inputs": [],
      "name": "renounceOwnership",
      "outputs": [],
      "stateMutability": "nonpayable",
      "type": "function"
    },
    {
      "inputs": [],
      "name": "symbol",
      "outputs": [
        {
          "internalType": "string",
          "name": "",
          "type": "string"
        }
      ],
      "stateMutability": "view",
      "type": "function"
    },
    {
      "inputs": [],
      "name": "totalSupply",
      "outputs": [
        {
          "internalType": "uint256",
          "name": "",
          "type": "uint256"
        }
      ],
      "stateMutability": "view",
      "type": "function"
    },
    {
      "inputs": [
        {
          "internalType": "address",
          "name": "to",
          "type": "address"
        },
        {
          "internalType": "uint256",
          "name": "amount",
          "type": "uint256"
        }
      ],
      "name": "transfer",
      "outputs": [
        {
          "internalType": "bool",
          "name": "",
          "type": "bool"
        }
      ],
      "stateMutability": "nonpayable",
      "type": "function"
    },
    {
      "inputs": [
        {
          "internalType": "address",
          "name": "from",
          "type": "address"
        },
        {
          "internalType": "address",
          "name": "to",
          "type": "address"
        },
        {
          "internalType": "uint256",
          "name": "amount",
          "type": "uint256"
        }
      ],
      "name": "transferFrom",
      "outputs": [
        {
          "internalType": "bool",
          "name": "",
          "type": "bool"
        }
      ],
      "stateMutability": "nonpayable",
      "type": "function"
    },
    {
      "inputs": [
        {
          "internalType": "address",
          "name": "newOwner",
          "type": "address"
        }
      ],
      "name": "transferOwnership",
      "outputs": [],
      "stateMutability": "nonpayable",
      "type": "function"
    },
    {
      "inputs": [
        {
          "internalType": "uint256",
          "name": "index",
          "type": "uint256"
        }
      ],
      "name": "transferWhitelist",
      "outputs": [
        {
          "internalType": "address",
          "name": "",
          "type": "address"
        }
      ],
      "stateMutability": "view",
      "type": "function"
    },
    {
      "inputs": [],
      "name": "transferWhitelistLength",
      "outputs": [
        {
          "internalType": "uint256",
          "name": "",
          "type": "uint256"
        }
      ],
      "stateMutability": "view",
      "type": "function"
    },
    {
      "inputs": [
        {
          "internalType": "address",
          "name": "usageAddress",
          "type": "address"
        },
        {
          "internalType": "uint256",
          "name": "fee",
          "type": "uint256"
        }
      ],
      "name": "updateDeallocationFee",
      "outputs": [],
      "stateMutability": "nonpayable",
      "type": "function"
    },
    {
      "inputs": [
        {
          "internalType": "contract IXFlashTokenUsage",
          "name": "dividendsAddress_",
          "type": "address"
        }
      ],
      "name": "updateDividendsAddress",
      "outputs": [],
      "stateMutability": "nonpayable",
      "type": "function"
    },
    {
      "inputs": [
        {
          "internalType": "uint256",
          "name": "redeemIndex",
          "type": "uint256"
        }
      ],
      "name": "updateRedeemDividendsAddress",
      "outputs": [],
      "stateMutability": "nonpayable",
      "type": "function"
    },
    {
      "inputs": [
        {
          "internalType": "uint256",
          "name": "minRedeemRatio_",
          "type": "uint256"
        },
        {
          "internalType": "uint256",
          "name": "maxRedeemRatio_",
          "type": "uint256"
        },
        {
          "internalType": "uint256",
          "name": "minRedeemDuration_",
          "type": "uint256"
        },
        {
          "internalType": "uint256",
          "name": "maxRedeemDuration_",
          "type": "uint256"
        },
        {
          "internalType": "uint256",
          "name": "redeemDividendsAdjustment_",
          "type": "uint256"
        }
      ],
      "name": "updateRedeemSettings",
      "outputs": [],
      "stateMutability": "nonpayable",
      "type": "function"
    },
    {
      "inputs": [
        {
          "internalType": "address",
          "name": "account",
          "type": "address"
        },
        {
          "internalType": "bool",
          "name": "add",
          "type": "bool"
        }
      ],
      "name": "updateTransferWhitelist",
      "outputs": [],
      "stateMutability": "nonpayable",
      "type": "function"
    },
    {
      "inputs": [
        {
          "internalType": "address",
          "name": "",
          "type": "address"
        },
        {
          "internalType": "address",
          "name": "",
          "type": "address"
        }
      ],
      "name": "usageAllocations",
      "outputs": [
        {
          "internalType": "uint256",
          "name": "",
          "type": "uint256"
        }
      ],
      "stateMutability": "view",
      "type": "function"
    },
    {
      "inputs": [
        {
          "internalType": "address",
          "name": "",
          "type": "address"
        },
        {
          "internalType": "address",
          "name": "",
          "type": "address"
        }
      ],
      "name": "usageApprovals",
      "outputs": [
        {
          "internalType": "uint256",
          "name": "",
          "type": "uint256"
        }
      ],
      "stateMutability": "view",
      "type": "function"
    },
    {
      "inputs": [
        {
          "internalType": "address",
          "name": "",
          "type": "address"
        }
      ],
      "name": "usagesDeallocationFee",
      "outputs": [
        {
          "internalType": "uint256",
          "name": "",
          "type": "uint256"
        }
      ],
      "stateMutability": "view",
      "type": "function"
    },
    {
      "inputs": [
        {
          "internalType": "address",
          "name": "",
          "type": "address"
        },
        {
          "internalType": "uint256",
          "name": "",
          "type": "uint256"
        }
      ],
      "name": "userRedeems",
      "outputs": [
        {
          "internalType": "uint256",
          "name": "flashAmount",
          "type": "uint256"
        },
        {
          "internalType": "uint256",
          "name": "xFlashAmount",
          "type": "uint256"
        },
        {
          "internalType": "uint256",
          "name": "endTime",
          "type": "uint256"
        },
        {
          "internalType": "contract IXFlashTokenUsage",
          "name": "dividendsAddress",
          "type": "address"
        },
        {
          "internalType": "uint256",
          "name": "dividendsAllocation",
          "type": "uint256"
        }
      ],
      "stateMutability": "view",
      "type": "function"
    },
    {
      "inputs": [
        {
          "internalType": "address",
          "name": "",
          "type": "address"
        }
      ],
      "name": "xFlashBalances",
      "outputs": [
        {
          "internalType": "uint256",
          "name": "allocatedAmount",
          "type": "uint256"
        },
        {
          "internalType": "uint256",
          "name": "redeemingAmount",
          "type": "uint256"
        }
      ],
      "stateMutability": "view",
      "type": "function"
    }
  ],
  "bytecode": "0x60a034620003e157601f90601f19906001600160401b036200331a388190038581018516840183811185821017620003e657849282916040528339602093849181010312620003e15751936001600160a01b03928386168603620003e15762000067620003fc565b93601485527f466c61736820657363726f77656420746f6b656e000000000000000000000000828601526200009b620003fc565b91600696878452650f08c9882a6960d31b828501526000928354903360018060a01b031983161785553391167f8be0079c531659141344cd1fd0a4f28419497f9722a3daafe3b4186f6b6457e085604051a36001968780558051878111620003cd5760059182548a81811c91168015620003c2575b86821014620003ae579081898493116200035d575b508590898311600114620002fc578792620002f0575b5050600019600383901b1c191690891b1781555b8451968711620002dc578854908882811c92168015620002d1575b84831014620002bd5786821162000277575b505081948611600114620002115750509183949184939462000205575b50501b916000199060031b1c19161790555b6032600d556064600e556213c680600f556276a7006010556032601155608052620001d6306200041c565b50604051612e5d9081620004bd8239608051818181610e270152818161248d015281816127500152612b8a0152f35b01519250388062000199565b8783528183209493928692918316915b888383106200025c575050501062000242575b505050811b019055620001ab565b015160001960f88460031b161c1916905538808062000234565b85870151885590960195948501948793509081019062000221565b8985528385209087808a01821c830193868b10620002b3575b01901c019088905b828110620002a757506200017c565b85815501889062000298565b9350829362000290565b634e487b7160e01b85526022600452602485fd5b91607f16916200016a565b634e487b7160e01b84526041600452602484fd5b0151905038806200013b565b90858c94169185895287892092895b898282106200034657505084116200032c575b505050811b0181556200014f565b015160001960f88460031b161c191690553880806200031e565b8385015186558f979095019493840193016200030b565b90915083875285872089808501861c820192888610620003a4575b918d918695949301871c01915b8281106200039557505062000125565b8981558594508d910162000385565b9250819262000378565b634e487b7160e01b87526022600452602487fd5b90607f169062000110565b634e487b7160e01b85526041600452602485fd5b600080fd5b634e487b7160e01b600052604160045260246000fd5b60408051919082016001600160401b03811183821017620003e657604052565b600081815260096020526040812054620004b75760085468010000000000000000811015620004a35760018101806008558110156200048f577ff3f7a9fe364faab93b216da50a3214154f22a0a2b415b23a84c8169e8b636ee30182905560085491815260096020526040902055600190565b634e487b7160e01b82526032600452602482fd5b634e487b7160e01b82526041600452602482fd5b90509056fe6080604081815260048036101561001557600080fd5b600092833560e01c90816302f91e5514611adb5750806306045a2114611a5757806306fdde031461198a578063093220b71461187c578063095ea7b3146118525780630f7d3a691461179f578063161aab431461178057806318160ddd146117635780631c352679146117445780631c75e369146116a95780631eee7e601461166d57806323b872dd146115a15780632b4896791461128a5780632cc2f5ce146115535780632e9a76e41461155357806331124ce31461137f578063313ce5671461136357806336d6879b1461084f57806339509351146113145780633b90f9a0146112d8578063488c83031461128a578063497965ee146112615780634a5b406e146112425780634b359d38146111d05780634f62b7ec14611187578063539ffb771461104757838163549230c914610fa6575080635a1d34dc14610f2a578063619ac95b14610f0e57806361be4bc814610eeb57806370a0823114610eb3578063715018a614610e5657806377ee085514610e125780637cbc237314610b0e5780638908365414610a0c5780638975f918146109d45780638da5cb5b146109ac57806395d89b411461089157806398b5712c1461084f578063a0bdc7cb14610813578063a3908e1b146107da578063a457c2d714610731578063a9059cbb14610700578063aff6cbf114610573578063b90c2b521461053b578063c360ed1c1461045f578063c4b1076614610440578063cc6c5423146103bb578063dd62ed3e1461036d578063e3a2950b1461034e578063e9ed87f81461032b5763f2fde38b1461026157600080fd5b346103275760203660031901126103275761027a611af6565b610282611c11565b6001600160a01b039081169182156102d5575060005492826001600160601b0360a01b8516176000555192167f8be0079c531659141344cd1fd0a4f28419497f9722a3daafe3b4186f6b6457e0600084a3f35b608490602085519162461bcd60e51b8352820152602660248201527f4f776e61626c653a206e6577206f776e657220697320746865207a65726f206160448201526564647265737360d01b6064820152fd5b8280fd5b50503461034a578160031936011261034a576020906010549051908152f35b5080fd5b50503461034a578160031936011261034a57602090600e549051908152f35b50503461034a578060031936011261034a5760209161038a611af6565b82610393611b51565b6001600160a01b03928316845260038652922091166000908152908352819020549051908152f35b503461032757816003193601126103275760a09261040c6103da611af6565b918460243591600180891b0380951680825260136020526103ff83832054851061208e565b8152601360205220611bc9565b5090815493600183015493600284015492600385015416930154938151958652602086015284015260608301526080820152f35b50503461034a578160031936011261034a57602090600f549051908152f35b5034610327578160031936011261032757610478611af6565b6024359061048b600260015414156122eb565b6001600160a01b03169182156104e65750338452600a6020528284208260005260205280836000205582519081527fe75ec259c38e4601f24580968665ec00b21cca4f996689b260ec598aec5c08db60203392a36001805551f35b608490602085519162461bcd60e51b8352820152602960248201527f617070726f766555736167653a20617070726f766520746f20746865207a65726044820152686f206164647265737360b81b6064820152fd5b50503461034a57602036600319011261034a5760209181906001600160a01b03610563611af6565b1681526013845220549051908152f35b50346103275760203660031901126103275780356001916105986002845414156122eb565b6002835533855260136020526105b284862054831061208e565b33855260126020528385209060136020526105cf83868820611bc9565b5091600283015442106106a2579061060385889493018054906105f788860192835490612081565b90555483549033612718565b808201549182610620575b5050505061061b90612d1f565b805551f35b600301548651906001600160a01b031661063982611c93565b848252803b1561069e57610666938580948a519687958694859363549230c960e01b855233908501612337565b03925af180156106945761067c575b808061060e565b61068590611c69565b610690578338610675565b8380fd5b85513d84823e3d90fd5b8480fd5b855162461bcd60e51b8152602081840152603260248201527f66696e616c697a6552656465656d3a2076657374696e67206475726174696f6e604482015271081a185cc81b9bdd08195b991959081e595d60721b6064820152608490fd5b50503461034a578060031936011261034a5760209061072a610720611af6565b6024359033611cf4565b5160018152f35b5082346107d757826003193601126107d75761074b611af6565b91836024359233815260036020522060018060a01b0384166000526020528360002054908282106107865760208561072a8585038733611ed0565b608490602086519162461bcd60e51b8352820152602560248201527f45524332303a2064656372656173656420616c6c6f77616e63652062656c6f77604482015264207a65726f60d81b6064820152fd5b80fd5b50346103275760203660031901126103275761080c906107ff600260015414156122eb565b6002600155339035612399565b6001805551f35b50503461034a578060031936011261034a5761080c610830611af6565b61083f600260015414156122eb565b6002600155602435903390612ae7565b50503461034a57602036600319011261034a579081906001600160a01b03610875611af6565b1681526012602052206001815491015482519182526020820152f35b5091346107d757806003193601126107d7578151918160065492600184811c918186169586156109a2575b602096878510811461098f578899509688969785829a52918260001461096857505060011461090c575b50505061090892916108f9910385611caf565b51928284938452830190611b11565b0390f35b9190869350600683527ff652222313e28459528d920b65115c16c04f3efc82aaedc97be59f3f377c0d3f5b82841061095057505050820101816108f96109086108e6565b8054848a018601528895508794909301928101610937565b60ff19168782015293151560051b860190930193508492506108f9915061090890506108e6565b634e487b7160e01b835260228a52602483fd5b92607f16926108bc565b50503461034a578160031936011261034a57905490516001600160a01b039091168152602090f35b50503461034a57602036600319011261034a5760209181906001600160a01b036109fc611af6565b168152600c845220549051908152f35b5034610327578160031936011261032757610a25611af6565b60243580151591828203610b0a57610a3b611c11565b6001600160a01b031692308414610aa157509183917f3a34209cb941a5d23a56dea730a13738454bc7daefd4bb32e8d7df58c1bd920d93600014610a9257610a8282612182565b505b82519182526020820152a151f35b610a9b82612201565b50610a84565b608490602086519162461bcd60e51b8352820152603c60248201527f7570646174655472616e7366657257686974656c6973743a2043616e6e6f742060448201527f72656d6f76652078466c6173682066726f6d2077686974656c697374000000006064820152fd5b8580fd5b503461032757610b1d36611bfb565b9091600192610b306002855414156122eb565b600284558015610dc357600f548310610d8057610b4e813033611cf4565b33865260126020528486209284610b658284611fd2565b94875184815286602082015283898201527fbd5034ffbd47e4e72a94baa2cdb74c6fad73cb3bcdc13036b72ec8306f5a764660603392a28215610d715701610bae838254611cd1565b9055601154826000190481118616610d5e576064908302049182610cb7575b3388526013602052610be28789209242611cd1565b60018060a01b039182600754169389519760a0890189811067ffffffffffffffff821117610ca2578b528852602088019182528988019283526060880194855260808801958652805490600160401b821015610c8f5790610c47918a82018155611bc9565b979097610c7d575187555187870155516002860155600385019151166001600160601b0360a01b82541617905551910155805551f35b634e487b7160e01b8b528a875260248bfd5b634e487b7160e01b8c526041885260248cfd5b604189634e487b7160e01b6000525260246000fd5b6007548751906001600160a01b03166020820167ffffffffffffffff811183821017610d49578952898252899190803b1561032757610d1191839187838a8e5196879586948593631c75e36960e01b855233908501612337565b03925af18015610d3f57610d27575b5050610bcd565b610d3090611c69565b610d3b578738610d20565b8780fd5b89513d84823e3d90fd5b604187634e487b7160e01b6000525260246000fd5b634e487b7160e01b885260118452602488fd5b50505061061b92915033612718565b845162461bcd60e51b8152602081840152601860248201527f72656465656d3a206475726174696f6e20746f6f206c6f7700000000000000006044820152606490fd5b845162461bcd60e51b8152602081840152602360248201527f72656465656d3a2078466c617368416d6f756e742063616e6e6f74206265206e6044820152621d5b1b60ea1b6064820152608490fd5b50503461034a578160031936011261034a57517f00000000000000000000000000000000000000000000000000000000000000006001600160a01b03168152602090f35b50503461034a578160031936011261034a57610e70611c11565b600080546001600160a01b0319811682559151916001600160a01b03167f8be0079c531659141344cd1fd0a4f28419497f9722a3daafe3b4186f6b6457e08284a3f35b50503461034a57602036600319011261034a5760209181906001600160a01b03610edb611af6565b1681526002845220549051908152f35b50503461034a57602090610f07610f0136611bfb565b90611fd2565b9051908152f35b50503461034a578160031936011261034a576020905160648152f35b5034610327578160031936011261032757610f43611b51565b90610f53600260015414156122eb565b6002600155333b15610f6a579061080c9135612399565b606490602084519162461bcd60e51b8352820152601660248201527518dbdb9d995c9d151bce881b9bdd08185b1b1bddd95960521b6044820152fd5b9190503461034a57610fb736611b67565b9392610fcb600260019493945414156122eb565b6002600155610fdb828233612ae7565b6001600160a01b031690813b15610b0a5785809461100e89519788968795869463549230c960e01b86523390860161235e565b03925af1801561103a57611026575b50506001805551f35b61102f90611c69565b61034a57813861101d565b50505051903d90823e3d90fd5b50346103275760203660031901126103275780359060019161106d6002845414156122eb565b60028355338552601360205261108784862054821061208e565b3385526012602052848481206013602052846110a584888520611bc9565b509101938454946110bb87840196875490612081565b90556110c985543330611cf4565b80820154918261110d575b5050505061061b915484519081527f56d7520e387607a8daa892e3fed116badc2a636307bdc794b1c1aed97ae203f460203392a2612d1f565b600301548751906001600160a01b031661112682611c93565b848252803b1561069e57611153938580948b519687958694859363549230c960e01b855233908501612337565b03925af1801561117d57611169575b80806110d4565b61117290611c69565b61069e578438611162565b86513d84823e3d90fd5b50346103275781600319360112610327576111a0611af6565b6001600160a01b0390811684526013602052828420805460243595908610156107d7575060a09461040c91611bc9565b5091346107d75760203660031901126107d75750813560085481101561122d5760086000527ff3f7a9fe364faab93b216da50a3214154f22a0a2b415b23a84c8169e8b636ee3015490516001600160a01b03909116815260209150f35b603283634e487b7160e01b6000525260246000fd5b50503461034a578160031936011261034a576020906011549051908152f35b50503461034a578160031936011261034a5760075490516001600160a01b039091168152602090f35b50503461034a578060031936011261034a576020916112a7611af6565b826112b0611b51565b6001600160a01b039283168452600a8652922091166000908152908352819020549051908152f35b50503461034a578060031936011261034a5761080c6112f5611af6565b611304600260015414156122eb565b600260015560243590339061298a565b50503461034a578060031936011261034a5761072a60209282611335611af6565b91338152600386522060018060a01b038216600052845261135c6024358460002054611cd1565b9033611ed0565b50503461034a578160031936011261034a576020905160128152f35b5034610327576020366003190112610327578035906113a3600260015414156122eb565b600260015533845260136020526113be83852054831061208e565b33845260136020526113d282848620611bc9565b5060075460038201805490946001600160a01b039490938893928616928616838114159081611549575b5061140b575b83886001805551f35b810191825480611474575b505050505082549082600754169285519182528216602082015282858201527fa60c8f9118be22c9277a8129333d64ffda3de44ca7a5831d077a3127f1237a1860603392a26001600160a01b03191617905538808084818080611402565b885161147f81611c93565b858152823b15610b0a576114ab928692838c5180968195829463549230c960e01b8452338b8501612337565b03925af190811561153f57849161152b575b505084600754169154918751906114d382611c93565b848252803b1561069e57611500938580948b5196879586948593631c75e36960e01b855233908501612337565b03925af1801561117d57611517575b808080611416565b61152090611c69565b61069e57843861150f565b61153490611c69565b6103275782386114bd565b88513d86823e3d90fd5b90501515386113fc565b50503461034a578060031936011261034a57602091611570611af6565b82611579611b51565b6001600160a01b039283168452600b8652922091166000908152908352819020549051908152f35b5082903461034a57606036600319011261034a576115bd611af6565b6115c5611b51565b91846044359460018060a01b0384168152600360205220336000526020528460002054906000198203611601575b60208661072a878787611cf4565b84821061162a575091839161161f6020969561072a95033383611ed0565b9193948193506115f3565b606490602087519162461bcd60e51b8352820152601d60248201527f45524332303a20696e73756666696369656e7420616c6c6f77616e63650000006044820152fd5b50503461034a57602036600319011261034a576020906001600160a01b03611693611af6565b1660005260098252806000205415159051908152f35b5082903461034a576116ba36611b67565b939190926116cd600260015414156122eb565b60026001556116dd82823361298a565b6001600160a01b031691823b15610b0a57908580949392611713895197889687958694631c75e36960e01b86523390860161235e565b03925af1801561173a5761172b575b50906001805551f35b61173490611c69565b82611722565b83513d84823e3d90fd5b50503461034a578160031936011261034a57602090600d549051908152f35b503461032757826003193601126103275760209250549051908152f35b50503461034a578160031936011261034a576020906008549051908152f35b50346103275781600319360112610327576117b8611af6565b602435916117c4611c11565b60c8831161180f575060207f6ff024152fc2cd8071bc701f966036513eb03e243863f21d8218646faac0eaef9160018060a01b031692838652600c825280858720558451908152a251f35b606490602085519162461bcd60e51b8352820152601f60248201527f7570646174654465616c6c6f636174696f6e4665653a20746f6f2068696768006044820152fd5b50503461034a578060031936011261034a5760209061072a611872611af6565b6024359033611ed0565b50346103275760a03660031901126103275780359060243560443560643591608435936118a7611c11565b6118b382871115612125565b8383101561193357509160a093918360647f5b37d10782e41a6539b50d59366d4112a880236e4187e85b6d1514d20e07d9b89795111580611928575b6118f890612125565b84600d5580600e5581600f558260105583601155875194855260208501528684015260608301526080820152a151f35b5060648411156118ef565b608490602088519162461bcd60e51b8352820152602b60248201527f75706461746552656465656d53657474696e67733a2077726f6e67206475726160448201526a74696f6e2076616c75657360a81b6064820152fd5b5091346107d757806003193601126107d7578151918160055492600184811c91818616958615611a4d575b602096878510811461098f578899509688969785829a5291826000146109685750506001146119f15750505061090892916108f9910385611caf565b9190869350600583527f036b6384b5eca791c62761152d0c79bb0604c104a5fb6f4eb0703f3154bb3db05b828410611a3557505050820101816108f96109086108e6565b8054848a018601528895508794909301928101611a1c565b92607f16926119b5565b50503461034a57602036600319011261034a57611a72611af6565b611a7a611c11565b6001600160a01b03908116908115611ad2575b7f044c75b8fa43ce72364b4c23fdb8451beafbda46505bf44c76f0853a01ed4ade836007549281519084168152846020820152a16001600160a01b0319161760075551f35b83601155611a8d565b84903461034a578160031936011261034a578060c860209252f35b600435906001600160a01b0382168203611b0c57565b600080fd5b919082519283825260005b848110611b3d575050826000602080949584010152601f8019910116010190565b602081830181015184830182015201611b1c565b602435906001600160a01b0382168203611b0c57565b906060600319830112611b0c576004356001600160a01b0381168103611b0c57916024359160443567ffffffffffffffff92838211611b0c5780602383011215611b0c578160040135938411611b0c5760248483010111611b0c576024019190565b8054821015611be5576000526005602060002091020190600090565b634e487b7160e01b600052603260045260246000fd5b6040906003190112611b0c576004359060243590565b6000546001600160a01b03163303611c2557565b606460405162461bcd60e51b815260206004820152602060248201527f4f776e61626c653a2063616c6c6572206973206e6f7420746865206f776e65726044820152fd5b67ffffffffffffffff8111611c7d57604052565b634e487b7160e01b600052604160045260246000fd5b6020810190811067ffffffffffffffff821117611c7d57604052565b90601f8019910116810190811067ffffffffffffffff821117611c7d57604052565b91908201809211611cde57565b634e487b7160e01b600052601160045260246000fd5b6001600160a01b03908116918215611e7d5716918215611e2c57600090828252602091600983526040908181205415801590611e1d575b15611de1578481526002845281812054838110611d8e579181847fddf252ad1be2c89b69c2b068fc378daa952ba7f163c4a11628f55a4df523b3ef9695948884955260028752038282205587815220611d85838254611cd1565b905551908152a3565b825162461bcd60e51b815260048101869052602660248201527f45524332303a207472616e7366657220616d6f756e7420657863656564732062604482015265616c616e636560d01b6064820152608490fd5b815162461bcd60e51b81526004810185905260156024820152741d1c985b9cd9995c8e881b9bdd08185b1b1bddd959605a1b6044820152606490fd5b50858152818120541515611d2b565b60405162461bcd60e51b815260206004820152602360248201527f45524332303a207472616e7366657220746f20746865207a65726f206164647260448201526265737360e81b6064820152608490fd5b60405162461bcd60e51b815260206004820152602560248201527f45524332303a207472616e736665722066726f6d20746865207a65726f206164604482015264647265737360d81b6064820152608490fd5b6001600160a01b03908116918215611f815716918215611f315760207f8c5be1e5ebec7d5bd14f71427d1e84f3dd0314c0f7b2291e5b200ac8c7c3b925918360005260038252604060002085600052825280604060002055604051908152a3565b60405162461bcd60e51b815260206004820152602260248201527f45524332303a20617070726f766520746f20746865207a65726f206164647265604482015261737360f01b6064820152608490fd5b60405162461bcd60e51b8152602060048201526024808201527f45524332303a20617070726f76652066726f6d20746865207a65726f206164646044820152637265737360e01b6064820152608490fd5b90600f5490818110612079576010549081811161205c57611ff683600d5492612081565b9061200381600e54612081565b9260001994838604851184151516611cde5761201e91612081565b801561204657859361203293020490611cd1565b9104811182151516611cde57606491020490565b634e487b7160e01b600052601260045260246000fd5b505050600e548160001904811182151516611cde57606491020490565b505050600090565b91908203918211611cde57565b1561209557565b60405162461bcd60e51b815260206004820152602b60248201527f76616c696461746552656465656d3a2072656465656d20656e74727920646f6560448201526a1cc81b9bdd08195e1a5cdd60aa1b6064820152608490fd5b600854811015611be55760086000527ff3f7a9fe364faab93b216da50a3214154f22a0a2b415b23a84c8169e8b636ee30190600090565b1561212c57565b60405162461bcd60e51b815260206004820152602860248201527f75706461746552656465656d53657474696e67733a2077726f6e6720726174696044820152676f2076616c75657360c01b6064820152608490fd5b6000818152600960205260408120546121fc57600854600160401b8110156121e85790826121d46121bb846001604096016008556120ee565b819391549060031b600019811b9283911b169119161790565b905560085492815260096020522055600190565b634e487b7160e01b82526041600452602482fd5b905090565b60008181526009602052604081205490919080156122e657600019908082018181116122d257600854908382019182116122be5780820361228a575b505050600854801561227657810190612255826120ee565b909182549160031b1b19169055600855815260096020526040812055600190565b634e487b7160e01b84526031600452602484fd5b6122a86122996121bb936120ee565b90549060031b1c9283926120ee565b905584526009602052604084205538808061223d565b634e487b7160e01b86526011600452602486fd5b634e487b7160e01b85526011600452602485fd5b505090565b156122f257565b60405162461bcd60e51b815260206004820152601f60248201527f5265656e7472616e637947756172643a207265656e7472616e742063616c6c006044820152606490fd5b61235b939260609260018060a01b0316825260208201528160408201520190611b11565b90565b9284926080959260018060a01b03168552602085015260606040850152816060850152848401376000828201840152601f01601f1916010190565b80156124f9576001600160a01b039180831680156124b4576123bd83600454611cd1565b60045580600052600260205260406000206123d9848254611cd1565b905560007fddf252ad1be2c89b69c2b068fc378daa952ba7f163c4a11628f55a4df523b3ef6020604051868152a3604080516001600160a01b039290921682526020820183905233917fccfaeb3043a96a967dc036ab72e078a9632af809671bc2a1ac30a8043645f89e9190a2604051906323b872dd60e01b602083015233602483015230604483015260648201526064815260a081019181831067ffffffffffffffff841117611c7d576124b2926040527f00000000000000000000000000000000000000000000000000000000000000001661253e565b565b60405162461bcd60e51b815260206004820152601f60248201527f45524332303a206d696e7420746f20746865207a65726f2061646472657373006044820152606490fd5b60405162461bcd60e51b815260206004820152601e60248201527f636f6e766572743a20616d6f756e742063616e6e6f74206265206e756c6c00006044820152606490fd5b604080516001600160a01b039290921692909167ffffffffffffffff81840181811183821017611c7d5784526020948583527f5361666545524332303a206c6f772d6c6576656c2063616c6c206661696c656486840152803b156126905760008481959282898195519301915af13d15612682573d91821161266e57906125e392918551916125d688601f19601f8401160184611caf565b82523d858884013e6126d4565b8051806125f2575b5050505050565b8185918101031261034a57830151908115918215036107d75750612618578080806125eb565b60849250519062461bcd60e51b82526004820152602a60248201527f5361666545524332303a204552433230206f7065726174696f6e20646964206e6044820152691bdd081cdd58d8d9595960b21b6064820152fd5b634e487b7160e01b84526041600452602484fd5b6125e39291506060906126d4565b845162461bcd60e51b815260048101879052601d60248201527f416464726573733a2063616c6c20746f206e6f6e2d636f6e74726163740000006044820152606490fd5b909190156126e0575090565b8151156126f05750805190602001fd5b60405162461bcd60e51b815260206004820152908190612714906024830190611b11565b0390fd5b90916127248184612081565b60405163a9059cbb60e01b60208201526001600160a01b038481166024830152604480830185905282527f00000000000000000000000000000000000000000000000000000000000000008116949092909161278b90612785606482611caf565b8661253e565b843b15611b0c57600094602486926040519788938492630852cd8d60e31b845260048401525af192831561280c577f0da072ebd7a5649099f43a3776eb0cda17aca79426ee9f28aae203f5dfa04eda946040946127fd575b506127ee8630612818565b835195865260208601521692a2565b61280690611c69565b386127e3565b6040513d6000823e3d90fd5b6001600160a01b0316801561293b57600091818352602090600982526040808520541580159061292c575b156128f15783855260028352808520548281106128a25790827fddf252ad1be2c89b69c2b068fc378daa952ba7f163c4a11628f55a4df523b3ef94939286885260028552038187205561289882600454612081565b60045551908152a3565b815162461bcd60e51b815260048101859052602260248201527f45524332303a206275726e20616d6f756e7420657863656564732062616c616e604482015261636560f01b6064820152608490fd5b5162461bcd60e51b81526004810183905260156024820152741d1c985b9cd9995c8e881b9bdd08185b1b1bddd959605a1b6044820152606490fd5b50848052808520541515612843565b60405162461bcd60e51b815260206004820152602160248201527f45524332303a206275726e2066726f6d20746865207a65726f206164647265736044820152607360f81b6064820152608490fd5b92918015612aa25760018060a01b03808516916000958387526020926012845260409788812091600a8652898220971696878252855288812054848110612a5e5792612a57928592612a01847f5168bfb88d6125d4580e2b91ecb103a730312c3e8b0be9c4031a0fc794e2cd5f9a9b9c9d97612081565b8a8252600a89528682208c8352895286822055898152600b88528581208b8252885285612a318582842054611cd1565b918b8152600b8a528181208d82528a522055612a4e838254611cd1565b90553090611cf4565b51908152a3565b895162461bcd60e51b815260048101879052601f60248201527f616c6c6f636174653a206e6f6e20617574686f72697a656420616d6f756e74006044820152606490fd5b60405162461bcd60e51b815260206004820152601f60248201527f616c6c6f636174653a20616d6f756e742063616e6e6f74206265206e756c6c006044820152606490fd5b92918015612cd05760018060a01b03808516916000958387526020600b815260409380858a20971696878a52825284892054848110612c825784612b2a91612081565b868a52600b8352858a20888b528352858a2055600c82528489205484600019048111600116612c6e5790612b886127108b938702049488845260128552878420612b75888254612081565b9055612b818688612081565b9030611cf4565b7f000000000000000000000000000000000000000000000000000000000000000016803b1561034a5781906024875180948193630852cd8d60e31b83528860048401525af18015612c6457612c14575b507f7d613f7bd1a777aeeefdd38ae61201003086575188df50618d02482220f5c1479495969750612c098230612818565b8351928352820152a3565b67ffffffffffffffff8111612c5057845295965086957f7d613f7bd1a777aeeefdd38ae61201003086575188df50618d02482220f5c147612bd8565b634e487b7160e01b89526041600452602489fd5b85513d8b823e3d90fd5b634e487b7160e01b8a52601160045260248afd5b855162461bcd60e51b815260048101849052602160248201527f6465616c6c6f636174653a206e6f6e20617574686f72697a656420616d6f756e6044820152601d60fa1b6064820152608490fd5b60405162461bcd60e51b815260206004820152602160248201527f6465616c6c6f636174653a20616d6f756e742063616e6e6f74206265206e756c6044820152601b60fa1b6064820152608490fd5b600090338252601360205260408220906040832054600019928382019182116122d257612d6291612d4f91611bc9565b5091338552601360205260408520611bc9565b919091612e1357808203612dc9575b50503382526013602052604082209081548015612276570191612d948383611bc9565b612db557808260049255826001820155826002820155826003820155015555565b634e487b7160e01b82526004829052602482fd5b600481819254845560018101546001850155600281015460028501556003840160018060a01b036003830154166001600160601b0360a01b82541617905501549101553880612d71565b634e487b7160e01b84526004849052602484fdfea26469706673582212207f997591494d4f4bc0ab317af9dae3f8b243e75fd63218b64b551aeb10f6879164736f6c63430008100033",
  "linkReferences": {},
  "deployedLinkReferences": {}
}