{
  "_format": "hh-sol-artifact-1",
  "contractName": "YieldBooster",
  "sourceName": "contracts/YieldBooster.sol",
  "abi": [
    {
      "inputs": [
        {
          "internalType": "contract IXArtToken",
          "name": "xArtToken_",
          "type": "address"
        }
      ],
      "stateMutability": "nonpayable",
      "type": "constructor"
    },
    {
      "anonymous": false,
      "inputs": [
        {
          "indexed": true,
          "internalType": "address",
          "name": "userAddress",
          "type": "address"
        },
        {
          "indexed": true,
          "internalType": "address",
          "name": "poolAddress",
          "type": "address"
        },
        {
          "indexed": false,
          "internalType": "uint256",
          "name": "tokenId",
          "type": "uint256"
        },
        {
          "indexed": false,
          "internalType": "uint256",
          "name": "amount",
          "type": "uint256"
        }
      ],
      "name": "Allocate",
      "type": "event"
    },
    {
      "anonymous": false,
      "inputs": [
        {
          "indexed": true,
          "internalType": "address",
          "name": "userAddress",
          "type": "address"
        },
        {
          "indexed": true,
          "internalType": "address",
          "name": "poolAddress",
          "type": "address"
        },
        {
          "indexed": false,
          "internalType": "uint256",
          "name": "tokenId",
          "type": "uint256"
        },
        {
          "indexed": false,
          "internalType": "uint256",
          "name": "amount",
          "type": "uint256"
        }
      ],
      "name": "Deallocate",
      "type": "event"
    },
    {
      "anonymous": false,
      "inputs": [
        {
          "indexed": false,
          "internalType": "address",
          "name": "caller",
          "type": "address"
        },
        {
          "indexed": false,
          "internalType": "contract IERC20",
          "name": "token",
          "type": "address"
        },
        {
          "indexed": false,
          "internalType": "uint256",
          "name": "amount",
          "type": "uint256"
        }
      ],
      "name": "EmergencyWithdraw",
      "type": "event"
    },
    {
      "anonymous": false,
      "inputs": [
        {
          "indexed": true,
          "internalType": "address",
          "name": "previousOwner",
          "type": "address"
        },
        {
          "indexed": true,
          "internalType": "address",
          "name": "newOwner",
          "type": "address"
        }
      ],
      "name": "OwnershipTransferred",
      "type": "event"
    },
    {
      "anonymous": false,
      "inputs": [
        {
          "indexed": false,
          "internalType": "address",
          "name": "caller",
          "type": "address"
        },
        {
          "indexed": false,
          "internalType": "bool",
          "name": "status",
          "type": "bool"
        }
      ],
      "name": "UpdateForcedDeallocationStatus",
      "type": "event"
    },
    {
      "anonymous": false,
      "inputs": [
        {
          "indexed": false,
          "internalType": "uint256",
          "name": "newFloor",
          "type": "uint256"
        }
      ],
      "name": "UpdateTotalAllocationFloor",
      "type": "event"
    },
    {
      "inputs": [],
      "name": "MAX_TOTAL_ALLOCATION_FLOOR",
      "outputs": [
        {
          "internalType": "uint256",
          "name": "",
          "type": "uint256"
        }
      ],
      "stateMutability": "view",
      "type": "function"
    },
    {
      "inputs": [
        {
          "internalType": "address",
          "name": "userAddress",
          "type": "address"
        },
        {
          "internalType": "uint256",
          "name": "amount",
          "type": "uint256"
        },
        {
          "internalType": "bytes",
          "name": "data",
          "type": "bytes"
        }
      ],
      "name": "allocate",
      "outputs": [],
      "stateMutability": "nonpayable",
      "type": "function"
    },
    {
      "inputs": [
        {
          "internalType": "address",
          "name": "userAddress",
          "type": "address"
        },
        {
          "internalType": "uint256",
          "name": "amount",
          "type": "uint256"
        },
        {
          "internalType": "bytes",
          "name": "data",
          "type": "bytes"
        }
      ],
      "name": "deallocate",
      "outputs": [],
      "stateMutability": "nonpayable",
      "type": "function"
    },
    {
      "inputs": [
        {
          "internalType": "address",
          "name": "userAddress",
          "type": "address"
        },
        {
          "internalType": "uint256",
          "name": "tokenId",
          "type": "uint256"
        }
      ],
      "name": "deallocateAllFromPool",
      "outputs": [],
      "stateMutability": "nonpayable",
      "type": "function"
    },
    {
      "inputs": [
        {
          "internalType": "contract IERC20",
          "name": "token",
          "type": "address"
        }
      ],
      "name": "emergencyWithdraw",
      "outputs": [],
      "stateMutability": "nonpayable",
      "type": "function"
    },
    {
      "inputs": [],
      "name": "forceDeallocate",
      "outputs": [],
      "stateMutability": "nonpayable",
      "type": "function"
    },
    {
      "inputs": [],
      "name": "forcedDeallocationStatus",
      "outputs": [
        {
          "internalType": "bool",
          "name": "",
          "type": "bool"
        }
      ],
      "stateMutability": "view",
      "type": "function"
    },
    {
      "inputs": [
        {
          "internalType": "uint256",
          "name": "maxBoostMultiplier",
          "type": "uint256"
        },
        {
          "internalType": "uint256",
          "name": "lpAmount",
          "type": "uint256"
        },
        {
          "internalType": "uint256",
          "name": "totalLpSupply",
          "type": "uint256"
        },
        {
          "internalType": "uint256",
          "name": "userAllocation",
          "type": "uint256"
        },
        {
          "internalType": "uint256",
          "name": "poolTotalAllocation",
          "type": "uint256"
        }
      ],
      "name": "getExpectedMultiplier",
      "outputs": [
        {
          "internalType": "uint256",
          "name": "",
          "type": "uint256"
        }
      ],
      "stateMutability": "view",
      "type": "function"
    },
    {
      "inputs": [
        {
          "internalType": "address",
          "name": "poolAddress",
          "type": "address"
        },
        {
          "internalType": "uint256",
          "name": "maxBoostMultiplier",
          "type": "uint256"
        },
        {
          "internalType": "uint256",
          "name": "lpAmount",
          "type": "uint256"
        },
        {
          "internalType": "uint256",
          "name": "totalLpSupply",
          "type": "uint256"
        },
        {
          "internalType": "uint256",
          "name": "userAllocation",
          "type": "uint256"
        }
      ],
      "name": "getMultiplier",
      "outputs": [
        {
          "internalType": "uint256",
          "name": "",
          "type": "uint256"
        }
      ],
      "stateMutability": "view",
      "type": "function"
    },
    {
      "inputs": [
        {
          "internalType": "address",
          "name": "poolAddress",
          "type": "address"
        }
      ],
      "name": "getPoolTotalAllocation",
      "outputs": [
        {
          "internalType": "uint256",
          "name": "",
          "type": "uint256"
        }
      ],
      "stateMutability": "view",
      "type": "function"
    },
    {
      "inputs": [
        {
          "internalType": "address",
          "name": "userAddress",
          "type": "address"
        },
        {
          "internalType": "address",
          "name": "poolAddress",
          "type": "address"
        },
        {
          "internalType": "uint256",
          "name": "index",
          "type": "uint256"
        }
      ],
      "name": "getUserPosition",
      "outputs": [
        {
          "internalType": "uint256",
          "name": "",
          "type": "uint256"
        }
      ],
      "stateMutability": "view",
      "type": "function"
    },
    {
      "inputs": [
        {
          "internalType": "address",
          "name": "userAddress",
          "type": "address"
        },
        {
          "internalType": "address",
          "name": "poolAddress",
          "type": "address"
        },
        {
          "internalType": "uint256",
          "name": "tokenId",
          "type": "uint256"
        }
      ],
      "name": "getUserPositionAllocation",
      "outputs": [
        {
          "internalType": "uint256",
          "name": "",
          "type": "uint256"
        }
      ],
      "stateMutability": "view",
      "type": "function"
    },
    {
      "inputs": [
        {
          "internalType": "address",
          "name": "userAddress",
          "type": "address"
        },
        {
          "internalType": "address",
          "name": "poolAddress",
          "type": "address"
        }
      ],
      "name": "getUserPositionsLength",
      "outputs": [
        {
          "internalType": "uint256",
          "name": "",
          "type": "uint256"
        }
      ],
      "stateMutability": "view",
      "type": "function"
    },
    {
      "inputs": [
        {
          "internalType": "address",
          "name": "userAddress",
          "type": "address"
        }
      ],
      "name": "getUserTotalAllocation",
      "outputs": [
        {
          "internalType": "uint256",
          "name": "",
          "type": "uint256"
        }
      ],
      "stateMutability": "view",
      "type": "function"
    },
    {
      "inputs": [],
      "name": "owner",
      "outputs": [
        {
          "internalType": "address",
          "name": "",
          "type": "address"
        }
      ],
      "stateMutability": "view",
      "type": "function"
    },
    {
      "inputs": [],
      "name": "renounceOwnership",
      "outputs": [],
      "stateMutability": "nonpayable",
      "type": "function"
    },
    {
      "inputs": [
        {
          "internalType": "uint256",
          "name": "floor",
          "type": "uint256"
        }
      ],
      "name": "setTotalAllocationFloor",
      "outputs": [],
      "stateMutability": "nonpayable",
      "type": "function"
    },
    {
      "inputs": [],
      "name": "totalAllocation",
      "outputs": [
        {
          "internalType": "uint256",
          "name": "",
          "type": "uint256"
        }
      ],
      "stateMutability": "view",
      "type": "function"
    },
    {
      "inputs": [],
      "name": "totalAllocationFloor",
      "outputs": [
        {
          "internalType": "uint256",
          "name": "",
          "type": "uint256"
        }
      ],
      "stateMutability": "view",
      "type": "function"
    },
    {
      "inputs": [
        {
          "internalType": "address",
          "name": "newOwner",
          "type": "address"
        }
      ],
      "name": "transferOwnership",
      "outputs": [],
      "stateMutability": "nonpayable",
      "type": "function"
    },
    {
      "inputs": [
        {
          "internalType": "bool",
          "name": "status",
          "type": "bool"
        }
      ],
      "name": "updateForcedDeallocationStatus",
      "outputs": [],
      "stateMutability": "nonpayable",
      "type": "function"
    },
    {
      "inputs": [
        {
          "internalType": "address",
          "name": "",
          "type": "address"
        },
        {
          "internalType": "address",
          "name": "",
          "type": "address"
        },
        {
          "internalType": "uint256",
          "name": "",
          "type": "uint256"
        }
      ],
      "name": "usersPositionsAllocation",
      "outputs": [
        {
          "internalType": "uint256",
          "name": "",
          "type": "uint256"
        }
      ],
      "stateMutability": "view",
      "type": "function"
    },
    {
      "inputs": [],
      "name": "xArtToken",
      "outputs": [
        {
          "internalType": "contract IXArtToken",
          "name": "",
          "type": "address"
        }
      ],
      "stateMutability": "view",
      "type": "function"
    }
  ],
  "bytecode": "0x60a0346100d457601f61163238819003918201601f19168301916001600160401b038311848410176100d9578084926020946040528339810103126100d457516001600160a01b039081811681036100d4576000543360018060a01b0319821617600055604051923391167f8be0079c531659141344cd1fd0a4f28419497f9722a3daafe3b4186f6b6457e0600085a36001805568056bc75e2d6310000060025560805261154290816100f0823960805181818161013501528181610334015281816109bd01528181610b1e0152610cf70152f35b600080fd5b634e487b7160e01b600052604160045260246000fdfe6040608081526004908136101561001557600080fd5b600091823560e01c9081631c75e36914610cb65781631e5dd8b11461023957816324655fc314610c925781634e18951a14610c40578163532b655414610b7d578382635485435414610ab6578263549230c91461097e575081636ff1c9bc14610687578163715018a61461062a57816371a691ea146105f257816379203dc4146105d35781637d6aaab1146105875781638da5cb5b1461055f5781639a2b6f791461052c578163b24dd3f014610508578163b33c93a8146104d0578163c15cb9f414610469578163c72f5580146102e8578163d2eec6ff1461029b578163e23ec7fd1461027c578163e26a96bb14610239578163f2fde38b14610168575063fa07269a1461012257600080fd5b34610164578160031936011261016457517f00000000000000000000000000000000000000000000000000000000000000006001600160a01b03168152602090f35b5080fd5b90503461023557602036600319011261023557610183610e65565b61018b610f12565b6001600160a01b039081169182156101e3575060005492826bffffffffffffffffffffffff60a01b8516176000555192167f8be0079c531659141344cd1fd0a4f28419497f9722a3daafe3b4186f6b6457e0600084a3f35b608490602085519162461bcd60e51b8352820152602660248201527f4f776e61626c653a206e6577206f776e657220697320746865207a65726f206160448201526564647265737360d01b6064820152fd5b8280fd5b90503461023557602092829161024e36610edd565b6001600160a01b03928316855292875284842091166000908152908652839020908252845220549051908152f35b5050346101645781600319360112610164576020906002549051908152f35b5050346101645760a0366003190112610164576020916102e19082906001600160a01b036102c7610e65565b168152600685522054608435606435604435602435611147565b9051908152f35b90503461023557826003193601126102355761030960026001541415610f98565b600260015560ff60085416156104275781516316617ae760e11b8152338183015230602482015283917f00000000000000000000000000000000000000000000000000000000000000006001600160a01b031691602081604481865afa90811561041d5784916103e4575b50823b156103e057845163a0bdc7cb60e01b81523392810192835260208301919091529183918391908290849082906040015b03925af180156103d3576103bf575b50506001805551f35b6103c890610fe4565b6101645781386103b6565b50505051903d90823e3d90fd5b8380fd5b9350506020833d8211610415575b816103ff6020938361100e565b810103126104105784925138610374565b600080fd5b3d91506103f2565b85513d86823e3d90fd5b6020606492519162461bcd60e51b8352820152601d60248201527f666f7263654465616c6c6f636174653a20756e617574686f72697a65640000006044820152fd5b905034610235576020366003190112610235573580151580910361023557817ff82797bd475489f8533dffe42417dafb397877f3470ae89c491cdb90068a065c916104b2610f12565b60ff196008541660ff8216176008558151903382526020820152a151f35b5050346101645760203660031901126101645760209181906001600160a01b036104f8610e65565b1681526005845220549051908152f35b50503461016457816003193601126101645760209051683635c9adc5dea000008152f35b82843461055c5760a036600319011261055c57506102e16020926084359060643590604435906024359035611147565b80fd5b505034610164578160031936011261016457905490516001600160a01b039091168152602090f35b505034610164576105c58160209361059e36610edd565b6001600160a01b039283168452600388529390922091166000908152908552839020610f6a565b90549060031b1c9051908152f35b5050346101645781600319360112610164576020906007549051908152f35b5050346101645760203660031901126101645760209181906001600160a01b0361061a610e65565b1681526006845220549051908152f35b505034610164578160031936011261016457610644610f12565b600080546001600160a01b0319811682559151916001600160a01b03167f8be0079c531659141344cd1fd0a4f28419497f9722a3daafe3b4186f6b6457e08284a3f35b905034610235576020806003193601126103e05781356001600160a01b038116919082900361097a576106bf60026001541415610f98565b60026001556106cc610f12565b83516370a0823160e01b8152308482015260249282828581845afa918215610970578792610941575b5081156108ee577ff24ef89f38eadc1bde50701ad6e4d6d11a2dc24f7cf834a486991f38833285046060875133815283868201528489820152a1855163a9059cbb60e01b8482019081523386830190815260208101949094529281906040010391610768601f199384810184528361100e565b87519367ffffffffffffffff92858a01848111878210176108da578a528686527f5361666545524332303a206c6f772d6c6576656c2063616c6c206661696c656487870152823b1561089857518a9283929083905af1903d15610889573d90811161087557906107f49392916107e7868a5194601f840116018461100e565b82523d898684013e611048565b80519081610806575b86866001805551f35b8280610816938301019101611030565b156108225780806107fd565b90602a91608494519362461bcd60e51b85528401528201527f5361666545524332303a204552433230206f7065726174696f6e20646964206e6044820152691bdd081cdd58d8d9595960b21b6064820152fd5b85604188634e487b7160e01b600052526000fd5b506107f4929150606090611048565b895162461bcd60e51b8152808a01889052601d818a01527f416464726573733a2063616c6c20746f206e6f6e2d636f6e74726163740000006044820152606490fd5b8860418b634e487b7160e01b600052526000fd5b855162461bcd60e51b81528086018490526028818601527f656d657267656e637957697468647261773a20746f6b656e2062616c616e6365604482015267081a5cc81b9d5b1b60c21b6064820152608490fd5b9091508281813d8311610969575b610959818361100e565b81010312610410575190386106f5565b503d61094f565b86513d89823e3d90fd5b8480fd5b915034610164576109f7906109ec61099536610e7b565b93829692916109a960026001541415610f98565b60026001556001600160a01b03956109e4337f00000000000000000000000000000000000000000000000000000000000000008916146110c3565b810190611121565b9485911680946112ab565b8551634f558e7960e01b8152838101839052602081602481855afa908115610aac578691610a7e575b50610a2f575b84866001805551f35b803b1561097a578492836044928851968795869463480b7c1160e11b865285015260248401525af180156103d357610a6a575b808080610a26565b610a7390610fe4565b610164578138610a62565b610a9f915060203d8111610aa5575b610a97818361100e565b810190611030565b38610a20565b503d610a8d565b87513d88823e3d90fd5b915034610164578260031936011261016457610ad0610e65565b90602435610ae360026001541415610f98565b600260015560018060a01b038084168552826020528585203360005260205285600020828652602052610b1c86862054809333876112ab565b7f000000000000000000000000000000000000000000000000000000000000000016803b1561097a57855163a0bdc7cb60e01b81526001600160a01b03909416928401928352602083019190915283918391908290849082906040016103a7565b90503461023557602036600319011261023557803590610b9b610f12565b81151580610c2d575b15610bdb57506020817f74aa87c571361007131d906fd24194a1f1faf3463cd99cc28f632590aa6092e6926002558351908152a151f35b608490602084519162461bcd60e51b8352820152602660248201527f736574546f74616c416c6c6f636174696f6e466c6f6f723a20696e76616c696460448201526510333637b7b960d11b6064820152fd5b50683635c9adc5dea00000821115610ba4565b505034610164578060031936011261016457610c5a610e65565b6001600160a01b0392602435848116929190839003610410576020948492168152600385522090600052825280600020549051908152f35b50503461016457816003193601126101645760209060ff6008541690519015158152f35b8391503461016457610cc736610e7b565b610cdc60026001969496959395541415610f98565b60026001556001600160a01b03938491610d1e91906109e4337f00000000000000000000000000000000000000000000000000000000000000008616146110c3565b9416911680865260206005815287872054868101809111610e525782885260058252888820558381528787208388528152878720858852815287872054868101809111610e52578288528482528888208489528252888820868952825288882055818752600381528787208388528152610d9a8589892061121f565b50600754868101809111610e52576007558287526006815287872054868101809111610e5257888493927f5b9d56b28a7cde78f80ab41749028c18864c008e0e3722985c63ea258111b7eb92858b5260068252828b205588825191898352820152a3803b1561097a57849291836044928851968795869463102f9efb60e21b865285015260248401525af18015610e4857610e39575b50906001805551f35b610e4290610fe4565b82610e30565b83513d84823e3d90fd5b634e487b7160e01b885260118552602488fd5b600435906001600160a01b038216820361041057565b906060600319830112610410576004356001600160a01b038116810361041057916024359160443567ffffffffffffffff9283821161041057806023830112156104105781600401359384116104105760248483010111610410576024019190565b6060906003190112610410576001600160a01b0390600435828116810361041057916024359081168103610410579060443590565b6000546001600160a01b03163303610f2657565b606460405162461bcd60e51b815260206004820152602060248201527f4f776e61626c653a2063616c6c6572206973206e6f7420746865206f776e65726044820152fd5b8054821015610f825760005260206000200190600090565b634e487b7160e01b600052603260045260246000fd5b15610f9f57565b60405162461bcd60e51b815260206004820152601f60248201527f5265656e7472616e637947756172643a207265656e7472616e742063616c6c006044820152606490fd5b67ffffffffffffffff8111610ff857604052565b634e487b7160e01b600052604160045260246000fd5b90601f8019910116810190811067ffffffffffffffff821117610ff857604052565b90816020910312610410575180151581036104105790565b90919015611054575090565b8151156110645750805190602001fd5b6040519062461bcd60e51b82528160208060048301528251908160248401526000935b8285106110aa575050604492506000838284010152601f80199101168101030190fd5b8481018201518686016044015293810193859350611087565b156110ca57565b60405162461bcd60e51b815260206004820152602960248201527f78417274546f6b656e4f6e6c793a2063616c6c65722073686f756c64206265206044820152683c20b93a2a37b5b2b760b91b6064820152608490fd5b91908260409103126104105781356001600160a01b038116810361041057916020013590565b9390926002548083106111ee575b50811580156111e6575b80156111de575b80156111d6575b80156111ce575b6111c457846111896111949461118e936111f6565b6111f6565b926111f6565b9081156111ae570490808210156111a9575090565b905090565b634e487b7160e01b600052601260045260246000fd5b5050505050600090565b508415611174565b50821561116d565b508015611166565b50831561115f565b915038611155565b8060001904821181151516611209570290565b634e487b7160e01b600052601160045260246000fd5b919060018301600090828252806020526040822054156000146112a557845494680100000000000000008610156112915783611281611268886001604098999a01855584610f6a565b819391549060031b600019811b9283911b169119161790565b9055549382526020522055600190565b634e487b7160e01b83526041600452602483fd5b50925050565b6001600160a01b03908116600081815260046020908152604080832095909416808352948152838220868352815283822054979694959294918289106113bd5761135d838798999a7f7d613f7bd1a777aeeefdd38ae61201003086575188df50618d02482220f5c14798845260058552611328828986205461140f565b8a8552600586528885205561133d828261140f565b8a8552600486528885208c8652865288852088865286528885205561140f565b1561139c575b61136f8360075461140f565b6007558781526006825284611387848284205461140f565b918981526006845220558351928352820152a3565b8681526003825284812088825282526113b78486832061141c565b50611363565b845162461bcd60e51b815260048101839052602560248201527f6465616c6c6f636174653a206e6f7420656e6f75676820616c6c6f6361746564604482015264081e105c9d60da1b6064820152608490fd5b9190820391821161120957565b9060018201906000928184528260205260408420549081151560001461150557600019918083018181116114f1578254908482019182116114dd578082036114a8575b50505080548015611494578201916114778383610f6a565b909182549160031b1b191690555582526020526040812055600190565b634e487b7160e01b86526031600452602486fd5b6114c86114b86112689386610f6a565b90549060031b1c92839286610f6a565b9055865284602052604086205538808061145f565b634e487b7160e01b88526011600452602488fd5b634e487b7160e01b87526011600452602487fd5b505050509056fea2646970667358221220f0b41a78d8262f115e704218cab80ceb499490049dd249faa7119232a88c352e64736f6c63430008100033",
  "linkReferences": {},
  "deployedLinkReferences": {}
}