{
  "_format": "hh-sol-artifact-1",
  "contractName": "YieldBooster",
  "sourceName": "contracts/YieldBooster.sol",
  "abi": [
    {
      "inputs": [
        {
          "internalType": "contract IXFlashToken",
          "name": "xFlashToken_",
          "type": "address"
        }
      ],
      "stateMutability": "nonpayable",
      "type": "constructor"
    },
    {
      "anonymous": false,
      "inputs": [
        {
          "indexed": true,
          "internalType": "address",
          "name": "userAddress",
          "type": "address"
        },
        {
          "indexed": true,
          "internalType": "address",
          "name": "poolAddress",
          "type": "address"
        },
        {
          "indexed": false,
          "internalType": "uint256",
          "name": "tokenId",
          "type": "uint256"
        },
        {
          "indexed": false,
          "internalType": "uint256",
          "name": "amount",
          "type": "uint256"
        }
      ],
      "name": "Allocate",
      "type": "event"
    },
    {
      "anonymous": false,
      "inputs": [
        {
          "indexed": true,
          "internalType": "address",
          "name": "userAddress",
          "type": "address"
        },
        {
          "indexed": true,
          "internalType": "address",
          "name": "poolAddress",
          "type": "address"
        },
        {
          "indexed": false,
          "internalType": "uint256",
          "name": "tokenId",
          "type": "uint256"
        },
        {
          "indexed": false,
          "internalType": "uint256",
          "name": "amount",
          "type": "uint256"
        }
      ],
      "name": "Deallocate",
      "type": "event"
    },
    {
      "anonymous": false,
      "inputs": [
        {
          "indexed": false,
          "internalType": "address",
          "name": "caller",
          "type": "address"
        },
        {
          "indexed": false,
          "internalType": "contract IERC20",
          "name": "token",
          "type": "address"
        },
        {
          "indexed": false,
          "internalType": "uint256",
          "name": "amount",
          "type": "uint256"
        }
      ],
      "name": "EmergencyWithdraw",
      "type": "event"
    },
    {
      "anonymous": false,
      "inputs": [
        {
          "indexed": true,
          "internalType": "address",
          "name": "previousOwner",
          "type": "address"
        },
        {
          "indexed": true,
          "internalType": "address",
          "name": "newOwner",
          "type": "address"
        }
      ],
      "name": "OwnershipTransferred",
      "type": "event"
    },
    {
      "anonymous": false,
      "inputs": [
        {
          "indexed": false,
          "internalType": "address",
          "name": "caller",
          "type": "address"
        },
        {
          "indexed": false,
          "internalType": "bool",
          "name": "status",
          "type": "bool"
        }
      ],
      "name": "UpdateForcedDeallocationStatus",
      "type": "event"
    },
    {
      "anonymous": false,
      "inputs": [
        {
          "indexed": false,
          "internalType": "uint256",
          "name": "newFloor",
          "type": "uint256"
        }
      ],
      "name": "UpdateTotalAllocationFloor",
      "type": "event"
    },
    {
      "inputs": [],
      "name": "MAX_TOTAL_ALLOCATION_FLOOR",
      "outputs": [
        {
          "internalType": "uint256",
          "name": "",
          "type": "uint256"
        }
      ],
      "stateMutability": "view",
      "type": "function"
    },
    {
      "inputs": [
        {
          "internalType": "address",
          "name": "userAddress",
          "type": "address"
        },
        {
          "internalType": "uint256",
          "name": "amount",
          "type": "uint256"
        },
        {
          "internalType": "bytes",
          "name": "data",
          "type": "bytes"
        }
      ],
      "name": "allocate",
      "outputs": [],
      "stateMutability": "nonpayable",
      "type": "function"
    },
    {
      "inputs": [
        {
          "internalType": "address",
          "name": "userAddress",
          "type": "address"
        },
        {
          "internalType": "uint256",
          "name": "amount",
          "type": "uint256"
        },
        {
          "internalType": "bytes",
          "name": "data",
          "type": "bytes"
        }
      ],
      "name": "deallocate",
      "outputs": [],
      "stateMutability": "nonpayable",
      "type": "function"
    },
    {
      "inputs": [
        {
          "internalType": "address",
          "name": "userAddress",
          "type": "address"
        },
        {
          "internalType": "uint256",
          "name": "tokenId",
          "type": "uint256"
        }
      ],
      "name": "deallocateAllFromPool",
      "outputs": [],
      "stateMutability": "nonpayable",
      "type": "function"
    },
    {
      "inputs": [
        {
          "internalType": "contract IERC20",
          "name": "token",
          "type": "address"
        }
      ],
      "name": "emergencyWithdraw",
      "outputs": [],
      "stateMutability": "nonpayable",
      "type": "function"
    },
    {
      "inputs": [],
      "name": "forceDeallocate",
      "outputs": [],
      "stateMutability": "nonpayable",
      "type": "function"
    },
    {
      "inputs": [],
      "name": "forcedDeallocationStatus",
      "outputs": [
        {
          "internalType": "bool",
          "name": "",
          "type": "bool"
        }
      ],
      "stateMutability": "view",
      "type": "function"
    },
    {
      "inputs": [
        {
          "internalType": "uint256",
          "name": "maxBoostMultiplier",
          "type": "uint256"
        },
        {
          "internalType": "uint256",
          "name": "lpAmount",
          "type": "uint256"
        },
        {
          "internalType": "uint256",
          "name": "totalLpSupply",
          "type": "uint256"
        },
        {
          "internalType": "uint256",
          "name": "userAllocation",
          "type": "uint256"
        },
        {
          "internalType": "uint256",
          "name": "poolTotalAllocation",
          "type": "uint256"
        }
      ],
      "name": "getExpectedMultiplier",
      "outputs": [
        {
          "internalType": "uint256",
          "name": "",
          "type": "uint256"
        }
      ],
      "stateMutability": "view",
      "type": "function"
    },
    {
      "inputs": [
        {
          "internalType": "address",
          "name": "poolAddress",
          "type": "address"
        },
        {
          "internalType": "uint256",
          "name": "maxBoostMultiplier",
          "type": "uint256"
        },
        {
          "internalType": "uint256",
          "name": "lpAmount",
          "type": "uint256"
        },
        {
          "internalType": "uint256",
          "name": "totalLpSupply",
          "type": "uint256"
        },
        {
          "internalType": "uint256",
          "name": "userAllocation",
          "type": "uint256"
        }
      ],
      "name": "getMultiplier",
      "outputs": [
        {
          "internalType": "uint256",
          "name": "",
          "type": "uint256"
        }
      ],
      "stateMutability": "view",
      "type": "function"
    },
    {
      "inputs": [
        {
          "internalType": "address",
          "name": "poolAddress",
          "type": "address"
        }
      ],
      "name": "getPoolTotalAllocation",
      "outputs": [
        {
          "internalType": "uint256",
          "name": "",
          "type": "uint256"
        }
      ],
      "stateMutability": "view",
      "type": "function"
    },
    {
      "inputs": [
        {
          "internalType": "address",
          "name": "userAddress",
          "type": "address"
        },
        {
          "internalType": "address",
          "name": "poolAddress",
          "type": "address"
        },
        {
          "internalType": "uint256",
          "name": "index",
          "type": "uint256"
        }
      ],
      "name": "getUserPosition",
      "outputs": [
        {
          "internalType": "uint256",
          "name": "",
          "type": "uint256"
        }
      ],
      "stateMutability": "view",
      "type": "function"
    },
    {
      "inputs": [
        {
          "internalType": "address",
          "name": "userAddress",
          "type": "address"
        },
        {
          "internalType": "address",
          "name": "poolAddress",
          "type": "address"
        },
        {
          "internalType": "uint256",
          "name": "tokenId",
          "type": "uint256"
        }
      ],
      "name": "getUserPositionAllocation",
      "outputs": [
        {
          "internalType": "uint256",
          "name": "",
          "type": "uint256"
        }
      ],
      "stateMutability": "view",
      "type": "function"
    },
    {
      "inputs": [
        {
          "internalType": "address",
          "name": "userAddress",
          "type": "address"
        },
        {
          "internalType": "address",
          "name": "poolAddress",
          "type": "address"
        }
      ],
      "name": "getUserPositionsLength",
      "outputs": [
        {
          "internalType": "uint256",
          "name": "",
          "type": "uint256"
        }
      ],
      "stateMutability": "view",
      "type": "function"
    },
    {
      "inputs": [
        {
          "internalType": "address",
          "name": "userAddress",
          "type": "address"
        }
      ],
      "name": "getUserTotalAllocation",
      "outputs": [
        {
          "internalType": "uint256",
          "name": "",
          "type": "uint256"
        }
      ],
      "stateMutability": "view",
      "type": "function"
    },
    {
      "inputs": [],
      "name": "owner",
      "outputs": [
        {
          "internalType": "address",
          "name": "",
          "type": "address"
        }
      ],
      "stateMutability": "view",
      "type": "function"
    },
    {
      "inputs": [],
      "name": "renounceOwnership",
      "outputs": [],
      "stateMutability": "nonpayable",
      "type": "function"
    },
    {
      "inputs": [
        {
          "internalType": "uint256",
          "name": "floor",
          "type": "uint256"
        }
      ],
      "name": "setTotalAllocationFloor",
      "outputs": [],
      "stateMutability": "nonpayable",
      "type": "function"
    },
    {
      "inputs": [],
      "name": "totalAllocation",
      "outputs": [
        {
          "internalType": "uint256",
          "name": "",
          "type": "uint256"
        }
      ],
      "stateMutability": "view",
      "type": "function"
    },
    {
      "inputs": [],
      "name": "totalAllocationFloor",
      "outputs": [
        {
          "internalType": "uint256",
          "name": "",
          "type": "uint256"
        }
      ],
      "stateMutability": "view",
      "type": "function"
    },
    {
      "inputs": [
        {
          "internalType": "address",
          "name": "newOwner",
          "type": "address"
        }
      ],
      "name": "transferOwnership",
      "outputs": [],
      "stateMutability": "nonpayable",
      "type": "function"
    },
    {
      "inputs": [
        {
          "internalType": "bool",
          "name": "status",
          "type": "bool"
        }
      ],
      "name": "updateForcedDeallocationStatus",
      "outputs": [],
      "stateMutability": "nonpayable",
      "type": "function"
    },
    {
      "inputs": [
        {
          "internalType": "address",
          "name": "",
          "type": "address"
        },
        {
          "internalType": "address",
          "name": "",
          "type": "address"
        },
        {
          "internalType": "uint256",
          "name": "",
          "type": "uint256"
        }
      ],
      "name": "usersPositionsAllocation",
      "outputs": [
        {
          "internalType": "uint256",
          "name": "",
          "type": "uint256"
        }
      ],
      "stateMutability": "view",
      "type": "function"
    },
    {
      "inputs": [],
      "name": "xFlashToken",
      "outputs": [
        {
          "internalType": "contract IXFlashToken",
          "name": "",
          "type": "address"
        }
      ],
      "stateMutability": "view",
      "type": "function"
    }
  ],
  "bytecode": "0x60a0346100d457601f61163338819003918201601f19168301916001600160401b038311848410176100d9578084926020946040528339810103126100d457516001600160a01b039081811681036100d4576000543360018060a01b0319821617600055604051923391167f8be0079c531659141344cd1fd0a4f28419497f9722a3daafe3b4186f6b6457e0600085a36001805568056bc75e2d6310000060025560805261154390816100f082396080518181816102ec0152818161097401528181610ad601528181610c5e0152610cf20152f35b600080fd5b634e487b7160e01b600052604160045260246000fdfe6040608081526004908136101561001557600080fd5b600091823560e01c80631c75e36914610cb15780631e5dd8b1146101ef57806324655fc314610c8d57806328cfcaf914610c495780634e18951a14610bf7578063532b655414610b35578381635485435414610a6d578163549230c914610934575080636ff1c9bc1461063e578063715018a6146105e157806371a691ea146105a957806379203dc41461058a5780637d6aaab11461053e5780638da5cb5b146105165780639a2b6f79146104e3578063b24dd3f0146104bf578063b33c93a814610487578063c15cb9f414610421578063c72f5580146102a1578063d2eec6ff14610254578063e23ec7fd14610231578063e26a96bb146101ef5763f2fde38b1461012057600080fd5b346101eb5760203660031901126101eb57610139610e60565b610141610f0d565b6001600160a01b03908116918215610199575060005492826bffffffffffffffffffffffff60a01b8516176000555192167f8be0079c531659141344cd1fd0a4f28419497f9722a3daafe3b4186f6b6457e0600084a3f35b608490602085519162461bcd60e51b8352820152602660248201527f4f776e61626c653a206e6577206f776e657220697320746865207a65726f206160448201526564647265737360d01b6064820152fd5b8280fd5b50346101eb57602092829161020336610ed8565b6001600160a01b03928316855292875284842091166000908152908652839020908252845220549051908152f35b5050346102505781600319360112610250576020906002549051908152f35b5080fd5b5050346102505760a03660031901126102505760209161029a9082906001600160a01b03610280610e60565b168152600685522054608435606435604435602435611146565b9051908152f35b50346101eb57826003193601126101eb576102c160026001541415610f93565b600260015560ff60085416156103df5781516316617ae760e11b8152338183015230602482015283917f00000000000000000000000000000000000000000000000000000000000000006001600160a01b031691602081604481865afa9081156103d557849161039c575b50823b1561039857845163a0bdc7cb60e01b81523392810192835260208301919091529183918391908290849082906040015b03925af1801561038b57610377575b50506001805551f35b61038090610fdf565b61025057813861036e565b50505051903d90823e3d90fd5b8380fd5b9350506020833d82116103cd575b816103b760209383611009565b810103126103c8578492513861032c565b600080fd5b3d91506103aa565b85513d86823e3d90fd5b6020606492519162461bcd60e51b8352820152601d60248201527f666f7263654465616c6c6f636174653a20756e617574686f72697a65640000006044820152fd5b50346101eb5760203660031901126101eb57358015158091036101eb57817ff82797bd475489f8533dffe42417dafb397877f3470ae89c491cdb90068a065c91610469610f0d565b60ff196008541660ff8216176008558151903382526020820152a151f35b5050346102505760203660031901126102505760209181906001600160a01b036104af610e60565b1681526005845220549051908152f35b50503461025057816003193601126102505760209051683635c9adc5dea000008152f35b5091346105135760a0366003190112610513575061029a6020926084359060643590604435906024359035611146565b80fd5b505034610250578160031936011261025057905490516001600160a01b039091168152602090f35b5050346102505761057c8160209361055536610ed8565b6001600160a01b039283168452600388529390922091166000908152908552839020610f65565b90549060031b1c9051908152f35b5050346102505781600319360112610250576020906007549051908152f35b5050346102505760203660031901126102505760209181906001600160a01b036105d1610e60565b1681526006845220549051908152f35b5050346102505781600319360112610250576105fb610f0d565b600080546001600160a01b0319811682559151916001600160a01b03167f8be0079c531659141344cd1fd0a4f28419497f9722a3daafe3b4186f6b6457e08284a3f35b50346101eb576020806003193601126103985781356001600160a01b03811691908290036109305761067560026001541415610f93565b6002600155610682610f0d565b83516370a0823160e01b8152308482015260249282828581845afa9182156109265787926108f7575b5081156108a4577ff24ef89f38eadc1bde50701ad6e4d6d11a2dc24f7cf834a486991f38833285046060875133815283868201528489820152a1855163a9059cbb60e01b848201908152338683019081526020810194909452928190604001039161071e601f1993848101845283611009565b87519367ffffffffffffffff92858a0184811187821017610890578a528686527f5361666545524332303a206c6f772d6c6576656c2063616c6c206661696c656487870152823b1561084e57518a9283929083905af1903d1561083f573d90811161082b57906107aa93929161079d868a5194601f8401160184611009565b82523d898684013e611043565b805190816107bc575b86866001805551f35b82806107cc93830101910161102b565b156107d85780806107b3565b90602a91608494519362461bcd60e51b85528401528201527f5361666545524332303a204552433230206f7065726174696f6e20646964206e6044820152691bdd081cdd58d8d9595960b21b6064820152fd5b85604188634e487b7160e01b600052526000fd5b506107aa929150606090611043565b895162461bcd60e51b8152808a01889052601d818a01527f416464726573733a2063616c6c20746f206e6f6e2d636f6e74726163740000006044820152606490fd5b8860418b634e487b7160e01b600052526000fd5b855162461bcd60e51b81528086018490526028818601527f656d657267656e637957697468647261773a20746f6b656e2062616c616e6365604482015267081a5cc81b9d5b1b60c21b6064820152608490fd5b9091508281813d831161091f575b61090f8183611009565b810103126103c8575190386106ab565b503d610905565b86513d89823e3d90fd5b8480fd5b91905034610250576109ae906109a361094c36610e76565b938296929161096060026001541415610f93565b60026001556001600160a01b039561099b337f00000000000000000000000000000000000000000000000000000000000000008916146110be565b810190611120565b9485911680946112aa565b8551634f558e7960e01b8152838101839052602081602481855afa908115610a63578691610a35575b506109e6575b84866001805551f35b803b15610930578492836044928851968795869463480b7c1160e11b865285015260248401525af1801561038b57610a21575b8080806109dd565b610a2a90610fdf565b610250578138610a19565b610a56915060203d8111610a5c575b610a4e8183611009565b81019061102b565b386109d7565b503d610a44565b87513d88823e3d90fd5b91905034610250578260031936011261025057610a88610e60565b90602435610a9b60026001541415610f93565b600260015560018060a01b038084168552826020528585203360005260205285600020828652602052610ad486862054809333876112aa565b7f000000000000000000000000000000000000000000000000000000000000000016803b1561093057855163a0bdc7cb60e01b81526001600160a01b039094169284019283526020830191909152839183919082908490829060400161035f565b50346101eb5760203660031901126101eb57803590610b52610f0d565b81151580610be4575b15610b9257506020817f74aa87c571361007131d906fd24194a1f1faf3463cd99cc28f632590aa6092e6926002558351908152a151f35b608490602084519162461bcd60e51b8352820152602660248201527f736574546f74616c416c6c6f636174696f6e466c6f6f723a20696e76616c696460448201526510333637b7b960d11b6064820152fd5b50683635c9adc5dea00000821115610b5b565b505034610250578060031936011261025057610c11610e60565b6001600160a01b03926024358481169291908390036103c8576020948492168152600385522090600052825280600020549051908152f35b505034610250578160031936011261025057517f00000000000000000000000000000000000000000000000000000000000000006001600160a01b03168152602090f35b50503461025057816003193601126102505760209060ff6008541690519015158152f35b5082903461025057610cc236610e76565b610cd760026001969496959395541415610f93565b60026001556001600160a01b03938491610d19919061099b337f00000000000000000000000000000000000000000000000000000000000000008616146110be565b9416911680865260206005815287872054868101809111610e4d5782885260058252888820558381528787208388528152878720858852815287872054868101809111610e4d578288528482528888208489528252888820868952825288882055818752600381528787208388528152610d958589892061121e565b50600754868101809111610e4d576007558287526006815287872054868101809111610e4d57888493927f5b9d56b28a7cde78f80ab41749028c18864c008e0e3722985c63ea258111b7eb92858b5260068252828b205588825191898352820152a3803b1561093057849291836044928851968795869463102f9efb60e21b865285015260248401525af18015610e4357610e34575b50906001805551f35b610e3d90610fdf565b82610e2b565b83513d84823e3d90fd5b634e487b7160e01b885260118552602488fd5b600435906001600160a01b03821682036103c857565b9060606003198301126103c8576004356001600160a01b03811681036103c857916024359160443567ffffffffffffffff928382116103c857806023830112156103c85781600401359384116103c857602484830101116103c8576024019190565b60609060031901126103c8576001600160a01b039060043582811681036103c8579160243590811681036103c8579060443590565b6000546001600160a01b03163303610f2157565b606460405162461bcd60e51b815260206004820152602060248201527f4f776e61626c653a2063616c6c6572206973206e6f7420746865206f776e65726044820152fd5b8054821015610f7d5760005260206000200190600090565b634e487b7160e01b600052603260045260246000fd5b15610f9a57565b60405162461bcd60e51b815260206004820152601f60248201527f5265656e7472616e637947756172643a207265656e7472616e742063616c6c006044820152606490fd5b67ffffffffffffffff8111610ff357604052565b634e487b7160e01b600052604160045260246000fd5b90601f8019910116810190811067ffffffffffffffff821117610ff357604052565b908160209103126103c8575180151581036103c85790565b9091901561104f575090565b81511561105f5750805190602001fd5b6040519062461bcd60e51b82528160208060048301528251908160248401526000935b8285106110a5575050604492506000838284010152601f80199101168101030190fd5b8481018201518686016044015293810193859350611082565b156110c557565b60405162461bcd60e51b815260206004820152602d60248201527f78466c617368546f6b656e4f6e6c793a2063616c6c65722073686f756c64206260448201526c32903c233630b9b42a37b5b2b760991b6064820152608490fd5b91908260409103126103c85781356001600160a01b03811681036103c857916020013590565b9390926002548083106111ed575b50811580156111e5575b80156111dd575b80156111d5575b80156111cd575b6111c357846111886111939461118d936111f5565b6111f5565b926111f5565b9081156111ad570490808210156111a8575090565b905090565b634e487b7160e01b600052601260045260246000fd5b5050505050600090565b508415611173565b50821561116c565b508015611165565b50831561115e565b915038611154565b8060001904821181151516611208570290565b634e487b7160e01b600052601160045260246000fd5b919060018301600090828252806020526040822054156000146112a457845494680100000000000000008610156112905783611280611267886001604098999a01855584610f65565b819391549060031b600019811b9283911b169119161790565b9055549382526020522055600190565b634e487b7160e01b83526041600452602483fd5b50925050565b6001600160a01b03908116600081815260046020908152604080832095909416808352948152838220868352815283822054979694959294918289106113bc5761135c838798999a7f7d613f7bd1a777aeeefdd38ae61201003086575188df50618d02482220f5c147988452600585526113278289862054611410565b8a8552600586528885205561133c8282611410565b8a8552600486528885208c86528652888520888652865288852055611410565b1561139b575b61136e83600754611410565b60075587815260068252846113868482842054611410565b918981526006845220558351928352820152a3565b8681526003825284812088825282526113b68486832061141d565b50611362565b845162461bcd60e51b815260048101839052602760248201527f6465616c6c6f636174653a206e6f7420656e6f75676820616c6c6f6361746564604482015266040f08cd8c2e6d60cb1b6064820152608490fd5b9190820391821161120857565b9060018201906000928184528260205260408420549081151560001461150657600019918083018181116114f2578254908482019182116114de578082036114a9575b50505080548015611495578201916114788383610f65565b909182549160031b1b191690555582526020526040812055600190565b634e487b7160e01b86526031600452602486fd5b6114c96114b96112679386610f65565b90549060031b1c92839286610f65565b90558652846020526040862055388080611460565b634e487b7160e01b88526011600452602488fd5b634e487b7160e01b87526011600452602487fd5b505050509056fea26469706673582212205301e0052f307077d4340085a885a586c13819c5051ff75c52cebcbe89bdd5e064736f6c63430008100033",
  "linkReferences": {},
  "deployedLinkReferences": {}
}