{
  "_format": "hh-sol-artifact-1",
  "contractName": "YieldBooster",
  "sourceName": "contracts/YieldBooster.sol",
  "abi": [
    {
      "inputs": [
        {
          "internalType": "contract IXArtToken",
          "name": "xArtToken_",
          "type": "address"
        }
      ],
      "stateMutability": "nonpayable",
      "type": "constructor"
    },
    {
      "anonymous": false,
      "inputs": [
        {
          "indexed": true,
          "internalType": "address",
          "name": "userAddress",
          "type": "address"
        },
        {
          "indexed": true,
          "internalType": "address",
          "name": "poolAddress",
          "type": "address"
        },
        {
          "indexed": false,
          "internalType": "uint256",
          "name": "tokenId",
          "type": "uint256"
        },
        {
          "indexed": false,
          "internalType": "uint256",
          "name": "amount",
          "type": "uint256"
        }
      ],
      "name": "Allocate",
      "type": "event"
    },
    {
      "anonymous": false,
      "inputs": [
        {
          "indexed": true,
          "internalType": "address",
          "name": "userAddress",
          "type": "address"
        },
        {
          "indexed": true,
          "internalType": "address",
          "name": "poolAddress",
          "type": "address"
        },
        {
          "indexed": false,
          "internalType": "uint256",
          "name": "tokenId",
          "type": "uint256"
        },
        {
          "indexed": false,
          "internalType": "uint256",
          "name": "amount",
          "type": "uint256"
        }
      ],
      "name": "Deallocate",
      "type": "event"
    },
    {
      "anonymous": false,
      "inputs": [
        {
          "indexed": false,
          "internalType": "address",
          "name": "caller",
          "type": "address"
        },
        {
          "indexed": false,
          "internalType": "contract IERC20",
          "name": "token",
          "type": "address"
        },
        {
          "indexed": false,
          "internalType": "uint256",
          "name": "amount",
          "type": "uint256"
        }
      ],
      "name": "EmergencyWithdraw",
      "type": "event"
    },
    {
      "anonymous": false,
      "inputs": [
        {
          "indexed": true,
          "internalType": "address",
          "name": "previousOwner",
          "type": "address"
        },
        {
          "indexed": true,
          "internalType": "address",
          "name": "newOwner",
          "type": "address"
        }
      ],
      "name": "OwnershipTransferred",
      "type": "event"
    },
    {
      "anonymous": false,
      "inputs": [
        {
          "indexed": false,
          "internalType": "address",
          "name": "caller",
          "type": "address"
        },
        {
          "indexed": false,
          "internalType": "bool",
          "name": "status",
          "type": "bool"
        }
      ],
      "name": "UpdateForcedDeallocationStatus",
      "type": "event"
    },
    {
      "anonymous": false,
      "inputs": [
        {
          "indexed": false,
          "internalType": "uint256",
          "name": "newFloor",
          "type": "uint256"
        }
      ],
      "name": "UpdateTotalAllocationFloor",
      "type": "event"
    },
    {
      "inputs": [],
      "name": "MAX_TOTAL_ALLOCATION_FLOOR",
      "outputs": [
        {
          "internalType": "uint256",
          "name": "",
          "type": "uint256"
        }
      ],
      "stateMutability": "view",
      "type": "function"
    },
    {
      "inputs": [
        {
          "internalType": "address",
          "name": "userAddress",
          "type": "address"
        },
        {
          "internalType": "uint256",
          "name": "amount",
          "type": "uint256"
        },
        {
          "internalType": "bytes",
          "name": "data",
          "type": "bytes"
        }
      ],
      "name": "allocate",
      "outputs": [],
      "stateMutability": "nonpayable",
      "type": "function"
    },
    {
      "inputs": [
        {
          "internalType": "address",
          "name": "userAddress",
          "type": "address"
        },
        {
          "internalType": "uint256",
          "name": "amount",
          "type": "uint256"
        },
        {
          "internalType": "bytes",
          "name": "data",
          "type": "bytes"
        }
      ],
      "name": "deallocate",
      "outputs": [],
      "stateMutability": "nonpayable",
      "type": "function"
    },
    {
      "inputs": [
        {
          "internalType": "address",
          "name": "userAddress",
          "type": "address"
        },
        {
          "internalType": "uint256",
          "name": "tokenId",
          "type": "uint256"
        }
      ],
      "name": "deallocateAllFromPool",
      "outputs": [],
      "stateMutability": "nonpayable",
      "type": "function"
    },
    {
      "inputs": [
        {
          "internalType": "contract IERC20",
          "name": "token",
          "type": "address"
        }
      ],
      "name": "emergencyWithdraw",
      "outputs": [],
      "stateMutability": "nonpayable",
      "type": "function"
    },
    {
      "inputs": [],
      "name": "forceDeallocate",
      "outputs": [],
      "stateMutability": "nonpayable",
      "type": "function"
    },
    {
      "inputs": [],
      "name": "forcedDeallocationStatus",
      "outputs": [
        {
          "internalType": "bool",
          "name": "",
          "type": "bool"
        }
      ],
      "stateMutability": "view",
      "type": "function"
    },
    {
      "inputs": [
        {
          "internalType": "uint256",
          "name": "maxBoostMultiplier",
          "type": "uint256"
        },
        {
          "internalType": "uint256",
          "name": "lpAmount",
          "type": "uint256"
        },
        {
          "internalType": "uint256",
          "name": "totalLpSupply",
          "type": "uint256"
        },
        {
          "internalType": "uint256",
          "name": "userAllocation",
          "type": "uint256"
        },
        {
          "internalType": "uint256",
          "name": "poolTotalAllocation",
          "type": "uint256"
        }
      ],
      "name": "getExpectedMultiplier",
      "outputs": [
        {
          "internalType": "uint256",
          "name": "",
          "type": "uint256"
        }
      ],
      "stateMutability": "view",
      "type": "function"
    },
    {
      "inputs": [
        {
          "internalType": "address",
          "name": "poolAddress",
          "type": "address"
        },
        {
          "internalType": "uint256",
          "name": "maxBoostMultiplier",
          "type": "uint256"
        },
        {
          "internalType": "uint256",
          "name": "lpAmount",
          "type": "uint256"
        },
        {
          "internalType": "uint256",
          "name": "totalLpSupply",
          "type": "uint256"
        },
        {
          "internalType": "uint256",
          "name": "userAllocation",
          "type": "uint256"
        }
      ],
      "name": "getMultiplier",
      "outputs": [
        {
          "internalType": "uint256",
          "name": "",
          "type": "uint256"
        }
      ],
      "stateMutability": "view",
      "type": "function"
    },
    {
      "inputs": [
        {
          "internalType": "address",
          "name": "poolAddress",
          "type": "address"
        }
      ],
      "name": "getPoolTotalAllocation",
      "outputs": [
        {
          "internalType": "uint256",
          "name": "",
          "type": "uint256"
        }
      ],
      "stateMutability": "view",
      "type": "function"
    },
    {
      "inputs": [
        {
          "internalType": "address",
          "name": "userAddress",
          "type": "address"
        },
        {
          "internalType": "address",
          "name": "poolAddress",
          "type": "address"
        },
        {
          "internalType": "uint256",
          "name": "index",
          "type": "uint256"
        }
      ],
      "name": "getUserPosition",
      "outputs": [
        {
          "internalType": "uint256",
          "name": "",
          "type": "uint256"
        }
      ],
      "stateMutability": "view",
      "type": "function"
    },
    {
      "inputs": [
        {
          "internalType": "address",
          "name": "userAddress",
          "type": "address"
        },
        {
          "internalType": "address",
          "name": "poolAddress",
          "type": "address"
        },
        {
          "internalType": "uint256",
          "name": "tokenId",
          "type": "uint256"
        }
      ],
      "name": "getUserPositionAllocation",
      "outputs": [
        {
          "internalType": "uint256",
          "name": "",
          "type": "uint256"
        }
      ],
      "stateMutability": "view",
      "type": "function"
    },
    {
      "inputs": [
        {
          "internalType": "address",
          "name": "userAddress",
          "type": "address"
        },
        {
          "internalType": "address",
          "name": "poolAddress",
          "type": "address"
        }
      ],
      "name": "getUserPositionsLength",
      "outputs": [
        {
          "internalType": "uint256",
          "name": "",
          "type": "uint256"
        }
      ],
      "stateMutability": "view",
      "type": "function"
    },
    {
      "inputs": [
        {
          "internalType": "address",
          "name": "userAddress",
          "type": "address"
        }
      ],
      "name": "getUserTotalAllocation",
      "outputs": [
        {
          "internalType": "uint256",
          "name": "",
          "type": "uint256"
        }
      ],
      "stateMutability": "view",
      "type": "function"
    },
    {
      "inputs": [],
      "name": "owner",
      "outputs": [
        {
          "internalType": "address",
          "name": "",
          "type": "address"
        }
      ],
      "stateMutability": "view",
      "type": "function"
    },
    {
      "inputs": [],
      "name": "renounceOwnership",
      "outputs": [],
      "stateMutability": "nonpayable",
      "type": "function"
    },
    {
      "inputs": [
        {
          "internalType": "uint256",
          "name": "floor",
          "type": "uint256"
        }
      ],
      "name": "setTotalAllocationFloor",
      "outputs": [],
      "stateMutability": "nonpayable",
      "type": "function"
    },
    {
      "inputs": [],
      "name": "totalAllocation",
      "outputs": [
        {
          "internalType": "uint256",
          "name": "",
          "type": "uint256"
        }
      ],
      "stateMutability": "view",
      "type": "function"
    },
    {
      "inputs": [],
      "name": "totalAllocationFloor",
      "outputs": [
        {
          "internalType": "uint256",
          "name": "",
          "type": "uint256"
        }
      ],
      "stateMutability": "view",
      "type": "function"
    },
    {
      "inputs": [
        {
          "internalType": "address",
          "name": "newOwner",
          "type": "address"
        }
      ],
      "name": "transferOwnership",
      "outputs": [],
      "stateMutability": "nonpayable",
      "type": "function"
    },
    {
      "inputs": [
        {
          "internalType": "bool",
          "name": "status",
          "type": "bool"
        }
      ],
      "name": "updateForcedDeallocationStatus",
      "outputs": [],
      "stateMutability": "nonpayable",
      "type": "function"
    },
    {
      "inputs": [
        {
          "internalType": "address",
          "name": "",
          "type": "address"
        },
        {
          "internalType": "address",
          "name": "",
          "type": "address"
        },
        {
          "internalType": "uint256",
          "name": "",
          "type": "uint256"
        }
      ],
      "name": "usersPositionsAllocation",
      "outputs": [
        {
          "internalType": "uint256",
          "name": "",
          "type": "uint256"
        }
      ],
      "stateMutability": "view",
      "type": "function"
    },
    {
      "inputs": [],
      "name": "xArtToken",
      "outputs": [
        {
          "internalType": "contract IXArtToken",
          "name": "",
          "type": "address"
        }
      ],
      "stateMutability": "view",
      "type": "function"
    }
  ],
  "bytecode": "0x60a060405268056bc75e2d6310000060025534801561001d57600080fd5b506040516119b73803806119b783398101604081905261003c916100aa565b6100453361005a565b600180556001600160a01b03166080526100da565b600080546001600160a01b038381166001600160a01b0319831681178455604051919092169283917f8be0079c531659141344cd1fd0a4f28419497f9722a3daafe3b4186f6b6457e09190a35050565b6000602082840312156100bc57600080fd5b81516001600160a01b03811681146100d357600080fd5b9392505050565b60805161189f61011860003960008181610347015281816103a40152818161061f015281816106b601528181610a710152610b03015261189f6000f3fe608060405234801561001057600080fd5b506004361061014d5760003560e01c80637d6aaab1116100c3578063c72f55801161007c578063c72f5580146102da578063d2eec6ff146102e2578063e23ec7fd146102f5578063e26a96bb146102fe578063f2fde38b1461032f578063fa07269a1461034257600080fd5b80637d6aaab1146102435780638da5cb5b146102565780639a2b6f791461027b578063b24dd3f01461028e578063b33c93a81461029e578063c15cb9f4146102c757600080fd5b8063548543541161011557806354854354146101d0578063549230c9146101e35780636ff1c9bc146101f6578063715018a61461020957806371a691ea1461021157806379203dc41461023a57600080fd5b80631c75e369146101525780631e5dd8b11461016757806324655fc31461018d5780634e18951a146101aa578063532b6554146101bd575b600080fd5b610165610160366004611488565b610369565b005b61017a610175366004611511565b61046e565b6040519081526020015b60405180910390f35b60085461019a9060ff1681565b6040519015158152602001610184565b61017a6101b8366004611552565b6104a4565b6101656101cb36600461158b565b6104dd565b6101656101de3660046115a4565b610595565b6101656101f1366004611488565b610684565b6101656102043660046115d0565b6107c0565b610165610922565b61017a61021f3660046115d0565b6001600160a01b031660009081526006602052604090205490565b61017a60075481565b61017a610251366004611511565b610936565b6000546001600160a01b03165b6040516001600160a01b039091168152602001610184565b61017a6102893660046115ed565b61096f565b61017a683635c9adc5dea0000081565b61017a6102ac3660046115d0565b6001600160a01b031660009081526005602052604090205490565b6101656102d5366004611636565b61098a565b6101656109da565b61017a6102f0366004611653565b610b6e565b61017a60025481565b61017a61030c366004611511565b600460209081526000938452604080852082529284528284209052825290205481565b61016561033d3660046115d0565b610b98565b6102637f000000000000000000000000000000000000000000000000000000000000000081565b6002600154036103945760405162461bcd60e51b815260040161038b90611697565b60405180910390fd5b6002600155336001600160a01b037f000000000000000000000000000000000000000000000000000000000000000016146103e15760405162461bcd60e51b815260040161038b906116ce565b6000806103f0838501856115a4565b9150915061040086838388610c11565b60405163102f9efb60e21b815260048101829052602481018690526001600160a01b038316906340be7bec906044015b600060405180830381600087803b15801561044a57600080fd5b505af115801561045e573d6000803e3d6000fd5b5050600180555050505050505050565b6001600160a01b0380841660009081526004602090815260408083209386168352928152828220848352905220545b9392505050565b6001600160a01b03808316600090815260036020908152604080832093851683529290529081206104d490610d5e565b90505b92915050565b6104e5610d68565b6000811180156104fe5750683635c9adc5dea000008111155b6105595760405162461bcd60e51b815260206004820152602660248201527f736574546f74616c416c6c6f636174696f6e466c6f6f723a20696e76616c696460448201526510333637b7b960d11b606482015260840161038b565b60028190556040518181527f74aa87c571361007131d906fd24194a1f1faf3463cd99cc28f632590aa6092e6906020015b60405180910390a150565b6002600154036105b75760405162461bcd60e51b815260040161038b90611697565b60026001556001600160a01b03821660009081526004602090815260408083203380855290835281842085855290925290912054906105f99084908484610dc2565b60405163a0bdc7cb60e01b81526001600160a01b038481166004830152602482018390527f0000000000000000000000000000000000000000000000000000000000000000169063a0bdc7cb90604401600060405180830381600087803b15801561066357600080fd5b505af1158015610677573d6000803e3d6000fd5b5050600180555050505050565b6002600154036106a65760405162461bcd60e51b815260040161038b90611697565b6002600155336001600160a01b037f000000000000000000000000000000000000000000000000000000000000000016146106f35760405162461bcd60e51b815260040161038b906116ce565b600080610702838501856115a4565b9150915061071286838388610dc2565b604051634f558e7960e01b8152600481018290526001600160a01b03831690634f558e7990602401602060405180830381865afa158015610757573d6000803e3d6000fd5b505050506040513d601f19601f8201168201806040525081019061077b9190611717565b156107b45760405163480b7c1160e11b815260048101829052602481018690526001600160a01b03831690639016f82290604401610430565b50506001805550505050565b6002600154036107e25760405162461bcd60e51b815260040161038b90611697565b60026001556107ef610d68565b6040516370a0823160e01b81523060048201526000906001600160a01b038316906370a0823190602401602060405180830381865afa158015610836573d6000803e3d6000fd5b505050506040513d601f19601f8201168201806040525081019061085a9190611734565b9050600081116108bd5760405162461bcd60e51b815260206004820152602860248201527f656d657267656e637957697468647261773a20746f6b656e2062616c616e6365604482015267081a5cc81b9d5b1b60c21b606482015260840161038b565b604080513381526001600160a01b03841660208201529081018290527ff24ef89f38eadc1bde50701ad6e4d6d11a2dc24f7cf834a486991f38833285049060600160405180910390a161091a6001600160a01b0383163383610f9b565b505060018055565b61092a610d68565b6109346000610ff2565b565b6001600160a01b03808416600090815260036020908152604080832093861683529290529081206109679083611042565b949350505050565b600061097e868686868661104e565b90505b95945050505050565b610992610d68565b6008805460ff19168215159081179091556040805133815260208101929092527ff82797bd475489f8533dffe42417dafb397877f3470ae89c491cdb90068a065c910161058a565b6002600154036109fc5760405162461bcd60e51b815260040161038b90611697565b600260015560085460ff16610a535760405162461bcd60e51b815260206004820152601d60248201527f666f7263654465616c6c6f636174653a20756e617574686f72697a6564000000604482015260640161038b565b6040516316617ae760e11b81523360048201523060248201526000907f00000000000000000000000000000000000000000000000000000000000000006001600160a01b031690632cc2f5ce90604401602060405180830381865afa158015610ac0573d6000803e3d6000fd5b505050506040513d601f19601f82011682018060405250810190610ae49190611734565b60405163a0bdc7cb60e01b8152336004820152602481018290529091507f00000000000000000000000000000000000000000000000000000000000000006001600160a01b03169063a0bdc7cb90604401600060405180830381600087803b158015610b4f57600080fd5b505af1158015610b63573d6000803e3d6000fd5b505060018055505050565b6001600160a01b03851660009081526006602052604081205461097e90869086908690869061104e565b610ba0610d68565b6001600160a01b038116610c055760405162461bcd60e51b815260206004820152602660248201527f4f776e61626c653a206e6577206f776e657220697320746865207a65726f206160448201526564647265737360d01b606482015260840161038b565b610c0e81610ff2565b50565b6001600160a01b038416600090815260056020526040902054610c3490826110d3565b6001600160a01b038086166000908152600560209081526040808320949094556004815283822092871682529182528281208582529091522054610c7890826110d3565b6001600160a01b0380861660008181526004602090815260408083209489168084529482528083208884528252808320959095559181526003825283812092815291905220610cc790836110df565b50600754610cd590826110d3565b6007556001600160a01b038316600090815260066020526040902054610cfb90826110d3565b6001600160a01b038481166000818152600660209081526040918290209490945580518681529384018590529092918716917f5b9d56b28a7cde78f80ab41749028c18864c008e0e3722985c63ea258111b7eb910160405180910390a350505050565b60006104d7825490565b6000546001600160a01b031633146109345760405162461bcd60e51b815260206004820181905260248201527f4f776e61626c653a2063616c6c6572206973206e6f7420746865206f776e6572604482015260640161038b565b6001600160a01b03808516600090815260046020908152604080832093871683529281528282208583529052205481811015610e4e5760405162461bcd60e51b815260206004820152602560248201527f6465616c6c6f636174653a206e6f7420656e6f75676820616c6c6f6361746564604482015264081e105c9d60da1b606482015260840161038b565b6001600160a01b038516600090815260056020526040902054610e7190836110eb565b6001600160a01b038616600090815260056020526040902055610e9481836110eb565b6001600160a01b038087166000908152600460209081526040808320938916835292815282822087835290522055610ecc81836110eb565b600003610f04576001600160a01b038086166000908152600360209081526040808320938816835292905220610f0290846110f7565b505b600754610f1190836110eb565b6007556001600160a01b038416600090815260066020526040902054610f3790836110eb565b6001600160a01b038581166000818152600660209081526040918290209490945580518781529384018690529092918816917f7d613f7bd1a777aeeefdd38ae61201003086575188df50618d02482220f5c147910160405180910390a35050505050565b604080516001600160a01b038416602482015260448082018490528251808303909101815260649091019091526020810180516001600160e01b031663a9059cbb60e01b179052610fed908490611103565b505050565b600080546001600160a01b038381166001600160a01b0319831681178455604051919092169283917f8be0079c531659141344cd1fd0a4f28419497f9722a3daafe3b4186f6b6457e09190a35050565b60006104d483836111d5565b60006002548210156110605760025491505b81158061106b575084155b80611074575082155b8061107d575083155b80611086575085155b1561109357506000610981565b60006110bc6110a287856111ff565b6110b6896110b0888a6111ff565b906111ff565b9061120b565b90506110c88188611217565b979650505050505050565b60006104d48284611763565b60006104d4838361122d565b60006104d48284611776565b60006104d4838361127c565b6000611158826040518060400160405280602081526020017f5361666545524332303a206c6f772d6c6576656c2063616c6c206661696c6564815250856001600160a01b031661136f9092919063ffffffff16565b805190915015610fed57808060200190518101906111769190611717565b610fed5760405162461bcd60e51b815260206004820152602a60248201527f5361666545524332303a204552433230206f7065726174696f6e20646964206e6044820152691bdd081cdd58d8d9595960b21b606482015260840161038b565b60008260000182815481106111ec576111ec611789565b9060005260206000200154905092915050565b60006104d4828461179f565b60006104d482846117be565b600081831061122657816104d4565b5090919050565b6000818152600183016020526040812054611274575081546001818101845560008481526020808220909301849055845484825282860190935260409020919091556104d7565b5060006104d7565b600081815260018301602052604081205480156113655760006112a0600183611776565b85549091506000906112b490600190611776565b90508181146113195760008660000182815481106112d4576112d4611789565b90600052602060002001549050808760000184815481106112f7576112f7611789565b6000918252602080832090910192909255918252600188019052604090208390555b855486908061132a5761132a6117e0565b6001900381819060005260206000200160009055905585600101600086815260200190815260200160002060009055600193505050506104d7565b60009150506104d7565b60606109678484600085856001600160a01b0385163b6113d15760405162461bcd60e51b815260206004820152601d60248201527f416464726573733a2063616c6c20746f206e6f6e2d636f6e7472616374000000604482015260640161038b565b600080866001600160a01b031685876040516113ed919061181a565b60006040518083038185875af1925050503d806000811461142a576040519150601f19603f3d011682016040523d82523d6000602084013e61142f565b606091505b50915091506110c88282866060831561144957508161049d565b8251156114595782518084602001fd5b8160405162461bcd60e51b815260040161038b9190611836565b6001600160a01b0381168114610c0e57600080fd5b6000806000806060858703121561149e57600080fd5b84356114a981611473565b935060208501359250604085013567ffffffffffffffff808211156114cd57600080fd5b818701915087601f8301126114e157600080fd5b8135818111156114f057600080fd5b88602082850101111561150257600080fd5b95989497505060200194505050565b60008060006060848603121561152657600080fd5b833561153181611473565b9250602084013561154181611473565b929592945050506040919091013590565b6000806040838503121561156557600080fd5b823561157081611473565b9150602083013561158081611473565b809150509250929050565b60006020828403121561159d57600080fd5b5035919050565b600080604083850312156115b757600080fd5b82356115c281611473565b946020939093013593505050565b6000602082840312156115e257600080fd5b813561049d81611473565b600080600080600060a0868803121561160557600080fd5b505083359560208501359550604085013594606081013594506080013592509050565b8015158114610c0e57600080fd5b60006020828403121561164857600080fd5b813561049d81611628565b600080600080600060a0868803121561166b57600080fd5b853561167681611473565b97602087013597506040870135966060810135965060800135945092505050565b6020808252601f908201527f5265656e7472616e637947756172643a207265656e7472616e742063616c6c00604082015260600190565b60208082526029908201527f78417274546f6b656e4f6e6c793a2063616c6c65722073686f756c64206265206040820152683c20b93a2a37b5b2b760b91b606082015260800190565b60006020828403121561172957600080fd5b815161049d81611628565b60006020828403121561174657600080fd5b5051919050565b634e487b7160e01b600052601160045260246000fd5b808201808211156104d7576104d761174d565b818103818111156104d7576104d761174d565b634e487b7160e01b600052603260045260246000fd5b60008160001904831182151516156117b9576117b961174d565b500290565b6000826117db57634e487b7160e01b600052601260045260246000fd5b500490565b634e487b7160e01b600052603160045260246000fd5b60005b838110156118115781810151838201526020016117f9565b50506000910152565b6000825161182c8184602087016117f6565b9190910192915050565b60208152600082518060208401526118558160408501602087016117f6565b601f01601f1916919091016040019291505056fea26469706673582212202031e8816007b1cbaac0c83a926a76de8f54da2f581fc5f48cce6ee31efb19ce64736f6c63430008100033",
  "linkReferences": {},
  "deployedLinkReferences": {}
}